{
  "_format": "hh-sol-artifact-1",
  "contractName": "Community",
  "sourceName": "contracts/Community.sol",
  "abi": [
    {
      "inputs": [
        {
          "internalType": "string",
          "name": "_url",
          "type": "string"
        },
        {
          "internalType": "uint256",
          "name": "_ownerId",
          "type": "uint256"
        },
        {
          "internalType": "uint256",
          "name": "_ownerCredits",
          "type": "uint256"
        },
        {
          "internalType": "string",
          "name": "_name",
          "type": "string"
        },
        {
          "internalType": "enum Types.Template",
          "name": "_template",
          "type": "uint8"
        },
        {
          "internalType": "uint8",
          "name": "_positionalValue1",
          "type": "uint8"
        },
        {
          "internalType": "uint8",
          "name": "_positionalValue2",
          "type": "uint8"
        },
        {
          "internalType": "uint8",
          "name": "_positionalValue3",
          "type": "uint8"
        },
        {
          "internalType": "address",
          "name": "skillWalletAddress",
          "type": "address"
        },
        {
          "internalType": "address",
          "name": "communityRegistryAddress",
          "type": "address"
        }
      ],
      "stateMutability": "nonpayable",
      "type": "constructor"
    },
    {
      "anonymous": false,
      "inputs": [
        {
          "indexed": true,
          "internalType": "address",
          "name": "account",
          "type": "address"
        },
        {
          "indexed": true,
          "internalType": "address",
          "name": "operator",
          "type": "address"
        },
        {
          "indexed": false,
          "internalType": "bool",
          "name": "approved",
          "type": "bool"
        }
      ],
      "name": "ApprovalForAll",
      "type": "event"
    },
    {
      "anonymous": false,
      "inputs": [
        {
          "indexed": false,
          "internalType": "address",
          "name": "_member",
          "type": "address"
        },
        {
          "indexed": false,
          "internalType": "uint256",
          "name": "_skillWalletTokenId",
          "type": "uint256"
        },
        {
          "indexed": false,
          "internalType": "uint256",
          "name": "_transferredTokens",
          "type": "uint256"
        }
      ],
      "name": "MemberAdded",
      "type": "event"
    },
    {
      "anonymous": false,
      "inputs": [
        {
          "indexed": false,
          "internalType": "address",
          "name": "_member",
          "type": "address"
        }
      ],
      "name": "MemberLeft",
      "type": "event"
    },
    {
      "anonymous": false,
      "inputs": [
        {
          "indexed": true,
          "internalType": "address",
          "name": "operator",
          "type": "address"
        },
        {
          "indexed": true,
          "internalType": "address",
          "name": "from",
          "type": "address"
        },
        {
          "indexed": true,
          "internalType": "address",
          "name": "to",
          "type": "address"
        },
        {
          "indexed": false,
          "internalType": "uint256[]",
          "name": "ids",
          "type": "uint256[]"
        },
        {
          "indexed": false,
          "internalType": "uint256[]",
          "name": "values",
          "type": "uint256[]"
        }
      ],
      "name": "TransferBatch",
      "type": "event"
    },
    {
      "anonymous": false,
      "inputs": [
        {
          "indexed": true,
          "internalType": "address",
          "name": "operator",
          "type": "address"
        },
        {
          "indexed": true,
          "internalType": "address",
          "name": "from",
          "type": "address"
        },
        {
          "indexed": true,
          "internalType": "address",
          "name": "to",
          "type": "address"
        },
        {
          "indexed": false,
          "internalType": "uint256",
          "name": "id",
          "type": "uint256"
        },
        {
          "indexed": false,
          "internalType": "uint256",
          "name": "value",
          "type": "uint256"
        }
      ],
      "name": "TransferSingle",
      "type": "event"
    },
    {
      "anonymous": false,
      "inputs": [
        {
          "indexed": false,
          "internalType": "string",
          "name": "value",
          "type": "string"
        },
        {
          "indexed": true,
          "internalType": "uint256",
          "name": "id",
          "type": "uint256"
        }
      ],
      "name": "URI",
      "type": "event"
    },
    {
      "inputs": [],
      "name": "activeMembersCount",
      "outputs": [
        {
          "internalType": "uint16",
          "name": "",
          "type": "uint16"
        }
      ],
      "stateMutability": "view",
      "type": "function"
    },
    {
      "inputs": [
        {
          "internalType": "address",
          "name": "_owner",
          "type": "address"
        },
        {
          "internalType": "uint256",
          "name": "_id",
          "type": "uint256"
        }
      ],
      "name": "balanceOf",
      "outputs": [
        {
          "internalType": "uint256",
          "name": "",
          "type": "uint256"
        }
      ],
      "stateMutability": "view",
      "type": "function"
    },
    {
      "inputs": [
        {
          "internalType": "address[]",
          "name": "_owners",
          "type": "address[]"
        },
        {
          "internalType": "uint256[]",
          "name": "_ids",
          "type": "uint256[]"
        }
      ],
      "name": "balanceOfBatch",
      "outputs": [
        {
          "internalType": "uint256[]",
          "name": "",
          "type": "uint256[]"
        }
      ],
      "stateMutability": "view",
      "type": "function"
    },
    {
      "inputs": [
        {
          "internalType": "address",
          "name": "_owner",
          "type": "address"
        }
      ],
      "name": "diToCreditsBalance",
      "outputs": [
        {
          "internalType": "uint256",
          "name": "",
          "type": "uint256"
        }
      ],
      "stateMutability": "view",
      "type": "function"
    },
    {
      "inputs": [],
      "name": "getMembership",
      "outputs": [
        {
          "internalType": "contract Membership",
          "name": "",
          "type": "address"
        }
      ],
      "stateMutability": "view",
      "type": "function"
    },
    {
      "inputs": [],
      "name": "getPositionalValues",
      "outputs": [
        {
          "internalType": "uint16[3]",
          "name": "",
          "type": "uint16[3]"
        }
      ],
      "stateMutability": "view",
      "type": "function"
    },
    {
      "inputs": [],
      "name": "getSkillWalletIds",
      "outputs": [
        {
          "internalType": "uint256[]",
          "name": "skillWalletIds",
          "type": "uint256[]"
        }
      ],
      "stateMutability": "view",
      "type": "function"
    },
    {
      "inputs": [],
      "name": "getTemplate",
      "outputs": [
        {
          "internalType": "enum Types.Template",
          "name": "",
          "type": "uint8"
        }
      ],
      "stateMutability": "view",
      "type": "function"
    },
    {
      "inputs": [
        {
          "internalType": "address",
          "name": "_owner",
          "type": "address"
        },
        {
          "internalType": "address",
          "name": "_operator",
          "type": "address"
        }
      ],
      "name": "isApprovedForAll",
      "outputs": [
        {
          "internalType": "bool",
          "name": "",
          "type": "bool"
        }
      ],
      "stateMutability": "view",
      "type": "function"
    },
    {
      "inputs": [
        {
          "internalType": "uint256",
          "name": "",
          "type": "uint256"
        }
      ],
      "name": "isMember",
      "outputs": [
        {
          "internalType": "bool",
          "name": "",
          "type": "bool"
        }
      ],
      "stateMutability": "view",
      "type": "function"
    },
    {
      "inputs": [
        {
          "internalType": "uint256",
          "name": "skillWalletTokenId",
          "type": "uint256"
        },
        {
          "internalType": "uint256",
          "name": "credits",
          "type": "uint256"
        }
      ],
      "name": "join",
      "outputs": [],
      "stateMutability": "nonpayable",
      "type": "function"
    },
    {
      "inputs": [
        {
          "internalType": "address",
          "name": "newMemberAddress",
          "type": "address"
        },
        {
          "internalType": "uint64",
          "name": "displayStringId1",
          "type": "uint64"
        },
        {
          "internalType": "uint8",
          "name": "level1",
          "type": "uint8"
        },
        {
          "internalType": "uint64",
          "name": "displayStringId2",
          "type": "uint64"
        },
        {
          "internalType": "uint8",
          "name": "level2",
          "type": "uint8"
        },
        {
          "internalType": "uint64",
          "name": "displayStringId3",
          "type": "uint64"
        },
        {
          "internalType": "uint8",
          "name": "level3",
          "type": "uint8"
        },
        {
          "internalType": "string",
          "name": "uri",
          "type": "string"
        },
        {
          "internalType": "uint256",
          "name": "credits",
          "type": "uint256"
        }
      ],
      "name": "joinNewMember",
      "outputs": [],
      "stateMutability": "nonpayable",
      "type": "function"
    },
    {
      "inputs": [
        {
          "internalType": "address",
          "name": "memberAddress",
          "type": "address"
        }
      ],
      "name": "leave",
      "outputs": [],
      "stateMutability": "nonpayable",
      "type": "function"
    },
    {
      "inputs": [],
      "name": "name",
      "outputs": [
        {
          "internalType": "string",
          "name": "",
          "type": "string"
        }
      ],
      "stateMutability": "view",
      "type": "function"
    },
    {
      "inputs": [
        {
          "internalType": "address",
          "name": "",
          "type": "address"
        },
        {
          "internalType": "address",
          "name": "",
          "type": "address"
        },
        {
          "internalType": "uint256[]",
          "name": "",
          "type": "uint256[]"
        },
        {
          "internalType": "uint256[]",
          "name": "",
          "type": "uint256[]"
        },
        {
          "internalType": "bytes",
          "name": "",
          "type": "bytes"
        }
      ],
      "name": "onERC1155BatchReceived",
      "outputs": [
        {
          "internalType": "bytes4",
          "name": "",
          "type": "bytes4"
        }
      ],
      "stateMutability": "nonpayable",
      "type": "function"
    },
    {
      "inputs": [
        {
          "internalType": "address",
          "name": "",
          "type": "address"
        },
        {
          "internalType": "address",
          "name": "",
          "type": "address"
        },
        {
          "internalType": "uint256",
          "name": "",
          "type": "uint256"
        },
        {
          "internalType": "uint256",
          "name": "",
          "type": "uint256"
        },
        {
          "internalType": "bytes",
          "name": "",
          "type": "bytes"
        }
      ],
      "name": "onERC1155Received",
      "outputs": [
        {
          "internalType": "bytes4",
          "name": "",
          "type": "bytes4"
        }
      ],
      "stateMutability": "nonpayable",
      "type": "function"
    },
    {
      "inputs": [],
      "name": "ownerId",
      "outputs": [
        {
          "internalType": "uint256",
          "name": "",
          "type": "uint256"
        }
      ],
      "stateMutability": "view",
      "type": "function"
    },
    {
      "inputs": [
        {
          "internalType": "address",
          "name": "_from",
          "type": "address"
        },
        {
          "internalType": "address",
          "name": "_to",
          "type": "address"
        },
        {
          "internalType": "uint256[]",
          "name": "_ids",
          "type": "uint256[]"
        },
        {
          "internalType": "uint256[]",
          "name": "_values",
          "type": "uint256[]"
        },
        {
          "internalType": "bytes",
          "name": "_data",
          "type": "bytes"
        }
      ],
      "name": "safeBatchTransferFrom",
      "outputs": [],
      "stateMutability": "nonpayable",
      "type": "function"
    },
    {
      "inputs": [
        {
          "internalType": "address",
          "name": "_from",
          "type": "address"
        },
        {
          "internalType": "address",
          "name": "_to",
          "type": "address"
        },
        {
          "internalType": "uint256",
          "name": "_id",
          "type": "uint256"
        },
        {
          "internalType": "uint256",
          "name": "_value",
          "type": "uint256"
        },
        {
          "internalType": "bytes",
          "name": "_data",
          "type": "bytes"
        }
      ],
      "name": "safeTransferFrom",
      "outputs": [],
      "stateMutability": "nonpayable",
      "type": "function"
    },
    {
      "inputs": [],
      "name": "scarcityScore",
      "outputs": [
        {
          "internalType": "uint256",
          "name": "",
          "type": "uint256"
        }
      ],
      "stateMutability": "view",
      "type": "function"
    },
    {
      "inputs": [
        {
          "internalType": "address",
          "name": "_operator",
          "type": "address"
        },
        {
          "internalType": "bool",
          "name": "_approved",
          "type": "bool"
        }
      ],
      "name": "setApprovalForAll",
      "outputs": [],
      "stateMutability": "nonpayable",
      "type": "function"
    },
    {
      "inputs": [
        {
          "internalType": "uint256",
          "name": "",
          "type": "uint256"
        }
      ],
      "name": "skillWalletIds",
      "outputs": [
        {
          "internalType": "uint256",
          "name": "",
          "type": "uint256"
        }
      ],
      "stateMutability": "view",
      "type": "function"
    },
    {
      "inputs": [
        {
          "internalType": "bytes4",
          "name": "interfaceId",
          "type": "bytes4"
        }
      ],
      "name": "supportsInterface",
      "outputs": [
        {
          "internalType": "bool",
          "name": "",
          "type": "bool"
        }
      ],
      "stateMutability": "view",
      "type": "function"
    },
    {
      "inputs": [
        {
          "internalType": "address",
          "name": "_from",
          "type": "address"
        },
        {
          "internalType": "uint256",
          "name": "_value",
          "type": "uint256"
        }
      ],
      "name": "transferToCommunity",
      "outputs": [],
      "stateMutability": "nonpayable",
      "type": "function"
    },
    {
      "inputs": [
        {
          "internalType": "address",
          "name": "_to",
          "type": "address"
        },
        {
          "internalType": "uint256",
          "name": "_value",
          "type": "uint256"
        }
      ],
      "name": "transferToMember",
      "outputs": [],
      "stateMutability": "nonpayable",
      "type": "function"
    },
    {
      "inputs": [
        {
          "internalType": "uint256",
          "name": "",
          "type": "uint256"
        }
      ],
      "name": "uri",
      "outputs": [
        {
          "internalType": "string",
          "name": "",
          "type": "string"
        }
      ],
      "stateMutability": "view",
      "type": "function"
    }
  ],
  "bytecode": "0x60806040523480156200001157600080fd5b50604051620039f7380380620039f7833981016040819052620000349162000c31565b8981620000486301ffc9a760e01b620001f9565b62000053826200027e565b600480546001600160a01b0319166001600160a01b03929092169190911790555062000086630271189760e51b620001f9565b600680546001600160a01b038085166001600160a01b03199283161790925560078054928416929091169190911790556040518690869086908690620000cc9062000a76565b620000db949392919062000d57565b604051809103906000f080158015620000f8573d6000803e3d6000fd5b50600580546001600160a01b0319166001600160a01b039290921691909117905586516200012e9060089060208a019062000a84565b50600760009054906101000a90046001600160a01b03166001600160a01b031663b8ca27086040518163ffffffff1660e01b815260040160206040518083038186803b1580156200017e57600080fd5b505afa15801562000193573d6000803e3d6000fd5b505050506040513d601f19601f82011682018060405250810190620001b9919062000d1d565b620001ce57620001c862000297565b620001e9565b620001d862000297565b6009899055620001e98989620002da565b5050505050505050505062000ec1565b6001600160e01b0319808216141562000259576040805162461bcd60e51b815260206004820152601c60248201527f4552433136353a20696e76616c696420696e7465726661636520696400000000604482015290519081900360640190fd5b6001600160e01b0319166000908152602081905260409020805460ff19166001179055565b80516200029390600390602084019062000a84565b5050565b620002b930600060408051602081019091526000815263393870009062000481565b620002d830600160408051602081019091526000815260019062000481565b565b600a54601861ffff90911611156200030f5760405162461bcd60e51b8152600401620003069062000d87565b60405180910390fd5b6000828152600c602052604090205460ff1615620003415760405162461bcd60e51b8152600401620003069062000dcb565b6006546040516331a9108f60e11b81526000916001600160a01b031690636352211e906200037490869060040162000e02565b60206040518083038186803b1580156200038d57600080fd5b505afa158015620003a2573d6000803e3d6000fd5b505050506040513d601f19601f82011682018060405250810190620003c8919062000c0d565b6000848152600c602052604081208054600160ff199091168117909155600d8054808301825592527fd7b6990105719101dabeb77144f2a3385c8033acd3af97e9423a695e81ad1eb5909101859055600a805461ffff19811661ffff9182169093011691909117905590506200043f81836200056a565b7fe17e0e2cd88e2144dd54f3d823c30d4569092bcac1aabaec1129883e9cc12d2e818484604051620004749392919062000d36565b60405180910390a1505050565b6001600160a01b038416620004c85760405162461bcd60e51b8152600401808060200182810382526021815260200180620039d66021913960400191505060405180910390fd5b6000620004d462000594565b9050620004fb81600087620004e98862000599565b620004f48862000599565b87620005e0565b60008481526001602090815260408083206001600160a01b03808a1680865291845282852080548901905582518981529384018890528251919493908616926000805160206200393e83398151915292918290030190a46200056381600087878787620005e8565b5050505050565b620002933083600084604051806020016040528060008152506200084860201b62000ec01760201c565b335b90565b604080516001808252818301909252606091829190602080830190803683370190505090508281600081518110620005cd57fe5b602090810291909101015290505b919050565b505050505050565b62000607846001600160a01b031662000a2260201b620010a71760201c565b15620005e057836001600160a01b031663f23a6e6187878686866040518663ffffffff1660e01b815260040180866001600160a01b03168152602001856001600160a01b0316815260200184815260200183815260200180602001828103825283818151815260200191508051906020019080838360005b83811015620006995781810151838201526020016200067f565b50505050905090810190601f168015620006c75780820380516001836020036101000a031916815260200191505b509650505050505050602060405180830381600087803b158015620006eb57600080fd5b505af19250505080156200071257506040513d60208110156200070d57600080fd5b505160015b620007ee576200072162000e11565b806200072e5750620007b6565b8060405162461bcd60e51b81526004018080602001828103825283818151815260200191508051906020019080838360005b838110156200077a57818101518382015260200162000760565b50505050905090810190601f168015620007a85780820380516001836020036101000a031916815260200191505b509250505060405180910390fd5b60405162461bcd60e51b8152600401808060200182810382526034815260200180620038e26034913960400191505060405180910390fd5b6001600160e01b0319811663f23a6e6160e01b146200083f5760405162461bcd60e51b8152600401808060200182810382526028815260200180620039166028913960400191505060405180910390fd5b50505050505050565b6001600160a01b0384166200088f5760405162461bcd60e51b8152600401808060200182810382526025815260200180620039876025913960400191505060405180910390fd5b6200089962000594565b6001600160a01b0316856001600160a01b03161480620008d05750620008be62000594565b6004546001600160a01b039081169116145b80620008ec5750620008ec85620008e662000594565b62000a28565b620009295760405162461bcd60e51b81526004018080602001828103825260298152602001806200395e6029913960400191505060405180910390fd5b60006200093562000594565b905062000949818787620004e98862000599565b60008481526001602090815260408083206001600160a01b038a16845290915290205483811015620009ad5760405162461bcd60e51b815260040180806020018281038252602a815260200180620039ac602a913960400191505060405180910390fd5b60008581526001602090815260408083206001600160a01b038b811680865291845282852089870390558a81168086529483902080548a01905582518a815293840189905282519193908716926000805160206200393e83398151915292918290030190a46200083f828888888888620005e8565b3b151590565b600062000a41838362000a4860201b620010ad1760201c565b5092915050565b6001600160a01b03918216600090815260026020908152604080832093909416825291909152205460ff1690565b610260806200368283390190565b828054600181600116156101000203166002900490600052602060002090601f01602090048101928262000abc576000855562000b07565b82601f1062000ad757805160ff191683800117855562000b07565b8280016001018555821562000b07579182015b8281111562000b0757825182559160200191906001019062000aea565b5062000b1592915062000b19565b5090565b5b8082111562000b15576000815560010162000b1a565b80516001600160a01b0381168114620005db57600080fd5b805160048110620005db57600080fd5b600082601f83011262000b69578081fd5b81516001600160401b038082111562000b7e57fe5b6040516020601f8401601f191682018101838111838210171562000b9e57fe5b8060405250819450838252868185880101111562000bbb57600080fd5b600092505b8383101562000bdf578583018101518284018201529182019162000bc0565b8383111562000bf15760008185840101525b5050505092915050565b805160ff81168114620005db57600080fd5b60006020828403121562000c1f578081fd5b62000c2a8262000b30565b9392505050565b6000806000806000806000806000806101408b8d03121562000c51578586fd5b8a516001600160401b038082111562000c68578788fd5b62000c768e838f0162000b58565b9b5060208d01519a5060408d0151995060608d015191508082111562000c9a578788fd5b5062000ca98d828e0162000b58565b97505062000cba60808c0162000b48565b955062000cca60a08c0162000bfb565b945062000cda60c08c0162000bfb565b935062000cea60e08c0162000bfb565b925062000cfb6101008c0162000b30565b915062000d0c6101208c0162000b30565b90509295989b9194979a5092959850565b60006020828403121562000d2f578081fd5b5051919050565b6001600160a01b039390931683526020830191909152604082015260600190565b608081016004861062000d6657fe5b94815260ff9384166020820152918316604083015290911660609091015290565b60208082526024908201527f54686572652061726520616c7265616479203234206d656d626572732c20736f6040820152637272792160e01b606082015260800190565b60208082526018908201527f596f75206861766520616c7265616479206a6f696e6564210000000000000000604082015260600190565b90815260200190565b60e01c90565b600060443d101562000e235762000596565b600481823e6308c379a062000e39825162000e0b565b1462000e455762000596565b6040513d600319016004823e80513d6001600160401b03808311602484018310171562000e76575050505062000596565b8284019250825191508082111562000e92575050505062000596565b503d8301602082840101111562000eac5750505062000596565b601f01601f1916810160200160405291505090565b6127b18062000ed16000396000f3fe608060405234801561001057600080fd5b506004361061018d5760003560e01c80637c8da89d116100de578063bedf77a611610097578063e28cf15911610071578063e28cf15914610367578063e985e9c51461036f578063f23a6e6114610382578063f242432a146103955761018d565b8063bedf77a61461032e578063cfeaeb8b14610341578063d50c7377146103545761018d565b80637c8da89d146102ab5780638f853115146102c0578063a22cb465146102d3578063abb88bcc146102e6578063b887b087146102fb578063bc197c811461030e5761018d565b8063135b41651161014b578063321c48f211610125578063321c48f21461024e5780634e1273f4146102635780635aa97b061461028357806379e66b46146102985761018d565b8063135b4165146102205780631a98ce75146102285780632eb2c2d61461023b5761018d565b8062fdd58e14610192578063019c08f5146101bb57806301ffc9a7146101c357806306135265146101e357806306fdde03146101f85780630e89341c1461020d575b600080fd5b6101a56101a0366004612008565b6103a8565b6040516101b291906124e2565b60405180910390f35b6101a56103e2565b6101d66101d1366004612160565b6103e8565b6040516101b29190612357565b6101f66101f1366004612033565b610430565b005b610200610661565b6040516101b2919061239a565b61020061021b3660046121c9565b6106ef565b6101a5610787565b6101a5610236366004611d1e565b61078d565b6101f6610249366004611d95565b61079f565b6102566108ad565b6040516101b29190612377565b6102766102713660046120f8565b610930565b6040516101b29190612313565b61028b610a04565b6040516101b291906122de565b6101f66102a63660046121f9565b610bc5565b6102b3610d53565b6040516101b2919061238b565b6101a56102ce3660046121c9565b610d5d565b6101f66102e1366004611fd7565b610d7e565b6102ee610d8c565b6040516101b29190612235565b6101f6610309366004612008565b610d9b565b61032161031c366004611e4f565b610db8565b6040516101b29190612362565b6101f661033c366004611d1e565b610dc9565b6101f661034f366004612008565b610e03565b6101d66103623660046121c9565b610e20565b610276610e35565b6101d661037d366004611d5d565b610e3a565b610321610390366004611f71565b610e46565b6101f66103a3366004611ef8565b610e57565b600081156103d15760405162461bcd60e51b81526004016103c890612422565b60405180910390fd5b6103db83836110dd565b5092915050565b60095481565b60006001600160e01b03198216636cdb3d1360e11b148061041957506001600160e01b031982166303a24d0760e21b145b8061042857506104288261114c565b90505b919050565b600a54601861ffff90911611156104595760405162461bcd60e51b81526004016103c890612467565b610461611b25565b506040805160a0810182526001600160401b03808c166060830190815260ff808d166080850152908352835180850185528b831681528a82166020828101919091528085019190915284518086018652928a16835290881690820152818301526006549151630a73b69d60e01b815290916001600160a01b031690630a73b69d906104f6908e90859089908990600401612249565b600060405180830381600087803b15801561051057600080fd5b505af1158015610524573d6000803e3d6000fd5b50506006546040516342ca962960e01b8152600093506001600160a01b0390911691506342ca96299061055b908f90600401612235565b60206040518083038186803b15801561057357600080fd5b505afa158015610587573d6000803e3d6000fd5b505050506040513d601f19601f820116820180604052508101906105ab91906121e1565b6000818152600c60205260408082208054600160ff199091168117909155600d8054808301825593527fd7b6990105719101dabeb77144f2a3385c8033acd3af97e9423a695e81ad1eb5909201839055600a805461ffff19811661ffff9182169094011692909217909155519091507fe17e0e2cd88e2144dd54f3d823c30d4569092bcac1aabaec1129883e9cc12d2e9061064b908e90849087906122bd565b60405180910390a1505050505050505050505050565b6008805460408051602060026001851615610100026000190190941693909304601f810184900484028201840190925281815292918301828280156106e75780601f106106bc576101008083540402835291602001916106e7565b820191906000526020600020905b8154815290600101906020018083116106ca57829003601f168201915b505050505081565b60038054604080516020601f600260001961010060018816150201909516949094049384018190048102820181019092528281526060939092909183018282801561077b5780601f106107505761010080835404028352916020019161077b565b820191906000526020600020905b81548152906001019060200180831161075e57829003601f168201915b50505050509050919050565b600b5481565b600061079982826110dd565b50919050565b6107e3868680806020026020016040519081016040528093929190818152602001838360200280828437600092019190915250600192506107de915050565b61118c565b156108005760405162461bcd60e51b81526004016103c8906123ed565b6108a3888888888080602002602001604051908101604052809392919081815260200183836020028082843760009201919091525050604080516020808c0282810182019093528b82529093508b92508a91829185019084908082843760009201919091525050604080516020601f8b0181900481028201810190925289815292508991508890819084018382808284376000920191909152506111d092505050565b5050505050505050565b60055460408051636f2ddd9360e01b815290516000926001600160a01b031691636f2ddd93916004808301926020929190829003018186803b1580156108f257600080fd5b505afa158015610906573d6000803e3d6000fd5b505050506040513d601f19601f8201168201806040525081019061092a9190612188565b90505b90565b6060610971838380806020026020016040519081016040528093929190818152602001838360200280828437600092019190915250600192506107de915050565b1561098e5760405162461bcd60e51b81526004016103c8906123ed565b6109fb858580806020026020016040519081016040528093929190818152602001838360200280828437600092019190915250506040805160208089028281018201909352888252909350889250879182918501908490808284376000920191909152506114bf92505050565b50949350505050565b610a0c611b57565b600554604051633a5b120360e11b81526000916001600160a01b0316906374b6240690610a3e9060019060040161238b565b60206040518083038186803b158015610a5657600080fd5b505afa158015610a6a573d6000803e3d6000fd5b505050506040513d601f19601f82011682018060405250810190610a8e91906121a7565b600554604051633a5b120360e11b81529192506000916001600160a01b03909116906374b6240690610ac59060029060040161238b565b60206040518083038186803b158015610add57600080fd5b505afa158015610af1573d6000803e3d6000fd5b505050506040513d601f19601f82011682018060405250810190610b1591906121a7565b600554604051633a5b120360e11b81529192506000916001600160a01b03909116906374b6240690610b4c9060039060040161238b565b60206040518083038186803b158015610b6457600080fd5b505afa158015610b78573d6000803e3d6000fd5b505050506040513d601f19601f82011682018060405250810190610b9c91906121a7565b6040805160608101825261ffff9586168152938516602085015293169282019290925291505090565b600a54601861ffff9091161115610bee5760405162461bcd60e51b81526004016103c890612467565b6000828152600c602052604090205460ff1615610c1d5760405162461bcd60e51b81526004016103c8906124ab565b6006546040516331a9108f60e11b81526000916001600160a01b031690636352211e90610c4e9086906004016124e2565b60206040518083038186803b158015610c6657600080fd5b505afa158015610c7a573d6000803e3d6000fd5b505050506040513d601f19601f82011682018060405250810190610c9e9190611d41565b6000848152600c602052604081208054600160ff199091168117909155600d8054808301825592527fd7b6990105719101dabeb77144f2a3385c8033acd3af97e9423a695e81ad1eb5909101859055600a805461ffff19811661ffff918216909301169190911790559050610d138183610d9b565b7fe17e0e2cd88e2144dd54f3d823c30d4569092bcac1aabaec1129883e9cc12d2e818484604051610d46939291906122bd565b60405180910390a1505050565b600a5461ffff1681565b600d8181548110610d6d57600080fd5b600091825260209091200154905081565b610d8882826115aa565b5050565b6005546001600160a01b031690565b610d88308360008460405180602001604052806000815250610ec0565b63bc197c8160e01b95945050505050565b7fbea911b50ccdd2233b28faa49766c3cbd0631608f32e5a724d7b83b32b681ad081604051610df89190612235565b60405180910390a150565b610d88823060008460405180602001604052806000815250610ec0565b600c6020526000908152604090205460ff1681565b606090565b60006103db83836110ad565b63f23a6e6160e01b95945050505050565b8315610e755760405162461bcd60e51b81526004016103c8906123ed565b610eb88686868686868080601f016020809104026020016040519081016040528093929190818152602001838380828437600092019190915250610ec092505050565b505050505050565b6001600160a01b038416610f055760405162461bcd60e51b81526004018080602001828103825260258152602001806126816025913960400191505060405180910390fd5b610f0d611699565b6001600160a01b0316856001600160a01b03161480610f415750610f2f611699565b6004546001600160a01b039081169116145b80610f535750610f538561037d611699565b610f8e5760405162461bcd60e51b81526004018080602001828103825260298152602001806126586029913960400191505060405180910390fd5b6000610f98611699565b9050610fb8818787610fa98861169d565b610fb28861169d565b87610eb8565b60008481526001602090815260408083206001600160a01b038a1684529091529020548381101561101a5760405162461bcd60e51b815260040180806020018281038252602a8152602001806126d8602a913960400191505060405180910390fd5b60008581526001602090815260408083206001600160a01b038b811680865291845282852089870390558a81168086529483902080548a01905582518a815293840189905282519193908716927fc3d58168c5ae7397731d063d5bbf3d657854427343f4c083240f7aacaa2d0f6292918290030190a461109e8288888888886116e1565b50505050505050565b3b151590565b6001600160a01b0380831660009081526002602090815260408083209385168352929052205460ff165b92915050565b60006001600160a01b0383166111245760405162461bcd60e51b815260040180806020018281038252602b81526020018061262d602b913960400191505060405180910390fd5b5060009081526001602090815260408083206001600160a01b03949094168352929052205490565b60006001600160e01b03198216636cdb3d1360e11b148061117d57506001600160e01b031982166303a24d0760e21b145b80610428575061042882611919565b6000805b83518110156111c657828482815181106111a657fe5b602002602001015114156111be5760019150506110d7565b600101611190565b5060009392505050565b81518351146112105760405162461bcd60e51b81526004018080602001828103825260288152602001806127546028913960400191505060405180910390fd5b6001600160a01b0384166112555760405162461bcd60e51b81526004018080602001828103825260258152602001806126816025913960400191505060405180910390fd5b61125d611699565b6001600160a01b0316856001600160a01b03161480611291575061127f611699565b6004546001600160a01b039081169116145b806112a357506112a38561037d611699565b6112de5760405162461bcd60e51b81526004018080602001828103825260328152602001806126a66032913960400191505060405180910390fd5b60006112e8611699565b90506112f8818787878787610eb8565b60005b84518110156113d757600085828151811061131257fe5b60200260200101519050600085838151811061132a57fe5b60209081029190910181015160008481526001835260408082206001600160a01b038e16835290935291909120549091508181101561139a5760405162461bcd60e51b815260040180806020018281038252602a8152602001806126d8602a913960400191505060405180910390fd5b60009283526001602081815260408086206001600160a01b038e811688529252808620938590039093558a168452922080549091019055016112fb565b50846001600160a01b0316866001600160a01b0316826001600160a01b03167f4a39dc06d4c0dbc64b70af90fd698a233a518aa5d07e595d983b8c0526c8f7fb8787604051808060200180602001838103835285818151815260200191508051906020019060200280838360005b8381101561145d578181015183820152602001611445565b50505050905001838103825284818151815260200191508051906020019060200280838360005b8381101561149c578181015183820152602001611484565b5050505090500194505050505060405180910390a4610eb8818787878787611938565b606081518351146115015760405162461bcd60e51b815260040180806020018281038252602981526020018061272b6029913960400191505060405180910390fd5b606083516001600160401b038111801561151a57600080fd5b50604051908082528060200260200182016040528015611544578160200160208202803683370190505b50905060005b84518110156115a25761158385828151811061156257fe5b602002602001015185838151811061157657fe5b60200260200101516103a8565b82828151811061158f57fe5b602090810291909101015260010161154a565b509392505050565b816001600160a01b03166115bc611699565b6001600160a01b031614156116025760405162461bcd60e51b81526004018080602001828103825260298152602001806127026029913960400191505060405180910390fd5b806002600061160f611699565b6001600160a01b03908116825260208083019390935260409182016000908120918716808252919093529120805460ff191692151592909217909155611653611699565b6001600160a01b03167f17307eab39ab6107e8899845ad3d59bd9653f200f220920489ca2b5937696c318360405180821515815260200191505060405180910390a35050565b3390565b6040805160018082528183019092526060918291906020808301908036833701905050905082816000815181106116d057fe5b602090810291909101015292915050565b6116f3846001600160a01b03166110a7565b15610eb857836001600160a01b031663f23a6e6187878686866040518663ffffffff1660e01b815260040180866001600160a01b03168152602001856001600160a01b0316815260200184815260200183815260200180602001828103825283818151815260200191508051906020019080838360005b8381101561178257818101518382015260200161176a565b50505050905090810190601f1680156117af5780820380516001836020036101000a031916815260200191505b509650505050505050602060405180830381600087803b1580156117d257600080fd5b505af19250505080156117f757506040513d60208110156117f257600080fd5b505160015b6118ca57611803612514565b8061180e5750611893565b8060405162461bcd60e51b81526004018080602001828103825283818151815260200191508051906020019080838360005b83811015611858578181015183820152602001611840565b50505050905090810190601f1680156118855780820380516001836020036101000a031916815260200191505b509250505060405180910390fd5b60405162461bcd60e51b81526004018080602001828103825260348152602001806125d16034913960400191505060405180910390fd5b6001600160e01b0319811663f23a6e6160e01b1461109e5760405162461bcd60e51b81526004018080602001828103825260288152602001806126056028913960400191505060405180910390fd5b6001600160e01b03191660009081526020819052604090205460ff1690565b61194a846001600160a01b03166110a7565b15610eb857836001600160a01b031663bc197c8187878686866040518663ffffffff1660e01b815260040180866001600160a01b03168152602001856001600160a01b03168152602001806020018060200180602001848103845287818151815260200191508051906020019060200280838360005b838110156119d85781810151838201526020016119c0565b50505050905001848103835286818151815260200191508051906020019060200280838360005b83811015611a175781810151838201526020016119ff565b50505050905001848103825285818151815260200191508051906020019080838360005b83811015611a53578181015183820152602001611a3b565b50505050905090810190601f168015611a805780820380516001836020036101000a031916815260200191505b5098505050505050505050602060405180830381600087803b158015611aa557600080fd5b505af1925050508015611aca57506040513d6020811015611ac557600080fd5b505160015b611ad657611803612514565b6001600160e01b0319811663bc197c8160e01b1461109e5760405162461bcd60e51b81526004018080602001828103825260288152602001806126056028913960400191505060405180910390fd5b6040518060600160405280611b38611b75565b8152602001611b45611b75565b8152602001611b52611b75565b905290565b60405180606001604052806003906020820280368337509192915050565b604080518082019091526000808252602082015290565b60008083601f840112611b9d578182fd5b5081356001600160401b03811115611bb3578182fd5b6020830191508360208083028501011115611bcd57600080fd5b9250929050565b600082601f830112611be4578081fd5b81356001600160401b03811115611bf757fe5b6020808202611c078282016124eb565b83815293508184018583018287018401881015611c2357600080fd5b600092505b84831015611c46578035825260019290920191908301908301611c28565b505050505092915050565b60008083601f840112611c62578182fd5b5081356001600160401b03811115611c78578182fd5b602083019150836020828501011115611bcd57600080fd5b600082601f830112611ca0578081fd5b81356001600160401b03811115611cb357fe5b611cc6601f8201601f19166020016124eb565b9150808252836020828501011115611cdd57600080fd5b8060208401602084013760009082016020015292915050565b80356001600160401b038116811461042b57600080fd5b803560ff8116811461042b57600080fd5b600060208284031215611d2f578081fd5b8135611d3a816125b8565b9392505050565b600060208284031215611d52578081fd5b8151611d3a816125b8565b60008060408385031215611d6f578081fd5b8235611d7a816125b8565b91506020830135611d8a816125b8565b809150509250929050565b60008060008060008060008060a0898b031215611db0578384fd5b8835611dbb816125b8565b97506020890135611dcb816125b8565b965060408901356001600160401b0380821115611de6578586fd5b611df28c838d01611b8c565b909850965060608b0135915080821115611e0a578586fd5b611e168c838d01611b8c565b909650945060808b0135915080821115611e2e578384fd5b50611e3b8b828c01611c51565b999c989b5096995094979396929594505050565b600080600080600060a08688031215611e66578081fd5b8535611e71816125b8565b94506020860135611e81816125b8565b935060408601356001600160401b0380821115611e9c578283fd5b611ea889838a01611bd4565b94506060880135915080821115611ebd578283fd5b611ec989838a01611bd4565b93506080880135915080821115611ede578283fd5b50611eeb88828901611c90565b9150509295509295909350565b60008060008060008060a08789031215611f10578182fd5b8635611f1b816125b8565b95506020870135611f2b816125b8565b9450604087013593506060870135925060808701356001600160401b03811115611f53578283fd5b611f5f89828a01611c51565b979a9699509497509295939492505050565b600080600080600060a08688031215611f88578081fd5b8535611f93816125b8565b94506020860135611fa3816125b8565b9350604086013592506060860135915060808601356001600160401b03811115611fcb578182fd5b611eeb88828901611c90565b60008060408385031215611fe9578182fd5b8235611ff4816125b8565b915060208301358015158114611d8a578182fd5b6000806040838503121561201a578182fd5b8235612025816125b8565b946020939093013593505050565b6000806000806000806000806000806101208b8d031215612052578384fd5b8a3561205d816125b8565b995061206b60208c01611cf6565b985061207960408c01611d0d565b975061208760608c01611cf6565b965061209560808c01611d0d565b95506120a360a08c01611cf6565b94506120b160c08c01611d0d565b935060e08b01356001600160401b038111156120cb578283fd5b6120d78d828e01611c51565b915080945050809250506101008b013590509295989b9194979a5092959850565b6000806000806040858703121561210d578182fd5b84356001600160401b0380821115612123578384fd5b61212f88838901611b8c565b90965094506020870135915080821115612147578384fd5b5061215487828801611b8c565b95989497509550505050565b600060208284031215612171578081fd5b81356001600160e01b031981168114611d3a578182fd5b600060208284031215612199578081fd5b815160048110611d3a578182fd5b6000602082840312156121b8578081fd5b815161ffff81168114611d3a578182fd5b6000602082840312156121da578081fd5b5035919050565b6000602082840312156121f2578081fd5b5051919050565b6000806040838503121561220b578182fd5b50508035926020909101359150565b80516001600160401b0316825260209081015160ff16910152565b6001600160a01b0391909116815260200190565b600061010060018060a01b038716835261226760208401875161221a565b6020860151612279606085018261221a565b50604086015161228c60a085018261221a565b508060e0840152838184015250610120838582850137828401810191909152601f909201601f191601019392505050565b6001600160a01b039390931683526020830191909152604082015260600190565b60608101818360005b600381101561230a57815161ffff168352602092830192909101906001016122e7565b50505092915050565b6020808252825182820181905260009190848201906040850190845b8181101561234b5783518352928401929184019160010161232f565b50909695505050505050565b901515815260200190565b6001600160e01b031991909116815260200190565b602081016004831061238557fe5b91905290565b61ffff91909116815260200190565b6000602080835283518082850152825b818110156123c6578581018301518582016040015282016123aa565b818111156123d75783604083870101525b50601f01601f1916929092016040019392505050565b6020808252818101527f436f6d6d756e697479204e46542063616e277420626520747261736665726564604082015260600190565b60208082526025908201527f436f6d6d756e697479204e465420646f65736e2774206861766520612062616c60408201526430b731b29760d91b606082015260800190565b60208082526024908201527f54686572652061726520616c7265616479203234206d656d626572732c20736f6040820152637272792160e01b606082015260800190565b60208082526018908201527f596f75206861766520616c7265616479206a6f696e6564210000000000000000604082015260600190565b90815260200190565b6040518181016001600160401b038111828210171561250657fe5b604052919050565b60e01c90565b600060443d10156125245761092d565b600481823e6308c379a0612538825161250e565b146125425761092d565b6040513d600319016004823e80513d6001600160401b038160248401118184111715612571575050505061092d565b8284019250825191508082111561258b575050505061092d565b503d830160208284010111156125a35750505061092d565b601f01601f1916810160200160405291505090565b6001600160a01b03811681146125cd57600080fd5b5056fe455243313135353a207472616e7366657220746f206e6f6e2045524331313535526563656976657220696d706c656d656e746572455243313135353a204552433131353552656365697665722072656a656374656420746f6b656e73455243313135353a2062616c616e636520717565727920666f7220746865207a65726f2061646472657373455243313135353a2063616c6c6572206973206e6f74206f776e6572206e6f7220617070726f766564455243313135353a207472616e7366657220746f20746865207a65726f2061646472657373455243313135353a207472616e736665722063616c6c6572206973206e6f74206f776e6572206e6f7220617070726f766564455243313135353a20696e73756666696369656e742062616c616e636520666f72207472616e73666572455243313135353a2073657474696e6720617070726f76616c2073746174757320666f722073656c66455243313135353a206163636f756e747320616e6420696473206c656e677468206d69736d61746368455243313135353a2069647320616e6420616d6f756e7473206c656e677468206d69736d61746368a26469706673582212208d556f5cc56a8919949c00c1f3b6c116a1f75d8dd19a139514de3c3125d551c364736f6c63430007040033608060405234801561001057600080fd5b506040516102603803806102608339818101604052608081101561003357600080fd5b5080516020820151604083015160609093015160008054336001600160a01b03199182168117909255600180549091169091178082559394929385919060ff60a01b1916600160a01b83600381111561008857fe5b021790555060026020527fe90b7bceb6e7df5418fb78d8ee546e97c83a08bbccc01a0644d599ccd2a7c2e0805461ffff1990811660ff958616179091557f679795a0195a1b76cdebb7c51d74e058aee92919b8c3389af86ef24535e8a28c805482169385169390931790925560036000527f88601476d11616a71c5be67555bd1dff4b1cbf21533d2669b768b61518cfe1c38054909216921691909117905550610129806101376000396000f3fe6080604052348015600f57600080fd5b5060043610603c5760003560e01c80636f2ddd9314604157806374b6240614606757806386e476dd14609c575b600080fd5b604760be565b60405180826003811115605657fe5b815260200191505060405180910390f35b608560048036036020811015607b57600080fd5b503561ffff1660ce565b6040805161ffff9092168252519081900360200190f35b60a260e4565b604080516001600160a01b039092168252519081900360200190f35b600154600160a01b900460ff1681565b60026020526000908152604090205461ffff1681565b6000546001600160a01b03168156fea2646970667358221220904fd4c6d67d8720a11a81456b916f8db739568706dc1b32df0ee0ec9cfe27a064736f6c63430007040033455243313135353a207472616e7366657220746f206e6f6e2045524331313535526563656976657220696d706c656d656e746572455243313135353a204552433131353552656365697665722072656a656374656420746f6b656e73c3d58168c5ae7397731d063d5bbf3d657854427343f4c083240f7aacaa2d0f62455243313135353a2063616c6c6572206973206e6f74206f776e6572206e6f7220617070726f766564455243313135353a207472616e7366657220746f20746865207a65726f2061646472657373455243313135353a20696e73756666696369656e742062616c616e636520666f72207472616e73666572455243313135353a206d696e7420746f20746865207a65726f2061646472657373",
  "linkReferences": {},
  "deployedLinkReferences": {}
}