{
  "_format": "hh-sol-artifact-1",
  "contractName": "CommunitiesRegistry",
  "sourceName": "contracts/imported/CommunitiesRegistry.sol",
  "abi": [
    {
      "inputs": [
        {
          "internalType": "address",
          "name": "_skillWalletAddress",
          "type": "address"
        }
      ],
      "stateMutability": "nonpayable",
      "type": "constructor"
    },
    {
      "anonymous": false,
      "inputs": [
        {
          "indexed": false,
          "internalType": "address",
          "name": "_newCommunityAddress",
          "type": "address"
        }
      ],
      "name": "CommunityCreated",
      "type": "event"
    },
    {
      "inputs": [
        {
          "internalType": "string",
          "name": "_url",
          "type": "string"
        },
        {
          "internalType": "uint256",
          "name": "_ownerId",
          "type": "uint256"
        },
        {
          "internalType": "uint64",
          "name": "_ownerCredits",
          "type": "uint64"
        },
        {
          "internalType": "string",
          "name": "_name",
          "type": "string"
        },
        {
          "internalType": "enum Types.Template",
          "name": "_template",
          "type": "uint8"
        },
        {
          "internalType": "uint8",
          "name": "_positionalValue1",
          "type": "uint8"
        },
        {
          "internalType": "uint8",
          "name": "_positionalValue2",
          "type": "uint8"
        },
        {
          "internalType": "uint8",
          "name": "_positionalValue3",
          "type": "uint8"
        }
      ],
      "name": "createCommunity",
      "outputs": [
        {
          "internalType": "address",
          "name": "_communityAddress",
          "type": "address"
        }
      ],
      "stateMutability": "nonpayable",
      "type": "function"
    },
    {
      "inputs": [],
      "name": "numOfCommunities",
      "outputs": [
        {
          "internalType": "uint256",
          "name": "",
          "type": "uint256"
        }
      ],
      "stateMutability": "view",
      "type": "function"
    },
    {
      "inputs": [],
      "name": "skillWalletAddress",
      "outputs": [
        {
          "internalType": "address",
          "name": "",
          "type": "address"
        }
      ],
      "stateMutability": "view",
      "type": "function"
    }
  ],
  "bytecode": "0x608060405234801561001057600080fd5b50604051613ccc380380613ccc83398101604081905261002f91610054565b600280546001600160a01b0319166001600160a01b0392909216919091179055610082565b600060208284031215610065578081fd5b81516001600160a01b038116811461007b578182fd5b9392505050565b613c3b806100916000396000f3fe60806040523480156200001157600080fd5b5060043610620000465760003560e01c806325ecb811146200004b578063a894d2aa146200007a578063b8ca27081462000084575b600080fd5b620000626200005c36600462000258565b6200009d565b60405162000071919062000390565b60405180910390f35b6200006262000185565b6200008e62000194565b6040516200007191906200046a565b6000808989898989898989600260009054906101000a90046001600160a01b031630604051620000cd906200019a565b620000e29a99989796959493929190620003a4565b604051809103906000f080158015620000ff573d6000803e3d6000fd5b50600180549192508291620001149162000473565b60019081556001600160a01b03821660009081526020819052604090819020805460ff1916909217909155517fb4108a188495a1a681cdc0750af164011025a1773b41e93ff3e628adc037dc29906200016f90839062000390565b60405180910390a19a9950505050505050505050565b6002546001600160a01b031681565b60015481565b61375780620004af83390190565b803560048110620001b857600080fd5b919050565b600082601f830112620001ce578081fd5b813567ffffffffffffffff80821115620001ec57620001ec62000498565b604051601f8301601f19168101602001828111828210171562000213576200021362000498565b6040528281528483016020018610156200022b578384fd5b82602086016020830137918201602001929092529392505050565b803560ff81168114620001b857600080fd5b600080600080600080600080610100898b03121562000275578384fd5b883567ffffffffffffffff808211156200028d578586fd5b6200029b8c838d01620001bd565b995060208b0135985060408b013591508082168214620002b9578586fd5b90965060608a01359080821115620002cf578586fd5b50620002de8b828c01620001bd565b955050620002ef60808a01620001a8565b9350620002ff60a08a0162000246565b92506200030f60c08a0162000246565b91506200031f60e08a0162000246565b90509295985092959890939650565b6001600160a01b03169052565b60008151808452815b81811015620003625760208185018101518683018201520162000344565b81811115620003745782602083870101525b50601f01601f19169290920160200192915050565b60ff169052565b6001600160a01b0391909116815260200190565b6000610140808352620003ba8184018e6200033b565b90508b602084015267ffffffffffffffff8b1660408401528281036060840152620003e6818b6200033b565b915050600488106200040857634e487b7160e01b600052602160045260246000fd5b8760808301526200041d60a083018862000389565b6200042c60c083018762000389565b6200043b60e083018662000389565b6200044b6101008301856200032e565b6200045b6101208301846200032e565b9b9a5050505050505050505050565b90815260200190565b600082198211156200049357634e487b7160e01b81526011600452602481fd5b500190565b634e487b7160e01b600052604160045260246000fdfe6080604052600380546001600160a01b03199081169091556004805490911690553480156200002d57600080fd5b506040516200375738038062003757833981016040819052620000509162000a6d565b896200005c81620001d0565b50600680546001600160a01b038085166001600160a01b03199283161790925560078054928416929091169190911790556040518690869086908690620000a39062000890565b620000b2949392919062000c1a565b604051809103906000f080158015620000cf573d6000803e3d6000fd5b50600580546001600160a01b0319166001600160a01b03929092169190911790558651620001059060089060208a01906200089e565b50600760009054906101000a90046001600160a01b03166001600160a01b031663b8ca27086040518163ffffffff1660e01b815260040160206040518083038186803b1580156200015557600080fd5b505afa1580156200016a573d6000803e3d6000fd5b505050506040513d601f19601f8201168201806040525081019062000190919062000b62565b620001a5576200019f620001e9565b620001c0565b620001af620001e9565b600b899055620001c0898962000232565b50505050505050505050620010c1565b8051620001e59060029060208401906200089e565b5050565b620002113060006040805160208101909152600081526914542ba12a337c0000009062000402565b6200023030600160408051602081019091526000815260019062000402565b565b6009546018600160a01b90910461ffff1611156200026d5760405162461bcd60e51b8152600401620002649062000e42565b60405180910390fd5b6000828152600a602052604090205460ff16156200029f5760405162461bcd60e51b8152600401620002649062000e86565b6006546040516331a9108f60e11b81526000916001600160a01b031690636352211e90620002d290869060040162000efe565b60206040518083038186803b158015620002eb57600080fd5b505afa15801562000300573d6000803e3d6000fd5b505050506040513d601f19601f8201168201806040525081019062000326919062000a1f565b9050336001600160a01b03821614620003535760405162461bcd60e51b8152600401620002649062000d18565b6000838152600a60205260409020805460ff191660011790556009805461ffff600160a01b909104169060146200038a8362000fba565b91906101000a81548161ffff021916908361ffff16021790555050620003c081836001600160401b0316620004f860201b60201c565b7fe17e0e2cd88e2144dd54f3d823c30d4569092bcac1aabaec1129883e9cc12d2e818484604051620003f59392919062000bf0565b60405180910390a1505050565b6001600160a01b0384166200042b5760405162461bcd60e51b8152600401620002649062000ebd565b60006200043762000522565b90506200045e816000876200044c8862000527565b620004578862000527565b8762000583565b6000848152602081815260408083206001600160a01b0389168452909152812080548592906200049090849062000f15565b92505081905550846001600160a01b031660006001600160a01b0316826001600160a01b0316600080516020620037378339815191528787604051620004d892919062000f07565b60405180910390a4620004f1816000878787876200058b565b5050505050565b620001e5308360008460405180602001604052806000815250620006c260201b62000ae71760201c565b335b90565b604080516001808252818301909252606091600091906020808301908036833701905050905082816000815181106200057057634e487b7160e01b600052603260045260246000fd5b602090810291909101015290505b919050565b505050505050565b620005aa846001600160a01b03166200085c60201b62000c821760201c565b15620005835760405163f23a6e6160e01b81526001600160a01b0385169063f23a6e6190620005e6908990899088908890889060040162000ba9565b602060405180830381600087803b1580156200060157600080fd5b505af192505050801562000634575060408051601f3d908101601f19168201909252620006319181019062000a43565b60015b62000686576200064362001011565b806200065057506200066c565b8060405162461bcd60e51b815260040162000264919062000c5e565b60405162461bcd60e51b8152600401620002649062000c73565b6001600160e01b0319811663f23a6e6160e01b14620006b95760405162461bcd60e51b8152600401620002649062000cd0565b50505050505050565b6001600160a01b038416620006eb5760405162461bcd60e51b8152600401620002649062000db3565b620006f562000522565b6001600160a01b0316856001600160a01b0316148062000730575062000730856200071f62000522565b6200086260201b62000c881760201c565b6200074f5760405162461bcd60e51b8152600401620002649062000d6a565b60006200075b62000522565b90506200076f8187876200044c8862000527565b6000848152602081815260408083206001600160a01b038a16845290915290205483811015620007b35760405162461bcd60e51b8152600401620002649062000df8565b620007bf848262000f30565b6000868152602081815260408083206001600160a01b038c81168552925280832093909355881681529081208054869290620007fd90849062000f15565b92505081905550856001600160a01b0316876001600160a01b0316836001600160a01b03166000805160206200373783398151915288886040516200084492919062000f07565b60405180910390a4620006b98288888888886200058b565b3b151590565b6001600160a01b03918216600090815260016020908152604080832093909416825291909152205460ff1690565b61031a806200341d83390190565b828054620008ac9062000f7d565b90600052602060002090601f016020900481019282620008d057600085556200091b565b82601f10620008eb57805160ff19168380011785556200091b565b828001600101855582156200091b579182015b828111156200091b578251825591602001919060010190620008fe565b50620009299291506200092d565b5090565b5b808211156200092957600081556001016200092e565b80516001600160a01b03811681146200057e57600080fd5b8051600481106200057e57600080fd5b600082601f8301126200097d578081fd5b81516001600160401b03808211156200099a576200099a62000ff5565b604051601f8301601f191681016020018281118282101715620009c157620009c162000ff5565b604052828152848301602001861015620009d9578384fd5b620009ec83602083016020880162000f4a565b95945050505050565b80516001600160401b03811681146200057e57600080fd5b805160ff811681146200057e57600080fd5b60006020828403121562000a31578081fd5b62000a3c8262000944565b9392505050565b60006020828403121562000a55578081fd5b81516001600160e01b03198116811462000a3c578182fd5b6000806000806000806000806000806101408b8d03121562000a8d578586fd5b8a516001600160401b038082111562000aa4578788fd5b62000ab28e838f016200096c565b9b5060208d01519a5062000ac960408e01620009f5565b995060608d015191508082111562000adf578788fd5b5062000aee8d828e016200096c565b97505062000aff60808c016200095c565b955062000b0f60a08c0162000a0d565b945062000b1f60c08c0162000a0d565b935062000b2f60e08c0162000a0d565b925062000b406101008c0162000944565b915062000b516101208c0162000944565b90509295989b9194979a5092959850565b60006020828403121562000b74578081fd5b5051919050565b6000815180845262000b9581602086016020860162000f4a565b601f01601f19169290920160200192915050565b6001600160a01b03868116825285166020820152604081018490526060810183905260a06080820181905260009062000be59083018462000b7b565b979650505050505050565b6001600160a01b0393909316835260208301919091526001600160401b0316604082015260600190565b608081016004861062000c3d57634e487b7160e01b600052602160045260246000fd5b94815260ff9384166020820152918316604083015290911660609091015290565b60006020825262000a3c602083018462000b7b565b60208082526034908201527f455243313135353a207472616e7366657220746f206e6f6e204552433131353560408201527f526563656976657220696d706c656d656e746572000000000000000000000000606082015260800190565b60208082526028908201527f455243313135353a204552433131353552656365697665722072656a656374656040820152676420746f6b656e7360c01b606082015260800190565b60208082526032908201527f4f6e6c792074686520736b696c6c2077616c6c6574206f776e65722063616e2060408201527131b0b636103a3434b990333ab731ba34b7b760711b606082015260800190565b60208082526029908201527f455243313135353a2063616c6c6572206973206e6f74206f776e6572206e6f7260408201526808185c1c1c9bdd995960ba1b606082015260800190565b60208082526025908201527f455243313135353a207472616e7366657220746f20746865207a65726f206164604082015264647265737360d81b606082015260800190565b6020808252602a908201527f455243313135353a20696e73756666696369656e742062616c616e636520666f60408201526939103a3930b739b332b960b11b606082015260800190565b60208082526024908201527f54686572652061726520616c7265616479203234206d656d626572732c20736f6040820152637272792160e01b606082015260800190565b60208082526018908201527f596f75206861766520616c7265616479206a6f696e6564210000000000000000604082015260600190565b60208082526021908201527f455243313135353a206d696e7420746f20746865207a65726f206164647265736040820152607360f81b606082015260800190565b90815260200190565b918252602082015260400190565b6000821982111562000f2b5762000f2b62000fdf565b500190565b60008282101562000f455762000f4562000fdf565b500390565b60005b8381101562000f6757818101518382015260200162000f4d565b8381111562000f77576000848401525b50505050565b60028104600182168062000f9257607f821691505b6020821081141562000fb457634e487b7160e01b600052602260045260246000fd5b50919050565b600061ffff8083168181141562000fd55762000fd562000fdf565b6001019392505050565b634e487b7160e01b600052601160045260246000fd5b634e487b7160e01b600052604160045260246000fd5b60e01c90565b600060443d1015620010235762000524565b600481823e6308c379a06200103982516200100b565b14620010455762000524565b6040513d600319016004823e80513d6001600160401b03808311602484018310171562001076575050505062000524565b8284019250825191508082111562001092575050505062000524565b503d83016020828401011115620010ac5750505062000524565b601f01601f1916810160200160405291505090565b61234c80620010d16000396000f3fe608060405234801561001057600080fd5b50600436106101155760003560e01c8063abb88bcc116100a2578063cf6cd7be11610071578063cf6cd7be1461025f578063cfeaeb8b14610272578063e985e9c514610285578063f23a6e6114610298578063f242432a146102ab57610115565b8063abb88bcc14610204578063b887b08714610219578063bc197c811461022c578063bedf77a61461024c57610115565b80631a98ce75116100e95780631a98ce75146101985780632eb2c2d6146101ab5780634404c618146101be5780634e1273f4146101d1578063a22cb465146101f157610115565b8062fdd58e1461011a57806301ffc9a7146101435780630ba1c964146101635780630e89341c14610178575b600080fd5b61012d6101283660046118d4565b6102be565b60405161013a9190612131565b60405180910390f35b610156610151366004611967565b6102f8565b60405161013a9190611ccc565b6101766101713660046115ea565b61035b565b005b61018b610186366004611a0b565b6103c6565b60405161013a9190611cec565b61012d6101a63660046115ea565b61045a565b6101766101b9366004611661565b61046c565b6101766101cc36600461199f565b61057a565b6101e46101df3660046118ff565b61073e565b60405161013a9190611c8b565b6101766101ff3660046118a3565b610812565b61020c610820565b60405161013a9190611b3b565b6101766102273660046118d4565b610830565b61023f61023a36600461171b565b61084d565b60405161013a9190611cd7565b61017661025a3660046115ea565b61085e565b61017661026d366004611a3b565b610898565b6101766102803660046118d4565b610a44565b610156610293366004611629565b610a61565b61023f6102a636600461183d565b610a6d565b6101766102b93660046117c4565b610a7e565b600081156102e75760405162461bcd60e51b81526004016102de90611eb6565b60405180910390fd5b6102f18383610cb8565b5092915050565b60006001600160e01b03198216636cdb3d1360e11b148061032957506001600160e01b031982166303a24d0760e21b145b8061034457506001600160e01b03198216630271189760e51b145b80610353575061035382610d06565b90505b919050565b3060008181526001602081815260408084206001600160a01b038716808652925292839020805460ff191683179055915183917f17307eab39ab6107e8899845ad3d59bd9653f200f220920489ca2b5937696c31916103ba9190611ccc565b60405180910390a35050565b6060600280546103d5906121a0565b80601f0160208091040260200160405190810160405280929190818152602001828054610401906121a0565b801561044e5780601f106104235761010080835404028352916020019161044e565b820191906000526020600020905b81548152906001019060200180831161043157829003601f168201915b50505050509050919050565b60006104668282610cb8565b50919050565b6104b0868680806020026020016040519081016040528093929190818152602001838360200280828437600092019190915250600192506104ab915050565b610d2b565b156104cd5760405162461bcd60e51b81526004016102de90611de6565b610570888888888080602002602001604051908101604052809392919081815260200183836020028082843760009201919091525050604080516020808c0282810182019093528b82529093508b92508a91829185019084908082843760009201919091525050604080516020601f8b018190048102820181019092528981529250899150889081908401838280828437600092019190915250610d8d92505050565b5050505050505050565b6009546018600160a01b90910461ffff1611156105a95760405162461bcd60e51b81526004016102de90611fdc565b6006546040516324b57b2b60e11b81526001600160a01b039091169063496af656906105df903390889088908890600401611bf2565b600060405180830381600087803b1580156105f957600080fd5b505af115801561060d573d6000803e3d6000fd5b50506006546040516342ca962960e01b8152600093506001600160a01b0390911691506342ca962990610644903390600401611b3b565b60206040518083038186803b15801561065c57600080fd5b505afa158015610670573d6000803e3d6000fd5b505050506040513d601f19601f820116820180604052508101906106949190611a23565b6000818152600a602052604090208054600160ff1990911617905560098054919250600160a01b90910461ffff169060146106ce836121d5565b91906101000a81548161ffff021916908361ffff160217905550506106fc33836001600160401b0316610830565b7fe17e0e2cd88e2144dd54f3d823c30d4569092bcac1aabaec1129883e9cc12d2e33828460405161072f93929190611c61565b60405180910390a15050505050565b606061077f838380806020026020016040519081016040528093929190818152602001838360200280828437600092019190915250600192506104ab915050565b1561079c5760405162461bcd60e51b81526004016102de90611de6565b61080985858080602002602001604051908101604052809392919081815260200183836020028082843760009201919091525050604080516020808902828101820190935288825290935088925087918291850190849080828437600092019190915250610feb92505050565b50949350505050565b61081c828261110a565b5050565b6005546001600160a01b03165b90565b61081c308360008460405180602001604052806000815250610ae7565b63bc197c8160e01b95945050505050565b7fbea911b50ccdd2233b28faa49766c3cbd0631608f32e5a724d7b83b32b681ad08160405161088d9190611b3b565b60405180910390a150565b6009546018600160a01b90910461ffff1611156108c75760405162461bcd60e51b81526004016102de90611fdc565b6000828152600a602052604090205460ff16156108f65760405162461bcd60e51b81526004016102de90612020565b6006546040516331a9108f60e11b81526000916001600160a01b031690636352211e90610927908690600401612131565b60206040518083038186803b15801561093f57600080fd5b505afa158015610953573d6000803e3d6000fd5b505050506040513d601f19601f82011682018060405250810190610977919061160d565b9050336001600160a01b038216146109a15760405162461bcd60e51b81526004016102de90611e1b565b6000838152600a60205260409020805460ff191660011790556009805461ffff600160a01b909104169060146109d6836121d5565b91906101000a81548161ffff021916908361ffff16021790555050610a0481836001600160401b0316610830565b7fe17e0e2cd88e2144dd54f3d823c30d4569092bcac1aabaec1129883e9cc12d2e818484604051610a3793929190611c61565b60405180910390a1505050565b61081c823060008460405180602001604052806000815250610ae7565b60006102f18383610c88565b63f23a6e6160e01b95945050505050565b8315610a9c5760405162461bcd60e51b81526004016102de90611de6565b610adf8686868686868080601f016020809104026020016040519081016040528093929190818152602001838380828437600092019190915250610ae792505050565b505050505050565b6001600160a01b038416610b0d5760405162461bcd60e51b81526004016102de90611efb565b610b156111cc565b6001600160a01b0316856001600160a01b03161480610b405750610b4085610b3b6111cc565b610c88565b610b5c5760405162461bcd60e51b81526004016102de90611e6d565b6000610b666111cc565b9050610b86818787610b77886111d0565b610b80886111d0565b87610adf565b6000848152602081815260408083206001600160a01b038a16845290915290205483811015610bc75760405162461bcd60e51b81526004016102de90611f92565b610bd18482612189565b6000868152602081815260408083206001600160a01b038c81168552925280832093909355881681529081208054869290610c0d908490612171565b92505081905550856001600160a01b0316876001600160a01b0316836001600160a01b03167fc3d58168c5ae7397731d063d5bbf3d657854427343f4c083240f7aacaa2d0f628888604051610c6392919061213a565b60405180910390a4610c79828888888888611229565b50505050505050565b3b151590565b6001600160a01b0380831660009081526001602090815260408083209385168352929052205460ff165b92915050565b60006001600160a01b038316610ce05760405162461bcd60e51b81526004016102de90611d9b565b506000908152602081815260408083206001600160a01b03949094168352929052205490565b60006001600160e01b03198216630271189760e51b1480610353575061035382611337565b6000805b8351811015610d835782848281518110610d5957634e487b7160e01b600052603260045260246000fd5b60200260200101511415610d71576001915050610cb2565b80610d7b816121f7565b915050610d2f565b5060009392505050565b8151835114610dae5760405162461bcd60e51b81526004016102de906120e9565b6001600160a01b038416610dd45760405162461bcd60e51b81526004016102de90611efb565b610ddc6111cc565b6001600160a01b0316856001600160a01b03161480610e025750610e02856102936111cc565b610e1e5760405162461bcd60e51b81526004016102de90611f40565b6000610e286111cc565b9050610e38818787878787610adf565b60005b8451811015610f85576000858281518110610e6657634e487b7160e01b600052603260045260246000fd5b602002602001015190506000858381518110610e9257634e487b7160e01b600052603260045260246000fd5b602090810291909101810151600084815280835260408082206001600160a01b038e168352909352919091205490915081811015610ee25760405162461bcd60e51b81526004016102de90611f92565b610eec8282612189565b60008085815260200190815260200160002060008c6001600160a01b03166001600160a01b03168152602001908152602001600020819055508160008085815260200190815260200160002060008b6001600160a01b03166001600160a01b031681526020019081526020016000206000828254610f6a9190612171565b9250508190555050505080610f7e906121f7565b9050610e3b565b50846001600160a01b0316866001600160a01b0316826001600160a01b03167f4a39dc06d4c0dbc64b70af90fd698a233a518aa5d07e595d983b8c0526c8f7fb8787604051610fd5929190611c9e565b60405180910390a4610adf818787878787611377565b6060815183511461100e5760405162461bcd60e51b81526004016102de906120a0565b600083516001600160401b0381111561103757634e487b7160e01b600052604160045260246000fd5b604051908082528060200260200182016040528015611060578160200160208202803683370190505b50905060005b8451811015611102576110c785828151811061109257634e487b7160e01b600052603260045260246000fd5b60200260200101518583815181106110ba57634e487b7160e01b600052603260045260246000fd5b60200260200101516102be565b8282815181106110e757634e487b7160e01b600052603260045260246000fd5b60209081029190910101526110fb816121f7565b9050611066565b509392505050565b816001600160a01b031661111c6111cc565b6001600160a01b031614156111435760405162461bcd60e51b81526004016102de90612057565b80600160006111506111cc565b6001600160a01b03908116825260208083019390935260409182016000908120918716808252919093529120805460ff1916921515929092179091556111946111cc565b6001600160a01b03167f17307eab39ab6107e8899845ad3d59bd9653f200f220920489ca2b5937696c31836040516103ba9190611ccc565b3390565b6040805160018082528183019092526060916000919060208083019080368337019050509050828160008151811061121857634e487b7160e01b600052603260045260246000fd5b602090810291909101015292915050565b61123b846001600160a01b0316610c82565b15610adf5760405163f23a6e6160e01b81526001600160a01b0385169063f23a6e61906112749089908990889088908890600401611bad565b602060405180830381600087803b15801561128e57600080fd5b505af19250505080156112be575060408051601f3d908101601f191682019092526112bb91810190611983565b60015b611307576112ca612244565b806112d557506112ef565b8060405162461bcd60e51b81526004016102de9190611cec565b60405162461bcd60e51b81526004016102de90611cff565b6001600160e01b0319811663f23a6e6160e01b14610c795760405162461bcd60e51b81526004016102de90611d53565b60006001600160e01b03198216636cdb3d1360e11b148061136857506001600160e01b031982166303a24d0760e21b145b80610353575061035382611448565b611389846001600160a01b0316610c82565b15610adf5760405163bc197c8160e01b81526001600160a01b0385169063bc197c81906113c29089908990889088908890600401611b4f565b602060405180830381600087803b1580156113dc57600080fd5b505af192505050801561140c575060408051601f3d908101601f1916820190925261140991810190611983565b60015b611418576112ca612244565b6001600160e01b0319811663bc197c8160e01b14610c795760405162461bcd60e51b81526004016102de90611d53565b6001600160e01b031981166301ffc9a760e01b14919050565b60008083601f840112611472578182fd5b5081356001600160401b03811115611488578182fd5b60208301915083602080830285010111156114a257600080fd5b9250929050565b600082601f8301126114b9578081fd5b813560206001600160401b038211156114d4576114d4612228565b8082026114e2828201612148565b8381528281019086840183880185018910156114fc578687fd5b8693505b8584101561151e578035835260019390930192918401918401611500565b50979650505050505050565b60008083601f84011261153b578182fd5b5081356001600160401b03811115611551578182fd5b6020830191508360208285010111156114a257600080fd5b600082601f830112611579578081fd5b81356001600160401b0381111561159257611592612228565b6115a5601f8201601f1916602001612148565b8181528460208386010111156115b9578283fd5b816020850160208301379081016020019190915292915050565b80356001600160401b038116811461035657600080fd5b6000602082840312156115fb578081fd5b8135611606816122e8565b9392505050565b60006020828403121561161e578081fd5b8151611606816122e8565b6000806040838503121561163b578081fd5b8235611646816122e8565b91506020830135611656816122e8565b809150509250929050565b60008060008060008060008060a0898b03121561167c578384fd5b8835611687816122e8565b97506020890135611697816122e8565b965060408901356001600160401b03808211156116b2578586fd5b6116be8c838d01611461565b909850965060608b01359150808211156116d6578586fd5b6116e28c838d01611461565b909650945060808b01359150808211156116fa578384fd5b506117078b828c0161152a565b999c989b5096995094979396929594505050565b600080600080600060a08688031215611732578081fd5b853561173d816122e8565b9450602086013561174d816122e8565b935060408601356001600160401b0380821115611768578283fd5b61177489838a016114a9565b94506060880135915080821115611789578283fd5b61179589838a016114a9565b935060808801359150808211156117aa578283fd5b506117b788828901611569565b9150509295509295909350565b60008060008060008060a087890312156117dc578182fd5b86356117e7816122e8565b955060208701356117f7816122e8565b9450604087013593506060870135925060808701356001600160401b0381111561181f578283fd5b61182b89828a0161152a565b979a9699509497509295939492505050565b600080600080600060a08688031215611854578283fd5b853561185f816122e8565b9450602086013561186f816122e8565b9350604086013592506060860135915060808601356001600160401b03811115611897578182fd5b6117b788828901611569565b600080604083850312156118b5578182fd5b82356118c0816122e8565b915060208301358015158114611656578182fd5b600080604083850312156118e6578182fd5b82356118f1816122e8565b946020939093013593505050565b60008060008060408587031215611914578182fd5b84356001600160401b038082111561192a578384fd5b61193688838901611461565b9096509450602087013591508082111561194e578384fd5b5061195b87828801611461565b95989497509550505050565b600060208284031215611978578081fd5b813561160681612300565b600060208284031215611994578081fd5b815161160681612300565b6000806000808486036101608112156119b6578283fd5b610120808212156119c5578384fd5b86955085013590506001600160401b038111156119e0578283fd5b6119ec8782880161152a565b9094509250611a00905061014086016115d3565b905092959194509250565b600060208284031215611a1c578081fd5b5035919050565b600060208284031215611a34578081fd5b5051919050565b60008060408385031215611a4d578182fd5b82359150611a5d602084016115d3565b90509250929050565b6000815180845260208085019450808401835b83811015611a9557815187529582019590820190600101611a79565b509495945050505050565b60008151808452815b81811015611ac557602081850181015186830182015201611aa9565b81811115611ad65782602083870101525b50601f01601f19169290920160200192915050565b6001600160401b03611afc826115d3565b168252602081013560ff8116808214611b1457600080fd5b602084015250604081013560ff8116808214611b2f57600080fd5b80604085015250505050565b6001600160a01b0391909116815260200190565b6001600160a01b0386811682528516602082015260a060408201819052600090611b7b90830186611a66565b8281036060840152611b8d8186611a66565b90508281036080840152611ba18185611aa0565b98975050505050505050565b6001600160a01b03868116825285166020820152604081018490526060810183905260a060808201819052600090611be790830184611aa0565b979650505050505050565b6001600160a01b03851681526000610160611c106020840187611aeb565b611c206080840160608801611aeb565b611c3060e0840160c08801611aeb565b80610140840152838184015250610180838582850137828401810191909152601f909201601f191601019392505050565b6001600160a01b0393909316835260208301919091526001600160401b0316604082015260600190565b6000602082526116066020830184611a66565b600060408252611cb16040830185611a66565b8281036020840152611cc38185611a66565b95945050505050565b901515815260200190565b6001600160e01b031991909116815260200190565b6000602082526116066020830184611aa0565b60208082526034908201527f455243313135353a207472616e7366657220746f206e6f6e20455243313135356040820152732932b1b2b4bb32b91034b6b83632b6b2b73a32b960611b606082015260800190565b60208082526028908201527f455243313135353a204552433131353552656365697665722072656a656374656040820152676420746f6b656e7360c01b606082015260800190565b6020808252602b908201527f455243313135353a2062616c616e636520717565727920666f7220746865207a60408201526a65726f206164647265737360a81b606082015260800190565b6020808252818101527f436f6d6d756e697479204e46542063616e277420626520747261736665726564604082015260600190565b60208082526032908201527f4f6e6c792074686520736b696c6c2077616c6c6574206f776e65722063616e2060408201527131b0b636103a3434b990333ab731ba34b7b760711b606082015260800190565b60208082526029908201527f455243313135353a2063616c6c6572206973206e6f74206f776e6572206e6f7260408201526808185c1c1c9bdd995960ba1b606082015260800190565b60208082526025908201527f436f6d6d756e697479204e465420646f65736e2774206861766520612062616c60408201526430b731b29760d91b606082015260800190565b60208082526025908201527f455243313135353a207472616e7366657220746f20746865207a65726f206164604082015264647265737360d81b606082015260800190565b60208082526032908201527f455243313135353a207472616e736665722063616c6c6572206973206e6f74206040820152711bdddb995c881b9bdc88185c1c1c9bdd995960721b606082015260800190565b6020808252602a908201527f455243313135353a20696e73756666696369656e742062616c616e636520666f60408201526939103a3930b739b332b960b11b606082015260800190565b60208082526024908201527f54686572652061726520616c7265616479203234206d656d626572732c20736f6040820152637272792160e01b606082015260800190565b60208082526018908201527f596f75206861766520616c7265616479206a6f696e6564210000000000000000604082015260600190565b60208082526029908201527f455243313135353a2073657474696e6720617070726f76616c20737461747573604082015268103337b91039b2b63360b91b606082015260800190565b60208082526029908201527f455243313135353a206163636f756e747320616e6420696473206c656e677468604082015268040dad2e6dac2e8c6d60bb1b606082015260800190565b60208082526028908201527f455243313135353a2069647320616e6420616d6f756e7473206c656e677468206040820152670dad2e6dac2e8c6d60c31b606082015260800190565b90815260200190565b918252602082015260400190565b6040518181016001600160401b038111828210171561216957612169612228565b604052919050565b6000821982111561218457612184612212565b500190565b60008282101561219b5761219b612212565b500390565b6002810460018216806121b457607f821691505b6020821081141561046657634e487b7160e01b600052602260045260246000fd5b600061ffff808316818114156121ed576121ed612212565b6001019392505050565b600060001982141561220b5761220b612212565b5060010190565b634e487b7160e01b600052601160045260246000fd5b634e487b7160e01b600052604160045260246000fd5b60e01c90565b600060443d10156122545761082d565b600481823e6308c379a0612268825161223e565b146122725761082d565b6040513d600319016004823e80513d6001600160401b0381602484011181841117156122a1575050505061082d565b828401925082519150808211156122bb575050505061082d565b503d830160208284010111156122d35750505061082d565b601f01601f1916810160200160405291505090565b6001600160a01b03811681146122fd57600080fd5b50565b6001600160e01b0319811681146122fd57600080fdfea264697066735822122070827b0852539d3b141de4221ff728a42585aa39c125921eea34b3c08bcdc6ce64736f6c63430008000033608060405234801561001057600080fd5b5060405161031a38038061031a83398101604081905261002f9161013b565b60008054336001600160a01b031991821681179092556001805490911690911780825585919060ff60a01b1916600160a01b83600381111561008157634e487b7160e01b600052602160045260246000fd5b021790555060026020527fe90b7bceb6e7df5418fb78d8ee546e97c83a08bbccc01a0644d599ccd2a7c2e0805460ff94851661ffff19918216179091557f679795a0195a1b76cdebb7c51d74e058aee92919b8c3389af86ef24535e8a28c80549385169382169390931790925560036000527f88601476d11616a71c5be67555bd1dff4b1cbf21533d2669b768b61518cfe1c3805491909316911617905550610193565b805160ff8116811461013657600080fd5b919050565b60008060008060808587031215610150578384fd5b84516004811061015e578485fd5b935061016c60208601610125565b925061017a60408601610125565b915061018860608601610125565b905092959194509250565b610178806101a26000396000f3fe608060405234801561001057600080fd5b50600436106100415760003560e01c80636f2ddd931461004657806374b624061461006457806386e476dd14610084575b600080fd5b61004e610099565b60405161005b919061010b565b60405180910390f35b6100776100723660046100ce565b6100a9565b60405161005b9190610133565b61008c6100bf565b60405161005b91906100f7565b600154600160a01b900460ff1681565b60026020526000908152604090205461ffff1681565b6000546001600160a01b031681565b6000602082840312156100df578081fd5b813561ffff811681146100f0578182fd5b9392505050565b6001600160a01b0391909116815260200190565b602081016004831061012d57634e487b7160e01b600052602160045260246000fd5b91905290565b61ffff9190911681526020019056fea2646970667358221220b1b2efeb7caff1671664ca991d246ff62726b7300512515164232e4ad834501a64736f6c63430008000033c3d58168c5ae7397731d063d5bbf3d657854427343f4c083240f7aacaa2d0f62a2646970667358221220b7386f6bd9fe151f442f4e448d75a17ce2bfeacfe6f68b1fe5bffae00a3c98cc64736f6c63430008000033",
  "linkReferences": {},
  "deployedLinkReferences": {}
}