{
  "_format": "hh-sol-artifact-1",
  "contractName": "CommunitiesRegistry",
  "sourceName": "contracts/CommunitiesRegistry.sol",
  "abi": [
    {
      "inputs": [
        {
          "internalType": "address",
          "name": "_skillWalletAddress",
          "type": "address"
        }
      ],
      "stateMutability": "nonpayable",
      "type": "constructor"
    },
    {
      "anonymous": false,
      "inputs": [
        {
          "indexed": false,
          "internalType": "address",
          "name": "_newCommunityAddress",
          "type": "address"
        }
      ],
      "name": "CommunityCreated",
      "type": "event"
    },
    {
      "inputs": [
        {
          "internalType": "uint256",
          "name": "",
          "type": "uint256"
        }
      ],
      "name": "communityAddresses",
      "outputs": [
        {
          "internalType": "address",
          "name": "",
          "type": "address"
        }
      ],
      "stateMutability": "view",
      "type": "function"
    },
    {
      "inputs": [
        {
          "internalType": "string",
          "name": "_url",
          "type": "string"
        },
        {
          "internalType": "uint256",
          "name": "_ownerId",
          "type": "uint256"
        },
        {
          "internalType": "uint256",
          "name": "_ownerCredits",
          "type": "uint256"
        },
        {
          "internalType": "string",
          "name": "_name",
          "type": "string"
        },
        {
          "internalType": "enum Types.Template",
          "name": "_template",
          "type": "uint8"
        },
        {
          "internalType": "uint8",
          "name": "_positionalValue1",
          "type": "uint8"
        },
        {
          "internalType": "uint8",
          "name": "_positionalValue2",
          "type": "uint8"
        },
        {
          "internalType": "uint8",
          "name": "_positionalValue3",
          "type": "uint8"
        }
      ],
      "name": "createCommunity",
      "outputs": [
        {
          "internalType": "address",
          "name": "_communityAddress",
          "type": "address"
        }
      ],
      "stateMutability": "nonpayable",
      "type": "function"
    },
    {
      "inputs": [],
      "name": "getCommunities",
      "outputs": [
        {
          "internalType": "address[]",
          "name": "",
          "type": "address[]"
        }
      ],
      "stateMutability": "view",
      "type": "function"
    },
    {
      "inputs": [
        {
          "internalType": "address",
          "name": "",
          "type": "address"
        }
      ],
      "name": "isCommunity",
      "outputs": [
        {
          "internalType": "bool",
          "name": "",
          "type": "bool"
        }
      ],
      "stateMutability": "view",
      "type": "function"
    },
    {
      "inputs": [
        {
          "internalType": "address",
          "name": "community",
          "type": "address"
        },
        {
          "internalType": "uint256",
          "name": "skillWalletTokenId",
          "type": "uint256"
        },
        {
          "internalType": "uint256",
          "name": "credits",
          "type": "uint256"
        }
      ],
      "name": "joinExistingSW",
      "outputs": [],
      "stateMutability": "nonpayable",
      "type": "function"
    },
    {
      "inputs": [
        {
          "internalType": "address",
          "name": "community",
          "type": "address"
        },
        {
          "components": [
            {
              "components": [
                {
                  "internalType": "uint64",
                  "name": "displayStringId",
                  "type": "uint64"
                },
                {
                  "internalType": "uint8",
                  "name": "level",
                  "type": "uint8"
                }
              ],
              "internalType": "struct Types.Skill",
              "name": "skill1",
              "type": "tuple"
            },
            {
              "components": [
                {
                  "internalType": "uint64",
                  "name": "displayStringId",
                  "type": "uint64"
                },
                {
                  "internalType": "uint8",
                  "name": "level",
                  "type": "uint8"
                }
              ],
              "internalType": "struct Types.Skill",
              "name": "skill2",
              "type": "tuple"
            },
            {
              "components": [
                {
                  "internalType": "uint64",
                  "name": "displayStringId",
                  "type": "uint64"
                },
                {
                  "internalType": "uint8",
                  "name": "level",
                  "type": "uint8"
                }
              ],
              "internalType": "struct Types.Skill",
              "name": "skill3",
              "type": "tuple"
            }
          ],
          "internalType": "struct Types.SkillSet",
          "name": "skillSet",
          "type": "tuple"
        },
        {
          "internalType": "string",
          "name": "uri",
          "type": "string"
        },
        {
          "internalType": "uint256",
          "name": "credits",
          "type": "uint256"
        }
      ],
      "name": "joinNewMember",
      "outputs": [],
      "stateMutability": "nonpayable",
      "type": "function"
    },
    {
      "inputs": [],
      "name": "numOfCommunities",
      "outputs": [
        {
          "internalType": "uint256",
          "name": "",
          "type": "uint256"
        }
      ],
      "stateMutability": "view",
      "type": "function"
    },
    {
      "inputs": [],
      "name": "skillWalletAddress",
      "outputs": [
        {
          "internalType": "address",
          "name": "",
          "type": "address"
        }
      ],
      "stateMutability": "view",
      "type": "function"
    }
  ],
  "bytecode": "0x608060405234801561001057600080fd5b5060405161434038038061434083398101604081905261002f91610054565b600380546001600160a01b0319166001600160a01b0392909216919091179055610082565b600060208284031215610065578081fd5b81516001600160a01b038116811461007b578182fd5b9392505050565b6142af806100916000396000f3fe60806040523480156200001157600080fd5b5060043610620000945760003560e01c8063a894d2aa1162000063578063a894d2aa146200011e578063b8ca27081462000128578063be8667691462000141578063c251b56514620001585762000094565b806348b2b32114620000995780637712f55114620000b25780639125268314620000c9578063993fa20b14620000f8575b600080fd5b620000b0620000aa3660046200062d565b62000171565b005b620000b0620000c336600462000587565b62000221565b620000e0620000da3660046200072c565b620002d0565b604051620000ef9190620007ca565b60405180910390f35b6200010f6200010936600462000563565b620002fb565b604051620000ef9190620008ac565b620000e062000310565b620001326200031f565b604051620000ef91906200097a565b620000e06200015236600462000662565b62000325565b6200016262000444565b604051620000ef91906200085d565b6001600160a01b03831660009081526020819052604090205460ff16620001b55760405162461bcd60e51b8152600401620001ac9062000943565b60405180910390fd5b604051633cf335a360e11b815283906001600160a01b038216906379e66b4690620001e7908690869060040162000983565b600060405180830381600087803b1580156200020257600080fd5b505af115801562000217573d6000803e3d6000fd5b5050505050505050565b6001600160a01b03851660009081526020819052604090205460ff166200025c5760405162461bcd60e51b8152600401620001ac9062000943565b604051637712f55160e01b815285906001600160a01b03821690637712f55190620002949033908990899089908990600401620007de565b600060405180830381600087803b158015620002af57600080fd5b505af1158015620002c4573d6000803e3d6000fd5b50505050505050505050565b60018181548110620002e157600080fd5b6000918252602090912001546001600160a01b0316905081565b60006020819052908152604090205460ff1681565b6003546001600160a01b031681565b60025481565b6000808989898989898989600360009054906101000a90046001600160a01b0316306040516200035590620004a8565b6200036a9a99989796959493929190620008b7565b604051809103906000f08015801562000387573d6000803e3d6000fd5b506001600160a01b038116600081815260208190526040808220805460ff1916600190811790915580548082018255928190527fb10e2d527612073b26eecdfd717e6a320cf44b4afac2b0732d9fcbe2b7fa0cf690920180546001600160a01b0319169093179092556002805490910190555190915081907fb4108a188495a1a681cdc0750af164011025a1773b41e93ff3e628adc037dc29906200042e908390620007ca565b60405180910390a19a9950505050505050505050565b606060018054806020026020016040519081016040528092919081815260200182805480156200049e57602002820191906000526020600020905b81546001600160a01b031681526001909101906020018083116200047f575b5050505050905090565b6138e8806200099283390190565b80356001600160a01b0381168114620004ce57600080fd5b919050565b600082601f830112620004e4578081fd5b813567ffffffffffffffff80821115620004fa57fe5b604051601f8301601f1916810160200182811182821017156200051957fe5b6040528281529250828483016020018610156200053557600080fd5b8260208601602083013760006020848301015250505092915050565b803560ff81168114620004ce57600080fd5b60006020828403121562000575578081fd5b6200058082620004b6565b9392505050565b6000806000806000858703610120811215620005a1578182fd5b620005ac87620004b6565b955060c0601f1982011215620005c0578182fd5b5060208601935060e086013567ffffffffffffffff80821115620005e2578283fd5b818801915088601f830112620005f6578283fd5b81358181111562000605578384fd5b89602082850101111562000617578384fd5b9699959850506020019561010001359392505050565b60008060006060848603121562000642578283fd5b6200064d84620004b6565b95602085013595506040909401359392505050565b600080600080600080600080610100898b0312156200067f578283fd5b883567ffffffffffffffff8082111562000697578485fd5b620006a58c838d01620004d3565b995060208b0135985060408b0135975060608b0135915080821115620006c9578485fd5b50620006d88b828c01620004d3565b955050608089013560048110620006ed578384fd5b9350620006fd60a08a0162000551565b92506200070d60c08a0162000551565b91506200071d60e08a0162000551565b90509295985092959890939650565b6000602082840312156200073e578081fd5b5035919050565b60008151808452815b818110156200076c576020818501810151868301820152016200074e565b818111156200077e5782602083870101525b50601f01601f19169290920160200192915050565b803567ffffffffffffffff8116808214620007ad57600080fd5b83525060ff620007c06020830162000551565b1660208301525050565b6001600160a01b0391909116815260200190565b6001600160a01b03861681526000610120620007fe602084018862000793565b62000810606084016040890162000793565b6200082260a084016080890162000793565b8060e0840152848184015250610140848682850137828501810191909152610100820192909252601f909201601f1916909101019392505050565b6020808252825182820181905260009190848201906040850190845b81811015620008a05783516001600160a01b03168352928401929184019160010162000879565b50909695505050505050565b901515815260200190565b6000610140808352620008cd8184018e62000745565b90508b60208401528a60408401528281036060840152620008ef818b62000745565b91505060048810620008fd57fe5b608082019790975260ff95861660a082015293851660c08501529190931660e08301526001600160a01b0392831661010083015290911661012090910152949350505050565b6020808252601a908201527f496e76616c696420636f6d6d756e697479206164647265737321000000000000604082015260600190565b90815260200190565b91825260208201526040019056fe60806040523480156200001157600080fd5b50604051620038e8380380620038e8833981016040819052620000349162000c31565b8981620000486301ffc9a760e01b620001f9565b62000053826200027e565b600480546001600160a01b0319166001600160a01b03929092169190911790555062000086630271189760e51b620001f9565b600680546001600160a01b038085166001600160a01b03199283161790925560078054928416929091169190911790556040518690869086908690620000cc9062000a76565b620000db949392919062000d57565b604051809103906000f080158015620000f8573d6000803e3d6000fd5b50600580546001600160a01b0319166001600160a01b039290921691909117905586516200012e9060089060208a019062000a84565b50600760009054906101000a90046001600160a01b03166001600160a01b031663b8ca27086040518163ffffffff1660e01b815260040160206040518083038186803b1580156200017e57600080fd5b505afa15801562000193573d6000803e3d6000fd5b505050506040513d601f19601f82011682018060405250810190620001b9919062000d1d565b620001ce57620001c862000297565b620001e9565b620001d862000297565b6009899055620001e98989620002da565b5050505050505050505062000ec1565b6001600160e01b0319808216141562000259576040805162461bcd60e51b815260206004820152601c60248201527f4552433136353a20696e76616c696420696e7465726661636520696400000000604482015290519081900360640190fd5b6001600160e01b0319166000908152602081905260409020805460ff19166001179055565b80516200029390600390602084019062000a84565b5050565b620002b930600060408051602081019091526000815263393870009062000481565b620002d830600160408051602081019091526000815260019062000481565b565b600a54601861ffff90911611156200030f5760405162461bcd60e51b8152600401620003069062000d87565b60405180910390fd5b6000828152600c602052604090205460ff1615620003415760405162461bcd60e51b8152600401620003069062000dcb565b6006546040516331a9108f60e11b81526000916001600160a01b031690636352211e906200037490869060040162000e02565b60206040518083038186803b1580156200038d57600080fd5b505afa158015620003a2573d6000803e3d6000fd5b505050506040513d601f19601f82011682018060405250810190620003c8919062000c0d565b6000848152600c602052604081208054600160ff199091168117909155600d8054808301825592527fd7b6990105719101dabeb77144f2a3385c8033acd3af97e9423a695e81ad1eb5909101859055600a805461ffff19811661ffff9182169093011691909117905590506200043f81836200056a565b7fe17e0e2cd88e2144dd54f3d823c30d4569092bcac1aabaec1129883e9cc12d2e818484604051620004749392919062000d36565b60405180910390a1505050565b6001600160a01b038416620004c85760405162461bcd60e51b8152600401808060200182810382526021815260200180620038c76021913960400191505060405180910390fd5b6000620004d462000594565b9050620004fb81600087620004e98862000599565b620004f48862000599565b87620005e0565b60008481526001602090815260408083206001600160a01b03808a1680865291845282852080548901905582518981529384018890528251919493908616926000805160206200382f83398151915292918290030190a46200056381600087878787620005e8565b5050505050565b620002933083600084604051806020016040528060008152506200084860201b62000e591760201c565b335b90565b604080516001808252818301909252606091829190602080830190803683370190505090508281600081518110620005cd57fe5b602090810291909101015290505b919050565b505050505050565b62000607846001600160a01b031662000a2260201b620010401760201c565b15620005e057836001600160a01b031663f23a6e6187878686866040518663ffffffff1660e01b815260040180866001600160a01b03168152602001856001600160a01b0316815260200184815260200183815260200180602001828103825283818151815260200191508051906020019080838360005b83811015620006995781810151838201526020016200067f565b50505050905090810190601f168015620006c75780820380516001836020036101000a031916815260200191505b509650505050505050602060405180830381600087803b158015620006eb57600080fd5b505af19250505080156200071257506040513d60208110156200070d57600080fd5b505160015b620007ee576200072162000e11565b806200072e5750620007b6565b8060405162461bcd60e51b81526004018080602001828103825283818151815260200191508051906020019080838360005b838110156200077a57818101518382015260200162000760565b50505050905090810190601f168015620007a85780820380516001836020036101000a031916815260200191505b509250505060405180910390fd5b60405162461bcd60e51b8152600401808060200182810382526034815260200180620037d36034913960400191505060405180910390fd5b6001600160e01b0319811663f23a6e6160e01b146200083f5760405162461bcd60e51b8152600401808060200182810382526028815260200180620038076028913960400191505060405180910390fd5b50505050505050565b6001600160a01b0384166200088f5760405162461bcd60e51b8152600401808060200182810382526025815260200180620038786025913960400191505060405180910390fd5b6200089962000594565b6001600160a01b0316856001600160a01b03161480620008d05750620008be62000594565b6004546001600160a01b039081169116145b80620008ec5750620008ec85620008e662000594565b62000a28565b620009295760405162461bcd60e51b81526004018080602001828103825260298152602001806200384f6029913960400191505060405180910390fd5b60006200093562000594565b905062000949818787620004e98862000599565b60008481526001602090815260408083206001600160a01b038a16845290915290205483811015620009ad5760405162461bcd60e51b815260040180806020018281038252602a8152602001806200389d602a913960400191505060405180910390fd5b60008581526001602090815260408083206001600160a01b038b811680865291845282852089870390558a81168086529483902080548a01905582518a815293840189905282519193908716926000805160206200382f83398151915292918290030190a46200083f828888888888620005e8565b3b151590565b600062000a41838362000a4860201b620010461760201c565b5092915050565b6001600160a01b03918216600090815260026020908152604080832093909416825291909152205460ff1690565b610260806200357383390190565b828054600181600116156101000203166002900490600052602060002090601f01602090048101928262000abc576000855562000b07565b82601f1062000ad757805160ff191683800117855562000b07565b8280016001018555821562000b07579182015b8281111562000b0757825182559160200191906001019062000aea565b5062000b1592915062000b19565b5090565b5b8082111562000b15576000815560010162000b1a565b80516001600160a01b0381168114620005db57600080fd5b805160048110620005db57600080fd5b600082601f83011262000b69578081fd5b81516001600160401b038082111562000b7e57fe5b6040516020601f8401601f191682018101838111838210171562000b9e57fe5b8060405250819450838252868185880101111562000bbb57600080fd5b600092505b8383101562000bdf578583018101518284018201529182019162000bc0565b8383111562000bf15760008185840101525b5050505092915050565b805160ff81168114620005db57600080fd5b60006020828403121562000c1f578081fd5b62000c2a8262000b30565b9392505050565b6000806000806000806000806000806101408b8d03121562000c51578586fd5b8a516001600160401b038082111562000c68578788fd5b62000c768e838f0162000b58565b9b5060208d01519a5060408d0151995060608d015191508082111562000c9a578788fd5b5062000ca98d828e0162000b58565b97505062000cba60808c0162000b48565b955062000cca60a08c0162000bfb565b945062000cda60c08c0162000bfb565b935062000cea60e08c0162000bfb565b925062000cfb6101008c0162000b30565b915062000d0c6101208c0162000b30565b90509295989b9194979a5092959850565b60006020828403121562000d2f578081fd5b5051919050565b6001600160a01b039390931683526020830191909152604082015260600190565b608081016004861062000d6657fe5b94815260ff9384166020820152918316604083015290911660609091015290565b60208082526024908201527f54686572652061726520616c7265616479203234206d656d626572732c20736f6040820152637272792160e01b606082015260800190565b60208082526018908201527f596f75206861766520616c7265616479206a6f696e6564210000000000000000604082015260600190565b90815260200190565b60e01c90565b600060443d101562000e235762000596565b600481823e6308c379a062000e39825162000e0b565b1462000e455762000596565b6040513d600319016004823e80513d6001600160401b03808311602484018310171562000e76575050505062000596565b8284019250825191508082111562000e92575050505062000596565b503d8301602082840101111562000eac5750505062000596565b601f01601f1916810160200160405291505090565b6126a28062000ed16000396000f3fe608060405234801561001057600080fd5b506004361061018d5760003560e01c80637c8da89d116100de578063bedf77a611610097578063e28cf15911610071578063e28cf15914610367578063e985e9c51461036f578063f23a6e6114610382578063f242432a146103955761018d565b8063bedf77a61461032e578063cfeaeb8b14610341578063d50c7377146103545761018d565b80637c8da89d146102ab5780638f853115146102c0578063a22cb465146102d3578063abb88bcc146102e6578063b887b087146102fb578063bc197c811461030e5761018d565b80631a98ce751161014b5780634e1273f4116101255780634e1273f4146102505780635aa97b06146102705780637712f5511461028557806379e66b46146102985761018d565b80631a98ce75146102135780632eb2c2d614610226578063321c48f21461023b5761018d565b8062fdd58e14610192578063019c08f5146101bb57806301ffc9a7146101c357806306fdde03146101e35780630e89341c146101f8578063135b41651461020b575b600080fd5b6101a56101a0366004611fa3565b6103a8565b6040516101b291906123d3565b60405180910390f35b6101a56103e2565b6101d66101d1366004612036565b6103e8565b6040516101b29190612248565b6101eb61042e565b6040516101b2919061228b565b6101eb61020636600461209f565b6104bc565b6101a5610554565b6101a5610221366004611c44565b61055a565b610239610234366004611cbb565b61056c565b005b61024361067a565b6040516101b29190612268565b61026361025e366004611fce565b6106fd565b6040516101b29190612204565b6102786107d1565b6040516101b291906121cf565b610239610293366004611f2e565b610992565b6102396102a63660046120cf565b610b5e565b6102b3610cec565b6040516101b2919061227c565b6101a56102ce36600461209f565b610cf6565b6102396102e1366004611efd565b610d17565b6102ee610d25565b6040516101b2919061212c565b610239610309366004611fa3565b610d34565b61032161031c366004611d75565b610d51565b6040516101b29190612253565b61023961033c366004611c44565b610d62565b61023961034f366004611fa3565b610d9c565b6101d661036236600461209f565b610db9565b610263610dce565b6101d661037d366004611c83565b610dd3565b610321610390366004611e97565b610ddf565b6102396103a3366004611e1e565b610df0565b600081156103d15760405162461bcd60e51b81526004016103c890612313565b60405180910390fd5b6103db8383611074565b5092915050565b60095481565b60006001600160e01b03198216636cdb3d1360e11b148061041957506001600160e01b031982166303a24d0760e21b145b806104285750610428826110e3565b92915050565b6008805460408051602060026001851615610100026000190190941693909304601f810184900484028201840190925281815292918301828280156104b45780601f10610489576101008083540402835291602001916104b4565b820191906000526020600020905b81548152906001019060200180831161049757829003601f168201915b505050505081565b60038054604080516020601f60026000196101006001881615020190951694909404938401819004810282018101909252828152606093909290918301828280156105485780601f1061051d57610100808354040283529160200191610548565b820191906000526020600020905b81548152906001019060200180831161052b57829003601f168201915b50505050509050919050565b600b5481565b60006105668282611074565b50919050565b6105b0868680806020026020016040519081016040528093929190818152602001838360200280828437600092019190915250600192506105ab915050565b611123565b156105cd5760405162461bcd60e51b81526004016103c8906122de565b610670888888888080602002602001604051908101604052809392919081815260200183836020028082843760009201919091525050604080516020808c0282810182019093528b82529093508b92508a91829185019084908082843760009201919091525050604080516020601f8b01819004810282018101909252898152925089915088908190840183828082843760009201919091525061116792505050565b5050505050505050565b60055460408051636f2ddd9360e01b815290516000926001600160a01b031691636f2ddd93916004808301926020929190829003018186803b1580156106bf57600080fd5b505afa1580156106d3573d6000803e3d6000fd5b505050506040513d601f19601f820116820180604052508101906106f7919061205e565b90505b90565b606061073e838380806020026020016040519081016040528093929190818152602001838360200280828437600092019190915250600192506105ab915050565b1561075b5760405162461bcd60e51b81526004016103c8906122de565b6107c88585808060200260200160405190810160405280939291908181526020018383602002808284376000920191909152505060408051602080890282810182019093528882529093508892508791829185019084908082843760009201919091525061145692505050565b50949350505050565b6107d9611abc565b600554604051633a5b120360e11b81526000916001600160a01b0316906374b624069061080b9060019060040161227c565b60206040518083038186803b15801561082357600080fd5b505afa158015610837573d6000803e3d6000fd5b505050506040513d601f19601f8201168201806040525081019061085b919061207d565b600554604051633a5b120360e11b81529192506000916001600160a01b03909116906374b62406906108929060029060040161227c565b60206040518083038186803b1580156108aa57600080fd5b505afa1580156108be573d6000803e3d6000fd5b505050506040513d601f19601f820116820180604052508101906108e2919061207d565b600554604051633a5b120360e11b81529192506000916001600160a01b03909116906374b62406906109199060039060040161227c565b60206040518083038186803b15801561093157600080fd5b505afa158015610945573d6000803e3d6000fd5b505050506040513d601f19601f82011682018060405250810190610969919061207d565b6040805160608101825261ffff9586168152938516602085015293169282019290925291505090565b600a54601861ffff90911611156109bb5760405162461bcd60e51b81526004016103c890612358565b600654604051630a73b69d60e01b81526001600160a01b0390911690630a73b69d906109f1908890889088908890600401612140565b600060405180830381600087803b158015610a0b57600080fd5b505af1158015610a1f573d6000803e3d6000fd5b50506006546040516342ca962960e01b8152600093506001600160a01b0390911691506342ca962990610a5690899060040161212c565b60206040518083038186803b158015610a6e57600080fd5b505afa158015610a82573d6000803e3d6000fd5b505050506040513d601f19601f82011682018060405250810190610aa691906120b7565b6000818152600c602052604081208054600160ff199091168117909155600d8054808301825592527fd7b6990105719101dabeb77144f2a3385c8033acd3af97e9423a695e81ad1eb5909101829055600a805461ffff19811661ffff918216909301169190911790559050610b1b8683610d34565b7fe17e0e2cd88e2144dd54f3d823c30d4569092bcac1aabaec1129883e9cc12d2e868284604051610b4e939291906121ae565b60405180910390a1505050505050565b600a54601861ffff9091161115610b875760405162461bcd60e51b81526004016103c890612358565b6000828152600c602052604090205460ff1615610bb65760405162461bcd60e51b81526004016103c89061239c565b6006546040516331a9108f60e11b81526000916001600160a01b031690636352211e90610be79086906004016123d3565b60206040518083038186803b158015610bff57600080fd5b505afa158015610c13573d6000803e3d6000fd5b505050506040513d601f19601f82011682018060405250810190610c379190611c67565b6000848152600c602052604081208054600160ff199091168117909155600d8054808301825592527fd7b6990105719101dabeb77144f2a3385c8033acd3af97e9423a695e81ad1eb5909101859055600a805461ffff19811661ffff918216909301169190911790559050610cac8183610d34565b7fe17e0e2cd88e2144dd54f3d823c30d4569092bcac1aabaec1129883e9cc12d2e818484604051610cdf939291906121ae565b60405180910390a1505050565b600a5461ffff1681565b600d8181548110610d0657600080fd5b600091825260209091200154905081565b610d218282611541565b5050565b6005546001600160a01b031690565b610d21308360008460405180602001604052806000815250610e59565b63bc197c8160e01b95945050505050565b7fbea911b50ccdd2233b28faa49766c3cbd0631608f32e5a724d7b83b32b681ad081604051610d91919061212c565b60405180910390a150565b610d21823060008460405180602001604052806000815250610e59565b600c6020526000908152604090205460ff1681565b606090565b60006103db8383611046565b63f23a6e6160e01b95945050505050565b8315610e0e5760405162461bcd60e51b81526004016103c8906122de565b610e518686868686868080601f016020809104026020016040519081016040528093929190818152602001838380828437600092019190915250610e5992505050565b505050505050565b6001600160a01b038416610e9e5760405162461bcd60e51b81526004018080602001828103825260258152602001806125726025913960400191505060405180910390fd5b610ea6611630565b6001600160a01b0316856001600160a01b03161480610eda5750610ec8611630565b6004546001600160a01b039081169116145b80610eec5750610eec8561037d611630565b610f275760405162461bcd60e51b81526004018080602001828103825260298152602001806125496029913960400191505060405180910390fd5b6000610f31611630565b9050610f51818787610f4288611634565b610f4b88611634565b87610e51565b60008481526001602090815260408083206001600160a01b038a16845290915290205483811015610fb35760405162461bcd60e51b815260040180806020018281038252602a8152602001806125c9602a913960400191505060405180910390fd5b60008581526001602090815260408083206001600160a01b038b811680865291845282852089870390558a81168086529483902080548a01905582518a815293840189905282519193908716927fc3d58168c5ae7397731d063d5bbf3d657854427343f4c083240f7aacaa2d0f6292918290030190a4611037828888888888611678565b50505050505050565b3b151590565b6001600160a01b03918216600090815260026020908152604080832093909416825291909152205460ff1690565b60006001600160a01b0383166110bb5760405162461bcd60e51b815260040180806020018281038252602b81526020018061251e602b913960400191505060405180910390fd5b5060009081526001602090815260408083206001600160a01b03949094168352929052205490565b60006001600160e01b03198216636cdb3d1360e11b148061111457506001600160e01b031982166303a24d0760e21b145b806104285750610428826118b0565b6000805b835181101561115d578284828151811061113d57fe5b60200260200101511415611155576001915050610428565b600101611127565b5060009392505050565b81518351146111a75760405162461bcd60e51b81526004018080602001828103825260288152602001806126456028913960400191505060405180910390fd5b6001600160a01b0384166111ec5760405162461bcd60e51b81526004018080602001828103825260258152602001806125726025913960400191505060405180910390fd5b6111f4611630565b6001600160a01b0316856001600160a01b031614806112285750611216611630565b6004546001600160a01b039081169116145b8061123a575061123a8561037d611630565b6112755760405162461bcd60e51b81526004018080602001828103825260328152602001806125976032913960400191505060405180910390fd5b600061127f611630565b905061128f818787878787610e51565b60005b845181101561136e5760008582815181106112a957fe5b6020026020010151905060008583815181106112c157fe5b60209081029190910181015160008481526001835260408082206001600160a01b038e1683529093529190912054909150818110156113315760405162461bcd60e51b815260040180806020018281038252602a8152602001806125c9602a913960400191505060405180910390fd5b60009283526001602081815260408086206001600160a01b038e811688529252808620938590039093558a16845292208054909101905501611292565b50846001600160a01b0316866001600160a01b0316826001600160a01b03167f4a39dc06d4c0dbc64b70af90fd698a233a518aa5d07e595d983b8c0526c8f7fb8787604051808060200180602001838103835285818151815260200191508051906020019060200280838360005b838110156113f45781810151838201526020016113dc565b50505050905001838103825284818151815260200191508051906020019060200280838360005b8381101561143357818101518382015260200161141b565b5050505090500194505050505060405180910390a4610e518187878787876118cf565b606081518351146114985760405162461bcd60e51b815260040180806020018281038252602981526020018061261c6029913960400191505060405180910390fd5b606083516001600160401b03811180156114b157600080fd5b506040519080825280602002602001820160405280156114db578160200160208202803683370190505b50905060005b84518110156115395761151a8582815181106114f957fe5b602002602001015185838151811061150d57fe5b60200260200101516103a8565b82828151811061152657fe5b60209081029190910101526001016114e1565b509392505050565b816001600160a01b0316611553611630565b6001600160a01b031614156115995760405162461bcd60e51b81526004018080602001828103825260298152602001806125f36029913960400191505060405180910390fd5b80600260006115a6611630565b6001600160a01b03908116825260208083019390935260409182016000908120918716808252919093529120805460ff1916921515929092179091556115ea611630565b6001600160a01b03167f17307eab39ab6107e8899845ad3d59bd9653f200f220920489ca2b5937696c318360405180821515815260200191505060405180910390a35050565b3390565b60408051600180825281830190925260609182919060208083019080368337019050509050828160008151811061166757fe5b602090810291909101015292915050565b61168a846001600160a01b0316611040565b15610e5157836001600160a01b031663f23a6e6187878686866040518663ffffffff1660e01b815260040180866001600160a01b03168152602001856001600160a01b0316815260200184815260200183815260200180602001828103825283818151815260200191508051906020019080838360005b83811015611719578181015183820152602001611701565b50505050905090810190601f1680156117465780820380516001836020036101000a031916815260200191505b509650505050505050602060405180830381600087803b15801561176957600080fd5b505af192505050801561178e57506040513d602081101561178957600080fd5b505160015b6118615761179a612405565b806117a5575061182a565b8060405162461bcd60e51b81526004018080602001828103825283818151815260200191508051906020019080838360005b838110156117ef5781810151838201526020016117d7565b50505050905090810190601f16801561181c5780820380516001836020036101000a031916815260200191505b509250505060405180910390fd5b60405162461bcd60e51b81526004018080602001828103825260348152602001806124c26034913960400191505060405180910390fd5b6001600160e01b0319811663f23a6e6160e01b146110375760405162461bcd60e51b81526004018080602001828103825260288152602001806124f66028913960400191505060405180910390fd5b6001600160e01b03191660009081526020819052604090205460ff1690565b6118e1846001600160a01b0316611040565b15610e5157836001600160a01b031663bc197c8187878686866040518663ffffffff1660e01b815260040180866001600160a01b03168152602001856001600160a01b03168152602001806020018060200180602001848103845287818151815260200191508051906020019060200280838360005b8381101561196f578181015183820152602001611957565b50505050905001848103835286818151815260200191508051906020019060200280838360005b838110156119ae578181015183820152602001611996565b50505050905001848103825285818151815260200191508051906020019080838360005b838110156119ea5781810151838201526020016119d2565b50505050905090810190601f168015611a175780820380516001836020036101000a031916815260200191505b5098505050505050505050602060405180830381600087803b158015611a3c57600080fd5b505af1925050508015611a6157506040513d6020811015611a5c57600080fd5b505160015b611a6d5761179a612405565b6001600160e01b0319811663bc197c8160e01b146110375760405162461bcd60e51b81526004018080602001828103825260288152602001806124f66028913960400191505060405180910390fd5b60405180606001604052806003906020820280368337509192915050565b60008083601f840112611aeb578182fd5b5081356001600160401b03811115611b01578182fd5b6020830191508360208083028501011115611b1b57600080fd5b9250929050565b600082601f830112611b32578081fd5b81356001600160401b03811115611b4557fe5b6020808202611b558282016123dc565b83815293508184018583018287018401881015611b7157600080fd5b600092505b84831015611b94578035825260019290920191908301908301611b76565b505050505092915050565b60008083601f840112611bb0578182fd5b5081356001600160401b03811115611bc6578182fd5b602083019150836020828501011115611b1b57600080fd5b600082601f830112611bee578081fd5b81356001600160401b03811115611c0157fe5b611c14601f8201601f19166020016123dc565b9150808252836020828501011115611c2b57600080fd5b8060208401602084013760009082016020015292915050565b600060208284031215611c55578081fd5b8135611c60816124a9565b9392505050565b600060208284031215611c78578081fd5b8151611c60816124a9565b60008060408385031215611c95578081fd5b8235611ca0816124a9565b91506020830135611cb0816124a9565b809150509250929050565b60008060008060008060008060a0898b031215611cd6578384fd5b8835611ce1816124a9565b97506020890135611cf1816124a9565b965060408901356001600160401b0380821115611d0c578586fd5b611d188c838d01611ada565b909850965060608b0135915080821115611d30578586fd5b611d3c8c838d01611ada565b909650945060808b0135915080821115611d54578384fd5b50611d618b828c01611b9f565b999c989b5096995094979396929594505050565b600080600080600060a08688031215611d8c578081fd5b8535611d97816124a9565b94506020860135611da7816124a9565b935060408601356001600160401b0380821115611dc2578283fd5b611dce89838a01611b22565b94506060880135915080821115611de3578283fd5b611def89838a01611b22565b93506080880135915080821115611e04578283fd5b50611e1188828901611bde565b9150509295509295909350565b60008060008060008060a08789031215611e36578182fd5b8635611e41816124a9565b95506020870135611e51816124a9565b9450604087013593506060870135925060808701356001600160401b03811115611e79578283fd5b611e8589828a01611b9f565b979a9699509497509295939492505050565b600080600080600060a08688031215611eae578283fd5b8535611eb9816124a9565b94506020860135611ec9816124a9565b9350604086013592506060860135915060808601356001600160401b03811115611ef1578182fd5b611e1188828901611bde565b60008060408385031215611f0f578182fd5b8235611f1a816124a9565b915060208301358015158114611cb0578182fd5b6000806000806000858703610120811215611f47578384fd5b8635611f52816124a9565b955060c0601f1982011215611f65578384fd5b5060208601935060e08601356001600160401b03811115611f84578384fd5b611f9088828901611b9f565b9699959850966101000135949350505050565b60008060408385031215611fb5578182fd5b8235611fc0816124a9565b946020939093013593505050565b60008060008060408587031215611fe3578182fd5b84356001600160401b0380821115611ff9578384fd5b61200588838901611ada565b9096509450602087013591508082111561201d578384fd5b5061202a87828801611ada565b95989497509550505050565b600060208284031215612047578081fd5b81356001600160e01b031981168114611c60578182fd5b60006020828403121561206f578081fd5b815160048110611c60578182fd5b60006020828403121561208e578081fd5b815161ffff81168114611c60578182fd5b6000602082840312156120b0578081fd5b5035919050565b6000602082840312156120c8578081fd5b5051919050565b600080604083850312156120e1578182fd5b50508035926020909101359150565b80356001600160401b03811680821461210857600080fd5b835250602081013560ff811680821461212057600080fd5b80602085015250505050565b6001600160a01b0391909116815260200190565b6001600160a01b0385168152600061010061215e60208401876120f0565b61216e60608401604088016120f0565b61217e60a08401608088016120f0565b8060e0840152838184015250610120838582850137828401810191909152601f909201601f191601019392505050565b6001600160a01b039390931683526020830191909152604082015260600190565b60608101818360005b60038110156121fb57815161ffff168352602092830192909101906001016121d8565b50505092915050565b6020808252825182820181905260009190848201906040850190845b8181101561223c57835183529284019291840191600101612220565b50909695505050505050565b901515815260200190565b6001600160e01b031991909116815260200190565b602081016004831061227657fe5b91905290565b61ffff91909116815260200190565b6000602080835283518082850152825b818110156122b75785810183015185820160400152820161229b565b818111156122c85783604083870101525b50601f01601f1916929092016040019392505050565b6020808252818101527f436f6d6d756e697479204e46542063616e277420626520747261736665726564604082015260600190565b60208082526025908201527f436f6d6d756e697479204e465420646f65736e2774206861766520612062616c60408201526430b731b29760d91b606082015260800190565b60208082526024908201527f54686572652061726520616c7265616479203234206d656d626572732c20736f6040820152637272792160e01b606082015260800190565b60208082526018908201527f596f75206861766520616c7265616479206a6f696e6564210000000000000000604082015260600190565b90815260200190565b6040518181016001600160401b03811182821017156123f757fe5b604052919050565b60e01c90565b600060443d1015612415576106fa565b600481823e6308c379a061242982516123ff565b14612433576106fa565b6040513d600319016004823e80513d6001600160401b03816024840111818411171561246257505050506106fa565b8284019250825191508082111561247c57505050506106fa565b503d83016020828401011115612494575050506106fa565b601f01601f1916810160200160405291505090565b6001600160a01b03811681146124be57600080fd5b5056fe455243313135353a207472616e7366657220746f206e6f6e2045524331313535526563656976657220696d706c656d656e746572455243313135353a204552433131353552656365697665722072656a656374656420746f6b656e73455243313135353a2062616c616e636520717565727920666f7220746865207a65726f2061646472657373455243313135353a2063616c6c6572206973206e6f74206f776e6572206e6f7220617070726f766564455243313135353a207472616e7366657220746f20746865207a65726f2061646472657373455243313135353a207472616e736665722063616c6c6572206973206e6f74206f776e6572206e6f7220617070726f766564455243313135353a20696e73756666696369656e742062616c616e636520666f72207472616e73666572455243313135353a2073657474696e6720617070726f76616c2073746174757320666f722073656c66455243313135353a206163636f756e747320616e6420696473206c656e677468206d69736d61746368455243313135353a2069647320616e6420616d6f756e7473206c656e677468206d69736d61746368a2646970667358221220d24b11e263bbeaa80cf4142ab7e1d4503327cdc5c9ca1ff70f9f4f78e1796ad664736f6c63430007040033608060405234801561001057600080fd5b506040516102603803806102608339818101604052608081101561003357600080fd5b5080516020820151604083015160609093015160008054336001600160a01b03199182168117909255600180549091169091178082559394929385919060ff60a01b1916600160a01b83600381111561008857fe5b021790555060026020527fe90b7bceb6e7df5418fb78d8ee546e97c83a08bbccc01a0644d599ccd2a7c2e0805461ffff1990811660ff958616179091557f679795a0195a1b76cdebb7c51d74e058aee92919b8c3389af86ef24535e8a28c805482169385169390931790925560036000527f88601476d11616a71c5be67555bd1dff4b1cbf21533d2669b768b61518cfe1c38054909216921691909117905550610129806101376000396000f3fe6080604052348015600f57600080fd5b5060043610603c5760003560e01c80636f2ddd9314604157806374b6240614606757806386e476dd14609c575b600080fd5b604760be565b60405180826003811115605657fe5b815260200191505060405180910390f35b608560048036036020811015607b57600080fd5b503561ffff1660ce565b6040805161ffff9092168252519081900360200190f35b60a260e4565b604080516001600160a01b039092168252519081900360200190f35b600154600160a01b900460ff1681565b60026020526000908152604090205461ffff1681565b6000546001600160a01b03168156fea2646970667358221220c2414e8ad1a9e5387647a63886ab06f14fb755f2d71f14c2bf8751afc1b0342364736f6c63430007040033455243313135353a207472616e7366657220746f206e6f6e2045524331313535526563656976657220696d706c656d656e746572455243313135353a204552433131353552656365697665722072656a656374656420746f6b656e73c3d58168c5ae7397731d063d5bbf3d657854427343f4c083240f7aacaa2d0f62455243313135353a2063616c6c6572206973206e6f74206f776e6572206e6f7220617070726f766564455243313135353a207472616e7366657220746f20746865207a65726f2061646472657373455243313135353a20696e73756666696369656e742062616c616e636520666f72207472616e73666572455243313135353a206d696e7420746f20746865207a65726f2061646472657373a264697066735822122061e211878c9a41a73de5c419d46e0ba887496413e8666a96374977138b37b02f64736f6c63430007040033",
  "linkReferences": {},
  "deployedLinkReferences": {}
}