{
  "_format": "hh-sol-artifact-1",
  "contractName": "Community",
  "sourceName": "contracts/Community.sol",
  "abi": [
    {
      "inputs": [
        {
          "internalType": "string",
          "name": "_url",
          "type": "string"
        }
      ],
      "stateMutability": "nonpayable",
      "type": "constructor"
    },
    {
      "anonymous": false,
      "inputs": [
        {
          "indexed": true,
          "internalType": "address",
          "name": "_member",
          "type": "address"
        },
        {
          "indexed": false,
          "internalType": "uint256",
          "name": "_skillWalletTokenId",
          "type": "uint256"
        },
        {
          "indexed": false,
          "internalType": "uint256",
          "name": "_transferredTokens",
          "type": "uint256"
        }
      ],
      "name": "MemberAdded",
      "type": "event"
    },
    {
      "anonymous": false,
      "inputs": [
        {
          "indexed": true,
          "internalType": "address",
          "name": "_member",
          "type": "address"
        }
      ],
      "name": "MemberLeft",
      "type": "event"
    },
    {
      "inputs": [],
      "name": "activeMembersCount",
      "outputs": [
        {
          "internalType": "uint16",
          "name": "",
          "type": "uint16"
        }
      ],
      "stateMutability": "view",
      "type": "function"
    },
    {
      "inputs": [
        {
          "internalType": "uint256",
          "name": "projectId",
          "type": "uint256"
        }
      ],
      "name": "addProjectId",
      "outputs": [],
      "stateMutability": "nonpayable",
      "type": "function"
    },
    {
      "inputs": [],
      "name": "getMembers",
      "outputs": [
        {
          "internalType": "uint256[]",
          "name": "",
          "type": "uint256[]"
        }
      ],
      "stateMutability": "view",
      "type": "function"
    },
    {
      "inputs": [
        {
          "internalType": "uint256",
          "name": "projectId",
          "type": "uint256"
        }
      ],
      "name": "getProjectTreasuryAddress",
      "outputs": [
        {
          "internalType": "address",
          "name": "",
          "type": "address"
        }
      ],
      "stateMutability": "view",
      "type": "function"
    },
    {
      "inputs": [],
      "name": "getProjects",
      "outputs": [
        {
          "internalType": "uint256[]",
          "name": "",
          "type": "uint256[]"
        }
      ],
      "stateMutability": "view",
      "type": "function"
    },
    {
      "inputs": [],
      "name": "getTemplate",
      "outputs": [
        {
          "internalType": "uint256",
          "name": "",
          "type": "uint256"
        }
      ],
      "stateMutability": "view",
      "type": "function"
    },
    {
      "inputs": [],
      "name": "getTokenId",
      "outputs": [
        {
          "internalType": "uint256",
          "name": "",
          "type": "uint256"
        }
      ],
      "stateMutability": "view",
      "type": "function"
    },
    {
      "inputs": [],
      "name": "getTreasuryBalance",
      "outputs": [
        {
          "internalType": "uint256",
          "name": "",
          "type": "uint256"
        }
      ],
      "stateMutability": "view",
      "type": "function"
    },
    {
      "inputs": [
        {
          "internalType": "address",
          "name": "",
          "type": "address"
        }
      ],
      "name": "isMember",
      "outputs": [
        {
          "internalType": "bool",
          "name": "",
          "type": "bool"
        }
      ],
      "stateMutability": "view",
      "type": "function"
    },
    {
      "inputs": [
        {
          "internalType": "uint256",
          "name": "skillWalletTokenId",
          "type": "uint256"
        },
        {
          "internalType": "uint256",
          "name": "credits",
          "type": "uint256"
        }
      ],
      "name": "join",
      "outputs": [],
      "stateMutability": "nonpayable",
      "type": "function"
    },
    {
      "inputs": [
        {
          "internalType": "address",
          "name": "newMemberAddress",
          "type": "address"
        },
        {
          "internalType": "uint64",
          "name": "displayStringId1",
          "type": "uint64"
        },
        {
          "internalType": "uint8",
          "name": "level1",
          "type": "uint8"
        },
        {
          "internalType": "uint64",
          "name": "displayStringId2",
          "type": "uint64"
        },
        {
          "internalType": "uint8",
          "name": "level2",
          "type": "uint8"
        },
        {
          "internalType": "uint64",
          "name": "displayStringId3",
          "type": "uint64"
        },
        {
          "internalType": "uint8",
          "name": "level3",
          "type": "uint8"
        },
        {
          "internalType": "string",
          "name": "uri",
          "type": "string"
        },
        {
          "internalType": "uint256",
          "name": "credits",
          "type": "uint256"
        }
      ],
      "name": "joinNewMember",
      "outputs": [],
      "stateMutability": "nonpayable",
      "type": "function"
    },
    {
      "inputs": [
        {
          "internalType": "address",
          "name": "memberAddress",
          "type": "address"
        }
      ],
      "name": "leave",
      "outputs": [],
      "stateMutability": "nonpayable",
      "type": "function"
    },
    {
      "inputs": [],
      "name": "metadataUri",
      "outputs": [
        {
          "internalType": "string",
          "name": "",
          "type": "string"
        }
      ],
      "stateMutability": "view",
      "type": "function"
    },
    {
      "inputs": [],
      "name": "ownerId",
      "outputs": [
        {
          "internalType": "uint256",
          "name": "",
          "type": "uint256"
        }
      ],
      "stateMutability": "view",
      "type": "function"
    },
    {
      "inputs": [],
      "name": "scarcityScore",
      "outputs": [
        {
          "internalType": "uint256",
          "name": "",
          "type": "uint256"
        }
      ],
      "stateMutability": "view",
      "type": "function"
    },
    {
      "inputs": [
        {
          "internalType": "uint256",
          "name": "",
          "type": "uint256"
        }
      ],
      "name": "skillWalletIds",
      "outputs": [
        {
          "internalType": "uint256",
          "name": "",
          "type": "uint256"
        }
      ],
      "stateMutability": "view",
      "type": "function"
    },
    {
      "inputs": [],
      "name": "tokenId",
      "outputs": [
        {
          "internalType": "uint256",
          "name": "",
          "type": "uint256"
        }
      ],
      "stateMutability": "view",
      "type": "function"
    },
    {
      "inputs": [
        {
          "internalType": "uint256",
          "name": "amount",
          "type": "uint256"
        }
      ],
      "name": "transferToTreasury",
      "outputs": [],
      "stateMutability": "nonpayable",
      "type": "function"
    }
  ],
  "bytecode": "0x60806040523480156200001157600080fd5b506040516200325d3803806200325d8339810160408190526200003491620006ee565b80516200004990600090602084019062000585565b5060405162000058906200061a565b604051809103906000f08015801562000075573d6000803e3d6000fd5b50600780546001600160a01b0319166001600160a01b039283161790819055604051911690620000a59062000628565b620000b19190620007c0565b604051809103906000f080158015620000ce573d6000803e3d6000fd5b50600980546001600160a01b039283166001600160a01b031991821617909155600a80549091163317908190556040805163f41f590360e01b81529051919092169163f41f5903916004808301926020929190829003018186803b1580156200013657600080fd5b505afa1580156200014b573d6000803e3d6000fd5b505050506040513d601f19601f820116820180604052508101906200017191906200069c565b600b80546001600160a01b0319166001600160a01b03928316179055600a546040805163544a695560e11b81529051919092169163a894d2aa916004808301926020929190829003018186803b158015620001cb57600080fd5b505afa158015620001e0573d6000803e3d6000fd5b505050506040513d601f19601f820116820180604052508101906200020691906200069c565b600880546001600160a01b0319166001600160a01b039283161790556009546200024391166000808080808088686c6b935b8bbd4000006200024a565b50620008f6565b600254601861ffff90911611156200027f5760405162461bcd60e51b8152600401620002769062000871565b60405180910390fd5b6200028962000636565b506040805160a0810182526001600160401b03808b166060830190815260ff808c166080850152908352835180850185528a831681528982166020828101919091528085019190915284518086018652928916835290871690820152818301526008549151630a73b69d60e01b815290916001600160a01b031690630a73b69d906200031e908d9085908890600401620007d4565b600060405180830381600087803b1580156200033957600080fd5b505af11580156200034e573d6000803e3d6000fd5b50506008546040516342ca962960e01b8152600093506001600160a01b0390911691506342ca96299062000387908e90600401620007c0565b60206040518083038186803b158015620003a057600080fd5b505afa158015620003b5573d6000803e3d6000fd5b505050506040513d601f19601f82011682018060405250810190620003db91906200078c565b60075460405163e43252d760e01b81529192506001600160a01b03169063e43252d7906200040e908e90600401620007c0565b600060405180830381600087803b1580156200042957600080fd5b505af11580156200043e573d6000803e3d6000fd5b505060075460405163a9059cbb60e01b81526001600160a01b03909116925063a9059cbb915062000476908e90879060040162000858565b602060405180830381600087803b1580156200049157600080fd5b505af1158015620004a6573d6000803e3d6000fd5b505050506040513d601f19601f82011682018060405250810190620004cc9190620006cc565b506005805460018082019092557f036b6384b5eca791c62761152d0c79bb0604c104a5fb6f4eb0703f3154bb3db0018290556001600160a01b038c1660008181526004602052604090819020805460ff1916841790556002805461ffff19811661ffff918216909501169390931790925590517fe17e0e2cd88e2144dd54f3d823c30d4569092bcac1aabaec1129883e9cc12d2e90620005709084908790620008b5565b60405180910390a25050505050505050505050565b828054600181600116156101000203166002900490600052602060002090601f016020900481019282620005bd576000855562000608565b82601f10620005d857805160ff191683800117855562000608565b8280016001018555821562000608579182015b8281111562000608578251825591602001919060010190620005eb565b50620006169291506200066e565b5090565b6113898062001bd883390190565b6102fc8062002f6183390190565b60405180606001604052806200064b62000685565b81526020016200065a62000685565b81526020016200066962000685565b905290565b5b808211156200061657600081556001016200066f565b604080518082019091526000808252602082015290565b600060208284031215620006ae578081fd5b81516001600160a01b0381168114620006c5578182fd5b9392505050565b600060208284031215620006de578081fd5b81518015158114620006c5578182fd5b60006020828403121562000700578081fd5b81516001600160401b038082111562000717578283fd5b818401915084601f8301126200072b578283fd5b8151818111156200073857fe5b604051601f8201601f1916810160200183811182821017156200075757fe5b6040528181528382016020018710156200076f578485fd5b62000782826020830160208701620008c3565b9695505050505050565b6000602082840312156200079e578081fd5b5051919050565b80516001600160401b0316825260209081015160ff16910152565b6001600160a01b0391909116815260200190565b600061010060018060a01b0386168352620007f4602084018651620007a5565b6020850151620008086060850182620007a5565b5060408501516200081d60a0850182620007a5565b508060e0840152835180828501526101209150620008428183860160208801620008c3565b601f01601f191692909201909101949350505050565b6001600160a01b03929092168252602082015260400190565b60208082526024908201527f54686572652061726520616c7265616479203234206d656d626572732c20736f6040820152637272792160e01b606082015260800190565b918252602082015260400190565b60005b83811015620008e0578181015183820152602001620008c6565b83811115620008f0576000848401525b50505050565b6112d280620009066000396000f3fe608060405234801561001057600080fd5b50600436106101165760003560e01c80637c8da89d116100a2578063a230c52411610071578063a230c524146101ee578063b522f69a1461020e578063bedf77a61461022e578063dcc6012814610241578063f79489d11461024957610116565b80637c8da89d146101a95780638f853115146101be5780639b5655dc146101d15780639eab5253146101d957610116565b8063135b4165116100e9578063135b41651461016957806317d70f7c14610171578063321c48f21461017957806377a4d5591461018157806379e66b461461019657610116565b8063010a38f51461011b578063019c08f5146101395780630613526514610141578063063d11de14610156575b600080fd5b61012361025c565b604051610130919061126d565b60405180910390f35b6101236102e7565b61015461014f366004610f02565b6102ed565b005b61015461016436600461103c565b61060e565b610123610702565b610123610708565b61012361070e565b610189610820565b60405161013091906111d0565b6101546101a436600461106c565b6108ae565b6101b1610b3e565b604051610130919061125e565b6101236101cc36600461103c565b610b48565b610123610b69565b6101e1610bf6565b6040516101309190611181565b6102016101fc366004610ec3565b610c4e565b60405161013091906111c5565b61022161021c36600461103c565b610c63565b60405161013091906110f4565b61015461023c366004610ec3565b610cec565b6101e1610d23565b61015461025736600461103c565b610d79565b600a54604051630e6741d360e31b815260009182916001600160a01b039091169063733a0e98906102919030906004016110f4565b60206040518083038186803b1580156102a957600080fd5b505afa1580156102bd573d6000803e3d6000fd5b505050506040513d601f19601f820116820180604052508101906102e19190611054565b91505090565b60015481565b600254601861ffff909116111561031f5760405162461bcd60e51b8152600401610316906111e3565b60405180910390fd5b610327610e51565b506040805160a08101825267ffffffffffffffff808b166060830190815260ff808c166080850152908352835180850185528a831681528982166020828101919091528085019190915284518086018652928916835290871690820152818301526008549151630a73b69d60e01b815290916001600160a01b031690630a73b69d906103bb908d9085908890600401611108565b600060405180830381600087803b1580156103d557600080fd5b505af11580156103e9573d6000803e3d6000fd5b50506008546040516342ca962960e01b8152600093506001600160a01b0390911691506342ca962990610420908e906004016110f4565b60206040518083038186803b15801561043857600080fd5b505afa15801561044c573d6000803e3d6000fd5b505050506040513d601f19601f820116820180604052508101906104709190611054565b60075460405163e43252d760e01b81529192506001600160a01b03169063e43252d7906104a1908e906004016110f4565b600060405180830381600087803b1580156104bb57600080fd5b505af11580156104cf573d6000803e3d6000fd5b505060075460405163a9059cbb60e01b81526001600160a01b03909116925063a9059cbb9150610505908e908790600401611168565b602060405180830381600087803b15801561051f57600080fd5b505af1158015610533573d6000803e3d6000fd5b505050506040513d601f19601f82011682018060405250810190610557919061101c565b506005805460018082019092557f036b6384b5eca791c62761152d0c79bb0604c104a5fb6f4eb0703f3154bb3db0018290556001600160a01b038c1660008181526004602052604090819020805460ff1916841790556002805461ffff19811661ffff918216909501169390931790925590517fe17e0e2cd88e2144dd54f3d823c30d4569092bcac1aabaec1129883e9cc12d2e906105f99084908790611276565b60405180910390a25050505050505050505050565b60075460095460405163a9059cbb60e01b81526001600160a01b039283169263a9059cbb92610644929116908590600401611168565b602060405180830381600087803b15801561065e57600080fd5b505af1158015610672573d6000803e3d6000fd5b505050506040513d601f19601f82011682018060405250810190610696919061101c565b50600960009054906101000a90046001600160a01b03166001600160a01b031663ebf5a99f6040518163ffffffff1660e01b8152600401600060405180830381600087803b1580156106e757600080fd5b505af11580156106fb573d6000803e3d6000fd5b5050505050565b60035481565b60065481565b600a54604051630e6741d360e31b815260009182916001600160a01b039091169063733a0e98906107439030906004016110f4565b60206040518083038186803b15801561075b57600080fd5b505afa15801561076f573d6000803e3d6000fd5b505050506040513d601f19601f820116820180604052508101906107939190611054565b600a54604051636fc6b3db60e01b81529192506000916001600160a01b0390911690636fc6b3db906107c990859060040161126d565b60206040518083038186803b1580156107e157600080fd5b505afa1580156107f5573d6000803e3d6000fd5b505050506040513d601f19601f820116820180604052508101906108199190611054565b9250505090565b6000805460408051602060026001851615610100026000190190941693909304601f810184900484028201840190925281815292918301828280156108a65780601f1061087b576101008083540402835291602001916108a6565b820191906000526020600020905b81548152906001019060200180831161088957829003601f168201915b505050505081565b600254601861ffff90911611156108d75760405162461bcd60e51b8152600401610316906111e3565b6008546040516331a9108f60e11b81526000916001600160a01b031690636352211e9061090890869060040161126d565b60206040518083038186803b15801561092057600080fd5b505afa158015610934573d6000803e3d6000fd5b505050506040513d601f19601f820116820180604052508101906109589190610ee6565b6001600160a01b03811660009081526004602052604090205490915060ff16156109945760405162461bcd60e51b815260040161031690611227565b6001600160a01b0381166000908152600460205260409020805460ff1916600117905560025460058054859261ffff169081106109cd57fe5b9060005260206000200181905550607b60056001815481106109eb57fe5b6000918252602090912001556002805461ffff8082166001011661ffff1990911617905560075460405163e43252d760e01b81526001600160a01b039091169063e43252d790610a3f9084906004016110f4565b600060405180830381600087803b158015610a5957600080fd5b505af1158015610a6d573d6000803e3d6000fd5b505060075460405163a9059cbb60e01b81526001600160a01b03909116925063a9059cbb9150610aa39084908690600401611168565b602060405180830381600087803b158015610abd57600080fd5b505af1158015610ad1573d6000803e3d6000fd5b505050506040513d601f19601f82011682018060405250810190610af5919061101c565b50806001600160a01b03167fe17e0e2cd88e2144dd54f3d823c30d4569092bcac1aabaec1129883e9cc12d2e8484604051610b31929190611276565b60405180910390a2505050565b60025461ffff1681565b60058181548110610b5857600080fd5b600091825260209091200154905081565b6007546009546040516370a0823160e01b81526000926001600160a01b03908116926370a0823192610ba192909116906004016110f4565b60206040518083038186803b158015610bb957600080fd5b505afa158015610bcd573d6000803e3d6000fd5b505050506040513d601f19601f82011682018060405250810190610bf19190611054565b905090565b60606005805480602002602001604051908101604052809291908181526020018280548015610c4457602002820191906000526020600020905b815481526020019060010190808311610c30575b5050505050905090565b60046020526000908152604090205460ff1681565b600b54604051635a917b4d60e11b81526000916001600160a01b03169063b522f69a90610c9490859060040161126d565b60206040518083038186803b158015610cac57600080fd5b505afa158015610cc0573d6000803e3d6000fd5b505050506040513d601f19601f82011682018060405250810190610ce49190610ee6565b90505b919050565b6040516001600160a01b038216907fbea911b50ccdd2233b28faa49766c3cbd0631608f32e5a724d7b83b32b681ad090600090a250565b6060600c805480602002602001604051908101604052809291908181526020018280548015610c445760200282019190600052602060002090815481526020019060010190808311610c30575050505050905090565b600a60009054906101000a90046001600160a01b03166001600160a01b031663f41f59036040518163ffffffff1660e01b815260040160206040518083038186803b158015610dc757600080fd5b505afa158015610ddb573d6000803e3d6000fd5b505050506040513d601f19601f82011682018060405250810190610dff9190610ee6565b6001600160a01b0316336001600160a01b031614610e1c57600080fd5b600c80546001810182556000919091527fdf6966c971051c3d54ec59162606531493a51404a002842f56009d7e5cf4a8c70155565b6040518060600160405280610e64610e83565b8152602001610e71610e83565b8152602001610e7e610e83565b905290565b604080518082019091526000808252602082015290565b803567ffffffffffffffff81168114610ce757600080fd5b803560ff81168114610ce757600080fd5b600060208284031215610ed4578081fd5b8135610edf81611284565b9392505050565b600060208284031215610ef7578081fd5b8151610edf81611284565b60008060008060008060008060006101208a8c031215610f20578485fd5b8935610f2b81611284565b98506020610f3a8b8201610e9a565b9850610f4860408c01610eb2565b9750610f5660608c01610e9a565b9650610f6460808c01610eb2565b9550610f7260a08c01610e9a565b9450610f8060c08c01610eb2565b935060e08b013567ffffffffffffffff80821115610f9c578485fd5b818d0191508d601f830112610faf578485fd5b813581811115610fbb57fe5b604051601f8201601f1916810185018381118282101715610fd857fe5b80604052508181528f85838601011115610ff0578687fd5b81858501868301378685838301015280965050505050506101008a013590509295985092959850929598565b60006020828403121561102d578081fd5b81518015158114610edf578182fd5b60006020828403121561104d578081fd5b5035919050565b600060208284031215611065578081fd5b5051919050565b6000806040838503121561107e578182fd5b50508035926020909101359150565b60008151808452815b818110156110b257602081850181015186830182015201611096565b818111156110c35782602083870101525b50601f01601f19169290920160200192915050565b805167ffffffffffffffff16825260209081015160ff16910152565b6001600160a01b0391909116815260200190565b600061010060018060a01b03861683526111266020840186516110d8565b602085015161113860608501826110d8565b50604085015161114b60a08501826110d8565b508060e084015261115e8184018561108d565b9695505050505050565b6001600160a01b03929092168252602082015260400190565b6020808252825182820181905260009190848201906040850190845b818110156111b95783518352928401929184019160010161119d565b50909695505050505050565b901515815260200190565b600060208252610edf602083018461108d565b60208082526024908201527f54686572652061726520616c7265616479203234206d656d626572732c20736f6040820152637272792160e01b606082015260800190565b60208082526018908201527f596f75206861766520616c7265616479206a6f696e6564210000000000000000604082015260600190565b61ffff91909116815260200190565b90815260200190565b918252602082015260400190565b6001600160a01b038116811461129957600080fd5b5056fea26469706673582212204ff0f33704ee3729627a1b31f4ba572f6924fee16f58c460ada11545a548e7aa64736f6c6343000704003360806040523480156200001157600080fd5b50604051806040016040528060048152602001634469546f60e01b815250604051806040016040528060048152602001634449544f60e01b8152508160039080519060200190620000649291906200029c565b5080516200007a9060049060208401906200029c565b50506005805460ff191660121790555060006200009662000122565b60058054610100600160a81b0319166101006001600160a01b03841690810291909117909155604051919250906000907f8be0079c531659141344cd1fd0a4f28419497f9722a3daafe3b4186f6b6457e0908290a350336000818152600660205260409020805460ff191660011790556200011c906914542ba12a337c00000062000126565b62000348565b3390565b6001600160a01b03821662000182576040805162461bcd60e51b815260206004820152601f60248201527f45524332303a206d696e7420746f20746865207a65726f206164647265737300604482015290519081900360640190fd5b620001906000838362000235565b620001ac816002546200023a60201b62000a051790919060201c565b6002556001600160a01b03821660009081526020818152604090912054620001df91839062000a056200023a821b17901c565b6001600160a01b0383166000818152602081815260408083209490945583518581529351929391927fddf252ad1be2c89b69c2b068fc378daa952ba7f163c4a11628f55a4df523b3ef9281900390910190a35050565b505050565b60008282018381101562000295576040805162461bcd60e51b815260206004820152601b60248201527f536166654d6174683a206164646974696f6e206f766572666c6f770000000000604482015290519081900360640190fd5b9392505050565b828054600181600116156101000203166002900490600052602060002090601f016020900481019282620002d457600085556200031f565b82601f10620002ef57805160ff19168380011785556200031f565b828001600101855582156200031f579182015b828111156200031f57825182559160200191906001019062000302565b506200032d92915062000331565b5090565b5b808211156200032d576000815560010162000332565b61103180620003586000396000f3fe608060405234801561001057600080fd5b506004361061010b5760003560e01c80638ab1d681116100a2578063a457c2d711610071578063a457c2d71461030f578063a9059cbb1461033b578063dd62ed3e14610367578063e43252d714610395578063f2fde38b146103bb5761010b565b80638ab1d681146102975780638da5cb5b146102bd57806395d89b41146102e15780639b19251a146102e95761010b565b8063313ce567116100de578063313ce5671461021d578063395093511461023b57806370a0823114610267578063715018a61461028d5761010b565b806306fdde0314610110578063095ea7b31461018d57806318160ddd146101cd57806323b872dd146101e7575b600080fd5b6101186103e1565b6040805160208082528351818301528351919283929083019185019080838360005b8381101561015257818101518382015260200161013a565b50505050905090810190601f16801561017f5780820380516001836020036101000a031916815260200191505b509250505060405180910390f35b6101b9600480360360408110156101a357600080fd5b506001600160a01b038135169060200135610477565b604080519115158252519081900360200190f35b6101d56104c6565b60408051918252519081900360200190f35b6101b9600480360360608110156101fd57600080fd5b506001600160a01b038135811691602081013590911690604001356104cc565b61022561051d565b6040805160ff9092168252519081900360200190f35b6101b96004803603604081101561025157600080fd5b506001600160a01b038135169060200135610526565b6101d56004803603602081101561027d57600080fd5b50356001600160a01b031661056e565b610295610589565b005b610295600480360360208110156102ad57600080fd5b50356001600160a01b031661063b565b6102c56106f5565b604080516001600160a01b039092168252519081900360200190f35b610118610709565b6101b9600480360360208110156102ff57600080fd5b50356001600160a01b031661076a565b6101b96004803603604081101561032557600080fd5b506001600160a01b03813516906020013561077f565b6101b96004803603604081101561035157600080fd5b506001600160a01b0381351690602001356107c7565b6101d56004803603604081101561037d57600080fd5b506001600160a01b038135811691602001351661080f565b610295600480360360208110156103ab57600080fd5b50356001600160a01b031661083a565b610295600480360360208110156103d157600080fd5b50356001600160a01b03166108f7565b60038054604080516020601f600260001961010060018816150201909516949094049384018190048102820181019092528281526060939092909183018282801561046d5780601f106104425761010080835404028352916020019161046d565b820191906000526020600020905b81548152906001019060200180831161045057829003601f168201915b5050505050905090565b3360009081526006602052604081205460ff166104b5576040805162461bcd60e51b8152602060048201526000602482015290519081900360640190fd5b6104bf8383610a5f565b9392505050565b60025490565b3360009081526006602052604081205460ff1661050a576040805162461bcd60e51b8152602060048201526000602482015290519081900360640190fd5b610515848484610a7c565b949350505050565b60055460ff1690565b3360009081526006602052604081205460ff16610564576040805162461bcd60e51b8152602060048201526000602482015290519081900360640190fd5b6104bf8383610b03565b6001600160a01b031660009081526020819052604090205490565b610591610b51565b6001600160a01b03166105a26106f5565b6001600160a01b0316146105eb576040805162461bcd60e51b81526020600482018190526024820152600080516020610f6e833981519152604482015290519081900360640190fd5b60055460405160009161010090046001600160a01b0316907f8be0079c531659141344cd1fd0a4f28419497f9722a3daafe3b4186f6b6457e0908390a360058054610100600160a81b0319169055565b610643610b51565b6001600160a01b03166106546106f5565b6001600160a01b03161461069d576040805162461bcd60e51b81526020600482018190526024820152600080516020610f6e833981519152604482015290519081900360640190fd5b6001600160a01b038116600081815260066020908152604091829020805460ff19169055815192835290517fcdd2e9b91a56913d370075169cefa1602ba36be5301664f752192bb1709df7579281900390910190a150565b60055461010090046001600160a01b031690565b60048054604080516020601f600260001961010060018816150201909516949094049384018190048102820181019092528281526060939092909183018282801561046d5780601f106104425761010080835404028352916020019161046d565b60066020526000908152604090205460ff1681565b3360009081526006602052604081205460ff166107bd576040805162461bcd60e51b8152602060048201526000602482015290519081900360640190fd5b6104bf8383610b55565b3360009081526006602052604081205460ff16610805576040805162461bcd60e51b8152602060048201526000602482015290519081900360640190fd5b6104bf8383610bbd565b6001600160a01b03918216600090815260016020908152604080832093909416825291909152205490565b610842610b51565b6001600160a01b03166108536106f5565b6001600160a01b03161461089c576040805162461bcd60e51b81526020600482018190526024820152600080516020610f6e833981519152604482015290519081900360640190fd5b6001600160a01b038116600081815260066020908152604091829020805460ff19166001179055815192835290517fa850ae9193f515cbae8d35e8925bd2be26627fc91bce650b8652ed254e9cab039281900390910190a150565b6108ff610b51565b6001600160a01b03166109106106f5565b6001600160a01b031614610959576040805162461bcd60e51b81526020600482018190526024820152600080516020610f6e833981519152604482015290519081900360640190fd5b6001600160a01b03811661099e5760405162461bcd60e51b8152600401808060200182810382526026815260200180610ed86026913960400191505060405180910390fd5b6005546040516001600160a01b0380841692610100900416907f8be0079c531659141344cd1fd0a4f28419497f9722a3daafe3b4186f6b6457e090600090a3600580546001600160a01b0390921661010002610100600160a81b0319909216919091179055565b6000828201838110156104bf576040805162461bcd60e51b815260206004820152601b60248201527f536166654d6174683a206164646974696f6e206f766572666c6f770000000000604482015290519081900360640190fd5b6000610a73610a6c610b51565b8484610bd1565b50600192915050565b6000610a89848484610cbd565b610af984610a95610b51565b610af485604051806060016040528060288152602001610f46602891396001600160a01b038a16600090815260016020526040812090610ad3610b51565b6001600160a01b031681526020810191909152604001600020549190610e18565b610bd1565b5060019392505050565b6000610a73610b10610b51565b84610af48560016000610b21610b51565b6001600160a01b03908116825260208083019390935260409182016000908120918c168152925290205490610a05565b3390565b6000610a73610b62610b51565b84610af485604051806060016040528060258152602001610fd76025913960016000610b8c610b51565b6001600160a01b03908116825260208083019390935260409182016000908120918d16815292529020549190610e18565b6000610a73610bca610b51565b8484610cbd565b6001600160a01b038316610c165760405162461bcd60e51b8152600401808060200182810382526024815260200180610fb36024913960400191505060405180910390fd5b6001600160a01b038216610c5b5760405162461bcd60e51b8152600401808060200182810382526022815260200180610efe6022913960400191505060405180910390fd5b6001600160a01b03808416600081815260016020908152604080832094871680845294825291829020859055815185815291517f8c5be1e5ebec7d5bd14f71427d1e84f3dd0314c0f7b2291e5b200ac8c7c3b9259281900390910190a3505050565b6001600160a01b038316610d025760405162461bcd60e51b8152600401808060200182810382526025815260200180610f8e6025913960400191505060405180910390fd5b6001600160a01b038216610d475760405162461bcd60e51b8152600401808060200182810382526023815260200180610eb56023913960400191505060405180910390fd5b610d52838383610eaf565b610d8f81604051806060016040528060268152602001610f20602691396001600160a01b0386166000908152602081905260409020549190610e18565b6001600160a01b038085166000908152602081905260408082209390935590841681522054610dbe9082610a05565b6001600160a01b038084166000818152602081815260409182902094909455805185815290519193928716927fddf252ad1be2c89b69c2b068fc378daa952ba7f163c4a11628f55a4df523b3ef92918290030190a3505050565b60008184841115610ea75760405162461bcd60e51b81526004018080602001828103825283818151815260200191508051906020019080838360005b83811015610e6c578181015183820152602001610e54565b50505050905090810190601f168015610e995780820380516001836020036101000a031916815260200191505b509250505060405180910390fd5b505050900390565b50505056fe45524332303a207472616e7366657220746f20746865207a65726f20616464726573734f776e61626c653a206e6577206f776e657220697320746865207a65726f206164647265737345524332303a20617070726f766520746f20746865207a65726f206164647265737345524332303a207472616e7366657220616d6f756e7420657863656564732062616c616e636545524332303a207472616e7366657220616d6f756e74206578636565647320616c6c6f77616e63654f776e61626c653a2063616c6c6572206973206e6f7420746865206f776e657245524332303a207472616e736665722066726f6d20746865207a65726f206164647265737345524332303a20617070726f76652066726f6d20746865207a65726f206164647265737345524332303a2064656372656173656420616c6c6f77616e63652062656c6f77207a65726fa26469706673582212208146373780f457242dd61d75a5351e31cb6b6a48bbe4e31edfa924935a33f45c64736f6c63430007040033608060405234801561001057600080fd5b506040516102fc3803806102fc8339818101604052602081101561003357600080fd5b5051600080546001600160a01b039092166001600160a01b0319928316179055600180549091163317905561028f8061006d6000396000f3fe608060405234801561001057600080fd5b50600436106100365760003560e01c8063150b7a021461003b578063ebf5a99f1461011e575b600080fd5b6101016004803603608081101561005157600080fd5b6001600160a01b0382358116926020810135909116916040820135919081019060808101606082013564010000000081111561008c57600080fd5b82018360208201111561009e57600080fd5b803590602001918460018302840111640100000000831117156100c057600080fd5b91908080601f016020809104026020016040519081016040528093929190818152602001838380828437600092019190915250929550610128945050505050565b604080516001600160e01b03199092168252519081900360200190f35b610126610138565b005b630a85bd0160e11b949350505050565b60008054604080516370a0823160e01b815230600482015290516001600160a01b03909216916370a0823191602480820192602092909190829003018186803b15801561018457600080fd5b505afa158015610198573d6000803e3d6000fd5b505050506040513d60208110156101ae57600080fd5b5051905068d02ab486cedc000000811061025657600080546001546040805163a9059cbb60e01b81526001600160a01b039283166004820152686c6b935b8bbd3fffff19860160248201529051919092169263a9059cbb92604480820193602093909283900390910190829087803b15801561022957600080fd5b505af115801561023d573d6000803e3d6000fd5b505050506040513d602081101561025357600080fd5b50505b5056fea26469706673582212209c57ab5a4c1b9fc127517638ccefc3dcddcec0468a526ebfcffc8d0871bed77e64736f6c63430007040033",
  "linkReferences": {},
  "deployedLinkReferences": {}
}