{
  "_format": "hh-sol-artifact-1",
  "contractName": "DistributedTown",
  "sourceName": "contracts/DistributedTown.sol",
  "abi": [
    {
      "inputs": [
        {
          "internalType": "string",
          "name": "_url",
          "type": "string"
        },
        {
          "internalType": "address",
          "name": "_skillWalletAddress",
          "type": "address"
        },
        {
          "internalType": "address",
          "name": "_addrProvider",
          "type": "address"
        }
      ],
      "stateMutability": "nonpayable",
      "type": "constructor"
    },
    {
      "anonymous": false,
      "inputs": [
        {
          "indexed": true,
          "internalType": "address",
          "name": "account",
          "type": "address"
        },
        {
          "indexed": true,
          "internalType": "address",
          "name": "operator",
          "type": "address"
        },
        {
          "indexed": false,
          "internalType": "bool",
          "name": "approved",
          "type": "bool"
        }
      ],
      "name": "ApprovalForAll",
      "type": "event"
    },
    {
      "anonymous": false,
      "inputs": [
        {
          "indexed": false,
          "internalType": "address",
          "name": "communityContract",
          "type": "address"
        },
        {
          "indexed": false,
          "internalType": "uint256",
          "name": "communityId",
          "type": "uint256"
        },
        {
          "indexed": false,
          "internalType": "uint256",
          "name": "template",
          "type": "uint256"
        },
        {
          "indexed": true,
          "internalType": "address",
          "name": "creator",
          "type": "address"
        }
      ],
      "name": "CommunityCreated",
      "type": "event"
    },
    {
      "anonymous": false,
      "inputs": [
        {
          "indexed": true,
          "internalType": "address",
          "name": "previousOwner",
          "type": "address"
        },
        {
          "indexed": true,
          "internalType": "address",
          "name": "newOwner",
          "type": "address"
        }
      ],
      "name": "OwnershipTransferred",
      "type": "event"
    },
    {
      "anonymous": false,
      "inputs": [
        {
          "indexed": true,
          "internalType": "address",
          "name": "operator",
          "type": "address"
        },
        {
          "indexed": true,
          "internalType": "address",
          "name": "from",
          "type": "address"
        },
        {
          "indexed": true,
          "internalType": "address",
          "name": "to",
          "type": "address"
        },
        {
          "indexed": false,
          "internalType": "uint256[]",
          "name": "ids",
          "type": "uint256[]"
        },
        {
          "indexed": false,
          "internalType": "uint256[]",
          "name": "values",
          "type": "uint256[]"
        }
      ],
      "name": "TransferBatch",
      "type": "event"
    },
    {
      "anonymous": false,
      "inputs": [
        {
          "indexed": true,
          "internalType": "address",
          "name": "operator",
          "type": "address"
        },
        {
          "indexed": true,
          "internalType": "address",
          "name": "from",
          "type": "address"
        },
        {
          "indexed": true,
          "internalType": "address",
          "name": "to",
          "type": "address"
        },
        {
          "indexed": false,
          "internalType": "uint256",
          "name": "id",
          "type": "uint256"
        },
        {
          "indexed": false,
          "internalType": "uint256",
          "name": "value",
          "type": "uint256"
        }
      ],
      "name": "TransferSingle",
      "type": "event"
    },
    {
      "anonymous": false,
      "inputs": [
        {
          "indexed": false,
          "internalType": "string",
          "name": "value",
          "type": "string"
        },
        {
          "indexed": true,
          "internalType": "uint256",
          "name": "id",
          "type": "uint256"
        }
      ],
      "name": "URI",
      "type": "event"
    },
    {
      "inputs": [
        {
          "internalType": "address",
          "name": "account",
          "type": "address"
        },
        {
          "internalType": "uint256",
          "name": "id",
          "type": "uint256"
        }
      ],
      "name": "balanceOf",
      "outputs": [
        {
          "internalType": "uint256",
          "name": "",
          "type": "uint256"
        }
      ],
      "stateMutability": "view",
      "type": "function"
    },
    {
      "inputs": [
        {
          "internalType": "address[]",
          "name": "accounts",
          "type": "address[]"
        },
        {
          "internalType": "uint256[]",
          "name": "ids",
          "type": "uint256[]"
        }
      ],
      "name": "balanceOfBatch",
      "outputs": [
        {
          "internalType": "uint256[]",
          "name": "",
          "type": "uint256[]"
        }
      ],
      "stateMutability": "view",
      "type": "function"
    },
    {
      "inputs": [
        {
          "internalType": "uint256",
          "name": "",
          "type": "uint256"
        }
      ],
      "name": "communities",
      "outputs": [
        {
          "internalType": "address",
          "name": "",
          "type": "address"
        }
      ],
      "stateMutability": "view",
      "type": "function"
    },
    {
      "inputs": [
        {
          "internalType": "address",
          "name": "",
          "type": "address"
        }
      ],
      "name": "communityAddressToTokenID",
      "outputs": [
        {
          "internalType": "uint256",
          "name": "",
          "type": "uint256"
        }
      ],
      "stateMutability": "view",
      "type": "function"
    },
    {
      "inputs": [],
      "name": "communityFactoryAddress",
      "outputs": [
        {
          "internalType": "address",
          "name": "",
          "type": "address"
        }
      ],
      "stateMutability": "view",
      "type": "function"
    },
    {
      "inputs": [
        {
          "internalType": "uint256",
          "name": "",
          "type": "uint256"
        }
      ],
      "name": "communityToTemplate",
      "outputs": [
        {
          "internalType": "uint256",
          "name": "",
          "type": "uint256"
        }
      ],
      "stateMutability": "view",
      "type": "function"
    },
    {
      "inputs": [
        {
          "internalType": "string",
          "name": "communityMetadata",
          "type": "string"
        },
        {
          "internalType": "uint256",
          "name": "template",
          "type": "uint256"
        },
        {
          "internalType": "uint256",
          "name": "totalMembersAllowed",
          "type": "uint256"
        },
        {
          "internalType": "address",
          "name": "owner",
          "type": "address"
        }
      ],
      "name": "createCommunity",
      "outputs": [],
      "stateMutability": "nonpayable",
      "type": "function"
    },
    {
      "inputs": [
        {
          "internalType": "uint256",
          "name": "template",
          "type": "uint256"
        }
      ],
      "name": "deployGenesisCommunities",
      "outputs": [],
      "stateMutability": "nonpayable",
      "type": "function"
    },
    {
      "inputs": [],
      "name": "getCommunities",
      "outputs": [
        {
          "internalType": "address[]",
          "name": "",
          "type": "address[]"
        }
      ],
      "stateMutability": "view",
      "type": "function"
    },
    {
      "inputs": [
        {
          "internalType": "address",
          "name": "owner",
          "type": "address"
        }
      ],
      "name": "getCommunityByOwner",
      "outputs": [
        {
          "internalType": "address",
          "name": "",
          "type": "address"
        }
      ],
      "stateMutability": "view",
      "type": "function"
    },
    {
      "inputs": [
        {
          "internalType": "address",
          "name": "account",
          "type": "address"
        },
        {
          "internalType": "address",
          "name": "operator",
          "type": "address"
        }
      ],
      "name": "isApprovedForAll",
      "outputs": [
        {
          "internalType": "bool",
          "name": "",
          "type": "bool"
        }
      ],
      "stateMutability": "view",
      "type": "function"
    },
    {
      "inputs": [
        {
          "internalType": "address",
          "name": "",
          "type": "address"
        },
        {
          "internalType": "address",
          "name": "",
          "type": "address"
        },
        {
          "internalType": "uint256[]",
          "name": "",
          "type": "uint256[]"
        },
        {
          "internalType": "uint256[]",
          "name": "",
          "type": "uint256[]"
        },
        {
          "internalType": "bytes",
          "name": "",
          "type": "bytes"
        }
      ],
      "name": "onERC1155BatchReceived",
      "outputs": [
        {
          "internalType": "bytes4",
          "name": "",
          "type": "bytes4"
        }
      ],
      "stateMutability": "nonpayable",
      "type": "function"
    },
    {
      "inputs": [
        {
          "internalType": "address",
          "name": "",
          "type": "address"
        },
        {
          "internalType": "address",
          "name": "",
          "type": "address"
        },
        {
          "internalType": "uint256",
          "name": "",
          "type": "uint256"
        },
        {
          "internalType": "uint256",
          "name": "",
          "type": "uint256"
        },
        {
          "internalType": "bytes",
          "name": "",
          "type": "bytes"
        }
      ],
      "name": "onERC1155Received",
      "outputs": [
        {
          "internalType": "bytes4",
          "name": "",
          "type": "bytes4"
        }
      ],
      "stateMutability": "nonpayable",
      "type": "function"
    },
    {
      "inputs": [],
      "name": "owner",
      "outputs": [
        {
          "internalType": "address",
          "name": "",
          "type": "address"
        }
      ],
      "stateMutability": "view",
      "type": "function"
    },
    {
      "inputs": [
        {
          "internalType": "address",
          "name": "",
          "type": "address"
        }
      ],
      "name": "ownerToCommunity",
      "outputs": [
        {
          "internalType": "address",
          "name": "",
          "type": "address"
        }
      ],
      "stateMutability": "view",
      "type": "function"
    },
    {
      "inputs": [],
      "name": "projectsAddress",
      "outputs": [
        {
          "internalType": "address",
          "name": "",
          "type": "address"
        }
      ],
      "stateMutability": "view",
      "type": "function"
    },
    {
      "inputs": [],
      "name": "renounceOwnership",
      "outputs": [],
      "stateMutability": "nonpayable",
      "type": "function"
    },
    {
      "inputs": [
        {
          "internalType": "address",
          "name": "from",
          "type": "address"
        },
        {
          "internalType": "address",
          "name": "to",
          "type": "address"
        },
        {
          "internalType": "uint256[]",
          "name": "ids",
          "type": "uint256[]"
        },
        {
          "internalType": "uint256[]",
          "name": "amounts",
          "type": "uint256[]"
        },
        {
          "internalType": "bytes",
          "name": "data",
          "type": "bytes"
        }
      ],
      "name": "safeBatchTransferFrom",
      "outputs": [],
      "stateMutability": "nonpayable",
      "type": "function"
    },
    {
      "inputs": [
        {
          "internalType": "address",
          "name": "from",
          "type": "address"
        },
        {
          "internalType": "address",
          "name": "to",
          "type": "address"
        },
        {
          "internalType": "uint256",
          "name": "id",
          "type": "uint256"
        },
        {
          "internalType": "uint256",
          "name": "amount",
          "type": "uint256"
        },
        {
          "internalType": "bytes",
          "name": "data",
          "type": "bytes"
        }
      ],
      "name": "safeTransferFrom",
      "outputs": [],
      "stateMutability": "nonpayable",
      "type": "function"
    },
    {
      "inputs": [
        {
          "internalType": "address",
          "name": "operator",
          "type": "address"
        },
        {
          "internalType": "bool",
          "name": "approved",
          "type": "bool"
        }
      ],
      "name": "setApprovalForAll",
      "outputs": [],
      "stateMutability": "nonpayable",
      "type": "function"
    },
    {
      "inputs": [
        {
          "internalType": "address",
          "name": "_partnersRegistryAddress",
          "type": "address"
        }
      ],
      "name": "setPartnersRegistryAddress",
      "outputs": [],
      "stateMutability": "nonpayable",
      "type": "function"
    },
    {
      "inputs": [],
      "name": "skillWalletAddress",
      "outputs": [
        {
          "internalType": "address",
          "name": "",
          "type": "address"
        }
      ],
      "stateMutability": "view",
      "type": "function"
    },
    {
      "inputs": [
        {
          "internalType": "bytes4",
          "name": "interfaceId",
          "type": "bytes4"
        }
      ],
      "name": "supportsInterface",
      "outputs": [
        {
          "internalType": "bool",
          "name": "",
          "type": "bool"
        }
      ],
      "stateMutability": "view",
      "type": "function"
    },
    {
      "inputs": [
        {
          "internalType": "address",
          "name": "newOwner",
          "type": "address"
        }
      ],
      "name": "transferOwnership",
      "outputs": [],
      "stateMutability": "nonpayable",
      "type": "function"
    },
    {
      "inputs": [
        {
          "internalType": "uint256",
          "name": "",
          "type": "uint256"
        }
      ],
      "name": "uri",
      "outputs": [
        {
          "internalType": "string",
          "name": "",
          "type": "string"
        }
      ],
      "stateMutability": "view",
      "type": "function"
    }
  ],
  "bytecode": "0x60806040523480156200001157600080fd5b506040516200774338038062007743833981016040819052620000349162000285565b81620000506301ffc9a760e01b6001600160e01b036200015e16565b62000064816001600160e01b03620001b916565b6200007f636cdb3d1360e11b6001600160e01b036200015e16565b6200009a6303a24d0760e21b6001600160e01b036200015e16565b50620000b6630271189760e51b6001600160e01b036200015e16565b600980546001600160a01b0383166001600160a01b03199182168117909255600a80549091169091179055600b805460ff60a01b191690556040518190620000fe90620001d2565b6200010a919062000340565b604051809103906000f08015801562000127573d6000803e3d6000fd5b50600b80546001600160a01b03199081166001600160a01b0393841617918290556008805492909316911617905550620003d79050565b6001600160e01b03198082161415620001945760405162461bcd60e51b81526004016200018b9062000354565b60405180910390fd5b6001600160e01b0319166000908152602081905260409020805460ff19166001179055565b8051620001ce906003906020840190620001e0565b5050565b6125a080620051a383390190565b828054600181600116156101000203166002900490600052602060002090601f016020900481019282601f106200022357805160ff191683800117855562000253565b8280016001018555821562000253579182015b828111156200025357825182559160200191906001019062000236565b506200026192915062000265565b5090565b6200028291905b808211156200026157600081556001016200026c565b90565b6000806040838503121562000298578182fd5b82516001600160401b0380821115620002af578384fd5b81850186601f820112620002c1578485fd5b8051925081831115620002d2578485fd5b604051601f8401601f191681016020018381118282101715620002f3578687fd5b6040528381528184016020018810156200030b578586fd5b6200031e8460208301602085016200038b565b8095505050505060208301516200033581620003be565b809150509250929050565b6001600160a01b0391909116815260200190565b6020808252601c908201527f4552433136353a20696e76616c696420696e7465726661636520696400000000604082015260600190565b60005b83811015620003a85781810151838201526020016200038e565b83811115620003b8576000848401525b50505050565b6001600160a01b0381168114620003d457600080fd5b50565b614dbc80620003e76000396000f3fe60806040523480156200001157600080fd5b5060043610620001475760003560e01c8063b887b08711620000bd578063e985e9c5116200007b578063e985e9c514620002e2578063f234383814620002f3578063f23a6e6114620002fd578063f242432a1462000314578063f41f5903146200032b5762000147565b8063b887b087146200027b578063bc197c81146200028c578063c251b56514620002b2578063cfeaeb8b146200027b578063e590b56a14620002cb5762000147565b80634e1273f4116200010b5780634e1273f414620001f75780636fc6b3db146200021d578063733a0e981462000234578063a22cb465146200024b578063a894d2aa14620002625762000147565b8062fdd58e146200014c57806301ffc9a7146200017b5780630e89341c14620001a15780631173648e14620001c75780632eb2c2d614620001e0575b600080fd5b620001636200015d3660046200132c565b62000335565b60405162000172919062001866565b60405180910390f35b620001926200018c366004620013e8565b6200033d565b604051620001729190620015f9565b620001b8620001b236600462001474565b6200035c565b60405162000172919062001648565b620001de620001d836600462001426565b620003f8565b005b620001de620001f136600462001082565b620006fe565b6200020e6200020836600462001359565b62000708565b604051620001729190620015bf565b620001636200022e36600462001474565b62000712565b620001636200024536600462001024565b62000724565b620001de6200025c366004620012f0565b62000736565b6200026c6200073a565b604051620001729190620014f4565b620001de6200025c3660046200132c565b620002a36200029d36600462001149565b62000749565b60405162000172919062001604565b620002bc6200075a565b60405162000172919062001570565b6200026c620002dc36600462001474565b620007bf565b620001926200015d36600462001049565b620001de620007e7565b620002a36200030e36600462001283565b62000b60565b620001de6200032536600462001201565b62000b71565b6200026c62000b79565b600092915050565b6001600160e01b03191660009081526020819052604090205460ff1690565b60038054604080516020601f6002600019610100600188161502019095169490940493840181900481028201810190925282815260609390929091830182828015620003ec5780601f10620003c057610100808354040283529160200191620003ec565b820191906000526020600020905b815481529060010190602001808311620003ce57829003601f168201915b50505050509050919050565b600a546040516339ce0e5d60e11b81526000916001600160a01b03169063739c1cba906200042b903390600401620014f4565b60206040518083038186803b1580156200044457600080fd5b505afa15801562000459573d6000803e3d6000fd5b505050506040513d601f19601f820116820180604052508101906200047f9190620013c9565b905080620004aa5760405162461bcd60e51b8152600401620004a190620017cf565b60405180910390fd5b600a546040516342ca962960e01b81526000916001600160a01b0316906342ca962990620004dd903390600401620014f4565b60206040518083038186803b158015620004f657600080fd5b505afa1580156200050b573d6000803e3d6000fd5b505050506040513d601f19601f820116820180604052508101906200053191906200148d565b600a54604051638f4b3f5960e01b81529192506000916001600160a01b0390911690638f4b3f59906200056990859060040162001866565b60206040518083038186803b1580156200058257600080fd5b505afa15801562000597573d6000803e3d6000fd5b505050506040513d601f19601f82011682018060405250810190620005bd9190620013c9565b905080620005df5760405162461bcd60e51b8152600401620004a1906200177c565b620005fd308560016040518060200160405280600081525062000b88565b62000609600462000c99565b600062000617600462000ca2565b9050600087876040516200062b9062000e52565b6200063892919062001619565b604051809103906000f08015801562000655573d6000803e3d6000fd5b506001600160a01b038116600081815260056020908152604080832087905586835260069091528082208a905560078054600181018255925260008051602062004d1083398151915290910180546001600160a01b0319169092179091555190915033907f78cc80a95f4924a4997a0322dc88db7defae07e349ca11aac6ba8d18aac59b9690620006ec90849086908b906200154f565b60405180910390a25050505050505050565b5050505050505050565b6060949350505050565b60066020526000908152604090205481565b60056020526000908152604090205481565b5050565b6009546001600160a01b031681565b63bc197c8160e01b95945050505050565b60606007805480602002602001604051908101604052809291908181526020018280548015620007b457602002820191906000526020600020905b81546001600160a01b0316815260019091019060200180831162000795575b505050505090505b90565b60078181548110620007cd57fe5b6000918252602090912001546001600160a01b0316905081565b600b54600160a01b900460ff1615620008145760405162461bcd60e51b8152600401620004a19062001730565b6200081e62000e60565b6040805160e08101909152605760608201818152829162004d306080840139815260200160405180608001604052806057815260200162004c6260579139815260200160405180608001604052806057815260200162004cb960579139905290506200088b600462000c99565b600062000899600462000ca2565b9050620008ba30600060016040518060200160405280600081525062000b88565b815160405160009190620008ce9062000e52565b620008da919062001648565b604051809103906000f080158015620008f7573d6000803e3d6000fd5b506001600160a01b03811660008181526005602090815260408083208790558683526006909152812081905560078054600181018255915260008051602062004d108339815191520180546001600160a01b031916909117905590506200095f600462000c99565b6200096b600462000ca2565b91506200098b306001806040518060200160405280600081525062000b88565b60008360016020020151604051620009a39062000e52565b620009af919062001648565b604051809103906000f080158015620009cc573d6000803e3d6000fd5b506001600160a01b03811660008181526005602090815260408083208890558783526006909152812060019081905560078054918201815590915260008051602062004d108339815191520180546001600160a01b0319169091179055905062000a37600462000c99565b62000a43600462000ca2565b925062000a6430600260016040518060200160405280600081525062000b88565b6000846002602002015160405162000a7c9062000e52565b62000a88919062001648565b604051809103906000f08015801562000aa5573d6000803e3d6000fd5b506001600160a01b0381166000818152600560209081526040808320899055888352600690915280822060029081905560078054600181018255935260008051602062004d1083398151915290920180546001600160a01b031916909317909255600b805460ff60a01b1916600160a01b179055905191925033917f78cc80a95f4924a4997a0322dc88db7defae07e349ca11aac6ba8d18aac59b969162000b5191859189916200154f565b60405180910390a25050505050565b63f23a6e6160e01b95945050505050565b505050505050565b6008546001600160a01b031681565b6001600160a01b03841662000bb15760405162461bcd60e51b8152600401620004a19062001825565b600062000bbd62000ca6565b905062000be48160008762000bd28862000caa565b62000bdd8862000caa565b8762000b71565b60008481526001602090815260408083206001600160a01b038916845290915290205462000c19908463ffffffff62000cef16565b60008581526001602090815260408083206001600160a01b03808b16808652919093528184209490945551908416907fc3d58168c5ae7397731d063d5bbf3d657854427343f4c083240f7aacaa2d0f629062000c7990899089906200186f565b60405180910390a462000c928160008787878762000d20565b5050505050565b80546001019055565b5490565b3390565b60408051600180825281830190925260609182919060208083019080368337019050509050828160008151811062000cde57fe5b602090810291909101015292915050565b60008282018381101562000d175760405162461bcd60e51b8152600401620004a190620016f9565b90505b92915050565b62000d34846001600160a01b031662000e4c565b1562000b715760405163f23a6e6160e01b81526001600160a01b0385169063f23a6e619062000d70908990899088908890889060040162001508565b602060405180830381600087803b15801562000d8b57600080fd5b505af192505050801562000dbe575060408051601f3d908101601f1916820190925262000dbb9181019062001407565b60015b62000e105762000dcd620018ab565b8062000dda575062000df6565b8060405162461bcd60e51b8152600401620004a1919062001648565b60405162461bcd60e51b8152600401620004a1906200165d565b6001600160e01b0319811663f23a6e6160e01b1462000e435760405162461bcd60e51b8152600401620004a190620016b1565b50505050505050565b3b151590565b6132c3806200199f83390190565b60405180606001604052806003905b606081526020019060019003908162000e6f5790505090565b80356001600160a01b038116811462000d1a57600080fd5b60008083601f84011262000eb2578182fd5b50813567ffffffffffffffff81111562000eca578182fd5b602083019150836020808302850101111562000ee557600080fd5b9250929050565b600082601f83011262000efd578081fd5b813567ffffffffffffffff81111562000f14578182fd5b602080820262000f268282016200187d565b8381529350818401858301828701840188101562000f4357600080fd5b600092505b8483101562000f6857803582526001929092019190830190830162000f48565b505050505092915050565b60008083601f84011262000f85578182fd5b50813567ffffffffffffffff81111562000f9d578182fd5b60208301915083602082850101111562000ee557600080fd5b600082601f83011262000fc7578081fd5b813567ffffffffffffffff81111562000fde578182fd5b62000ff3601f8201601f19166020016200187d565b91508082528360208285010111156200100b57600080fd5b8060208401602084013760009082016020015292915050565b60006020828403121562001036578081fd5b62001042838362000e88565b9392505050565b600080604083850312156200105c578081fd5b62001068848462000e88565b915062001079846020850162000e88565b90509250929050565b60008060008060008060008060a0898b0312156200109e578384fd5b620010aa8a8a62000e88565b9750620010bb8a60208b0162000e88565b9650604089013567ffffffffffffffff80821115620010d8578586fd5b620010e68c838d0162000ea0565b909850965060608b0135915080821115620010ff578586fd5b6200110d8c838d0162000ea0565b909650945060808b013591508082111562001126578384fd5b50620011358b828c0162000f73565b999c989b5096995094979396929594505050565b600080600080600060a0868803121562001161578081fd5b85356200116e816200195f565b9450602086013562001180816200195f565b9350604086013567ffffffffffffffff808211156200119d578283fd5b620011ab89838a0162000eec565b94506060880135915080821115620011c1578283fd5b620011cf89838a0162000eec565b93506080880135915080821115620011e5578283fd5b50620011f48882890162000fb6565b9150509295509295909350565b60008060008060008060a087890312156200121a578182fd5b863562001227816200195f565b9550602087013562001239816200195f565b94506040870135935060608701359250608087013567ffffffffffffffff81111562001263578283fd5b6200127189828a0162000f73565b979a9699509497509295939492505050565b600080600080600060a086880312156200129b578081fd5b620012a7878762000e88565b9450620012b8876020880162000e88565b93506040860135925060608601359150608086013567ffffffffffffffff811115620012e2578182fd5b620011f48882890162000fb6565b6000806040838503121562001303578182fd5b6200130f848462000e88565b91506020830135620013218162001978565b809150509250929050565b600080604083850312156200133f578182fd5b6200134b848462000e88565b946020939093013593505050565b600080600080604085870312156200136f578182fd5b843567ffffffffffffffff8082111562001387578384fd5b620013958883890162000ea0565b90965094506020870135915080821115620013ae578384fd5b50620013bd8782880162000ea0565b95989497509550505050565b600060208284031215620013db578081fd5b815162000d178162001978565b600060208284031215620013fa578081fd5b813562000d178162001987565b60006020828403121562001419578081fd5b815162000d178162001987565b6000806000604084860312156200143b578081fd5b833567ffffffffffffffff81111562001452578182fd5b620014608682870162000f73565b909790965060209590950135949350505050565b60006020828403121562001486578081fd5b5035919050565b6000602082840312156200149f578081fd5b5051919050565b60008151808452815b81811015620014cd57602081850181015186830182015201620014af565b81811115620014df5782602083870101525b50601f01601f19169290920160200192915050565b6001600160a01b0391909116815260200190565b6001600160a01b03868116825285166020820152604081018490526060810183905260a0608082018190526000906200154490830184620014a6565b979650505050505050565b6001600160a01b039390931683526020830191909152604082015260600190565b6020808252825182820181905260009190848201906040850190845b81811015620015b35783516001600160a01b0316835292840192918401916001016200158c565b50909695505050505050565b6020808252825182820181905260009190848201906040850190845b81811015620015b357835183529284019291840191600101620015db565b901515815260200190565b6001600160e01b031991909116815260200190565b60006020825282602083015282846040840137818301604090810191909152601f909201601f19160101919050565b600060208252620010426020830184620014a6565b60208082526034908201527f455243313135353a207472616e7366657220746f206e6f6e20455243313135356040820152732932b1b2b4bb32b91034b6b83632b6b2b73a32b960611b606082015260800190565b60208082526028908201527f455243313135353a204552433131353552656365697665722072656a656374656040820152676420746f6b656e7360c01b606082015260800190565b6020808252601b908201527f536166654d6174683a206164646974696f6e206f766572666c6f770000000000604082015260600190565b6020808252602c908201527f47656e6573697320636f6d6d756e69746965732063616e20626520637265617460408201526b6564206f6e6c79206f6e636560a01b606082015260800190565b60208082526033908201527f4f6e6c7920616e2061637469766520736b696c6c2077616c6c65742063616e2060408201527231b932b0ba3290309031b7b6b6bab734ba3c9760691b606082015260800190565b60208082526036908201527f4f6e6c792061207265676973746572656420736b696c6c2077616c6c6574206360408201527530b71031b932b0ba3290309031b7b6b6bab734ba3c9760511b606082015260800190565b60208082526021908201527f455243313135353a206d696e7420746f20746865207a65726f206164647265736040820152607360f81b606082015260800190565b90815260200190565b918252602082015260400190565b60405181810167ffffffffffffffff811182821017156200189d57600080fd5b604052919050565b60e01c90565b600060443d1015620018bd57620007bc565b600481823e6308c379a0620018d38251620018a5565b14620018df57620007bc565b6040513d600319016004823e80513d67ffffffffffffffff8160248401118184111715620019115750505050620007bc565b828401915081519250808311156200192d5750505050620007bc565b503d830160208383010111156200194757505050620007bc565b601f91909101601f1916810160200160405291505090565b6001600160a01b03811681146200197557600080fd5b50565b80151581146200197557600080fd5b6001600160e01b0319811681146200197557600080fdfe60806040523480156200001157600080fd5b50604051620032c3380380620032c383398101604081905262000034916200063f565b805162000049906000906020840190620004dd565b50600780546001600160a01b031916331790556040516200006a9062000562565b604051809103906000f08015801562000087573d6000803e3d6000fd5b50600880546001600160a01b0319166001600160a01b039283161790819055604051911690620000b79062000570565b620000c3919062000715565b604051809103906000f080158015620000e0573d6000803e3d6000fd5b50600980546001600160a01b0319166001600160a01b0392831617908190556200011d91166000808080808088686cbed7a3c1a998000062000124565b506200084b565b600254601861ffff9091161115620001595760405162461bcd60e51b81526004016200015090620007c6565b60405180910390fd5b620001636200057e565b506040805160a0810182526001600160401b03808b166060830190815260ff808c166080850152908352835180850185528a83168152898216602082810191909152808501919091528451808601865292891683529087168282015282840191909152600754835163544a695560e11b8152935192936000936001600160a01b039092169263a894d2aa92600480840193829003018186803b1580156200020957600080fd5b505afa1580156200021e573d6000803e3d6000fd5b505050506040513d601f19601f82011682018060405250810190620002449190620005ed565b604051630a73b69d60e01b81529091506001600160a01b03821690630a73b69d9062000279908e908690899060040162000729565b600060405180830381600087803b1580156200029457600080fd5b505af1158015620002a9573d6000803e3d6000fd5b50506040516342ca962960e01b8152600092506001600160a01b03841691506342ca962990620002de908f9060040162000715565b60206040518083038186803b158015620002f757600080fd5b505afa1580156200030c573d6000803e3d6000fd5b505050506040513d601f19601f82011682018060405250810190620003329190620006e1565b60085460405163e43252d760e01b81529192506001600160a01b03169063e43252d79062000365908f9060040162000715565b600060405180830381600087803b1580156200038057600080fd5b505af115801562000395573d6000803e3d6000fd5b505060085460405163a9059cbb60e01b81526001600160a01b03909116925063a9059cbb9150620003cd908f908890600401620007ad565b602060405180830381600087803b158015620003e857600080fd5b505af1158015620003fd573d6000803e3d6000fd5b505050506040513d601f19601f820116820180604052508101906200042391906200061d565b506005805460018082019092557f036b6384b5eca791c62761152d0c79bb0604c104a5fb6f4eb0703f3154bb3db0018290556001600160a01b038d1660008181526004602052604090819020805460ff1916841790556002805461ffff19811661ffff918216909501169390931790925590517fe17e0e2cd88e2144dd54f3d823c30d4569092bcac1aabaec1129883e9cc12d2e90620004c790849088906200080a565b60405180910390a2505050505050505050505050565b828054600181600116156101000203166002900490600052602060002090601f016020900481019282601f106200052057805160ff191683800117855562000550565b8280016001018555821562000550579182015b828111156200055057825182559160200191906001019062000533565b506200055e929150620005b6565b5090565b6113b98062001c0e83390190565b6102fc8062002fc783390190565b604051806060016040528062000593620005d6565b8152602001620005a2620005d6565b8152602001620005b1620005d6565b905290565b620005d391905b808211156200055e5760008155600101620005bd565b90565b604080518082019091526000808252602082015290565b600060208284031215620005ff578081fd5b81516001600160a01b038116811462000616578182fd5b9392505050565b6000602082840312156200062f578081fd5b8151801515811462000616578182fd5b60006020828403121562000651578081fd5b81516001600160401b038082111562000668578283fd5b81840185601f8201126200067a578384fd5b80519250818311156200068b578384fd5b604051601f8401601f191681016020018381118282101715620006ac578586fd5b604052838152818401602001871015620006c4578485fd5b620006d784602083016020850162000818565b9695505050505050565b600060208284031215620006f3578081fd5b5051919050565b80516001600160401b0316825260209081015160ff16910152565b6001600160a01b0391909116815260200190565b600061010060018060a01b038616835262000749602084018651620006fa565b60208501516200075d6060850182620006fa565b5060408501516200077260a0850182620006fa565b508060e084015283518082850152610120915062000797818386016020880162000818565b601f01601f191692909201909101949350505050565b6001600160a01b03929092168252602082015260400190565b60208082526024908201527f54686572652061726520616c7265616479203234206d656d626572732c20736f6040820152637272792160e01b606082015260800190565b918252602082015260400190565b60005b83811015620008355781810151838201526020016200081b565b8381111562000845576000848401525b50505050565b6113b3806200085b6000396000f3fe608060405234801561001057600080fd5b50600436106101165760003560e01c80637c8da89d116100a2578063a230c52411610071578063a230c524146101ee578063b522f69a1461020e578063bedf77a61461022e578063dcc6012814610241578063f79489d11461024957610116565b80637c8da89d146101a95780638f853115146101be5780639b5655dc146101d15780639eab5253146101d957610116565b8063135b4165116100e9578063135b41651461016957806317d70f7c14610171578063321c48f21461017957806377a4d5591461018157806379e66b461461019657610116565b8063010a38f51461011b578063019c08f5146101395780630613526514610141578063063d11de14610156575b600080fd5b61012361025c565b6040516101309190611338565b60405180910390f35b6101236102e7565b61015461014f366004610fc0565b6102ed565b005b610154610164366004611107565b610688565b61012361077c565b610123610782565b610123610788565b61018961089a565b604051610130919061129b565b6101546101a4366004611137565b610928565b6101b1610c35565b6040516101309190611329565b6101236101cc366004611107565b610c3f565b610123610c5d565b6101e1610cea565b604051610130919061124c565b6102016101fc366004610f88565b610d42565b6040516101309190611290565b61022161021c366004611107565b610d57565b60405161013091906111bf565b61015461023c366004610f88565b610e66565b6101e1610e9d565b610154610257366004611107565b610ef3565b600754604051630e6741d360e31b815260009182916001600160a01b039091169063733a0e98906102919030906004016111bf565b60206040518083038186803b1580156102a957600080fd5b505afa1580156102bd573d6000803e3d6000fd5b505050506040513d601f19601f820116820180604052508101906102e1919061111f565b91505090565b60015481565b600254601861ffff909116111561031f5760405162461bcd60e51b8152600401610316906112ae565b60405180910390fd5b610327610f28565b506040805160a08101825267ffffffffffffffff808b166060830190815260ff808c166080850152908352835180850185528a83168152898216602082810191909152808501919091528451808601865292891683529087168282015282840191909152600754835163544a695560e11b8152935192936000936001600160a01b039092169263a894d2aa92600480840193829003018186803b1580156103cd57600080fd5b505afa1580156103e1573d6000803e3d6000fd5b505050506040513d601f19601f820116820180604052508101906104059190610fa4565b604051630a73b69d60e01b81529091506001600160a01b03821690630a73b69d90610438908e90869089906004016111d3565b600060405180830381600087803b15801561045257600080fd5b505af1158015610466573d6000803e3d6000fd5b50506040516342ca962960e01b8152600092506001600160a01b03841691506342ca962990610499908f906004016111bf565b60206040518083038186803b1580156104b157600080fd5b505afa1580156104c5573d6000803e3d6000fd5b505050506040513d601f19601f820116820180604052508101906104e9919061111f565b60085460405163e43252d760e01b81529192506001600160a01b03169063e43252d79061051a908f906004016111bf565b600060405180830381600087803b15801561053457600080fd5b505af1158015610548573d6000803e3d6000fd5b505060085460405163a9059cbb60e01b81526001600160a01b03909116925063a9059cbb915061057e908f908890600401611233565b602060405180830381600087803b15801561059857600080fd5b505af11580156105ac573d6000803e3d6000fd5b505050506040513d601f19601f820116820180604052508101906105d091906110e7565b506005805460018082019092557f036b6384b5eca791c62761152d0c79bb0604c104a5fb6f4eb0703f3154bb3db0018290556001600160a01b038d1660008181526004602052604090819020805460ff1916841790556002805461ffff19811661ffff918216909501169390931790925590517fe17e0e2cd88e2144dd54f3d823c30d4569092bcac1aabaec1129883e9cc12d2e906106729084908890611341565b60405180910390a2505050505050505050505050565b60085460095460405163a9059cbb60e01b81526001600160a01b039283169263a9059cbb926106be929116908590600401611233565b602060405180830381600087803b1580156106d857600080fd5b505af11580156106ec573d6000803e3d6000fd5b505050506040513d601f19601f8201168201806040525081019061071091906110e7565b50600960009054906101000a90046001600160a01b03166001600160a01b031663ebf5a99f6040518163ffffffff1660e01b8152600401600060405180830381600087803b15801561076157600080fd5b505af1158015610775573d6000803e3d6000fd5b5050505050565b60035481565b60065481565b600754604051630e6741d360e31b815260009182916001600160a01b039091169063733a0e98906107bd9030906004016111bf565b60206040518083038186803b1580156107d557600080fd5b505afa1580156107e9573d6000803e3d6000fd5b505050506040513d601f19601f8201168201806040525081019061080d919061111f565b600754604051636fc6b3db60e01b81529192506000916001600160a01b0390911690636fc6b3db90610843908590600401611338565b60206040518083038186803b15801561085b57600080fd5b505afa15801561086f573d6000803e3d6000fd5b505050506040513d601f19601f82011682018060405250810190610893919061111f565b9250505090565b6000805460408051602060026001851615610100026000190190941693909304601f810184900484028201840190925281815292918301828280156109205780601f106108f557610100808354040283529160200191610920565b820191906000526020600020905b81548152906001019060200180831161090357829003601f168201915b505050505081565b600254601861ffff90911611156109515760405162461bcd60e51b8152600401610316906112ae565b6007546040805163544a695560e11b815290516000926001600160a01b03169163a894d2aa916004808301926020929190829003018186803b15801561099657600080fd5b505afa1580156109aa573d6000803e3d6000fd5b505050506040513d601f19601f820116820180604052508101906109ce9190610fa4565b90506000816001600160a01b0316636352211e856040518263ffffffff1660e01b81526004016109fe9190611338565b60206040518083038186803b158015610a1657600080fd5b505afa158015610a2a573d6000803e3d6000fd5b505050506040513d601f19601f82011682018060405250810190610a4e9190610fa4565b6001600160a01b03811660009081526004602052604090205490915060ff1615610a8a5760405162461bcd60e51b8152600401610316906112f2565b6001600160a01b0381166000908152600460205260409020805460ff1916600117905560025460058054869261ffff16908110610ac357fe5b9060005260206000200181905550607b6005600181548110610ae157fe5b6000918252602090912001556002805461ffff8082166001011661ffff1990911617905560085460405163e43252d760e01b81526001600160a01b039091169063e43252d790610b359084906004016111bf565b600060405180830381600087803b158015610b4f57600080fd5b505af1158015610b63573d6000803e3d6000fd5b505060085460405163a9059cbb60e01b81526001600160a01b03909116925063a9059cbb9150610b999084908790600401611233565b602060405180830381600087803b158015610bb357600080fd5b505af1158015610bc7573d6000803e3d6000fd5b505050506040513d601f19601f82011682018060405250810190610beb91906110e7565b50806001600160a01b03167fe17e0e2cd88e2144dd54f3d823c30d4569092bcac1aabaec1129883e9cc12d2e8585604051610c27929190611341565b60405180910390a250505050565b60025461ffff1681565b60058181548110610c4c57fe5b600091825260209091200154905081565b6008546009546040516370a0823160e01b81526000926001600160a01b03908116926370a0823192610c9592909116906004016111bf565b60206040518083038186803b158015610cad57600080fd5b505afa158015610cc1573d6000803e3d6000fd5b505050506040513d601f19601f82011682018060405250810190610ce5919061111f565b905090565b60606005805480602002602001604051908101604052809291908181526020018280548015610d3857602002820191906000526020600020905b815481526020019060010190808311610d24575b5050505050905090565b60046020526000908152604090205460ff1681565b600080600760009054906101000a90046001600160a01b03166001600160a01b031663f41f59036040518163ffffffff1660e01b815260040160206040518083038186803b158015610da857600080fd5b505afa158015610dbc573d6000803e3d6000fd5b505050506040513d601f19601f82011682018060405250810190610de09190610fa4565b604051635a917b4d60e11b81529091506001600160a01b0382169063b522f69a90610e0f908690600401611338565b60206040518083038186803b158015610e2757600080fd5b505afa158015610e3b573d6000803e3d6000fd5b505050506040513d601f19601f82011682018060405250810190610e5f9190610fa4565b9392505050565b6040516001600160a01b038216907fbea911b50ccdd2233b28faa49766c3cbd0631608f32e5a724d7b83b32b681ad090600090a250565b6060600a805480602002602001604051908101604052809291908181526020018280548015610d385760200282019190600052602060002090815481526020019060010190808311610d24575050505050905090565b600a80546001810182556000919091527fc65a7bb8d6351c1cf70c95a316cc6a92839c986682d98bc35f958f4883f9d2a80155565b6040518060600160405280610f3b610f5a565b8152602001610f48610f5a565b8152602001610f55610f5a565b905290565b604080518082019091526000808252602082015290565b803560ff81168114610f8257600080fd5b92915050565b600060208284031215610f99578081fd5b8135610e5f8161134f565b600060208284031215610fb5578081fd5b8151610e5f8161134f565b60008060008060008060008060006101208a8c031215610fde578485fd5b8935610fe98161134f565b985060208a810135610ffa81611367565b98506110098c60408d01610f71565b975060608b013561101981611367565b96506110288c60808d01610f71565b955060a08b013561103881611367565b94506110478c60c08d01610f71565b935060e08b013567ffffffffffffffff80821115611063578485fd5b818d018e601f820112611074578586fd5b8035925081831115611084578586fd5b604051601f8401601f19168101850183811182821017156110a3578788fd5b80604052508381528f858584010111156110bb578687fd5b83858301868301378685858301015280965050505050506101008a013590509295985092959850929598565b6000602082840312156110f8578081fd5b81518015158114610e5f578182fd5b600060208284031215611118578081fd5b5035919050565b600060208284031215611130578081fd5b5051919050565b60008060408385031215611149578182fd5b50508035926020909101359150565b60008151808452815b8181101561117d57602081850181015186830182015201611161565b8181111561118e5782602083870101525b50601f01601f19169290920160200192915050565b805167ffffffffffffffff16825260209081015160ff16910152565b6001600160a01b0391909116815260200190565b600061010060018060a01b03861683526111f16020840186516111a3565b602085015161120360608501826111a3565b50604085015161121660a08501826111a3565b508060e084015261122981840185611158565b9695505050505050565b6001600160a01b03929092168252602082015260400190565b6020808252825182820181905260009190848201906040850190845b8181101561128457835183529284019291840191600101611268565b50909695505050505050565b901515815260200190565b600060208252610e5f6020830184611158565b60208082526024908201527f54686572652061726520616c7265616479203234206d656d626572732c20736f6040820152637272792160e01b606082015260800190565b60208082526018908201527f596f75206861766520616c7265616479206a6f696e6564210000000000000000604082015260600190565b61ffff91909116815260200190565b90815260200190565b918252602082015260400190565b6001600160a01b038116811461136457600080fd5b50565b67ffffffffffffffff8116811461136457600080fdfea2646970667358221220f79364dbefa42fc2ad170c612e284768ba70b96b3b8a6bf07a75b598f422f90d64736f6c634300060a003360806040523480156200001157600080fd5b50604051806040016040528060048152602001634469546f60e01b815250604051806040016040528060048152602001634449544f60e01b815250816003908051906020019062000064929190620002b8565b5080516200007a906004906020840190620002b8565b50506005805460ff191660121790555060006200009f6001600160e01b036200013416565b60058054610100600160a81b0319166101006001600160a01b03841690810291909117909155604051919250906000907f8be0079c531659141344cd1fd0a4f28419497f9722a3daafe3b4186f6b6457e0908290a350336000818152600660205260409020805460ff191660011790556200012e906914542ba12a337c0000006001600160e01b036200013916565b6200035a565b335b90565b6001600160a01b03821662000195576040805162461bcd60e51b815260206004820152601f60248201527f45524332303a206d696e7420746f20746865207a65726f206164647265737300604482015290519081900360640190fd5b620001ac600083836001600160e01b036200025116565b620001c8816002546200025660201b62000a051790919060201c565b6002556001600160a01b03821660009081526020818152604090912054620001fb91839062000a0562000256821b17901c565b6001600160a01b0383166000818152602081815260408083209490945583518581529351929391927fddf252ad1be2c89b69c2b068fc378daa952ba7f163c4a11628f55a4df523b3ef9281900390910190a35050565b505050565b600082820183811015620002b1576040805162461bcd60e51b815260206004820152601b60248201527f536166654d6174683a206164646974696f6e206f766572666c6f770000000000604482015290519081900360640190fd5b9392505050565b828054600181600116156101000203166002900490600052602060002090601f016020900481019282601f10620002fb57805160ff19168380011785556200032b565b828001600101855582156200032b579182015b828111156200032b5782518255916020019190600101906200030e565b50620003399291506200033d565b5090565b6200013691905b8082111562000339576000815560010162000344565b61104f806200036a6000396000f3fe608060405234801561001057600080fd5b506004361061010b5760003560e01c80638ab1d681116100a2578063a457c2d711610071578063a457c2d71461030f578063a9059cbb1461033b578063dd62ed3e14610367578063e43252d714610395578063f2fde38b146103bb5761010b565b80638ab1d681146102975780638da5cb5b146102bd57806395d89b41146102e15780639b19251a146102e95761010b565b8063313ce567116100de578063313ce5671461021d578063395093511461023b57806370a0823114610267578063715018a61461028d5761010b565b806306fdde0314610110578063095ea7b31461018d57806318160ddd146101cd57806323b872dd146101e7575b600080fd5b6101186103e1565b6040805160208082528351818301528351919283929083019185019080838360005b8381101561015257818101518382015260200161013a565b50505050905090810190601f16801561017f5780820380516001836020036101000a031916815260200191505b509250505060405180910390f35b6101b9600480360360408110156101a357600080fd5b506001600160a01b038135169060200135610477565b604080519115158252519081900360200190f35b6101d56104c6565b60408051918252519081900360200190f35b6101b9600480360360608110156101fd57600080fd5b506001600160a01b038135811691602081013590911690604001356104cc565b61022561051d565b6040805160ff9092168252519081900360200190f35b6101b96004803603604081101561025157600080fd5b506001600160a01b038135169060200135610526565b6101d56004803603602081101561027d57600080fd5b50356001600160a01b031661056e565b610295610589565b005b610295600480360360208110156102ad57600080fd5b50356001600160a01b031661063b565b6102c56106f5565b604080516001600160a01b039092168252519081900360200190f35b610118610709565b6101b9600480360360208110156102ff57600080fd5b50356001600160a01b031661076a565b6101b96004803603604081101561032557600080fd5b506001600160a01b03813516906020013561077f565b6101b96004803603604081101561035157600080fd5b506001600160a01b0381351690602001356107c7565b6101d56004803603604081101561037d57600080fd5b506001600160a01b038135811691602001351661080f565b610295600480360360208110156103ab57600080fd5b50356001600160a01b031661083a565b610295600480360360208110156103d157600080fd5b50356001600160a01b03166108f7565b60038054604080516020601f600260001961010060018816150201909516949094049384018190048102820181019092528281526060939092909183018282801561046d5780601f106104425761010080835404028352916020019161046d565b820191906000526020600020905b81548152906001019060200180831161045057829003601f168201915b5050505050905090565b3360009081526006602052604081205460ff166104b5576040805162461bcd60e51b8152602060048201526000602482015290519081900360640190fd5b6104bf8383610a5f565b9392505050565b60025490565b3360009081526006602052604081205460ff1661050a576040805162461bcd60e51b8152602060048201526000602482015290519081900360640190fd5b610515848484610a7c565b949350505050565b60055460ff1690565b3360009081526006602052604081205460ff16610564576040805162461bcd60e51b8152602060048201526000602482015290519081900360640190fd5b6104bf8383610b09565b6001600160a01b031660009081526020819052604090205490565b610591610b5d565b6001600160a01b03166105a26106f5565b6001600160a01b0316146105eb576040805162461bcd60e51b81526020600482018190526024820152600080516020610f8c833981519152604482015290519081900360640190fd5b60055460405160009161010090046001600160a01b0316907f8be0079c531659141344cd1fd0a4f28419497f9722a3daafe3b4186f6b6457e0908390a360058054610100600160a81b0319169055565b610643610b5d565b6001600160a01b03166106546106f5565b6001600160a01b03161461069d576040805162461bcd60e51b81526020600482018190526024820152600080516020610f8c833981519152604482015290519081900360640190fd5b6001600160a01b038116600081815260066020908152604091829020805460ff19169055815192835290517fcdd2e9b91a56913d370075169cefa1602ba36be5301664f752192bb1709df7579281900390910190a150565b60055461010090046001600160a01b031690565b60048054604080516020601f600260001961010060018816150201909516949094049384018190048102820181019092528281526060939092909183018282801561046d5780601f106104425761010080835404028352916020019161046d565b60066020526000908152604090205460ff1681565b3360009081526006602052604081205460ff166107bd576040805162461bcd60e51b8152602060048201526000602482015290519081900360640190fd5b6104bf8383610b61565b3360009081526006602052604081205460ff16610805576040805162461bcd60e51b8152602060048201526000602482015290519081900360640190fd5b6104bf8383610bcf565b6001600160a01b03918216600090815260016020908152604080832093909416825291909152205490565b610842610b5d565b6001600160a01b03166108536106f5565b6001600160a01b03161461089c576040805162461bcd60e51b81526020600482018190526024820152600080516020610f8c833981519152604482015290519081900360640190fd5b6001600160a01b038116600081815260066020908152604091829020805460ff19166001179055815192835290517fa850ae9193f515cbae8d35e8925bd2be26627fc91bce650b8652ed254e9cab039281900390910190a150565b6108ff610b5d565b6001600160a01b03166109106106f5565b6001600160a01b031614610959576040805162461bcd60e51b81526020600482018190526024820152600080516020610f8c833981519152604482015290519081900360640190fd5b6001600160a01b03811661099e5760405162461bcd60e51b8152600401808060200182810382526026815260200180610ef66026913960400191505060405180910390fd5b6005546040516001600160a01b0380841692610100900416907f8be0079c531659141344cd1fd0a4f28419497f9722a3daafe3b4186f6b6457e090600090a3600580546001600160a01b0390921661010002610100600160a81b0319909216919091179055565b6000828201838110156104bf576040805162461bcd60e51b815260206004820152601b60248201527f536166654d6174683a206164646974696f6e206f766572666c6f770000000000604482015290519081900360640190fd5b6000610a73610a6c610b5d565b8484610be3565b50600192915050565b6000610a89848484610ccf565b610aff84610a95610b5d565b610afa85604051806060016040528060288152602001610f64602891396001600160a01b038a16600090815260016020526040812090610ad3610b5d565b6001600160a01b03168152602081019190915260400160002054919063ffffffff610e3616565b610be3565b5060019392505050565b6000610a73610b16610b5d565b84610afa8560016000610b27610b5d565b6001600160a01b03908116825260208083019390935260409182016000908120918c16815292529020549063ffffffff610a0516565b3390565b6000610a73610b6e610b5d565b84610afa85604051806060016040528060258152602001610ff56025913960016000610b98610b5d565b6001600160a01b03908116825260208083019390935260409182016000908120918d1681529252902054919063ffffffff610e3616565b6000610a73610bdc610b5d565b8484610ccf565b6001600160a01b038316610c285760405162461bcd60e51b8152600401808060200182810382526024815260200180610fd16024913960400191505060405180910390fd5b6001600160a01b038216610c6d5760405162461bcd60e51b8152600401808060200182810382526022815260200180610f1c6022913960400191505060405180910390fd5b6001600160a01b03808416600081815260016020908152604080832094871680845294825291829020859055815185815291517f8c5be1e5ebec7d5bd14f71427d1e84f3dd0314c0f7b2291e5b200ac8c7c3b9259281900390910190a3505050565b6001600160a01b038316610d145760405162461bcd60e51b8152600401808060200182810382526025815260200180610fac6025913960400191505060405180910390fd5b6001600160a01b038216610d595760405162461bcd60e51b8152600401808060200182810382526023815260200180610ed36023913960400191505060405180910390fd5b610d64838383610ecd565b610da781604051806060016040528060268152602001610f3e602691396001600160a01b038616600090815260208190526040902054919063ffffffff610e3616565b6001600160a01b038085166000908152602081905260408082209390935590841681522054610ddc908263ffffffff610a0516565b6001600160a01b038084166000818152602081815260409182902094909455805185815290519193928716927fddf252ad1be2c89b69c2b068fc378daa952ba7f163c4a11628f55a4df523b3ef92918290030190a3505050565b60008184841115610ec55760405162461bcd60e51b81526004018080602001828103825283818151815260200191508051906020019080838360005b83811015610e8a578181015183820152602001610e72565b50505050905090810190601f168015610eb75780820380516001836020036101000a031916815260200191505b509250505060405180910390fd5b505050900390565b50505056fe45524332303a207472616e7366657220746f20746865207a65726f20616464726573734f776e61626c653a206e6577206f776e657220697320746865207a65726f206164647265737345524332303a20617070726f766520746f20746865207a65726f206164647265737345524332303a207472616e7366657220616d6f756e7420657863656564732062616c616e636545524332303a207472616e7366657220616d6f756e74206578636565647320616c6c6f77616e63654f776e61626c653a2063616c6c6572206973206e6f7420746865206f776e657245524332303a207472616e736665722066726f6d20746865207a65726f206164647265737345524332303a20617070726f76652066726f6d20746865207a65726f206164647265737345524332303a2064656372656173656420616c6c6f77616e63652062656c6f77207a65726fa2646970667358221220a882084aacae53a865fad8664421f45cc5436d3178b959770ca4e25ef9687f6264736f6c634300060a0033608060405234801561001057600080fd5b506040516102fc3803806102fc8339818101604052602081101561003357600080fd5b5051600080546001600160a01b039092166001600160a01b0319928316179055600180549091163317905561028f8061006d6000396000f3fe608060405234801561001057600080fd5b50600436106100365760003560e01c8063150b7a021461003b578063ebf5a99f1461011e575b600080fd5b6101016004803603608081101561005157600080fd5b6001600160a01b0382358116926020810135909116916040820135919081019060808101606082013564010000000081111561008c57600080fd5b82018360208201111561009e57600080fd5b803590602001918460018302840111640100000000831117156100c057600080fd5b91908080601f016020809104026020016040519081016040528093929190818152602001838380828437600092019190915250929550610128945050505050565b604080516001600160e01b03199092168252519081900360200190f35b610126610138565b005b630a85bd0160e11b949350505050565b60008054604080516370a0823160e01b815230600482015290516001600160a01b03909216916370a0823191602480820192602092909190829003018186803b15801561018457600080fd5b505afa158015610198573d6000803e3d6000fd5b505050506040513d60208110156101ae57600080fd5b5051905068d02ab486cedc000000811061025657600080546001546040805163a9059cbb60e01b81526001600160a01b039283166004820152686c6b935b8bbd3fffff19860160248201529051919092169263a9059cbb92604480820193602093909283900390910190829087803b15801561022957600080fd5b505af115801561023d573d6000803e3d6000fd5b505050506040513d602081101561025357600080fd5b50505b5056fea2646970667358221220457cc67e5283268e44ca91ab31b486e82fd395ef456a3983330f09ac018cf95f64736f6c634300060a003368747470733a2f2f6875622e74657874696c652e696f2f697066732f6261666b72656964376a747a687565646567676e3577656c757037697978636870716f646279616d3379666e743465793478776e7573723376626568747470733a2f2f6875622e74657874696c652e696f2f697066732f6261666b72656962676c6b33693763323462327a70727364336a6c6b7a6668787469367275627633746b696636687533366c7a3432757772666b69a66cc928b5edb82af9bd49922954155ab7b0942694bea4ce44661d9a8736c68868747470733a2f2f6875622e74657874696c652e696f2f697066732f6261666b726569636b377034796d7337636d776e6d66697a6d636c356536636470696a346a736c32706b686b3563656a6e37343475776e7a696e79a2646970667358221220b12ee0a0ab1448c831aa6ff80dd4d273f93a65397d93d8ea5e9ff6326783406264736f6c634300060a003360806040523480156200001157600080fd5b50604051620025a0380380620025a0833981016040819052620000349162000235565b604080518082018252600b81526a111a551bd41c9bda9958dd60aa1b602080830191909152825180840190935260078352662224aa27a8292560c91b9083015290620000906301ffc9a760e01b6001600160e01b036200013516565b8151620000a590600690602085019062000190565b508051620000bb90600790602084019062000190565b50620000d76380ac58cd60e01b6001600160e01b036200013516565b620000f2635b5e139f60e01b6001600160e01b036200013516565b6200010d63780e9d6360e01b6001600160e01b036200013516565b5050600f80546001600160a01b0319166001600160a01b03929092169190911790556200029c565b6001600160e01b031980821614156200016b5760405162461bcd60e51b8152600401620001629062000265565b60405180910390fd5b6001600160e01b0319166000908152602081905260409020805460ff19166001179055565b828054600181600116156101000203166002900490600052602060002090601f016020900481019282601f10620001d357805160ff191683800117855562000203565b8280016001018555821562000203579182015b8281111562000203578251825591602001919060010190620001e6565b506200021192915062000215565b5090565b6200023291905b808211156200021157600081556001016200021c565b90565b60006020828403121562000247578081fd5b81516001600160a01b03811681146200025e578182fd5b9392505050565b6020808252601c908201527f4552433136353a20696e76616c696420696e7465726661636520696400000000604082015260600190565b6122f480620002ac6000396000f3fe608060405234801561001057600080fd5b50600436106101375760003560e01c80636352211e116100b857806395d89b411161007c57806395d89b4114610284578063a22cb4651461028c578063b522f69a1461029f578063b88d4fde146102b2578063c87b56dd146102c5578063e985e9c5146102d857610137565b80636352211e146102235780636c0360eb146102365780636f92225e1461023e57806370a082311461025e57806388ff2dcc1461027157610137565b806323b872dd116100ff57806323b872dd146101c45780632f745c59146101d75780633dbc4a12146101ea57806342842e0e146101fd5780634f6ccce71461021057610137565b806301ffc9a71461013c57806306fdde0314610165578063081812fc1461017a578063095ea7b31461019a57806318160ddd146101af575b600080fd5b61014f61014a3660046119e6565b6102eb565b60405161015c9190611bb7565b60405180910390f35b61016d61030e565b60405161015c9190611bc2565b61018d610188366004611a7c565b6103a5565b60405161015c9190611b22565b6101ad6101a83660046119a0565b6103f1565b005b6101b7610489565b60405161015c9190612177565b6101ad6101d23660046118c1565b61049a565b6101b76101e53660046119a0565b6104d2565b61018d6101f8366004611a7c565b610503565b6101ad61020b3660046118c1565b61051e565b6101b761021e366004611a7c565b610539565b61018d610231366004611a7c565b610555565b61016d610583565b61025161024c366004611872565b6105e4565b60405161015c9190611b73565b6101b761026c366004611872565b610650565b6101ad61027f366004611a1e565b610699565b61016d610ad2565b6101ad61029a366004611969565b610b33565b61018d6102ad366004611a7c565b610c01565b6101ad6102c0366004611901565b610c1c565b61016d6102d3366004611a7c565b610c5b565b61014f6102e636600461188d565b610da1565b6001600160e01b0319811660009081526020819052604090205460ff165b919050565b60068054604080516020601f600260001961010060018816150201909516949094049384018190048102820181019092528281526060939092909183018282801561039a5780601f1061036f5761010080835404028352916020019161039a565b820191906000526020600020905b81548152906001019060200180831161037d57829003601f168201915b505050505090505b90565b60006103b082610dcf565b6103d55760405162461bcd60e51b81526004016103cc90611ed9565b60405180910390fd5b506000908152600460205260409020546001600160a01b031690565b60006103fc82610555565b9050806001600160a01b0316836001600160a01b031614156104305760405162461bcd60e51b81526004016103cc90612009565b806001600160a01b0316610442610de2565b6001600160a01b0316148061045e575061045e816102e6610de2565b61047a5760405162461bcd60e51b81526004016103cc90611dbb565b6104848383610de6565b505050565b60006104956002610e54565b905090565b6104ab6104a5610de2565b82610e5f565b6104c75760405162461bcd60e51b81526004016103cc9061209e565b610484838383610ee4565b6001600160a01b03821660009081526001602052604081206104fa908363ffffffff61100416565b90505b92915050565b600e602052600090815260409020546001600160a01b031681565b61048483838360405180602001604052806000815250610c1c565b60008061054d60028463ffffffff61101016565b509392505050565b60006104fd82604051806060016040528060298152602001612296602991396002919063ffffffff61102c16565b60098054604080516020601f600260001961010060018816150201909516949094049384018190048102820181019092528281526060939092909183018282801561039a5780601f1061036f5761010080835404028352916020019161039a565b6001600160a01b0381166000908152600b602090815260409182902080548351818402810184019094528084526060939283018282801561064457602002820191906000526020600020905b815481526020019060010190808311610630575b50505050509050919050565b60006001600160a01b0382166106785760405162461bcd60e51b81526004016103cc90611e18565b6001600160a01b03821660009081526001602052604090206104fd90610e54565b600f546040516339ce0e5d60e11b815283916000916001600160a01b039091169063739c1cba906106ce908690600401611b22565b60206040518083038186803b1580156106e657600080fd5b505afa1580156106fa573d6000803e3d6000fd5b505050506040513d601f19601f8201168201806040525081019061071e91906119ca565b90508061073d5760405162461bcd60e51b81526004016103cc90611ca0565b600f546040516342ca962960e01b81526000916001600160a01b0316906342ca96299061076e908790600401611b22565b60206040518083038186803b15801561078657600080fd5b505afa15801561079a573d6000803e3d6000fd5b505050506040513d601f19601f820116820180604052508101906107be9190611a94565b600f54604051638f4b3f5960e01b81529192506000916001600160a01b0390911690638f4b3f59906107f4908590600401612177565b60206040518083038186803b15801561080c57600080fd5b505afa158015610820573d6000803e3d6000fd5b505050506040513d601f19601f8201168201806040525081019061084491906119ca565b9050806108635760405162461bcd60e51b81526004016103cc90612126565b60405163288c314960e21b81526000906001600160a01b0386169063a230c52490610892908990600401611b22565b60206040518083038186803b1580156108aa57600080fd5b505afa1580156108be573d6000803e3d6000fd5b505050506040513d601f19601f820116820180604052508101906108e291906119ca565b9050806109015760405162461bcd60e51b81526004016103cc9061204a565b6000856001600160a01b031663321c48f26040518163ffffffff1660e01b815260040160206040518083038186803b15801561093c57600080fd5b505afa158015610950573d6000803e3d6000fd5b505050506040513d601f19601f820116820180604052508101906109749190611a94565b90506000610982600a611043565b905061098e600a611047565b6109988882611050565b6109a2818b611120565b60405163f79489d160e01b81526001600160a01b0388169063f79489d1906109ce908490600401612177565b600060405180830381600087803b1580156109e857600080fd5b505af11580156109fc573d6000803e3d6000fd5b50505050604051610a0c90611739565b604051809103906000f080158015610a28573d6000803e3d6000fd5b506000828152600e6020908152604080832080546001600160a01b0319166001600160a01b03958616179055928c168252600b815282822080546001818101835591845282842001859055858352600c8252838320805491820181558352912001829055517f2e16fe6185221195ff919455425d57cc20788b7457ce4ab0a9b39ffbbe4e25b290610abe90839085908d90612180565b60405180910390a150505050505050505050565b60078054604080516020601f600260001961010060018816150201909516949094049384018190048102820181019092528281526060939092909183018282801561039a5780601f1061036f5761010080835404028352916020019161039a565b610b3b610de2565b6001600160a01b0316826001600160a01b03161415610b6c5760405162461bcd60e51b81526004016103cc90611d38565b8060056000610b79610de2565b6001600160a01b03908116825260208083019390935260409182016000908120918716808252919093529120805460ff191692151592909217909155610bbd610de2565b6001600160a01b03167f17307eab39ab6107e8899845ad3d59bd9653f200f220920489ca2b5937696c3183604051610bf59190611bb7565b60405180910390a35050565b6000908152600e60205260409020546001600160a01b031690565b610c2d610c27610de2565b83610e5f565b610c495760405162461bcd60e51b81526004016103cc9061209e565b610c5584848484611164565b50505050565b6060610c6682610dcf565b610c825760405162461bcd60e51b81526004016103cc90611fba565b60008281526008602090815260409182902080548351601f6002600019610100600186161502019093169290920491820184900484028101840190945280845260609392830182828015610d175780601f10610cec57610100808354040283529160200191610d17565b820191906000526020600020905b815481529060010190602001808311610cfa57829003601f168201915b505050505090506060610d28610583565b9050805160001415610d3c57509050610309565b815115610d6e578082604051602001610d56929190611af4565b60405160208183030381529060405292505050610309565b80610d7885611197565b604051602001610d89929190611af4565b60405160208183030381529060405292505050919050565b6001600160a01b03918216600090815260056020908152604080832093909416825291909152205460ff1690565b60006104fd60028363ffffffff61127216565b3390565b600081815260046020526040902080546001600160a01b0319166001600160a01b0384169081179091558190610e1b82610555565b6001600160a01b03167f8c5be1e5ebec7d5bd14f71427d1e84f3dd0314c0f7b2291e5b200ac8c7c3b92560405160405180910390a45050565b60006104fd82611043565b6000610e6a82610dcf565b610e865760405162461bcd60e51b81526004016103cc90611d6f565b6000610e9183610555565b9050806001600160a01b0316846001600160a01b03161480610ecc5750836001600160a01b0316610ec1846103a5565b6001600160a01b0316145b80610edc5750610edc8185610da1565b949350505050565b826001600160a01b0316610ef782610555565b6001600160a01b031614610f1d5760405162461bcd60e51b81526004016103cc90611f71565b6001600160a01b038216610f435760405162461bcd60e51b81526004016103cc90611cf4565b610f4e838383610484565b610f59600082610de6565b6001600160a01b0383166000908152600160205260409020610f81908263ffffffff61127e16565b506001600160a01b0382166000908152600160205260409020610faa908263ffffffff61128a16565b50610fbd6002828463ffffffff61129616565b5080826001600160a01b0316846001600160a01b03167fddf252ad1be2c89b69c2b068fc378daa952ba7f163c4a11628f55a4df523b3ef60405160405180910390a4505050565b60006104fa83836112ac565b600080808061101f86866112f1565b9097909650945050505050565b600061103984848461134d565b90505b9392505050565b5490565b80546001019055565b6001600160a01b0382166110765760405162461bcd60e51b81526004016103cc90611ea4565b61107f81610dcf565b1561109c5760405162461bcd60e51b81526004016103cc90611c69565b6110a860008383610484565b6001600160a01b03821660009081526001602052604090206110d0908263ffffffff61128a16565b506110e36002828463ffffffff61129616565b5060405181906001600160a01b038416906000907fddf252ad1be2c89b69c2b068fc378daa952ba7f163c4a11628f55a4df523b3ef908290a45050565b61112982610dcf565b6111455760405162461bcd60e51b81526004016103cc90611f25565b6000828152600860209081526040909120825161048492840190611745565b61116f848484610ee4565b61117b848484846113ac565b610c555760405162461bcd60e51b81526004016103cc90611c17565b6060816111bc57506040805180820190915260018152600360fc1b6020820152610309565b8160005b81156111d457600101600a820491506111c0565b60608167ffffffffffffffff811180156111ed57600080fd5b506040519080825280601f01601f191660200182016040528015611218576020820181803683370190505b50859350905060001982015b831561126957600a840660300160f81b8282806001900393508151811061124757fe5b60200101906001600160f81b031916908160001a905350600a84049350611224565b50949350505050565b60006104fa8383611491565b60006104fa83836114a9565b60006104fa838361156f565b600061103984846001600160a01b0385166115b9565b815460009082106112cf5760405162461bcd60e51b81526004016103cc90611bd5565b8260000182815481106112de57fe5b9060005260206000200154905092915050565b8154600090819083106113165760405162461bcd60e51b81526004016103cc90611e62565b600084600001848154811061132757fe5b906000526020600020906002020190508060000154816001015492509250509250929050565b6000828152600184016020526040812054828161137d5760405162461bcd60e51b81526004016103cc9190611bc2565b5084600001600182038154811061139057fe5b9060005260206000209060020201600101549150509392505050565b60006113c0846001600160a01b0316611650565b6113cc57506001610edc565b606061145a630a85bd0160e11b6113e1610de2565b8887876040516024016113f79493929190611b36565b604051602081830303815290604052906001600160e01b0319166020820180516001600160e01b038381831617835250505050604051806060016040528060328152602001612264603291396001600160a01b038816919063ffffffff61165616565b90506000818060200190518101906114729190611a02565b6001600160e01b031916630a85bd0160e11b1492505050949350505050565b60009081526001919091016020526040902054151590565b6000818152600183016020526040812054801561156557835460001980830191908101906000908790839081106114dc57fe5b90600052602060002001549050808760000184815481106114f957fe5b60009182526020808320909101929092558281526001898101909252604090209084019055865487908061152957fe5b600190038181906000526020600020016000905590558660010160008781526020019081526020016000206000905560019450505050506104fd565b60009150506104fd565b600061157b8383611491565b6115b1575081546001818101845560008481526020808220909301849055845484825282860190935260409020919091556104fd565b5060006104fd565b60008281526001840160205260408120548061161e57505060408051808201825283815260208082018481528654600181810189556000898152848120955160029093029095019182559151908201558654868452818801909252929091205561103c565b8285600001600183038154811061163157fe5b906000526020600020906002020160010181905550600091505061103c565b3b151590565b606061103984846000858561166a85611650565b6116865760405162461bcd60e51b81526004016103cc906120ef565b60006060866001600160a01b031685876040516116a39190611ad8565b60006040518083038185875af1925050503d80600081146116e0576040519150601f19603f3d011682016040523d82523d6000602084013e6116e5565b606091505b50915091506116f5828286611700565b979650505050505050565b6060831561170f57508161103c565b82511561171f5782518084602001fd5b8160405162461bcd60e51b81526004016103cc9190611bc2565b605c8061220883390190565b828054600181600116156101000203166002900490600052602060002090601f016020900481019282601f1061178657805160ff19168380011785556117b3565b828001600101855582156117b3579182015b828111156117b3578251825591602001919060010190611798565b506117bf9291506117c3565b5090565b6103a291905b808211156117bf57600081556001016117c9565b80356001600160a01b03811681146104fd57600080fd5b600082601f830112611804578081fd5b813567ffffffffffffffff8082111561181b578283fd5b604051601f8301601f19168101602001828111828210171561183b578485fd5b60405282815292508284830160200186101561185657600080fd5b8260208601602083013760006020848301015250505092915050565b600060208284031215611883578081fd5b6104fa83836117dd565b6000806040838503121561189f578081fd5b6118a984846117dd565b91506118b884602085016117dd565b90509250929050565b6000806000606084860312156118d5578081fd5b83356118e0816121cb565b925060208401356118f0816121cb565b929592945050506040919091013590565b60008060008060808587031215611916578081fd5b61192086866117dd565b935061192f86602087016117dd565b925060408501359150606085013567ffffffffffffffff811115611951578182fd5b61195d878288016117f4565b91505092959194509250565b6000806040838503121561197b578182fd5b61198584846117dd565b91506020830135611995816121e3565b809150509250929050565b600080604083850312156119b2578182fd5b6119bc84846117dd565b946020939093013593505050565b6000602082840312156119db578081fd5b815161103c816121e3565b6000602082840312156119f7578081fd5b813561103c816121f1565b600060208284031215611a13578081fd5b815161103c816121f1565b600080600060608486031215611a32578283fd5b833567ffffffffffffffff811115611a48578384fd5b611a54868287016117f4565b935050611a6485602086016117dd565b9150611a7385604086016117dd565b90509250925092565b600060208284031215611a8d578081fd5b5035919050565b600060208284031215611aa5578081fd5b5051919050565b60008151808452611ac481602086016020860161219f565b601f01601f19169290920160200192915050565b60008251611aea81846020870161219f565b9190910192915050565b60008351611b0681846020880161219f565b8351908301611b1982826020880161219f565b01949350505050565b6001600160a01b0391909116815260200190565b6001600160a01b0385811682528416602082015260408101839052608060608201819052600090611b6990830184611aac565b9695505050505050565b6020808252825182820181905260009190848201906040850190845b81811015611bab57835183529284019291840191600101611b8f565b50909695505050505050565b901515815260200190565b6000602082526104fa6020830184611aac565b60208082526022908201527f456e756d657261626c655365743a20696e646578206f7574206f6620626f756e604082015261647360f01b606082015260800190565b60208082526032908201527f4552433732313a207472616e7366657220746f206e6f6e20455243373231526560408201527131b2b4bb32b91034b6b83632b6b2b73a32b960711b606082015260800190565b6020808252601c908201527f4552433732313a20746f6b656e20616c7265616479206d696e74656400000000604082015260600190565b60208082526034908201527f4f6e6c792061207265676973746572656420736b696c6c2077616c6c6574206360408201527330b71031b932b0ba32903090383937b532b1ba1760611b606082015260800190565b60208082526024908201527f4552433732313a207472616e7366657220746f20746865207a65726f206164646040820152637265737360e01b606082015260800190565b60208082526019908201527f4552433732313a20617070726f766520746f2063616c6c657200000000000000604082015260600190565b6020808252602c908201527f4552433732313a206f70657261746f7220717565727920666f72206e6f6e657860408201526b34b9ba32b73a103a37b5b2b760a11b606082015260800190565b60208082526038908201527f4552433732313a20617070726f76652063616c6c6572206973206e6f74206f7760408201527f6e6572206e6f7220617070726f76656420666f7220616c6c0000000000000000606082015260800190565b6020808252602a908201527f4552433732313a2062616c616e636520717565727920666f7220746865207a65604082015269726f206164647265737360b01b606082015260800190565b60208082526022908201527f456e756d657261626c654d61703a20696e646578206f7574206f6620626f756e604082015261647360f01b606082015260800190565b6020808252818101527f4552433732313a206d696e7420746f20746865207a65726f2061646472657373604082015260600190565b6020808252602c908201527f4552433732313a20617070726f76656420717565727920666f72206e6f6e657860408201526b34b9ba32b73a103a37b5b2b760a11b606082015260800190565b6020808252602c908201527f4552433732314d657461646174613a2055524920736574206f66206e6f6e657860408201526b34b9ba32b73a103a37b5b2b760a11b606082015260800190565b60208082526029908201527f4552433732313a207472616e73666572206f6620746f6b656e2074686174206960408201526839903737ba1037bbb760b91b606082015260800190565b6020808252602f908201527f4552433732314d657461646174613a2055524920717565727920666f72206e6f60408201526e3732bc34b9ba32b73a103a37b5b2b760891b606082015260800190565b60208082526021908201527f4552433732313a20617070726f76616c20746f2063757272656e74206f776e656040820152603960f91b606082015260800190565b60208082526034908201527f4f6e6c792061206d656d626572206f662074686520636f6d6d756e697479206360408201527330b71031b932b0ba32903090383937b532b1ba1760611b606082015260800190565b60208082526031908201527f4552433732313a207472616e736665722063616c6c6572206973206e6f74206f6040820152701ddb995c881b9bdc88185c1c1c9bdd9959607a1b606082015260800190565b6020808252601d908201527f416464726573733a2063616c6c20746f206e6f6e2d636f6e7472616374000000604082015260600190565b60208082526031908201527f4f6e6c7920616e2061637469766520736b696c6c2077616c6c65742063616e2060408201527031b932b0ba32903090383937b532b1ba1760791b606082015260800190565b90815260200190565b92835260208301919091526001600160a01b0316604082015260600190565b60005b838110156121ba5781810151838201526020016121a2565b83811115610c555750506000910152565b6001600160a01b03811681146121e057600080fd5b50565b80151581146121e057600080fd5b6001600160e01b0319811681146121e057600080fdfe6080604052348015600f57600080fd5b50603f80601d6000396000f3fe6080604052600080fdfea26469706673582212208e2ca665c85c779eadefff89b2fca806dbb46ed7784da5dad1b6e72be9ae15e764736f6c634300060a00334552433732313a207472616e7366657220746f206e6f6e20455243373231526563656976657220696d706c656d656e7465724552433732313a206f776e657220717565727920666f72206e6f6e6578697374656e7420746f6b656ea2646970667358221220eaba459cadf17ea0331bcf3e277c9f55bc7c1df15931fdc0fc46ca434452792564736f6c634300060a0033",
  "linkReferences": {},
  "deployedLinkReferences": {}
}