{
  "_format": "hh-sol-artifact-1",
  "contractName": "DistributedTown",
  "sourceName": "contracts/DistributedTown.sol",
  "abi": [
    {
      "inputs": [
        {
          "internalType": "string",
          "name": "_url",
          "type": "string"
        },
        {
          "internalType": "address",
          "name": "_skillWalletAddress",
          "type": "address"
        }
      ],
      "stateMutability": "nonpayable",
      "type": "constructor"
    },
    {
      "anonymous": false,
      "inputs": [
        {
          "indexed": true,
          "internalType": "address",
          "name": "account",
          "type": "address"
        },
        {
          "indexed": true,
          "internalType": "address",
          "name": "operator",
          "type": "address"
        },
        {
          "indexed": false,
          "internalType": "bool",
          "name": "approved",
          "type": "bool"
        }
      ],
      "name": "ApprovalForAll",
      "type": "event"
    },
    {
      "anonymous": false,
      "inputs": [
        {
          "indexed": false,
          "internalType": "address",
          "name": "communityContract",
          "type": "address"
        },
        {
          "indexed": false,
          "internalType": "uint256",
          "name": "communityId",
          "type": "uint256"
        },
        {
          "indexed": false,
          "internalType": "uint256",
          "name": "template",
          "type": "uint256"
        },
        {
          "indexed": true,
          "internalType": "address",
          "name": "creator",
          "type": "address"
        }
      ],
      "name": "CommunityCreated",
      "type": "event"
    },
    {
      "anonymous": false,
      "inputs": [
        {
          "indexed": true,
          "internalType": "address",
          "name": "operator",
          "type": "address"
        },
        {
          "indexed": true,
          "internalType": "address",
          "name": "from",
          "type": "address"
        },
        {
          "indexed": true,
          "internalType": "address",
          "name": "to",
          "type": "address"
        },
        {
          "indexed": false,
          "internalType": "uint256[]",
          "name": "ids",
          "type": "uint256[]"
        },
        {
          "indexed": false,
          "internalType": "uint256[]",
          "name": "values",
          "type": "uint256[]"
        }
      ],
      "name": "TransferBatch",
      "type": "event"
    },
    {
      "anonymous": false,
      "inputs": [
        {
          "indexed": true,
          "internalType": "address",
          "name": "operator",
          "type": "address"
        },
        {
          "indexed": true,
          "internalType": "address",
          "name": "from",
          "type": "address"
        },
        {
          "indexed": true,
          "internalType": "address",
          "name": "to",
          "type": "address"
        },
        {
          "indexed": false,
          "internalType": "uint256",
          "name": "id",
          "type": "uint256"
        },
        {
          "indexed": false,
          "internalType": "uint256",
          "name": "value",
          "type": "uint256"
        }
      ],
      "name": "TransferSingle",
      "type": "event"
    },
    {
      "anonymous": false,
      "inputs": [
        {
          "indexed": false,
          "internalType": "string",
          "name": "value",
          "type": "string"
        },
        {
          "indexed": true,
          "internalType": "uint256",
          "name": "id",
          "type": "uint256"
        }
      ],
      "name": "URI",
      "type": "event"
    },
    {
      "inputs": [
        {
          "internalType": "address",
          "name": "account",
          "type": "address"
        },
        {
          "internalType": "uint256",
          "name": "id",
          "type": "uint256"
        }
      ],
      "name": "balanceOf",
      "outputs": [
        {
          "internalType": "uint256",
          "name": "",
          "type": "uint256"
        }
      ],
      "stateMutability": "view",
      "type": "function"
    },
    {
      "inputs": [
        {
          "internalType": "address[]",
          "name": "accounts",
          "type": "address[]"
        },
        {
          "internalType": "uint256[]",
          "name": "ids",
          "type": "uint256[]"
        }
      ],
      "name": "balanceOfBatch",
      "outputs": [
        {
          "internalType": "uint256[]",
          "name": "",
          "type": "uint256[]"
        }
      ],
      "stateMutability": "view",
      "type": "function"
    },
    {
      "inputs": [
        {
          "internalType": "uint256",
          "name": "",
          "type": "uint256"
        }
      ],
      "name": "communities",
      "outputs": [
        {
          "internalType": "address",
          "name": "",
          "type": "address"
        }
      ],
      "stateMutability": "view",
      "type": "function"
    },
    {
      "inputs": [
        {
          "internalType": "address",
          "name": "",
          "type": "address"
        }
      ],
      "name": "communityAddressToTokenID",
      "outputs": [
        {
          "internalType": "uint256",
          "name": "",
          "type": "uint256"
        }
      ],
      "stateMutability": "view",
      "type": "function"
    },
    {
      "inputs": [
        {
          "internalType": "uint256",
          "name": "",
          "type": "uint256"
        }
      ],
      "name": "communityToTemplate",
      "outputs": [
        {
          "internalType": "uint256",
          "name": "",
          "type": "uint256"
        }
      ],
      "stateMutability": "view",
      "type": "function"
    },
    {
      "inputs": [
        {
          "internalType": "string",
          "name": "communityMetadata",
          "type": "string"
        },
        {
          "internalType": "uint256",
          "name": "template",
          "type": "uint256"
        }
      ],
      "name": "createCommunity",
      "outputs": [],
      "stateMutability": "nonpayable",
      "type": "function"
    },
    {
      "inputs": [],
      "name": "deployGenesisCommunities",
      "outputs": [],
      "stateMutability": "nonpayable",
      "type": "function"
    },
    {
      "inputs": [],
      "name": "getCommunities",
      "outputs": [
        {
          "internalType": "address[]",
          "name": "",
          "type": "address[]"
        }
      ],
      "stateMutability": "view",
      "type": "function"
    },
    {
      "inputs": [
        {
          "internalType": "address",
          "name": "_owner",
          "type": "address"
        },
        {
          "internalType": "address",
          "name": "_operator",
          "type": "address"
        }
      ],
      "name": "isApprovedForAll",
      "outputs": [
        {
          "internalType": "bool",
          "name": "",
          "type": "bool"
        }
      ],
      "stateMutability": "view",
      "type": "function"
    },
    {
      "inputs": [
        {
          "internalType": "address",
          "name": "",
          "type": "address"
        },
        {
          "internalType": "address",
          "name": "",
          "type": "address"
        },
        {
          "internalType": "uint256[]",
          "name": "",
          "type": "uint256[]"
        },
        {
          "internalType": "uint256[]",
          "name": "",
          "type": "uint256[]"
        },
        {
          "internalType": "bytes",
          "name": "",
          "type": "bytes"
        }
      ],
      "name": "onERC1155BatchReceived",
      "outputs": [
        {
          "internalType": "bytes4",
          "name": "",
          "type": "bytes4"
        }
      ],
      "stateMutability": "nonpayable",
      "type": "function"
    },
    {
      "inputs": [
        {
          "internalType": "address",
          "name": "",
          "type": "address"
        },
        {
          "internalType": "address",
          "name": "",
          "type": "address"
        },
        {
          "internalType": "uint256",
          "name": "",
          "type": "uint256"
        },
        {
          "internalType": "uint256",
          "name": "",
          "type": "uint256"
        },
        {
          "internalType": "bytes",
          "name": "",
          "type": "bytes"
        }
      ],
      "name": "onERC1155Received",
      "outputs": [
        {
          "internalType": "bytes4",
          "name": "",
          "type": "bytes4"
        }
      ],
      "stateMutability": "nonpayable",
      "type": "function"
    },
    {
      "inputs": [],
      "name": "projectsAddress",
      "outputs": [
        {
          "internalType": "address",
          "name": "",
          "type": "address"
        }
      ],
      "stateMutability": "view",
      "type": "function"
    },
    {
      "inputs": [
        {
          "internalType": "address",
          "name": "_from",
          "type": "address"
        },
        {
          "internalType": "address",
          "name": "_to",
          "type": "address"
        },
        {
          "internalType": "uint256[]",
          "name": "_ids",
          "type": "uint256[]"
        },
        {
          "internalType": "uint256[]",
          "name": "_values",
          "type": "uint256[]"
        },
        {
          "internalType": "bytes",
          "name": "_data",
          "type": "bytes"
        }
      ],
      "name": "safeBatchTransferFrom",
      "outputs": [],
      "stateMutability": "nonpayable",
      "type": "function"
    },
    {
      "inputs": [
        {
          "internalType": "address",
          "name": "_from",
          "type": "address"
        },
        {
          "internalType": "address",
          "name": "_to",
          "type": "address"
        },
        {
          "internalType": "uint256",
          "name": "_id",
          "type": "uint256"
        },
        {
          "internalType": "uint256",
          "name": "_value",
          "type": "uint256"
        },
        {
          "internalType": "bytes",
          "name": "_data",
          "type": "bytes"
        }
      ],
      "name": "safeTransferFrom",
      "outputs": [],
      "stateMutability": "nonpayable",
      "type": "function"
    },
    {
      "inputs": [
        {
          "internalType": "address",
          "name": "_operator",
          "type": "address"
        },
        {
          "internalType": "bool",
          "name": "_approved",
          "type": "bool"
        }
      ],
      "name": "setApprovalForAll",
      "outputs": [],
      "stateMutability": "nonpayable",
      "type": "function"
    },
    {
      "inputs": [],
      "name": "skillWalletAddress",
      "outputs": [
        {
          "internalType": "address",
          "name": "",
          "type": "address"
        }
      ],
      "stateMutability": "view",
      "type": "function"
    },
    {
      "inputs": [
        {
          "internalType": "bytes4",
          "name": "interfaceId",
          "type": "bytes4"
        }
      ],
      "name": "supportsInterface",
      "outputs": [
        {
          "internalType": "bool",
          "name": "",
          "type": "bool"
        }
      ],
      "stateMutability": "view",
      "type": "function"
    },
    {
      "inputs": [
        {
          "internalType": "uint256",
          "name": "",
          "type": "uint256"
        }
      ],
      "name": "uri",
      "outputs": [
        {
          "internalType": "string",
          "name": "",
          "type": "string"
        }
      ],
      "stateMutability": "view",
      "type": "function"
    }
  ],
  "bytecode": "0x60806040523480156200001157600080fd5b50604051620079aa380380620079aa83398101604081905262000034916200029c565b81620000476301ffc9a760e01b62000127565b6200005281620001ac565b62000064636cdb3d1360e11b62000127565b620000766303a24d0760e21b62000127565b5062000089630271189760e51b62000127565b600980546001600160a01b0383166001600160a01b03199182168117909255600a805490911690911790556040516000908290620000c790620001c5565b620000d3919062000370565b604051809103906000f080158015620000f0573d6000803e3d6000fd5b50600880546001600160a01b0319166001600160a01b03929092169190911790555050600a805460ff60a01b191690555062000384565b6001600160e01b0319808216141562000187576040805162461bcd60e51b815260206004820152601c60248201527f4552433136353a20696e76616c696420696e7465726661636520696400000000604482015290519081900360640190fd5b6001600160e01b0319166000908152602081905260409020805460ff19166001179055565b8051620001c1906003906020840190620001d3565b5050565b6126b380620052f783390190565b828054600181600116156101000203166002900490600052602060002090601f0160209004810192826200020b576000855562000256565b82601f106200022657805160ff191683800117855562000256565b8280016001018555821562000256579182015b828111156200025657825182559160200191906001019062000239565b506200026492915062000268565b5090565b5b8082111562000264576000815560010162000269565b80516001600160a01b03811681146200029757600080fd5b919050565b60008060408385031215620002af578182fd5b82516001600160401b0380821115620002c6578384fd5b818501915085601f830112620002da578384fd5b815181811115620002e757fe5b6040516020601f8301601f19168201810184811183821017156200030757fe5b60405282825284830181018910156200031e578687fd5b8693505b8284101562000341578484018101518285018201529283019262000322565b828411156200035257868184840101525b819650620003628189016200027f565b955050505050509250929050565b6001600160a01b0391909116815260200190565b614f6380620003946000396000f3fe60806040523480156200001157600080fd5b50600436106200012f5760003560e01c8063a894d2aa11620000b1578063e985e9c5116200007b578063e985e9c514620002b9578063f234383814620002d0578063f23a6e6114620002da578063f242432a14620002f1578063f41f59031462000308576200012f565b8063a894d2aa146200024a578063bc197c811462000263578063c251b5651462000289578063e590b56a14620002a2576200012f565b80632eb2c2d611620000ff5780632eb2c2d614620001c85780634e1273f414620001df5780636fc6b3db1462000205578063733a0e98146200021c578063a22cb4651462000233576200012f565b8062fdd58e146200013457806301ffc9a714620001635780630e89341c14620001895780631173648e14620001af575b600080fd5b6200014b6200014536600462001529565b62000312565b6040516200015a919062001acc565b60405180910390f35b6200017a6200017436600462001642565b62000383565b6040516200015a9190620017a9565b620001a06200019a366004620016b9565b620003a6565b6040516200015a9190620017f8565b620001c6620001c03660046200166c565b62000442565b005b620001c6620001d936600462001290565b62000748565b620001f6620001f036600462001555565b62000752565b6040516200015a91906200176f565b6200014b62000216366004620016b9565b62000848565b6200014b6200022d3660046200123c565b6200085a565b620001c662000244366004620014ee565b6200086c565b6200025462000870565b6040516200015a9190620016eb565b6200027a6200027436600462001354565b6200087f565b6040516200015a9190620017b4565b6200029362000890565b6040516200015a919062001720565b62000254620002b3366004620016b9565b620008f5565b6200017a620002ca36600462001259565b62000920565b620001c662000928565b6200027a620002eb36600462001484565b62000c48565b620001c66200030236600462001407565b62000c59565b6200025462000c61565b60006001600160a01b0383166200035b5760405162461bcd60e51b815260040180806020018281038252602b81526020018062004e99602b913960400191505060405180910390fd5b5060009081526001602090815260408083206001600160a01b03949094168352929052205490565b6001600160e01b0319811660009081526020819052604090205460ff165b919050565b60038054604080516020601f6002600019610100600188161502019095169490940493840181900481028201810190925282815260609390929091830182828015620004365780601f106200040a5761010080835404028352916020019162000436565b820191906000526020600020905b8154815290600101906020018083116200041857829003601f168201915b50505050509050919050565b600a546040516339ce0e5d60e11b81526000916001600160a01b03169063739c1cba9062000475903390600401620016eb565b60206040518083038186803b1580156200048e57600080fd5b505afa158015620004a3573d6000803e3d6000fd5b505050506040513d601f19601f82011682018060405250810190620004c9919062001623565b905080620004f45760405162461bcd60e51b8152600401620004eb90620019f3565b60405180910390fd5b600a546040516342ca962960e01b81526000916001600160a01b0316906342ca96299062000527903390600401620016eb565b60206040518083038186803b1580156200054057600080fd5b505afa15801562000555573d6000803e3d6000fd5b505050506040513d601f19601f820116820180604052508101906200057b9190620016d2565b600a54604051638f4b3f5960e01b81529192506000916001600160a01b0390911690638f4b3f5990620005b390859060040162001acc565b60206040518083038186803b158015620005cc57600080fd5b505afa158015620005e1573d6000803e3d6000fd5b505050506040513d601f19601f8201168201806040525081019062000607919062001623565b905080620006295760405162461bcd60e51b8152600401620004eb90620019a0565b62000647308560016040518060200160405280600081525062000c70565b62000653600462000d95565b600062000661600462000d9e565b9050600087876040516200067590620010a8565b62000682929190620017c9565b604051809103906000f0801580156200069f573d6000803e3d6000fd5b506001600160a01b038116600081815260056020908152604080832087905586835260069091528082208a905560078054600181018255925260008051602062004ec483398151915290910180546001600160a01b0319169092179091555190915033907f78cc80a95f4924a4997a0322dc88db7defae07e349ca11aac6ba8d18aac59b96906200073690849086908b90620016ff565b60405180910390a25050505050505050565b5050505050505050565b60608151835114620007965760405162461bcd60e51b815260040180806020018281038252602981526020018062004ee46029913960400191505060405180910390fd5b606083516001600160401b0381118015620007b057600080fd5b50604051908082528060200260200182016040528015620007db578160200160208202803683370190505b50905060005b845181101562000840576200081f858281518110620007fc57fe5b60200260200101518583815181106200081157fe5b602002602001015162000312565b8282815181106200082c57fe5b6020908102919091010152600101620007e1565b509392505050565b60066020526000908152604090205481565b60056020526000908152604090205481565b5050565b6009546001600160a01b031681565b63bc197c8160e01b95945050505050565b60606007805480602002602001604051908101604052809291908181526020018280548015620008ea57602002820191906000526020600020905b81546001600160a01b03168152600190910190602001808311620008cb575b505050505090505b90565b600781815481106200090657600080fd5b6000918252602090912001546001600160a01b0316905081565b600092915050565b600a54600160a01b900460ff1615620009555760405162461bcd60e51b8152600401620004eb9062001954565b60408051602080820183526000808352835180830185528181528451928301909452815290919062000988600462000d95565b600062000996600462000d9e565b9050620009b730600060016040518060200160405280600081525062000c70565b6000604051620009c790620010a8565b620009d29062001a49565b604051809103906000f080158015620009ef573d6000803e3d6000fd5b506001600160a01b03811660008181526005602090815260408083208790558683526006909152812081905560078054600181018255915260008051602062004ec48339815191520180546001600160a01b0319169091179055905062000a57600462000d95565b62000a63600462000d9e565b915062000a83306001806040518060200160405280600081525062000c70565b600060405162000a9390620010a8565b62000a9e906200184e565b604051809103906000f08015801562000abb573d6000803e3d6000fd5b506001600160a01b03811660008181526005602090815260408083208890558783526006909152812060019081905560078054918201815590915260008051602062004ec48339815191520180546001600160a01b0319169091179055905062000b26600462000d95565b62000b32600462000d9e565b925062000b5330600260016040518060200160405280600081525062000c70565b600060405162000b6390620010a8565b62000b6e90620018d1565b604051809103906000f08015801562000b8b573d6000803e3d6000fd5b506001600160a01b0381166000818152600560209081526040808320899055888352600690915280822060029081905560078054600181018255935260008051602062004ec483398151915290920180546001600160a01b031916909317909255600a805460ff60a01b1916600160a01b179055905191925033917f78cc80a95f4924a4997a0322dc88db7defae07e349ca11aac6ba8d18aac59b969162000c379185918991620016ff565b60405180910390a250505050505050565b63f23a6e6160e01b95945050505050565b505050505050565b6008546001600160a01b031681565b6001600160a01b03841662000cb75760405162461bcd60e51b815260040180806020018281038252602181526020018062004f0d6021913960400191505060405180910390fd5b600062000cc362000da2565b905062000cea8160008762000cd88862000da6565b62000ce38862000da6565b8762000c59565b60008481526001602090815260408083206001600160a01b038916845290915290205462000d19908462000deb565b60008581526001602090815260408083206001600160a01b03808b16808652918452828520959095558151898152928301889052815190948616927fc3d58168c5ae7397731d063d5bbf3d657854427343f4c083240f7aacaa2d0f6292908290030190a462000d8e8160008787878762000e4d565b5050505050565b80546001019055565b5490565b3390565b60408051600180825281830190925260609182919060208083019080368337019050509050828160008151811062000dda57fe5b602090810291909101015292915050565b60008282018381101562000e46576040805162461bcd60e51b815260206004820152601b60248201527f536166654d6174683a206164646974696f6e206f766572666c6f770000000000604482015290519081900360640190fd5b9392505050565b62000e61846001600160a01b0316620010a2565b1562000c5957836001600160a01b031663f23a6e6187878686866040518663ffffffff1660e01b815260040180866001600160a01b03168152602001856001600160a01b0316815260200184815260200183815260200180602001828103825283818151815260200191508051906020019080838360005b8381101562000ef357818101518382015260200162000ed9565b50505050905090810190601f16801562000f215780820380516001836020036101000a031916815260200191505b509650505050505050602060405180830381600087803b15801562000f4557600080fd5b505af192505050801562000f6c57506040513d602081101562000f6757600080fd5b505160015b620010485762000f7b62001b1d565b8062000f88575062001010565b8060405162461bcd60e51b81526004018080602001828103825283818151815260200191508051906020019080838360005b8381101562000fd457818101518382015260200162000fba565b50505050905090810190601f168015620010025780820380516001836020036101000a031916815260200191505b509250505060405180910390fd5b60405162461bcd60e51b815260040180806020018281038252603481526020018062004e3d6034913960400191505060405180910390fd5b6001600160e01b0319811663f23a6e6160e01b14620010995760405162461bcd60e51b815260040180806020018281038252602881526020018062004e716028913960400191505060405180910390fd5b50505050505050565b3b151590565b61325d8062001be083390190565b80356001600160a01b0381168114620003a157600080fd5b60008083601f840112620010e0578081fd5b5081356001600160401b03811115620010f7578182fd5b60208301915083602080830285010111156200111257600080fd5b9250929050565b600082601f8301126200112a578081fd5b8135620011416200113b8262001af9565b62001ad5565b8181529150602080830190848101818402860182018710156200116357600080fd5b60005b84811015620011845781358452928201929082019060010162001166565b505050505092915050565b60008083601f840112620011a1578182fd5b5081356001600160401b03811115620011b8578182fd5b6020830191508360208285010111156200111257600080fd5b600082601f830112620011e2578081fd5b81356001600160401b03811115620011f657fe5b6200120b601f8201601f191660200162001ad5565b91508082528360208285010111156200122357600080fd5b8060208401602084013760009082016020015292915050565b6000602082840312156200124e578081fd5b62000e4682620010b6565b600080604083850312156200126c578081fd5b6200127783620010b6565b91506200128760208401620010b6565b90509250929050565b60008060008060008060008060a0898b031215620012ac578384fd5b620012b789620010b6565b9750620012c760208a01620010b6565b965060408901356001600160401b0380821115620012e3578586fd5b620012f18c838d01620010ce565b909850965060608b01359150808211156200130a578586fd5b620013188c838d01620010ce565b909650945060808b013591508082111562001331578384fd5b50620013408b828c016200118f565b999c989b5096995094979396929594505050565b600080600080600060a086880312156200136c578081fd5b6200137786620010b6565b94506200138760208701620010b6565b935060408601356001600160401b0380821115620013a3578283fd5b620013b189838a0162001119565b94506060880135915080821115620013c7578283fd5b620013d589838a0162001119565b93506080880135915080821115620013eb578283fd5b50620013fa88828901620011d1565b9150509295509295909350565b60008060008060008060a0878903121562001420578182fd5b6200142b87620010b6565b95506200143b60208801620010b6565b9450604087013593506060870135925060808701356001600160401b0381111562001464578283fd5b6200147289828a016200118f565b979a9699509497509295939492505050565b600080600080600060a086880312156200149c578081fd5b620014a786620010b6565b9450620014b760208701620010b6565b9350604086013592506060860135915060808601356001600160401b03811115620014e0578182fd5b620013fa88828901620011d1565b6000806040838503121562001501578182fd5b6200150c83620010b6565b915060208301356200151e8162001bcd565b809150509250929050565b600080604083850312156200153c578182fd5b6200154783620010b6565b946020939093013593505050565b6000806040838503121562001568578182fd5b82356001600160401b03808211156200157f578384fd5b818501915085601f83011262001593578384fd5b8135620015a46200113b8262001af9565b80828252602080830192508086018a828387028901011115620015c5578889fd5b8896505b84871015620015f257620015dd81620010b6565b845260019690960195928101928101620015c9565b5090965087013593505050808211156200160a578283fd5b50620016198582860162001119565b9150509250929050565b60006020828403121562001635578081fd5b815162000e468162001bcd565b60006020828403121562001654578081fd5b81356001600160e01b03198116811462000e46578182fd5b60008060006040848603121562001681578081fd5b83356001600160401b0381111562001697578182fd5b620016a5868287016200118f565b909790965060209590950135949350505050565b600060208284031215620016cb578081fd5b5035919050565b600060208284031215620016e4578081fd5b5051919050565b6001600160a01b0391909116815260200190565b6001600160a01b039390931683526020830191909152604082015260600190565b6020808252825182820181905260009190848201906040850190845b81811015620017635783516001600160a01b0316835292840192918401916001016200173c565b50909695505050505050565b6020808252825182820181905260009190848201906040850190845b8181101562001763578351835292840192918401916001016200178b565b901515815260200190565b6001600160e01b031991909116815260200190565b60006020825282602083015282846040840137818301604090810191909152601f909201601f19160101919050565b6000602080835283518082850152825b81811015620018265785810183015185820160400152820162001808565b81811115620018385783604083870101525b50601f01601f1916929092016040019392505050565b60208082526057908201527f68747470733a2f2f6875622e74657874696c652e696f2f697066732f6261666b60408201527f72656964376a747a687565646567676e3577656c757037697978636870716f6460608201527f6279616d3379666e743465793478776e75737233766265000000000000000000608082015260a00190565b60208082526057908201527f68747470733a2f2f6875622e74657874696c652e696f2f697066732f6261666b60408201527f72656962676c6b33693763323462327a70727364336a6c6b7a6668787469367260608201527f75627633746b696636687533366c7a3432757772666b69000000000000000000608082015260a00190565b6020808252602c908201527f47656e6573697320636f6d6d756e69746965732063616e20626520637265617460408201526b6564206f6e6c79206f6e636560a01b606082015260800190565b60208082526033908201527f4f6e6c7920616e2061637469766520736b696c6c2077616c6c65742063616e2060408201527231b932b0ba3290309031b7b6b6bab734ba3c9760691b606082015260800190565b60208082526036908201527f4f6e6c792061207265676973746572656420736b696c6c2077616c6c6574206360408201527530b71031b932b0ba3290309031b7b6b6bab734ba3c9760511b606082015260800190565b60208082526057908201527f68747470733a2f2f6875622e74657874696c652e696f2f697066732f6261666b60408201527f726569636b377034796d7337636d776e6d66697a6d636c356536636470696a3460608201527f6a736c32706b686b3563656a6e37343475776e7a696e79000000000000000000608082015260a00190565b90815260200190565b6040518181016001600160401b038111828210171562001af157fe5b604052919050565b60006001600160401b0382111562001b0d57fe5b5060209081020190565b60e01c90565b600060443d101562001b2f57620008f2565b600481823e6308c379a062001b45825162001b17565b1462001b5157620008f2565b6040513d600319016004823e80513d6001600160401b03816024840111818411171562001b825750505050620008f2565b8284019250825191508082111562001b9e5750505050620008f2565b503d8301602082840101111562001bb857505050620008f2565b601f01601f1916810160200160405291505090565b801515811462001bdc57600080fd5b5056fe60806040523480156200001157600080fd5b506040516200325d3803806200325d8339810160408190526200003491620006ee565b80516200004990600090602084019062000585565b5060405162000058906200061a565b604051809103906000f08015801562000075573d6000803e3d6000fd5b50600780546001600160a01b0319166001600160a01b039283161790819055604051911690620000a59062000628565b620000b19190620007c0565b604051809103906000f080158015620000ce573d6000803e3d6000fd5b50600980546001600160a01b039283166001600160a01b031991821617909155600a80549091163317908190556040805163f41f590360e01b81529051919092169163f41f5903916004808301926020929190829003018186803b1580156200013657600080fd5b505afa1580156200014b573d6000803e3d6000fd5b505050506040513d601f19601f820116820180604052508101906200017191906200069c565b600b80546001600160a01b0319166001600160a01b03928316179055600a546040805163544a695560e11b81529051919092169163a894d2aa916004808301926020929190829003018186803b158015620001cb57600080fd5b505afa158015620001e0573d6000803e3d6000fd5b505050506040513d601f19601f820116820180604052508101906200020691906200069c565b600880546001600160a01b0319166001600160a01b039283161790556009546200024391166000808080808088686c6b935b8bbd4000006200024a565b50620008f6565b600254601861ffff90911611156200027f5760405162461bcd60e51b8152600401620002769062000871565b60405180910390fd5b6200028962000636565b506040805160a0810182526001600160401b03808b166060830190815260ff808c166080850152908352835180850185528a831681528982166020828101919091528085019190915284518086018652928916835290871690820152818301526008549151630a73b69d60e01b815290916001600160a01b031690630a73b69d906200031e908d9085908890600401620007d4565b600060405180830381600087803b1580156200033957600080fd5b505af11580156200034e573d6000803e3d6000fd5b50506008546040516342ca962960e01b8152600093506001600160a01b0390911691506342ca96299062000387908e90600401620007c0565b60206040518083038186803b158015620003a057600080fd5b505afa158015620003b5573d6000803e3d6000fd5b505050506040513d601f19601f82011682018060405250810190620003db91906200078c565b60075460405163e43252d760e01b81529192506001600160a01b03169063e43252d7906200040e908e90600401620007c0565b600060405180830381600087803b1580156200042957600080fd5b505af11580156200043e573d6000803e3d6000fd5b505060075460405163a9059cbb60e01b81526001600160a01b03909116925063a9059cbb915062000476908e90879060040162000858565b602060405180830381600087803b1580156200049157600080fd5b505af1158015620004a6573d6000803e3d6000fd5b505050506040513d601f19601f82011682018060405250810190620004cc9190620006cc565b506005805460018082019092557f036b6384b5eca791c62761152d0c79bb0604c104a5fb6f4eb0703f3154bb3db0018290556001600160a01b038c1660008181526004602052604090819020805460ff1916841790556002805461ffff19811661ffff918216909501169390931790925590517fe17e0e2cd88e2144dd54f3d823c30d4569092bcac1aabaec1129883e9cc12d2e90620005709084908790620008b5565b60405180910390a25050505050505050505050565b828054600181600116156101000203166002900490600052602060002090601f016020900481019282620005bd576000855562000608565b82601f10620005d857805160ff191683800117855562000608565b8280016001018555821562000608579182015b8281111562000608578251825591602001919060010190620005eb565b50620006169291506200066e565b5090565b6113898062001bd883390190565b6102fc8062002f6183390190565b60405180606001604052806200064b62000685565b81526020016200065a62000685565b81526020016200066962000685565b905290565b5b808211156200061657600081556001016200066f565b604080518082019091526000808252602082015290565b600060208284031215620006ae578081fd5b81516001600160a01b0381168114620006c5578182fd5b9392505050565b600060208284031215620006de578081fd5b81518015158114620006c5578182fd5b60006020828403121562000700578081fd5b81516001600160401b038082111562000717578283fd5b818401915084601f8301126200072b578283fd5b8151818111156200073857fe5b604051601f8201601f1916810160200183811182821017156200075757fe5b6040528181528382016020018710156200076f578485fd5b62000782826020830160208701620008c3565b9695505050505050565b6000602082840312156200079e578081fd5b5051919050565b80516001600160401b0316825260209081015160ff16910152565b6001600160a01b0391909116815260200190565b600061010060018060a01b0386168352620007f4602084018651620007a5565b6020850151620008086060850182620007a5565b5060408501516200081d60a0850182620007a5565b508060e0840152835180828501526101209150620008428183860160208801620008c3565b601f01601f191692909201909101949350505050565b6001600160a01b03929092168252602082015260400190565b60208082526024908201527f54686572652061726520616c7265616479203234206d656d626572732c20736f6040820152637272792160e01b606082015260800190565b918252602082015260400190565b60005b83811015620008e0578181015183820152602001620008c6565b83811115620008f0576000848401525b50505050565b6112d280620009066000396000f3fe608060405234801561001057600080fd5b50600436106101165760003560e01c80637c8da89d116100a2578063a230c52411610071578063a230c524146101ee578063b522f69a1461020e578063bedf77a61461022e578063dcc6012814610241578063f79489d11461024957610116565b80637c8da89d146101a95780638f853115146101be5780639b5655dc146101d15780639eab5253146101d957610116565b8063135b4165116100e9578063135b41651461016957806317d70f7c14610171578063321c48f21461017957806377a4d5591461018157806379e66b461461019657610116565b8063010a38f51461011b578063019c08f5146101395780630613526514610141578063063d11de14610156575b600080fd5b61012361025c565b604051610130919061126d565b60405180910390f35b6101236102e7565b61015461014f366004610f02565b6102ed565b005b61015461016436600461103c565b61060e565b610123610702565b610123610708565b61012361070e565b610189610820565b60405161013091906111d0565b6101546101a436600461106c565b6108ae565b6101b1610b3e565b604051610130919061125e565b6101236101cc36600461103c565b610b48565b610123610b69565b6101e1610bf6565b6040516101309190611181565b6102016101fc366004610ec3565b610c4e565b60405161013091906111c5565b61022161021c36600461103c565b610c63565b60405161013091906110f4565b61015461023c366004610ec3565b610cec565b6101e1610d23565b61015461025736600461103c565b610d79565b600a54604051630e6741d360e31b815260009182916001600160a01b039091169063733a0e98906102919030906004016110f4565b60206040518083038186803b1580156102a957600080fd5b505afa1580156102bd573d6000803e3d6000fd5b505050506040513d601f19601f820116820180604052508101906102e19190611054565b91505090565b60015481565b600254601861ffff909116111561031f5760405162461bcd60e51b8152600401610316906111e3565b60405180910390fd5b610327610e51565b506040805160a08101825267ffffffffffffffff808b166060830190815260ff808c166080850152908352835180850185528a831681528982166020828101919091528085019190915284518086018652928916835290871690820152818301526008549151630a73b69d60e01b815290916001600160a01b031690630a73b69d906103bb908d9085908890600401611108565b600060405180830381600087803b1580156103d557600080fd5b505af11580156103e9573d6000803e3d6000fd5b50506008546040516342ca962960e01b8152600093506001600160a01b0390911691506342ca962990610420908e906004016110f4565b60206040518083038186803b15801561043857600080fd5b505afa15801561044c573d6000803e3d6000fd5b505050506040513d601f19601f820116820180604052508101906104709190611054565b60075460405163e43252d760e01b81529192506001600160a01b03169063e43252d7906104a1908e906004016110f4565b600060405180830381600087803b1580156104bb57600080fd5b505af11580156104cf573d6000803e3d6000fd5b505060075460405163a9059cbb60e01b81526001600160a01b03909116925063a9059cbb9150610505908e908790600401611168565b602060405180830381600087803b15801561051f57600080fd5b505af1158015610533573d6000803e3d6000fd5b505050506040513d601f19601f82011682018060405250810190610557919061101c565b506005805460018082019092557f036b6384b5eca791c62761152d0c79bb0604c104a5fb6f4eb0703f3154bb3db0018290556001600160a01b038c1660008181526004602052604090819020805460ff1916841790556002805461ffff19811661ffff918216909501169390931790925590517fe17e0e2cd88e2144dd54f3d823c30d4569092bcac1aabaec1129883e9cc12d2e906105f99084908790611276565b60405180910390a25050505050505050505050565b60075460095460405163a9059cbb60e01b81526001600160a01b039283169263a9059cbb92610644929116908590600401611168565b602060405180830381600087803b15801561065e57600080fd5b505af1158015610672573d6000803e3d6000fd5b505050506040513d601f19601f82011682018060405250810190610696919061101c565b50600960009054906101000a90046001600160a01b03166001600160a01b031663ebf5a99f6040518163ffffffff1660e01b8152600401600060405180830381600087803b1580156106e757600080fd5b505af11580156106fb573d6000803e3d6000fd5b5050505050565b60035481565b60065481565b600a54604051630e6741d360e31b815260009182916001600160a01b039091169063733a0e98906107439030906004016110f4565b60206040518083038186803b15801561075b57600080fd5b505afa15801561076f573d6000803e3d6000fd5b505050506040513d601f19601f820116820180604052508101906107939190611054565b600a54604051636fc6b3db60e01b81529192506000916001600160a01b0390911690636fc6b3db906107c990859060040161126d565b60206040518083038186803b1580156107e157600080fd5b505afa1580156107f5573d6000803e3d6000fd5b505050506040513d601f19601f820116820180604052508101906108199190611054565b9250505090565b6000805460408051602060026001851615610100026000190190941693909304601f810184900484028201840190925281815292918301828280156108a65780601f1061087b576101008083540402835291602001916108a6565b820191906000526020600020905b81548152906001019060200180831161088957829003601f168201915b505050505081565b600254601861ffff90911611156108d75760405162461bcd60e51b8152600401610316906111e3565b6008546040516331a9108f60e11b81526000916001600160a01b031690636352211e9061090890869060040161126d565b60206040518083038186803b15801561092057600080fd5b505afa158015610934573d6000803e3d6000fd5b505050506040513d601f19601f820116820180604052508101906109589190610ee6565b6001600160a01b03811660009081526004602052604090205490915060ff16156109945760405162461bcd60e51b815260040161031690611227565b6001600160a01b0381166000908152600460205260409020805460ff1916600117905560025460058054859261ffff169081106109cd57fe5b9060005260206000200181905550607b60056001815481106109eb57fe5b6000918252602090912001556002805461ffff8082166001011661ffff1990911617905560075460405163e43252d760e01b81526001600160a01b039091169063e43252d790610a3f9084906004016110f4565b600060405180830381600087803b158015610a5957600080fd5b505af1158015610a6d573d6000803e3d6000fd5b505060075460405163a9059cbb60e01b81526001600160a01b03909116925063a9059cbb9150610aa39084908690600401611168565b602060405180830381600087803b158015610abd57600080fd5b505af1158015610ad1573d6000803e3d6000fd5b505050506040513d601f19601f82011682018060405250810190610af5919061101c565b50806001600160a01b03167fe17e0e2cd88e2144dd54f3d823c30d4569092bcac1aabaec1129883e9cc12d2e8484604051610b31929190611276565b60405180910390a2505050565b60025461ffff1681565b60058181548110610b5857600080fd5b600091825260209091200154905081565b6007546009546040516370a0823160e01b81526000926001600160a01b03908116926370a0823192610ba192909116906004016110f4565b60206040518083038186803b158015610bb957600080fd5b505afa158015610bcd573d6000803e3d6000fd5b505050506040513d601f19601f82011682018060405250810190610bf19190611054565b905090565b60606005805480602002602001604051908101604052809291908181526020018280548015610c4457602002820191906000526020600020905b815481526020019060010190808311610c30575b5050505050905090565b60046020526000908152604090205460ff1681565b600b54604051635a917b4d60e11b81526000916001600160a01b03169063b522f69a90610c9490859060040161126d565b60206040518083038186803b158015610cac57600080fd5b505afa158015610cc0573d6000803e3d6000fd5b505050506040513d601f19601f82011682018060405250810190610ce49190610ee6565b90505b919050565b6040516001600160a01b038216907fbea911b50ccdd2233b28faa49766c3cbd0631608f32e5a724d7b83b32b681ad090600090a250565b6060600c805480602002602001604051908101604052809291908181526020018280548015610c445760200282019190600052602060002090815481526020019060010190808311610c30575050505050905090565b600a60009054906101000a90046001600160a01b03166001600160a01b031663f41f59036040518163ffffffff1660e01b815260040160206040518083038186803b158015610dc757600080fd5b505afa158015610ddb573d6000803e3d6000fd5b505050506040513d601f19601f82011682018060405250810190610dff9190610ee6565b6001600160a01b0316336001600160a01b031614610e1c57600080fd5b600c80546001810182556000919091527fdf6966c971051c3d54ec59162606531493a51404a002842f56009d7e5cf4a8c70155565b6040518060600160405280610e64610e83565b8152602001610e71610e83565b8152602001610e7e610e83565b905290565b604080518082019091526000808252602082015290565b803567ffffffffffffffff81168114610ce757600080fd5b803560ff81168114610ce757600080fd5b600060208284031215610ed4578081fd5b8135610edf81611284565b9392505050565b600060208284031215610ef7578081fd5b8151610edf81611284565b60008060008060008060008060006101208a8c031215610f20578485fd5b8935610f2b81611284565b98506020610f3a8b8201610e9a565b9850610f4860408c01610eb2565b9750610f5660608c01610e9a565b9650610f6460808c01610eb2565b9550610f7260a08c01610e9a565b9450610f8060c08c01610eb2565b935060e08b013567ffffffffffffffff80821115610f9c578485fd5b818d0191508d601f830112610faf578485fd5b813581811115610fbb57fe5b604051601f8201601f1916810185018381118282101715610fd857fe5b80604052508181528f85838601011115610ff0578687fd5b81858501868301378685838301015280965050505050506101008a013590509295985092959850929598565b60006020828403121561102d578081fd5b81518015158114610edf578182fd5b60006020828403121561104d578081fd5b5035919050565b600060208284031215611065578081fd5b5051919050565b6000806040838503121561107e578182fd5b50508035926020909101359150565b60008151808452815b818110156110b257602081850181015186830182015201611096565b818111156110c35782602083870101525b50601f01601f19169290920160200192915050565b805167ffffffffffffffff16825260209081015160ff16910152565b6001600160a01b0391909116815260200190565b600061010060018060a01b03861683526111266020840186516110d8565b602085015161113860608501826110d8565b50604085015161114b60a08501826110d8565b508060e084015261115e8184018561108d565b9695505050505050565b6001600160a01b03929092168252602082015260400190565b6020808252825182820181905260009190848201906040850190845b818110156111b95783518352928401929184019160010161119d565b50909695505050505050565b901515815260200190565b600060208252610edf602083018461108d565b60208082526024908201527f54686572652061726520616c7265616479203234206d656d626572732c20736f6040820152637272792160e01b606082015260800190565b60208082526018908201527f596f75206861766520616c7265616479206a6f696e6564210000000000000000604082015260600190565b61ffff91909116815260200190565b90815260200190565b918252602082015260400190565b6001600160a01b038116811461129957600080fd5b5056fea26469706673582212204ff0f33704ee3729627a1b31f4ba572f6924fee16f58c460ada11545a548e7aa64736f6c6343000704003360806040523480156200001157600080fd5b50604051806040016040528060048152602001634469546f60e01b815250604051806040016040528060048152602001634449544f60e01b8152508160039080519060200190620000649291906200029c565b5080516200007a9060049060208401906200029c565b50506005805460ff191660121790555060006200009662000122565b60058054610100600160a81b0319166101006001600160a01b03841690810291909117909155604051919250906000907f8be0079c531659141344cd1fd0a4f28419497f9722a3daafe3b4186f6b6457e0908290a350336000818152600660205260409020805460ff191660011790556200011c906914542ba12a337c00000062000126565b62000348565b3390565b6001600160a01b03821662000182576040805162461bcd60e51b815260206004820152601f60248201527f45524332303a206d696e7420746f20746865207a65726f206164647265737300604482015290519081900360640190fd5b620001906000838362000235565b620001ac816002546200023a60201b62000a051790919060201c565b6002556001600160a01b03821660009081526020818152604090912054620001df91839062000a056200023a821b17901c565b6001600160a01b0383166000818152602081815260408083209490945583518581529351929391927fddf252ad1be2c89b69c2b068fc378daa952ba7f163c4a11628f55a4df523b3ef9281900390910190a35050565b505050565b60008282018381101562000295576040805162461bcd60e51b815260206004820152601b60248201527f536166654d6174683a206164646974696f6e206f766572666c6f770000000000604482015290519081900360640190fd5b9392505050565b828054600181600116156101000203166002900490600052602060002090601f016020900481019282620002d457600085556200031f565b82601f10620002ef57805160ff19168380011785556200031f565b828001600101855582156200031f579182015b828111156200031f57825182559160200191906001019062000302565b506200032d92915062000331565b5090565b5b808211156200032d576000815560010162000332565b61103180620003586000396000f3fe608060405234801561001057600080fd5b506004361061010b5760003560e01c80638ab1d681116100a2578063a457c2d711610071578063a457c2d71461030f578063a9059cbb1461033b578063dd62ed3e14610367578063e43252d714610395578063f2fde38b146103bb5761010b565b80638ab1d681146102975780638da5cb5b146102bd57806395d89b41146102e15780639b19251a146102e95761010b565b8063313ce567116100de578063313ce5671461021d578063395093511461023b57806370a0823114610267578063715018a61461028d5761010b565b806306fdde0314610110578063095ea7b31461018d57806318160ddd146101cd57806323b872dd146101e7575b600080fd5b6101186103e1565b6040805160208082528351818301528351919283929083019185019080838360005b8381101561015257818101518382015260200161013a565b50505050905090810190601f16801561017f5780820380516001836020036101000a031916815260200191505b509250505060405180910390f35b6101b9600480360360408110156101a357600080fd5b506001600160a01b038135169060200135610477565b604080519115158252519081900360200190f35b6101d56104c6565b60408051918252519081900360200190f35b6101b9600480360360608110156101fd57600080fd5b506001600160a01b038135811691602081013590911690604001356104cc565b61022561051d565b6040805160ff9092168252519081900360200190f35b6101b96004803603604081101561025157600080fd5b506001600160a01b038135169060200135610526565b6101d56004803603602081101561027d57600080fd5b50356001600160a01b031661056e565b610295610589565b005b610295600480360360208110156102ad57600080fd5b50356001600160a01b031661063b565b6102c56106f5565b604080516001600160a01b039092168252519081900360200190f35b610118610709565b6101b9600480360360208110156102ff57600080fd5b50356001600160a01b031661076a565b6101b96004803603604081101561032557600080fd5b506001600160a01b03813516906020013561077f565b6101b96004803603604081101561035157600080fd5b506001600160a01b0381351690602001356107c7565b6101d56004803603604081101561037d57600080fd5b506001600160a01b038135811691602001351661080f565b610295600480360360208110156103ab57600080fd5b50356001600160a01b031661083a565b610295600480360360208110156103d157600080fd5b50356001600160a01b03166108f7565b60038054604080516020601f600260001961010060018816150201909516949094049384018190048102820181019092528281526060939092909183018282801561046d5780601f106104425761010080835404028352916020019161046d565b820191906000526020600020905b81548152906001019060200180831161045057829003601f168201915b5050505050905090565b3360009081526006602052604081205460ff166104b5576040805162461bcd60e51b8152602060048201526000602482015290519081900360640190fd5b6104bf8383610a5f565b9392505050565b60025490565b3360009081526006602052604081205460ff1661050a576040805162461bcd60e51b8152602060048201526000602482015290519081900360640190fd5b610515848484610a7c565b949350505050565b60055460ff1690565b3360009081526006602052604081205460ff16610564576040805162461bcd60e51b8152602060048201526000602482015290519081900360640190fd5b6104bf8383610b03565b6001600160a01b031660009081526020819052604090205490565b610591610b51565b6001600160a01b03166105a26106f5565b6001600160a01b0316146105eb576040805162461bcd60e51b81526020600482018190526024820152600080516020610f6e833981519152604482015290519081900360640190fd5b60055460405160009161010090046001600160a01b0316907f8be0079c531659141344cd1fd0a4f28419497f9722a3daafe3b4186f6b6457e0908390a360058054610100600160a81b0319169055565b610643610b51565b6001600160a01b03166106546106f5565b6001600160a01b03161461069d576040805162461bcd60e51b81526020600482018190526024820152600080516020610f6e833981519152604482015290519081900360640190fd5b6001600160a01b038116600081815260066020908152604091829020805460ff19169055815192835290517fcdd2e9b91a56913d370075169cefa1602ba36be5301664f752192bb1709df7579281900390910190a150565b60055461010090046001600160a01b031690565b60048054604080516020601f600260001961010060018816150201909516949094049384018190048102820181019092528281526060939092909183018282801561046d5780601f106104425761010080835404028352916020019161046d565b60066020526000908152604090205460ff1681565b3360009081526006602052604081205460ff166107bd576040805162461bcd60e51b8152602060048201526000602482015290519081900360640190fd5b6104bf8383610b55565b3360009081526006602052604081205460ff16610805576040805162461bcd60e51b8152602060048201526000602482015290519081900360640190fd5b6104bf8383610bbd565b6001600160a01b03918216600090815260016020908152604080832093909416825291909152205490565b610842610b51565b6001600160a01b03166108536106f5565b6001600160a01b03161461089c576040805162461bcd60e51b81526020600482018190526024820152600080516020610f6e833981519152604482015290519081900360640190fd5b6001600160a01b038116600081815260066020908152604091829020805460ff19166001179055815192835290517fa850ae9193f515cbae8d35e8925bd2be26627fc91bce650b8652ed254e9cab039281900390910190a150565b6108ff610b51565b6001600160a01b03166109106106f5565b6001600160a01b031614610959576040805162461bcd60e51b81526020600482018190526024820152600080516020610f6e833981519152604482015290519081900360640190fd5b6001600160a01b03811661099e5760405162461bcd60e51b8152600401808060200182810382526026815260200180610ed86026913960400191505060405180910390fd5b6005546040516001600160a01b0380841692610100900416907f8be0079c531659141344cd1fd0a4f28419497f9722a3daafe3b4186f6b6457e090600090a3600580546001600160a01b0390921661010002610100600160a81b0319909216919091179055565b6000828201838110156104bf576040805162461bcd60e51b815260206004820152601b60248201527f536166654d6174683a206164646974696f6e206f766572666c6f770000000000604482015290519081900360640190fd5b6000610a73610a6c610b51565b8484610bd1565b50600192915050565b6000610a89848484610cbd565b610af984610a95610b51565b610af485604051806060016040528060288152602001610f46602891396001600160a01b038a16600090815260016020526040812090610ad3610b51565b6001600160a01b031681526020810191909152604001600020549190610e18565b610bd1565b5060019392505050565b6000610a73610b10610b51565b84610af48560016000610b21610b51565b6001600160a01b03908116825260208083019390935260409182016000908120918c168152925290205490610a05565b3390565b6000610a73610b62610b51565b84610af485604051806060016040528060258152602001610fd76025913960016000610b8c610b51565b6001600160a01b03908116825260208083019390935260409182016000908120918d16815292529020549190610e18565b6000610a73610bca610b51565b8484610cbd565b6001600160a01b038316610c165760405162461bcd60e51b8152600401808060200182810382526024815260200180610fb36024913960400191505060405180910390fd5b6001600160a01b038216610c5b5760405162461bcd60e51b8152600401808060200182810382526022815260200180610efe6022913960400191505060405180910390fd5b6001600160a01b03808416600081815260016020908152604080832094871680845294825291829020859055815185815291517f8c5be1e5ebec7d5bd14f71427d1e84f3dd0314c0f7b2291e5b200ac8c7c3b9259281900390910190a3505050565b6001600160a01b038316610d025760405162461bcd60e51b8152600401808060200182810382526025815260200180610f8e6025913960400191505060405180910390fd5b6001600160a01b038216610d475760405162461bcd60e51b8152600401808060200182810382526023815260200180610eb56023913960400191505060405180910390fd5b610d52838383610eaf565b610d8f81604051806060016040528060268152602001610f20602691396001600160a01b0386166000908152602081905260409020549190610e18565b6001600160a01b038085166000908152602081905260408082209390935590841681522054610dbe9082610a05565b6001600160a01b038084166000818152602081815260409182902094909455805185815290519193928716927fddf252ad1be2c89b69c2b068fc378daa952ba7f163c4a11628f55a4df523b3ef92918290030190a3505050565b60008184841115610ea75760405162461bcd60e51b81526004018080602001828103825283818151815260200191508051906020019080838360005b83811015610e6c578181015183820152602001610e54565b50505050905090810190601f168015610e995780820380516001836020036101000a031916815260200191505b509250505060405180910390fd5b505050900390565b50505056fe45524332303a207472616e7366657220746f20746865207a65726f20616464726573734f776e61626c653a206e6577206f776e657220697320746865207a65726f206164647265737345524332303a20617070726f766520746f20746865207a65726f206164647265737345524332303a207472616e7366657220616d6f756e7420657863656564732062616c616e636545524332303a207472616e7366657220616d6f756e74206578636565647320616c6c6f77616e63654f776e61626c653a2063616c6c6572206973206e6f7420746865206f776e657245524332303a207472616e736665722066726f6d20746865207a65726f206164647265737345524332303a20617070726f76652066726f6d20746865207a65726f206164647265737345524332303a2064656372656173656420616c6c6f77616e63652062656c6f77207a65726fa26469706673582212208146373780f457242dd61d75a5351e31cb6b6a48bbe4e31edfa924935a33f45c64736f6c63430007040033608060405234801561001057600080fd5b506040516102fc3803806102fc8339818101604052602081101561003357600080fd5b5051600080546001600160a01b039092166001600160a01b0319928316179055600180549091163317905561028f8061006d6000396000f3fe608060405234801561001057600080fd5b50600436106100365760003560e01c8063150b7a021461003b578063ebf5a99f1461011e575b600080fd5b6101016004803603608081101561005157600080fd5b6001600160a01b0382358116926020810135909116916040820135919081019060808101606082013564010000000081111561008c57600080fd5b82018360208201111561009e57600080fd5b803590602001918460018302840111640100000000831117156100c057600080fd5b91908080601f016020809104026020016040519081016040528093929190818152602001838380828437600092019190915250929550610128945050505050565b604080516001600160e01b03199092168252519081900360200190f35b610126610138565b005b630a85bd0160e11b949350505050565b60008054604080516370a0823160e01b815230600482015290516001600160a01b03909216916370a0823191602480820192602092909190829003018186803b15801561018457600080fd5b505afa158015610198573d6000803e3d6000fd5b505050506040513d60208110156101ae57600080fd5b5051905068d02ab486cedc000000811061025657600080546001546040805163a9059cbb60e01b81526001600160a01b039283166004820152686c6b935b8bbd3fffff19860160248201529051919092169263a9059cbb92604480820193602093909283900390910190829087803b15801561022957600080fd5b505af115801561023d573d6000803e3d6000fd5b505050506040513d602081101561025357600080fd5b50505b5056fea26469706673582212209c57ab5a4c1b9fc127517638ccefc3dcddcec0468a526ebfcffc8d0871bed77e64736f6c63430007040033455243313135353a207472616e7366657220746f206e6f6e2045524331313535526563656976657220696d706c656d656e746572455243313135353a204552433131353552656365697665722072656a656374656420746f6b656e73455243313135353a2062616c616e636520717565727920666f7220746865207a65726f2061646472657373a66cc928b5edb82af9bd49922954155ab7b0942694bea4ce44661d9a8736c688455243313135353a206163636f756e747320616e6420696473206c656e677468206d69736d61746368455243313135353a206d696e7420746f20746865207a65726f2061646472657373a2646970667358221220e4a00740180eb5b618c5fad20c3c2d62d366cbd575f9a87de789e3f4bc62479764736f6c6343000704003360806040523480156200001157600080fd5b50604051620026b3380380620026b3833981016040819052620000349162000242565b604080518082018252600b81526a111a551bd41c9bda9958dd60aa1b602080830191909152825180840190935260078352662224aa27a8292560c91b9083015290620000876301ffc9a760e01b62000111565b81516200009c90600690602085019062000196565b508051620000b290600790602084019062000196565b50620000c56380ac58cd60e01b62000111565b620000d7635b5e139f60e01b62000111565b620000e963780e9d6360e01b62000111565b5050600f80546001600160a01b0319166001600160a01b039290921691909117905562000272565b6001600160e01b0319808216141562000171576040805162461bcd60e51b815260206004820152601c60248201527f4552433136353a20696e76616c696420696e7465726661636520696400000000604482015290519081900360640190fd5b6001600160e01b0319166000908152602081905260409020805460ff19166001179055565b828054600181600116156101000203166002900490600052602060002090601f016020900481019282620001ce576000855562000219565b82601f10620001e957805160ff191683800117855562000219565b8280016001018555821562000219579182015b8281111562000219578251825591602001919060010190620001fc565b50620002279291506200022b565b5090565b5b808211156200022757600081556001016200022c565b60006020828403121562000254578081fd5b81516001600160a01b03811681146200026b578182fd5b9392505050565b61243180620002826000396000f3fe608060405234801561001057600080fd5b50600436106101375760003560e01c80636352211e116100b857806395d89b411161007c57806395d89b4114610284578063a22cb4651461028c578063b522f69a1461029f578063b88d4fde146102b2578063c87b56dd146102c5578063e985e9c5146102d857610137565b80636352211e146102235780636c0360eb146102365780636f92225e1461023e57806370a082311461025e57806388ff2dcc1461027157610137565b806323b872dd116100ff57806323b872dd146101c45780632f745c59146101d75780633dbc4a12146101ea57806342842e0e146101fd5780634f6ccce71461021057610137565b806301ffc9a71461013c57806306fdde0314610165578063081812fc1461017a578063095ea7b31461019a57806318160ddd146101af575b600080fd5b61014f61014a366004611eb0565b6102eb565b60405161015c9190611fbc565b60405180910390f35b61016d61030e565b60405161015c9190611fc7565b61018d610188366004611f34565b6103a4565b60405161015c9190611f64565b6101ad6101a8366004611e6b565b610406565b005b6101b76104dc565b60405161015c9190612113565b6101ad6101d2366004611d94565b6104ed565b6101b76101e5366004611e6b565b610544565b61018d6101f8366004611f34565b61056f565b6101ad61020b366004611d94565b61058a565b6101b761021e366004611f34565b6105a5565b61018d610231366004611f34565b6105bb565b61016d6105e3565b61025161024c366004611d48565b610644565b60405161015c9190611f78565b6101b761026c366004611d48565b6106b0565b6101ad61027f366004611ed8565b610718565b61016d610b5a565b6101ad61029a366004611e35565b610bbb565b61018d6102ad366004611f34565b610cc0565b6101ad6102c0366004611dcf565b610cdb565b61016d6102d3366004611f34565b610d39565b61014f6102e6366004611d62565b610fbc565b6001600160e01b0319811660009081526020819052604090205460ff165b919050565b60068054604080516020601f600260001961010060018816150201909516949094049384018190048102820181019092528281526060939092909183018282801561039a5780601f1061036f5761010080835404028352916020019161039a565b820191906000526020600020905b81548152906001019060200180831161037d57829003601f168201915b5050505050905090565b60006103af82610fea565b6103ea5760405162461bcd60e51b815260040180806020018281038252602c8152602001806122fa602c913960400191505060405180910390fd5b506000908152600460205260409020546001600160a01b031690565b6000610411826105bb565b9050806001600160a01b0316836001600160a01b031614156104645760405162461bcd60e51b81526004018080602001828103825260218152602001806123aa6021913960400191505060405180910390fd5b806001600160a01b0316610476610ff7565b6001600160a01b031614806104925750610492816102e6610ff7565b6104cd5760405162461bcd60e51b815260040180806020018281038252603881526020018061224d6038913960400191505060405180910390fd5b6104d78383610ffb565b505050565b60006104e86002611069565b905090565b6104fe6104f8610ff7565b82611074565b6105395760405162461bcd60e51b81526004018080602001828103825260318152602001806123cb6031913960400191505060405180910390fd5b6104d7838383611118565b6001600160a01b03821660009081526001602052604081206105669083611264565b90505b92915050565b600e602052600090815260409020546001600160a01b031681565b6104d783838360405180602001604052806000815250610cdb565b6000806105b3600284611270565b509392505050565b6000610569826040518060600160405280602981526020016122af602991396002919061128c565b60098054604080516020601f600260001961010060018816150201909516949094049384018190048102820181019092528281526060939092909183018282801561039a5780601f1061036f5761010080835404028352916020019161039a565b6001600160a01b0381166000908152600b60209081526040918290208054835181840281018401909452808452606093928301828280156106a457602002820191906000526020600020905b815481526020019060010190808311610690575b50505050509050919050565b60006001600160a01b0382166106f75760405162461bcd60e51b815260040180806020018281038252602a815260200180612285602a913960400191505060405180910390fd5b6001600160a01b038216600090815260016020526040902061056990611069565b600f546040516339ce0e5d60e11b815283916000916001600160a01b039091169063739c1cba9061074d908690600401611f64565b60206040518083038186803b15801561076557600080fd5b505afa158015610779573d6000803e3d6000fd5b505050506040513d601f19601f8201168201806040525081019061079d9190611e94565b9050806107c55760405162461bcd60e51b81526004016107bc9061201a565b60405180910390fd5b600f546040516342ca962960e01b81526000916001600160a01b0316906342ca9629906107f6908790600401611f64565b60206040518083038186803b15801561080e57600080fd5b505afa158015610822573d6000803e3d6000fd5b505050506040513d601f19601f820116820180604052508101906108469190611f4c565b600f54604051638f4b3f5960e01b81529192506000916001600160a01b0390911690638f4b3f599061087c908590600401612113565b60206040518083038186803b15801561089457600080fd5b505afa1580156108a8573d6000803e3d6000fd5b505050506040513d601f19601f820116820180604052508101906108cc9190611e94565b9050806108eb5760405162461bcd60e51b81526004016107bc906120c2565b60405163288c314960e21b81526000906001600160a01b0386169063a230c5249061091a908990600401611f64565b60206040518083038186803b15801561093257600080fd5b505afa158015610946573d6000803e3d6000fd5b505050506040513d601f19601f8201168201806040525081019061096a9190611e94565b9050806109895760405162461bcd60e51b81526004016107bc9061206e565b6000856001600160a01b031663321c48f26040518163ffffffff1660e01b815260040160206040518083038186803b1580156109c457600080fd5b505afa1580156109d8573d6000803e3d6000fd5b505050506040513d601f19601f820116820180604052508101906109fc9190611f4c565b90506000610a0a600a6112a3565b9050610a16600a6112a7565b610a2088826112b0565b610a2a818b6113de565b60405163f79489d160e01b81526001600160a01b0388169063f79489d190610a56908490600401612113565b600060405180830381600087803b158015610a7057600080fd5b505af1158015610a84573d6000803e3d6000fd5b50505050604051610a9490611c0a565b604051809103906000f080158015610ab0573d6000803e3d6000fd5b506000828152600e6020908152604080832080546001600160a01b0319166001600160a01b03958616179055928c168252600b815282822080546001818101835591845282842001859055858352600c8252838320805491820181558352912001829055517f2e16fe6185221195ff919455425d57cc20788b7457ce4ab0a9b39ffbbe4e25b290610b4690839085908d9061211c565b60405180910390a150505050505050505050565b60078054604080516020601f600260001961010060018816150201909516949094049384018190048102820181019092528281526060939092909183018282801561039a5780601f1061036f5761010080835404028352916020019161039a565b610bc3610ff7565b6001600160a01b0316826001600160a01b03161415610c29576040805162461bcd60e51b815260206004820152601960248201527f4552433732313a20617070726f766520746f2063616c6c657200000000000000604482015290519081900360640190fd5b8060056000610c36610ff7565b6001600160a01b03908116825260208083019390935260409182016000908120918716808252919093529120805460ff191692151592909217909155610c7a610ff7565b6001600160a01b03167f17307eab39ab6107e8899845ad3d59bd9653f200f220920489ca2b5937696c318360405180821515815260200191505060405180910390a35050565b6000908152600e60205260409020546001600160a01b031690565b610cec610ce6610ff7565b83611074565b610d275760405162461bcd60e51b81526004018080602001828103825260318152602001806123cb6031913960400191505060405180910390fd5b610d3384848484611441565b50505050565b6060610d4482610fea565b610d7f5760405162461bcd60e51b815260040180806020018281038252602f81526020018061237b602f913960400191505060405180910390fd5b60008281526008602090815260409182902080548351601f6002600019610100600186161502019093169290920491820184900484028101840190945280845260609392830182828015610e145780601f10610de957610100808354040283529160200191610e14565b820191906000526020600020905b815481529060010190602001808311610df757829003601f168201915b505050505090506060610e256105e3565b9050805160001415610e3957509050610309565b815115610efa5780826040516020018083805190602001908083835b60208310610e745780518252601f199092019160209182019101610e55565b51815160209384036101000a600019018019909216911617905285519190930192850191508083835b60208310610ebc5780518252601f199092019160209182019101610e9d565b6001836020036101000a0380198251168184511680821785525050505050509050019250505060405160208183030381529060405292505050610309565b80610f0485611493565b6040516020018083805190602001908083835b60208310610f365780518252601f199092019160209182019101610f17565b51815160209384036101000a600019018019909216911617905285519190930192850191508083835b60208310610f7e5780518252601f199092019160209182019101610f5f565b6001836020036101000a0380198251168184511680821785525050505050509050019250505060405160208183030381529060405292505050919050565b6001600160a01b03918216600090815260056020908152604080832093909416825291909152205460ff1690565b600061056960028361156e565b3390565b600081815260046020526040902080546001600160a01b0319166001600160a01b0384169081179091558190611030826105bb565b6001600160a01b03167f8c5be1e5ebec7d5bd14f71427d1e84f3dd0314c0f7b2291e5b200ac8c7c3b92560405160405180910390a45050565b6000610569826112a3565b600061107f82610fea565b6110ba5760405162461bcd60e51b815260040180806020018281038252602c815260200180612221602c913960400191505060405180910390fd5b60006110c5836105bb565b9050806001600160a01b0316846001600160a01b031614806111005750836001600160a01b03166110f5846103a4565b6001600160a01b0316145b8061111057506111108185610fbc565b949350505050565b826001600160a01b031661112b826105bb565b6001600160a01b0316146111705760405162461bcd60e51b81526004018080602001828103825260298152602001806123526029913960400191505060405180910390fd5b6001600160a01b0382166111b55760405162461bcd60e51b81526004018080602001828103825260248152602001806121fd6024913960400191505060405180910390fd5b6111c08383836104d7565b6111cb600082610ffb565b6001600160a01b03831660009081526001602052604090206111ed908261157a565b506001600160a01b03821660009081526001602052604090206112109082611586565b5061121d60028284611592565b5080826001600160a01b0316846001600160a01b03167fddf252ad1be2c89b69c2b068fc378daa952ba7f163c4a11628f55a4df523b3ef60405160405180910390a4505050565b600061056683836115a8565b600080808061127f868661160c565b9097909650945050505050565b6000611299848484611687565b90505b9392505050565b5490565b80546001019055565b6001600160a01b03821661130b576040805162461bcd60e51b815260206004820181905260248201527f4552433732313a206d696e7420746f20746865207a65726f2061646472657373604482015290519081900360640190fd5b61131481610fea565b15611366576040805162461bcd60e51b815260206004820152601c60248201527f4552433732313a20746f6b656e20616c7265616479206d696e74656400000000604482015290519081900360640190fd5b611372600083836104d7565b6001600160a01b03821660009081526001602052604090206113949082611586565b506113a160028284611592565b5060405181906001600160a01b038416906000907fddf252ad1be2c89b69c2b068fc378daa952ba7f163c4a11628f55a4df523b3ef908290a45050565b6113e782610fea565b6114225760405162461bcd60e51b815260040180806020018281038252602c815260200180612326602c913960400191505060405180910390fd5b600082815260086020908152604090912082516104d792840190611c16565b61144c848484611118565b61145884848484611751565b610d335760405162461bcd60e51b81526004018080602001828103825260328152602001806121cb6032913960400191505060405180910390fd5b6060816114b857506040805180820190915260018152600360fc1b6020820152610309565b8160005b81156114d057600101600a820491506114bc565b60608167ffffffffffffffff811180156114e957600080fd5b506040519080825280601f01601f191660200182016040528015611514576020820181803683370190505b50859350905060001982015b831561156557600a840660300160f81b8282806001900393508151811061154357fe5b60200101906001600160f81b031916908160001a905350600a84049350611520565b50949350505050565b600061056683836118b9565b600061056683836118d1565b60006105668383611997565b600061129984846001600160a01b0385166119e1565b815460009082106115ea5760405162461bcd60e51b81526004018080602001828103825260228152602001806121a96022913960400191505060405180910390fd5b8260000182815481106115f957fe5b9060005260206000200154905092915050565b8154600090819083106116505760405162461bcd60e51b81526004018080602001828103825260228152602001806122d86022913960400191505060405180910390fd5b600084600001848154811061166157fe5b906000526020600020906002020190508060000154816001015492509250509250929050565b600082815260018401602052604081205482816117225760405162461bcd60e51b81526004018080602001828103825283818151815260200191508051906020019080838360005b838110156116e75781810151838201526020016116cf565b50505050905090810190601f1680156117145780820380516001836020036101000a031916815260200191505b509250505060405180910390fd5b5084600001600182038154811061173557fe5b9060005260206000209060020201600101549150509392505050565b6000611765846001600160a01b0316611a78565b61177157506001611110565b606061187f630a85bd0160e11b611786610ff7565b88878760405160240180856001600160a01b03168152602001846001600160a01b0316815260200183815260200180602001828103825283818151815260200191508051906020019080838360005b838110156117ed5781810151838201526020016117d5565b50505050905090810190601f16801561181a5780820380516001836020036101000a031916815260200191505b5095505050505050604051602081830303815290604052906001600160e01b0319166020820180516001600160e01b0383818316178352505050506040518060600160405280603281526020016121cb603291396001600160a01b0388169190611a7e565b9050600081806020019051602081101561189857600080fd5b50516001600160e01b031916630a85bd0160e11b1492505050949350505050565b60009081526001919091016020526040902054151590565b6000818152600183016020526040812054801561198d578354600019808301919081019060009087908390811061190457fe5b906000526020600020015490508087600001848154811061192157fe5b60009182526020808320909101929092558281526001898101909252604090209084019055865487908061195157fe5b60019003818190600052602060002001600090559055866001016000878152602001908152602001600020600090556001945050505050610569565b6000915050610569565b60006119a383836118b9565b6119d957508154600181810184556000848152602080822090930184905584548482528286019093526040902091909155610569565b506000610569565b600082815260018401602052604081205480611a4657505060408051808201825283815260208082018481528654600181810189556000898152848120955160029093029095019182559151908201558654868452818801909252929091205561129c565b82856000016001830381548110611a5957fe5b906000526020600020906002020160010181905550600091505061129c565b3b151590565b6060611299848460008585611a9285611a78565b611ae3576040805162461bcd60e51b815260206004820152601d60248201527f416464726573733a2063616c6c20746f206e6f6e2d636f6e7472616374000000604482015290519081900360640190fd5b60006060866001600160a01b031685876040518082805190602001908083835b60208310611b225780518252601f199092019160209182019101611b03565b6001836020036101000a03801982511681845116808217855250505050505090500191505060006040518083038185875af1925050503d8060008114611b84576040519150601f19603f3d011682016040523d82523d6000602084013e611b89565b606091505b5091509150611b99828286611ba4565b979650505050505050565b60608315611bb357508161129c565b825115611bc35782518084602001fd5b60405162461bcd60e51b81526020600482018181528451602484015284518593919283926044019190850190808383600083156116e75781810151838201526020016116cf565b605c8061214d83390190565b828054600181600116156101000203166002900490600052602060002090601f016020900481019282611c4c5760008555611c92565b82601f10611c6557805160ff1916838001178555611c92565b82800160010185558215611c92579182015b82811115611c92578251825591602001919060010190611c77565b50611c9e929150611ca2565b5090565b5b80821115611c9e5760008155600101611ca3565b80356001600160a01b038116811461030957600080fd5b600082601f830112611cde578081fd5b813567ffffffffffffffff80821115611cf357fe5b604051601f8301601f191681016020018281118282101715611d1157fe5b604052828152925082848301602001861015611d2c57600080fd5b8260208601602083013760006020848301015250505092915050565b600060208284031215611d59578081fd5b61056682611cb7565b60008060408385031215611d74578081fd5b611d7d83611cb7565b9150611d8b60208401611cb7565b90509250929050565b600080600060608486031215611da8578081fd5b611db184611cb7565b9250611dbf60208501611cb7565b9150604084013590509250925092565b60008060008060808587031215611de4578081fd5b611ded85611cb7565b9350611dfb60208601611cb7565b925060408501359150606085013567ffffffffffffffff811115611e1d578182fd5b611e2987828801611cce565b91505092959194509250565b60008060408385031215611e47578182fd5b611e5083611cb7565b91506020830135611e608161213b565b809150509250929050565b60008060408385031215611e7d578182fd5b611e8683611cb7565b946020939093013593505050565b600060208284031215611ea5578081fd5b815161129c8161213b565b600060208284031215611ec1578081fd5b81356001600160e01b03198116811461129c578182fd5b600080600060608486031215611eec578283fd5b833567ffffffffffffffff811115611f02578384fd5b611f0e86828701611cce565b935050611f1d60208501611cb7565b9150611f2b60408501611cb7565b90509250925092565b600060208284031215611f45578081fd5b5035919050565b600060208284031215611f5d578081fd5b5051919050565b6001600160a01b0391909116815260200190565b6020808252825182820181905260009190848201906040850190845b81811015611fb057835183529284019291840191600101611f94565b50909695505050505050565b901515815260200190565b6000602080835283518082850152825b81811015611ff357858101830151858201604001528201611fd7565b818111156120045783604083870101525b50601f01601f1916929092016040019392505050565b60208082526034908201527f4f6e6c792061207265676973746572656420736b696c6c2077616c6c6574206360408201527330b71031b932b0ba32903090383937b532b1ba1760611b606082015260800190565b60208082526034908201527f4f6e6c792061206d656d626572206f662074686520636f6d6d756e697479206360408201527330b71031b932b0ba32903090383937b532b1ba1760611b606082015260800190565b60208082526031908201527f4f6e6c7920616e2061637469766520736b696c6c2077616c6c65742063616e2060408201527031b932b0ba32903090383937b532b1ba1760791b606082015260800190565b90815260200190565b92835260208301919091526001600160a01b0316604082015260600190565b801515811461214957600080fd5b5056fe6080604052348015600f57600080fd5b50603f80601d6000396000f3fe6080604052600080fdfea26469706673582212206bc8911414b06f20c986fec895102a9811c17fcf37f1d968ba58a2259f65ad1b64736f6c63430007040033456e756d657261626c655365743a20696e646578206f7574206f6620626f756e64734552433732313a207472616e7366657220746f206e6f6e20455243373231526563656976657220696d706c656d656e7465724552433732313a207472616e7366657220746f20746865207a65726f20616464726573734552433732313a206f70657261746f7220717565727920666f72206e6f6e6578697374656e7420746f6b656e4552433732313a20617070726f76652063616c6c6572206973206e6f74206f776e6572206e6f7220617070726f76656420666f7220616c6c4552433732313a2062616c616e636520717565727920666f7220746865207a65726f20616464726573734552433732313a206f776e657220717565727920666f72206e6f6e6578697374656e7420746f6b656e456e756d657261626c654d61703a20696e646578206f7574206f6620626f756e64734552433732313a20617070726f76656420717565727920666f72206e6f6e6578697374656e7420746f6b656e4552433732314d657461646174613a2055524920736574206f66206e6f6e6578697374656e7420746f6b656e4552433732313a207472616e73666572206f6620746f6b656e2074686174206973206e6f74206f776e4552433732314d657461646174613a2055524920717565727920666f72206e6f6e6578697374656e7420746f6b656e4552433732313a20617070726f76616c20746f2063757272656e74206f776e65724552433732313a207472616e736665722063616c6c6572206973206e6f74206f776e6572206e6f7220617070726f766564a26469706673582212208cd2fb477e893d667fa339f0ce9cb7ae79d5c1d885cbd23edbd2c7765177b65b64736f6c63430007040033",
  "linkReferences": {},
  "deployedLinkReferences": {}
}