{
  "_format": "hh-sol-artifact-1",
  "contractName": "DITOCredit",
  "sourceName": "contracts/DITOCredit.sol",
  "abi": [
    {
      "inputs": [],
      "stateMutability": "nonpayable",
      "type": "constructor"
    },
    {
      "anonymous": false,
      "inputs": [
        {
          "indexed": false,
          "internalType": "address",
          "name": "_communityMember",
          "type": "address"
        }
      ],
      "name": "AddedToWhitelist",
      "type": "event"
    },
    {
      "anonymous": false,
      "inputs": [
        {
          "indexed": true,
          "internalType": "address",
          "name": "owner",
          "type": "address"
        },
        {
          "indexed": true,
          "internalType": "address",
          "name": "spender",
          "type": "address"
        },
        {
          "indexed": false,
          "internalType": "uint256",
          "name": "value",
          "type": "uint256"
        }
      ],
      "name": "Approval",
      "type": "event"
    },
    {
      "anonymous": false,
      "inputs": [
        {
          "indexed": true,
          "internalType": "address",
          "name": "previousOwner",
          "type": "address"
        },
        {
          "indexed": true,
          "internalType": "address",
          "name": "newOwner",
          "type": "address"
        }
      ],
      "name": "OwnershipTransferred",
      "type": "event"
    },
    {
      "anonymous": false,
      "inputs": [
        {
          "indexed": false,
          "internalType": "address",
          "name": "_communityMember",
          "type": "address"
        }
      ],
      "name": "RemovedFromWhitelist",
      "type": "event"
    },
    {
      "anonymous": false,
      "inputs": [
        {
          "indexed": true,
          "internalType": "address",
          "name": "from",
          "type": "address"
        },
        {
          "indexed": true,
          "internalType": "address",
          "name": "to",
          "type": "address"
        },
        {
          "indexed": false,
          "internalType": "uint256",
          "name": "value",
          "type": "uint256"
        }
      ],
      "name": "Transfer",
      "type": "event"
    },
    {
      "inputs": [
        {
          "internalType": "address",
          "name": "_communityMember",
          "type": "address"
        }
      ],
      "name": "addToWhitelist",
      "outputs": [],
      "stateMutability": "nonpayable",
      "type": "function"
    },
    {
      "inputs": [
        {
          "internalType": "address",
          "name": "owner",
          "type": "address"
        },
        {
          "internalType": "address",
          "name": "spender",
          "type": "address"
        }
      ],
      "name": "allowance",
      "outputs": [
        {
          "internalType": "uint256",
          "name": "",
          "type": "uint256"
        }
      ],
      "stateMutability": "view",
      "type": "function"
    },
    {
      "inputs": [
        {
          "internalType": "address",
          "name": "spender",
          "type": "address"
        },
        {
          "internalType": "uint256",
          "name": "amount",
          "type": "uint256"
        }
      ],
      "name": "approve",
      "outputs": [
        {
          "internalType": "bool",
          "name": "",
          "type": "bool"
        }
      ],
      "stateMutability": "nonpayable",
      "type": "function"
    },
    {
      "inputs": [
        {
          "internalType": "address",
          "name": "account",
          "type": "address"
        }
      ],
      "name": "balanceOf",
      "outputs": [
        {
          "internalType": "uint256",
          "name": "",
          "type": "uint256"
        }
      ],
      "stateMutability": "view",
      "type": "function"
    },
    {
      "inputs": [],
      "name": "decimals",
      "outputs": [
        {
          "internalType": "uint8",
          "name": "",
          "type": "uint8"
        }
      ],
      "stateMutability": "view",
      "type": "function"
    },
    {
      "inputs": [
        {
          "internalType": "address",
          "name": "spender",
          "type": "address"
        },
        {
          "internalType": "uint256",
          "name": "subtractedValue",
          "type": "uint256"
        }
      ],
      "name": "decreaseAllowance",
      "outputs": [
        {
          "internalType": "bool",
          "name": "",
          "type": "bool"
        }
      ],
      "stateMutability": "nonpayable",
      "type": "function"
    },
    {
      "inputs": [
        {
          "internalType": "address",
          "name": "spender",
          "type": "address"
        },
        {
          "internalType": "uint256",
          "name": "addedValue",
          "type": "uint256"
        }
      ],
      "name": "increaseAllowance",
      "outputs": [
        {
          "internalType": "bool",
          "name": "",
          "type": "bool"
        }
      ],
      "stateMutability": "nonpayable",
      "type": "function"
    },
    {
      "inputs": [],
      "name": "name",
      "outputs": [
        {
          "internalType": "string",
          "name": "",
          "type": "string"
        }
      ],
      "stateMutability": "view",
      "type": "function"
    },
    {
      "inputs": [],
      "name": "owner",
      "outputs": [
        {
          "internalType": "address",
          "name": "",
          "type": "address"
        }
      ],
      "stateMutability": "view",
      "type": "function"
    },
    {
      "inputs": [
        {
          "internalType": "address",
          "name": "_communityMember",
          "type": "address"
        }
      ],
      "name": "removeFromWhitelist",
      "outputs": [],
      "stateMutability": "nonpayable",
      "type": "function"
    },
    {
      "inputs": [],
      "name": "renounceOwnership",
      "outputs": [],
      "stateMutability": "nonpayable",
      "type": "function"
    },
    {
      "inputs": [],
      "name": "symbol",
      "outputs": [
        {
          "internalType": "string",
          "name": "",
          "type": "string"
        }
      ],
      "stateMutability": "view",
      "type": "function"
    },
    {
      "inputs": [],
      "name": "totalSupply",
      "outputs": [
        {
          "internalType": "uint256",
          "name": "",
          "type": "uint256"
        }
      ],
      "stateMutability": "view",
      "type": "function"
    },
    {
      "inputs": [
        {
          "internalType": "address",
          "name": "recipient",
          "type": "address"
        },
        {
          "internalType": "uint256",
          "name": "amount",
          "type": "uint256"
        }
      ],
      "name": "transfer",
      "outputs": [
        {
          "internalType": "bool",
          "name": "",
          "type": "bool"
        }
      ],
      "stateMutability": "nonpayable",
      "type": "function"
    },
    {
      "inputs": [
        {
          "internalType": "address",
          "name": "sender",
          "type": "address"
        },
        {
          "internalType": "address",
          "name": "recipient",
          "type": "address"
        },
        {
          "internalType": "uint256",
          "name": "amount",
          "type": "uint256"
        }
      ],
      "name": "transferFrom",
      "outputs": [
        {
          "internalType": "bool",
          "name": "",
          "type": "bool"
        }
      ],
      "stateMutability": "nonpayable",
      "type": "function"
    },
    {
      "inputs": [
        {
          "internalType": "address",
          "name": "newOwner",
          "type": "address"
        }
      ],
      "name": "transferOwnership",
      "outputs": [],
      "stateMutability": "nonpayable",
      "type": "function"
    },
    {
      "inputs": [
        {
          "internalType": "address",
          "name": "",
          "type": "address"
        }
      ],
      "name": "whitelist",
      "outputs": [
        {
          "internalType": "bool",
          "name": "",
          "type": "bool"
        }
      ],
      "stateMutability": "view",
      "type": "function"
    }
  ],
  "bytecode": "0x60806040523480156200001157600080fd5b50604051806040016040528060048152602001634469546f60e01b815250604051806040016040528060048152602001634449544f60e01b8152508160039080519060200190620000649291906200029c565b5080516200007a9060049060208401906200029c565b50506005805460ff191660121790555060006200009662000122565b60058054610100600160a81b0319166101006001600160a01b03841690810291909117909155604051919250906000907f8be0079c531659141344cd1fd0a4f28419497f9722a3daafe3b4186f6b6457e0908290a350336000818152600660205260409020805460ff191660011790556200011c906914542ba12a337c00000062000126565b62000348565b3390565b6001600160a01b03821662000182576040805162461bcd60e51b815260206004820152601f60248201527f45524332303a206d696e7420746f20746865207a65726f206164647265737300604482015290519081900360640190fd5b620001906000838362000235565b620001ac816002546200023a60201b62000a051790919060201c565b6002556001600160a01b03821660009081526020818152604090912054620001df91839062000a056200023a821b17901c565b6001600160a01b0383166000818152602081815260408083209490945583518581529351929391927fddf252ad1be2c89b69c2b068fc378daa952ba7f163c4a11628f55a4df523b3ef9281900390910190a35050565b505050565b60008282018381101562000295576040805162461bcd60e51b815260206004820152601b60248201527f536166654d6174683a206164646974696f6e206f766572666c6f770000000000604482015290519081900360640190fd5b9392505050565b828054600181600116156101000203166002900490600052602060002090601f016020900481019282620002d457600085556200031f565b82601f10620002ef57805160ff19168380011785556200031f565b828001600101855582156200031f579182015b828111156200031f57825182559160200191906001019062000302565b506200032d92915062000331565b5090565b5b808211156200032d576000815560010162000332565b61103180620003586000396000f3fe608060405234801561001057600080fd5b506004361061010b5760003560e01c80638ab1d681116100a2578063a457c2d711610071578063a457c2d71461030f578063a9059cbb1461033b578063dd62ed3e14610367578063e43252d714610395578063f2fde38b146103bb5761010b565b80638ab1d681146102975780638da5cb5b146102bd57806395d89b41146102e15780639b19251a146102e95761010b565b8063313ce567116100de578063313ce5671461021d578063395093511461023b57806370a0823114610267578063715018a61461028d5761010b565b806306fdde0314610110578063095ea7b31461018d57806318160ddd146101cd57806323b872dd146101e7575b600080fd5b6101186103e1565b6040805160208082528351818301528351919283929083019185019080838360005b8381101561015257818101518382015260200161013a565b50505050905090810190601f16801561017f5780820380516001836020036101000a031916815260200191505b509250505060405180910390f35b6101b9600480360360408110156101a357600080fd5b506001600160a01b038135169060200135610477565b604080519115158252519081900360200190f35b6101d56104c6565b60408051918252519081900360200190f35b6101b9600480360360608110156101fd57600080fd5b506001600160a01b038135811691602081013590911690604001356104cc565b61022561051d565b6040805160ff9092168252519081900360200190f35b6101b96004803603604081101561025157600080fd5b506001600160a01b038135169060200135610526565b6101d56004803603602081101561027d57600080fd5b50356001600160a01b031661056e565b610295610589565b005b610295600480360360208110156102ad57600080fd5b50356001600160a01b031661063b565b6102c56106f5565b604080516001600160a01b039092168252519081900360200190f35b610118610709565b6101b9600480360360208110156102ff57600080fd5b50356001600160a01b031661076a565b6101b96004803603604081101561032557600080fd5b506001600160a01b03813516906020013561077f565b6101b96004803603604081101561035157600080fd5b506001600160a01b0381351690602001356107c7565b6101d56004803603604081101561037d57600080fd5b506001600160a01b038135811691602001351661080f565b610295600480360360208110156103ab57600080fd5b50356001600160a01b031661083a565b610295600480360360208110156103d157600080fd5b50356001600160a01b03166108f7565b60038054604080516020601f600260001961010060018816150201909516949094049384018190048102820181019092528281526060939092909183018282801561046d5780601f106104425761010080835404028352916020019161046d565b820191906000526020600020905b81548152906001019060200180831161045057829003601f168201915b5050505050905090565b3360009081526006602052604081205460ff166104b5576040805162461bcd60e51b8152602060048201526000602482015290519081900360640190fd5b6104bf8383610a5f565b9392505050565b60025490565b3360009081526006602052604081205460ff1661050a576040805162461bcd60e51b8152602060048201526000602482015290519081900360640190fd5b610515848484610a7c565b949350505050565b60055460ff1690565b3360009081526006602052604081205460ff16610564576040805162461bcd60e51b8152602060048201526000602482015290519081900360640190fd5b6104bf8383610b03565b6001600160a01b031660009081526020819052604090205490565b610591610b51565b6001600160a01b03166105a26106f5565b6001600160a01b0316146105eb576040805162461bcd60e51b81526020600482018190526024820152600080516020610f6e833981519152604482015290519081900360640190fd5b60055460405160009161010090046001600160a01b0316907f8be0079c531659141344cd1fd0a4f28419497f9722a3daafe3b4186f6b6457e0908390a360058054610100600160a81b0319169055565b610643610b51565b6001600160a01b03166106546106f5565b6001600160a01b03161461069d576040805162461bcd60e51b81526020600482018190526024820152600080516020610f6e833981519152604482015290519081900360640190fd5b6001600160a01b038116600081815260066020908152604091829020805460ff19169055815192835290517fcdd2e9b91a56913d370075169cefa1602ba36be5301664f752192bb1709df7579281900390910190a150565b60055461010090046001600160a01b031690565b60048054604080516020601f600260001961010060018816150201909516949094049384018190048102820181019092528281526060939092909183018282801561046d5780601f106104425761010080835404028352916020019161046d565b60066020526000908152604090205460ff1681565b3360009081526006602052604081205460ff166107bd576040805162461bcd60e51b8152602060048201526000602482015290519081900360640190fd5b6104bf8383610b55565b3360009081526006602052604081205460ff16610805576040805162461bcd60e51b8152602060048201526000602482015290519081900360640190fd5b6104bf8383610bbd565b6001600160a01b03918216600090815260016020908152604080832093909416825291909152205490565b610842610b51565b6001600160a01b03166108536106f5565b6001600160a01b03161461089c576040805162461bcd60e51b81526020600482018190526024820152600080516020610f6e833981519152604482015290519081900360640190fd5b6001600160a01b038116600081815260066020908152604091829020805460ff19166001179055815192835290517fa850ae9193f515cbae8d35e8925bd2be26627fc91bce650b8652ed254e9cab039281900390910190a150565b6108ff610b51565b6001600160a01b03166109106106f5565b6001600160a01b031614610959576040805162461bcd60e51b81526020600482018190526024820152600080516020610f6e833981519152604482015290519081900360640190fd5b6001600160a01b03811661099e5760405162461bcd60e51b8152600401808060200182810382526026815260200180610ed86026913960400191505060405180910390fd5b6005546040516001600160a01b0380841692610100900416907f8be0079c531659141344cd1fd0a4f28419497f9722a3daafe3b4186f6b6457e090600090a3600580546001600160a01b0390921661010002610100600160a81b0319909216919091179055565b6000828201838110156104bf576040805162461bcd60e51b815260206004820152601b60248201527f536166654d6174683a206164646974696f6e206f766572666c6f770000000000604482015290519081900360640190fd5b6000610a73610a6c610b51565b8484610bd1565b50600192915050565b6000610a89848484610cbd565b610af984610a95610b51565b610af485604051806060016040528060288152602001610f46602891396001600160a01b038a16600090815260016020526040812090610ad3610b51565b6001600160a01b031681526020810191909152604001600020549190610e18565b610bd1565b5060019392505050565b6000610a73610b10610b51565b84610af48560016000610b21610b51565b6001600160a01b03908116825260208083019390935260409182016000908120918c168152925290205490610a05565b3390565b6000610a73610b62610b51565b84610af485604051806060016040528060258152602001610fd76025913960016000610b8c610b51565b6001600160a01b03908116825260208083019390935260409182016000908120918d16815292529020549190610e18565b6000610a73610bca610b51565b8484610cbd565b6001600160a01b038316610c165760405162461bcd60e51b8152600401808060200182810382526024815260200180610fb36024913960400191505060405180910390fd5b6001600160a01b038216610c5b5760405162461bcd60e51b8152600401808060200182810382526022815260200180610efe6022913960400191505060405180910390fd5b6001600160a01b03808416600081815260016020908152604080832094871680845294825291829020859055815185815291517f8c5be1e5ebec7d5bd14f71427d1e84f3dd0314c0f7b2291e5b200ac8c7c3b9259281900390910190a3505050565b6001600160a01b038316610d025760405162461bcd60e51b8152600401808060200182810382526025815260200180610f8e6025913960400191505060405180910390fd5b6001600160a01b038216610d475760405162461bcd60e51b8152600401808060200182810382526023815260200180610eb56023913960400191505060405180910390fd5b610d52838383610eaf565b610d8f81604051806060016040528060268152602001610f20602691396001600160a01b0386166000908152602081905260409020549190610e18565b6001600160a01b038085166000908152602081905260408082209390935590841681522054610dbe9082610a05565b6001600160a01b038084166000818152602081815260409182902094909455805185815290519193928716927fddf252ad1be2c89b69c2b068fc378daa952ba7f163c4a11628f55a4df523b3ef92918290030190a3505050565b60008184841115610ea75760405162461bcd60e51b81526004018080602001828103825283818151815260200191508051906020019080838360005b83811015610e6c578181015183820152602001610e54565b50505050905090810190601f168015610e995780820380516001836020036101000a031916815260200191505b509250505060405180910390fd5b505050900390565b50505056fe45524332303a207472616e7366657220746f20746865207a65726f20616464726573734f776e61626c653a206e6577206f776e657220697320746865207a65726f206164647265737345524332303a20617070726f766520746f20746865207a65726f206164647265737345524332303a207472616e7366657220616d6f756e7420657863656564732062616c616e636545524332303a207472616e7366657220616d6f756e74206578636565647320616c6c6f77616e63654f776e61626c653a2063616c6c6572206973206e6f7420746865206f776e657245524332303a207472616e736665722066726f6d20746865207a65726f206164647265737345524332303a20617070726f76652066726f6d20746865207a65726f206164647265737345524332303a2064656372656173656420616c6c6f77616e63652062656c6f77207a65726fa26469706673582212208146373780f457242dd61d75a5351e31cb6b6a48bbe4e31edfa924935a33f45c64736f6c63430007040033",
  "linkReferences": {},
  "deployedLinkReferences": {}
}