{
  "_format": "hh-sol-artifact-1",
  "contractName": "Membership",
  "sourceName": "contracts/imported/Membership.sol",
  "abi": [
    {
      "inputs": [
        {
          "internalType": "enum Types.Template",
          "name": "_template",
          "type": "uint8"
        },
        {
          "internalType": "uint8",
          "name": "positionalValue1",
          "type": "uint8"
        },
        {
          "internalType": "uint8",
          "name": "positionalValue2",
          "type": "uint8"
        },
        {
          "internalType": "uint8",
          "name": "positionalValue3",
          "type": "uint8"
        }
      ],
      "stateMutability": "nonpayable",
      "type": "constructor"
    },
    {
      "inputs": [],
      "name": "communityAddress",
      "outputs": [
        {
          "internalType": "address",
          "name": "",
          "type": "address"
        }
      ],
      "stateMutability": "view",
      "type": "function"
    },
    {
      "inputs": [
        {
          "internalType": "uint16",
          "name": "",
          "type": "uint16"
        }
      ],
      "name": "positionalValues",
      "outputs": [
        {
          "internalType": "uint16",
          "name": "",
          "type": "uint16"
        }
      ],
      "stateMutability": "view",
      "type": "function"
    },
    {
      "inputs": [],
      "name": "template",
      "outputs": [
        {
          "internalType": "enum Types.Template",
          "name": "",
          "type": "uint8"
        }
      ],
      "stateMutability": "view",
      "type": "function"
    }
  ],
  "bytecode": "0x608060405234801561001057600080fd5b5060405161031a38038061031a83398101604081905261002f9161013b565b60008054336001600160a01b031991821681179092556001805490911690911780825585919060ff60a01b1916600160a01b83600381111561008157634e487b7160e01b600052602160045260246000fd5b021790555060026020527fe90b7bceb6e7df5418fb78d8ee546e97c83a08bbccc01a0644d599ccd2a7c2e0805460ff94851661ffff19918216179091557f679795a0195a1b76cdebb7c51d74e058aee92919b8c3389af86ef24535e8a28c80549385169382169390931790925560036000527f88601476d11616a71c5be67555bd1dff4b1cbf21533d2669b768b61518cfe1c3805491909316911617905550610193565b805160ff8116811461013657600080fd5b919050565b60008060008060808587031215610150578384fd5b84516004811061015e578485fd5b935061016c60208601610125565b925061017a60408601610125565b915061018860608601610125565b905092959194509250565b610178806101a26000396000f3fe608060405234801561001057600080fd5b50600436106100415760003560e01c80636f2ddd931461004657806374b624061461006457806386e476dd14610084575b600080fd5b61004e610099565b60405161005b919061010b565b60405180910390f35b6100776100723660046100ce565b6100a9565b60405161005b9190610133565b61008c6100bf565b60405161005b91906100f7565b600154600160a01b900460ff1681565b60026020526000908152604090205461ffff1681565b6000546001600160a01b031681565b6000602082840312156100df578081fd5b813561ffff811681146100f0578182fd5b9392505050565b6001600160a01b0391909116815260200190565b602081016004831061012d57634e487b7160e01b600052602160045260246000fd5b91905290565b61ffff9190911681526020019056fea2646970667358221220b1b2efeb7caff1671664ca991d246ff62726b7300512515164232e4ad834501a64736f6c63430008000033",
  "linkReferences": {},
  "deployedLinkReferences": {}
}