{
  "_format": "hh-sol-artifact-1",
  "contractName": "Milestones",
  "sourceName": "contracts/Milestones.sol",
  "abi": [
    {
      "inputs": [
        {
          "internalType": "address",
          "name": "_communityAddress",
          "type": "address"
        }
      ],
      "stateMutability": "nonpayable",
      "type": "constructor"
    },
    {
      "anonymous": false,
      "inputs": [
        {
          "indexed": true,
          "internalType": "address",
          "name": "owner",
          "type": "address"
        },
        {
          "indexed": true,
          "internalType": "address",
          "name": "approved",
          "type": "address"
        },
        {
          "indexed": true,
          "internalType": "uint256",
          "name": "tokenId",
          "type": "uint256"
        }
      ],
      "name": "Approval",
      "type": "event"
    },
    {
      "anonymous": false,
      "inputs": [
        {
          "indexed": true,
          "internalType": "address",
          "name": "owner",
          "type": "address"
        },
        {
          "indexed": true,
          "internalType": "address",
          "name": "operator",
          "type": "address"
        },
        {
          "indexed": false,
          "internalType": "bool",
          "name": "approved",
          "type": "bool"
        }
      ],
      "name": "ApprovalForAll",
      "type": "event"
    },
    {
      "anonymous": false,
      "inputs": [
        {
          "indexed": false,
          "internalType": "uint256",
          "name": "_milestoneId",
          "type": "uint256"
        },
        {
          "indexed": false,
          "internalType": "uint256",
          "name": "_projectId",
          "type": "uint256"
        }
      ],
      "name": "DistributionTriggered",
      "type": "event"
    },
    {
      "anonymous": false,
      "inputs": [
        {
          "indexed": false,
          "internalType": "uint256",
          "name": "_milestoneId",
          "type": "uint256"
        }
      ],
      "name": "MilestoneCompleted",
      "type": "event"
    },
    {
      "anonymous": false,
      "inputs": [
        {
          "indexed": false,
          "internalType": "address",
          "name": "_creator",
          "type": "address"
        },
        {
          "indexed": false,
          "internalType": "uint256",
          "name": "_milestoneId",
          "type": "uint256"
        }
      ],
      "name": "MilestoneCreated",
      "type": "event"
    },
    {
      "anonymous": false,
      "inputs": [
        {
          "indexed": false,
          "internalType": "uint256",
          "name": "_milestoneId",
          "type": "uint256"
        }
      ],
      "name": "MilestoneSubmitted",
      "type": "event"
    },
    {
      "anonymous": false,
      "inputs": [
        {
          "indexed": false,
          "internalType": "uint256",
          "name": "_milestoneId",
          "type": "uint256"
        }
      ],
      "name": "MilestoneTaken",
      "type": "event"
    },
    {
      "anonymous": false,
      "inputs": [
        {
          "indexed": false,
          "internalType": "uint256",
          "name": "_milestoneId",
          "type": "uint256"
        },
        {
          "indexed": false,
          "internalType": "bool",
          "name": "transferedCredits",
          "type": "bool"
        },
        {
          "indexed": false,
          "internalType": "uint256",
          "name": "creditsTransfered",
          "type": "uint256"
        }
      ],
      "name": "MilestoneValidated",
      "type": "event"
    },
    {
      "anonymous": false,
      "inputs": [
        {
          "indexed": true,
          "internalType": "address",
          "name": "from",
          "type": "address"
        },
        {
          "indexed": true,
          "internalType": "address",
          "name": "to",
          "type": "address"
        },
        {
          "indexed": true,
          "internalType": "uint256",
          "name": "tokenId",
          "type": "uint256"
        }
      ],
      "name": "Transfer",
      "type": "event"
    },
    {
      "inputs": [
        {
          "internalType": "address",
          "name": "to",
          "type": "address"
        },
        {
          "internalType": "uint256",
          "name": "tokenId",
          "type": "uint256"
        }
      ],
      "name": "approve",
      "outputs": [],
      "stateMutability": "nonpayable",
      "type": "function"
    },
    {
      "inputs": [
        {
          "internalType": "address",
          "name": "owner",
          "type": "address"
        }
      ],
      "name": "balanceOf",
      "outputs": [
        {
          "internalType": "uint256",
          "name": "",
          "type": "uint256"
        }
      ],
      "stateMutability": "view",
      "type": "function"
    },
    {
      "inputs": [],
      "name": "baseURI",
      "outputs": [
        {
          "internalType": "string",
          "name": "",
          "type": "string"
        }
      ],
      "stateMutability": "view",
      "type": "function"
    },
    {
      "inputs": [],
      "name": "communityAddress",
      "outputs": [
        {
          "internalType": "address",
          "name": "",
          "type": "address"
        }
      ],
      "stateMutability": "view",
      "type": "function"
    },
    {
      "inputs": [
        {
          "internalType": "uint256",
          "name": "_milestoneId",
          "type": "uint256"
        },
        {
          "internalType": "address",
          "name": "completor",
          "type": "address"
        }
      ],
      "name": "completeMilestone",
      "outputs": [],
      "stateMutability": "nonpayable",
      "type": "function"
    },
    {
      "inputs": [
        {
          "internalType": "uint256",
          "name": "",
          "type": "uint256"
        }
      ],
      "name": "contributedProjects",
      "outputs": [
        {
          "internalType": "uint256",
          "name": "",
          "type": "uint256"
        }
      ],
      "stateMutability": "view",
      "type": "function"
    },
    {
      "inputs": [
        {
          "internalType": "address",
          "name": "creator",
          "type": "address"
        },
        {
          "internalType": "uint256",
          "name": "_ditoCredits",
          "type": "uint256"
        },
        {
          "internalType": "string",
          "name": "_metadataUrl",
          "type": "string"
        },
        {
          "internalType": "uint256",
          "name": "_projectId",
          "type": "uint256"
        }
      ],
      "name": "createMilestone",
      "outputs": [],
      "stateMutability": "nonpayable",
      "type": "function"
    },
    {
      "inputs": [],
      "name": "distributionInProgress",
      "outputs": [
        {
          "internalType": "bool",
          "name": "",
          "type": "bool"
        }
      ],
      "stateMutability": "view",
      "type": "function"
    },
    {
      "inputs": [
        {
          "internalType": "uint256",
          "name": "tokenId",
          "type": "uint256"
        }
      ],
      "name": "getApproved",
      "outputs": [
        {
          "internalType": "address",
          "name": "",
          "type": "address"
        }
      ],
      "stateMutability": "view",
      "type": "function"
    },
    {
      "inputs": [],
      "name": "getCommunity",
      "outputs": [
        {
          "internalType": "address",
          "name": "",
          "type": "address"
        }
      ],
      "stateMutability": "view",
      "type": "function"
    },
    {
      "inputs": [
        {
          "internalType": "uint256",
          "name": "_projectId",
          "type": "uint256"
        }
      ],
      "name": "getProjectMilestones",
      "outputs": [
        {
          "internalType": "uint256[]",
          "name": "",
          "type": "uint256[]"
        }
      ],
      "stateMutability": "view",
      "type": "function"
    },
    {
      "inputs": [
        {
          "internalType": "address",
          "name": "owner",
          "type": "address"
        },
        {
          "internalType": "address",
          "name": "operator",
          "type": "address"
        }
      ],
      "name": "isApprovedForAll",
      "outputs": [
        {
          "internalType": "bool",
          "name": "",
          "type": "bool"
        }
      ],
      "stateMutability": "view",
      "type": "function"
    },
    {
      "inputs": [
        {
          "internalType": "uint256",
          "name": "",
          "type": "uint256"
        }
      ],
      "name": "isValidated",
      "outputs": [
        {
          "internalType": "bool",
          "name": "",
          "type": "bool"
        }
      ],
      "stateMutability": "view",
      "type": "function"
    },
    {
      "inputs": [
        {
          "internalType": "uint256",
          "name": "",
          "type": "uint256"
        }
      ],
      "name": "milestones",
      "outputs": [
        {
          "internalType": "uint256",
          "name": "projectId",
          "type": "uint256"
        },
        {
          "internalType": "address",
          "name": "creator",
          "type": "address"
        },
        {
          "internalType": "address",
          "name": "taker",
          "type": "address"
        },
        {
          "internalType": "uint256",
          "name": "ditoCredits",
          "type": "uint256"
        },
        {
          "internalType": "enum MilestoneStatuses.MilestoneStatus",
          "name": "status",
          "type": "uint8"
        }
      ],
      "stateMutability": "view",
      "type": "function"
    },
    {
      "inputs": [],
      "name": "name",
      "outputs": [
        {
          "internalType": "string",
          "name": "",
          "type": "string"
        }
      ],
      "stateMutability": "view",
      "type": "function"
    },
    {
      "inputs": [
        {
          "internalType": "uint256",
          "name": "tokenId",
          "type": "uint256"
        }
      ],
      "name": "ownerOf",
      "outputs": [
        {
          "internalType": "address",
          "name": "",
          "type": "address"
        }
      ],
      "stateMutability": "view",
      "type": "function"
    },
    {
      "inputs": [],
      "name": "popContributedProjects",
      "outputs": [
        {
          "internalType": "uint256[]",
          "name": "",
          "type": "uint256[]"
        }
      ],
      "stateMutability": "nonpayable",
      "type": "function"
    },
    {
      "inputs": [
        {
          "internalType": "uint256",
          "name": "projectId",
          "type": "uint256"
        }
      ],
      "name": "popContributionsPerProject",
      "outputs": [
        {
          "internalType": "uint256[]",
          "name": "",
          "type": "uint256[]"
        }
      ],
      "stateMutability": "nonpayable",
      "type": "function"
    },
    {
      "inputs": [],
      "name": "popTotalCommunityContributions",
      "outputs": [
        {
          "internalType": "uint256[]",
          "name": "",
          "type": "uint256[]"
        }
      ],
      "stateMutability": "nonpayable",
      "type": "function"
    },
    {
      "inputs": [
        {
          "internalType": "uint256",
          "name": "",
          "type": "uint256"
        },
        {
          "internalType": "uint256",
          "name": "",
          "type": "uint256"
        }
      ],
      "name": "projectMilestones",
      "outputs": [
        {
          "internalType": "uint256",
          "name": "",
          "type": "uint256"
        }
      ],
      "stateMutability": "view",
      "type": "function"
    },
    {
      "inputs": [],
      "name": "projectsNum",
      "outputs": [
        {
          "internalType": "uint256",
          "name": "",
          "type": "uint256"
        }
      ],
      "stateMutability": "view",
      "type": "function"
    },
    {
      "inputs": [],
      "name": "q2t",
      "outputs": [
        {
          "internalType": "address",
          "name": "",
          "type": "address"
        }
      ],
      "stateMutability": "view",
      "type": "function"
    },
    {
      "inputs": [
        {
          "internalType": "address",
          "name": "from",
          "type": "address"
        },
        {
          "internalType": "address",
          "name": "to",
          "type": "address"
        },
        {
          "internalType": "uint256",
          "name": "tokenId",
          "type": "uint256"
        }
      ],
      "name": "safeTransferFrom",
      "outputs": [],
      "stateMutability": "nonpayable",
      "type": "function"
    },
    {
      "inputs": [
        {
          "internalType": "address",
          "name": "from",
          "type": "address"
        },
        {
          "internalType": "address",
          "name": "to",
          "type": "address"
        },
        {
          "internalType": "uint256",
          "name": "tokenId",
          "type": "uint256"
        },
        {
          "internalType": "bytes",
          "name": "_data",
          "type": "bytes"
        }
      ],
      "name": "safeTransferFrom",
      "outputs": [],
      "stateMutability": "nonpayable",
      "type": "function"
    },
    {
      "inputs": [
        {
          "internalType": "address",
          "name": "operator",
          "type": "address"
        },
        {
          "internalType": "bool",
          "name": "approved",
          "type": "bool"
        }
      ],
      "name": "setApprovalForAll",
      "outputs": [],
      "stateMutability": "nonpayable",
      "type": "function"
    },
    {
      "inputs": [
        {
          "internalType": "address",
          "name": "_q2t",
          "type": "address"
        }
      ],
      "name": "setQ2T",
      "outputs": [],
      "stateMutability": "nonpayable",
      "type": "function"
    },
    {
      "inputs": [
        {
          "internalType": "uint256",
          "name": "_milestoneId",
          "type": "uint256"
        },
        {
          "internalType": "address",
          "name": "submitter",
          "type": "address"
        }
      ],
      "name": "submitMilestone",
      "outputs": [],
      "stateMutability": "nonpayable",
      "type": "function"
    },
    {
      "inputs": [
        {
          "internalType": "bytes4",
          "name": "interfaceId",
          "type": "bytes4"
        }
      ],
      "name": "supportsInterface",
      "outputs": [
        {
          "internalType": "bool",
          "name": "",
          "type": "bool"
        }
      ],
      "stateMutability": "view",
      "type": "function"
    },
    {
      "inputs": [],
      "name": "symbol",
      "outputs": [
        {
          "internalType": "string",
          "name": "",
          "type": "string"
        }
      ],
      "stateMutability": "view",
      "type": "function"
    },
    {
      "inputs": [
        {
          "internalType": "uint256",
          "name": "_milestoneId",
          "type": "uint256"
        },
        {
          "internalType": "address",
          "name": "taker",
          "type": "address"
        }
      ],
      "name": "takeMilestone",
      "outputs": [],
      "stateMutability": "nonpayable",
      "type": "function"
    },
    {
      "inputs": [
        {
          "internalType": "uint256",
          "name": "index",
          "type": "uint256"
        }
      ],
      "name": "tokenByIndex",
      "outputs": [
        {
          "internalType": "uint256",
          "name": "",
          "type": "uint256"
        }
      ],
      "stateMutability": "view",
      "type": "function"
    },
    {
      "inputs": [
        {
          "internalType": "address",
          "name": "owner",
          "type": "address"
        },
        {
          "internalType": "uint256",
          "name": "index",
          "type": "uint256"
        }
      ],
      "name": "tokenOfOwnerByIndex",
      "outputs": [
        {
          "internalType": "uint256",
          "name": "",
          "type": "uint256"
        }
      ],
      "stateMutability": "view",
      "type": "function"
    },
    {
      "inputs": [
        {
          "internalType": "uint256",
          "name": "tokenId",
          "type": "uint256"
        }
      ],
      "name": "tokenURI",
      "outputs": [
        {
          "internalType": "string",
          "name": "",
          "type": "string"
        }
      ],
      "stateMutability": "view",
      "type": "function"
    },
    {
      "inputs": [
        {
          "internalType": "uint256",
          "name": "",
          "type": "uint256"
        }
      ],
      "name": "totalContributions",
      "outputs": [
        {
          "internalType": "uint256",
          "name": "",
          "type": "uint256"
        }
      ],
      "stateMutability": "view",
      "type": "function"
    },
    {
      "inputs": [],
      "name": "totalSupply",
      "outputs": [
        {
          "internalType": "uint256",
          "name": "",
          "type": "uint256"
        }
      ],
      "stateMutability": "view",
      "type": "function"
    },
    {
      "inputs": [
        {
          "internalType": "address",
          "name": "from",
          "type": "address"
        },
        {
          "internalType": "address",
          "name": "to",
          "type": "address"
        },
        {
          "internalType": "uint256",
          "name": "tokenId",
          "type": "uint256"
        }
      ],
      "name": "transferFrom",
      "outputs": [],
      "stateMutability": "nonpayable",
      "type": "function"
    },
    {
      "inputs": [
        {
          "internalType": "uint256",
          "name": "_milestoneId",
          "type": "uint256"
        }
      ],
      "name": "validate",
      "outputs": [],
      "stateMutability": "nonpayable",
      "type": "function"
    }
  ],
  "bytecode": "0x60806040523480156200001157600080fd5b506040516200503b3803806200503b8339818101604052810190620000379190620003b1565b6040518060400160405280600a81526020017f4d696c6573746f6e6573000000000000000000000000000000000000000000008152506040518060400160405280600481526020017f4d4c535400000000000000000000000000000000000000000000000000000000815250620000bb6301ffc9a760e01b620001db60201b60201c565b8160069080519060200190620000d3929190620002e4565b508060079080519060200190620000ec929190620002e4565b50620001056380ac58cd60e01b620001db60201b60201c565b6200011d635b5e139f60e01b620001db60201b60201c565b6200013563780e9d6360e01b620001db60201b60201c565b505080601360006101000a81548173ffffffffffffffffffffffffffffffffffffffff021916908373ffffffffffffffffffffffffffffffffffffffff16021790555033601260006101000a81548173ffffffffffffffffffffffffffffffffffffffff021916908373ffffffffffffffffffffffffffffffffffffffff1602179055506000601260146101000a81548160ff021916908315150217905550506200042b565b63ffffffff60e01b817bffffffffffffffffffffffffffffffffffffffffffffffffffffffff1916141562000278576040517f08c379a000000000000000000000000000000000000000000000000000000000815260040180806020018281038252601c8152602001807f4552433136353a20696e76616c696420696e746572666163652069640000000081525060200191505060405180910390fd5b6001600080837bffffffffffffffffffffffffffffffffffffffffffffffffffffffff19167bffffffffffffffffffffffffffffffffffffffffffffffffffffffff1916815260200190815260200160002060006101000a81548160ff02191690831515021790555050565b828054600181600116156101000203166002900490600052602060002090601f0160209004810192826200031c576000855562000368565b82601f106200033757805160ff191683800117855562000368565b8280016001018555821562000368579182015b82811115620003675782518255916020019190600101906200034a565b5b5090506200037791906200037b565b5090565b5b80821115620003965760008160009055506001016200037c565b5090565b600081519050620003ab8162000411565b92915050565b600060208284031215620003c457600080fd5b6000620003d4848285016200039a565b91505092915050565b6000620003ea82620003f1565b9050919050565b600073ffffffffffffffffffffffffffffffffffffffff82169050919050565b6200041c81620003dd565b81146200042857600080fd5b50565b614c00806200043b6000396000f3fe608060405234801561001057600080fd5b50600436106102275760003560e01c80636cb0adba11610130578063c51db6b2116100b8578063e377672e1161007c578063e377672e146106b0578063e89e4ed6146106cc578063e985e9c514610700578063eaad31e114610730578063f7df18dd1461074e57610227565b8063c51db6b2146105fa578063c87b56dd14610618578063ce4d01a314610648578063d4d7012814610664578063e00fb6cb1461069457610227565b806395d89b41116100ff57806395d89b41146105565780639db4d4a014610574578063a22cb465146105a4578063a9c2e34b146105c0578063b88d4fde146105de57610227565b80636cb0adba146104bc57806370a08231146104ec57806372d9184f1461051c57806386e476dd1461053857610227565b80632f745c59116101b35780634f6ccce7116101825780634f6ccce7146103f057806350614c561461042057806352766d801461043e5780636352211e1461046e5780636c0360eb1461049e57610227565b80632f745c591461036c578063343d2cba1461039c57806342842e0e146103b85780634711d200146103d457610227565b8063081812fc116101fa578063081812fc146102c8578063095ea7b3146102f857806318160ddd1461031457806323b872dd14610332578063273e0ad31461034e57610227565b806301ffc9a71461022c578063027f8b7d1461025c578063028d7df31461027a57806306fdde03146102aa575b600080fd5b61024660048036038101906102419190613e7b565b61077e565b6040516102539190614450565b60405180910390f35b6102646107e5565b604051610271919061442e565b60405180910390f35b610294600480360381019061028f9190613ea4565b61086b565b6040516102a191906145f6565b60405180910390f35b6102b261088f565b6040516102bf9190614494565b60405180910390f35b6102e260048036038101906102dd9190613ea4565b610931565b6040516102ef91906143ea565b60405180910390f35b610312600480360381019061030d9190613d9b565b6109cc565b005b61031c610b10565b60405161032991906145f6565b60405180910390f35b61034c60048036038101906103479190613c95565b610b21565b005b610356610b97565b60405161036391906143ea565b60405180910390f35b61038660048036038101906103819190613d9b565b610bbd565b60405161039391906145f6565b60405180910390f35b6103b660048036038101906103b19190613c30565b610c18565b005b6103d260048036038101906103cd9190613c95565b610cec565b005b6103ee60048036038101906103e99190613ef6565b610d0c565b005b61040a60048036038101906104059190613ea4565b610df6565b60405161041791906145f6565b60405180910390f35b610428610e19565b6040516104359190614450565b60405180910390f35b61045860048036038101906104539190613ea4565b610e2c565b604051610465919061442e565b60405180910390f35b61048860048036038101906104839190613ea4565b610e97565b60405161049591906143ea565b60405180910390f35b6104a6610ece565b6040516104b39190614494565b60405180910390f35b6104d660048036038101906104d19190613f32565b610f70565b6040516104e391906145f6565b60405180910390f35b61050660048036038101906105019190613c30565b610fa1565b60405161051391906145f6565b60405180910390f35b61053660048036038101906105319190613ef6565b611076565b005b610540611272565b60405161054d91906143ea565b60405180910390f35b61055e611298565b60405161056b9190614494565b60405180910390f35b61058e60048036038101906105899190613ea4565b61133a565b60405161059b9190614450565b60405180910390f35b6105be60048036038101906105b99190613d5f565b61135a565b005b6105c8611510565b6040516105d5919061442e565b60405180910390f35b6105f860048036038101906105f39190613ce4565b61160c565b005b610602611684565b60405161060f91906143ea565b60405180910390f35b610632600480360381019061062d9190613ea4565b6116ae565b60405161063f9190614494565b60405180910390f35b610662600480360381019061065d9190613ea4565b61197f565b005b61067e60048036038101906106799190613ea4565b611e48565b60405161068b91906145f6565b60405180910390f35b6106ae60048036038101906106a99190613dd7565b611e6c565b005b6106ca60048036038101906106c59190613ef6565b6121bb565b005b6106e660048036038101906106e19190613ea4565b6122f5565b6040516106f7959493929190614611565b60405180910390f35b61071a60048036038101906107159190613c59565b612378565b6040516107279190614450565b60405180910390f35b61073861240c565b60405161074591906145f6565b60405180910390f35b61076860048036038101906107639190613ea4565b612419565b604051610775919061442e565b60405180910390f35b6000806000837bffffffffffffffffffffffffffffffffffffffffffffffffffffffff19167bffffffffffffffffffffffffffffffffffffffffffffffffffffffff1916815260200190815260200160002060009054906101000a900460ff169050919050565b606080601080548060200260200160405190810160405280929190818152602001828054801561083457602002820191906000526020600020905b815481526020019060010190808311610820575b505050505090506010600061084991906139d8565b6000601260146101000a81548160ff0219169083151502179055508091505090565b6010818154811061087b57600080fd5b906000526020600020016000915090505481565b606060068054600181600116156101000203166002900480601f0160208091040260200160405190810160405280929190818152602001828054600181600116156101000203166002900480156109275780601f106108fc57610100808354040283529160200191610927565b820191906000526020600020905b81548152906001019060200180831161090a57829003601f168201915b5050505050905090565b600061093c82612539565b610991576040517f08c379a000000000000000000000000000000000000000000000000000000000815260040180806020018281038252602c815260200180614ac9602c913960400191505060405180910390fd5b6004600083815260200190815260200160002060009054906101000a900473ffffffffffffffffffffffffffffffffffffffff169050919050565b60006109d782610e97565b90508073ffffffffffffffffffffffffffffffffffffffff168373ffffffffffffffffffffffffffffffffffffffff161415610a5e576040517f08c379a0000000000000000000000000000000000000000000000000000000008152600401808060200182810382526021815260200180614b796021913960400191505060405180910390fd5b8073ffffffffffffffffffffffffffffffffffffffff16610a7d612556565b73ffffffffffffffffffffffffffffffffffffffff161480610aac5750610aab81610aa6612556565b612378565b5b610b01576040517f08c379a0000000000000000000000000000000000000000000000000000000008152600401808060200182810382526038815260200180614a1c6038913960400191505060405180910390fd5b610b0b838361255e565b505050565b6000610b1c6002612617565b905090565b610b32610b2c612556565b8261262c565b610b87576040517f08c379a0000000000000000000000000000000000000000000000000000000008152600401808060200182810382526031815260200180614b9a6031913960400191505060405180910390fd5b610b92838383612720565b505050565b601260009054906101000a900473ffffffffffffffffffffffffffffffffffffffff1681565b6000610c1082600160008673ffffffffffffffffffffffffffffffffffffffff1673ffffffffffffffffffffffffffffffffffffffff16815260200190815260200160002061296390919063ffffffff16565b905092915050565b601260009054906101000a900473ffffffffffffffffffffffffffffffffffffffff1673ffffffffffffffffffffffffffffffffffffffff163373ffffffffffffffffffffffffffffffffffffffff1614610ca8576040517f08c379a0000000000000000000000000000000000000000000000000000000008152600401610c9f906145b6565b60405180910390fd5b80601260006101000a81548173ffffffffffffffffffffffffffffffffffffffff021916908373ffffffffffffffffffffffffffffffffffffffff16021790555050565b610d078383836040518060200160405280600081525061160c565b505050565b8073ffffffffffffffffffffffffffffffffffffffff16600c600084815260200190815260200160002060020160009054906101000a900473ffffffffffffffffffffffffffffffffffffffff1673ffffffffffffffffffffffffffffffffffffffff1614610db0576040517f08c379a0000000000000000000000000000000000000000000000000000000008152600401610da7906144b6565b60405180910390fd5b610dbb82600261297d565b7f6670b87ece4bf5ff8e422301a14d59d43b4f9d17c2f96c6c37ca8a073efda7f582604051610dea91906145f6565b60405180910390a15050565b600080610e0d836002612b2e90919063ffffffff16565b50905080915050919050565b601260149054906101000a900460ff1681565b6060600d6000838152602001908152602001600020805480602002602001604051908101604052809291908181526020018280548015610e8b57602002820191906000526020600020905b815481526020019060010190808311610e77575b50505050509050919050565b6000610ec782604051806060016040528060298152602001614a7e602991396002612b5a9092919063ffffffff16565b9050919050565b606060098054600181600116156101000203166002900480601f016020809104026020016040519081016040528092919081815260200182805460018160011615610100020316600290048015610f665780601f10610f3b57610100808354040283529160200191610f66565b820191906000526020600020905b815481529060010190602001808311610f4957829003601f168201915b5050505050905090565b600d6020528160005260406000208181548110610f8c57600080fd5b90600052602060002001600091509150505481565b60008073ffffffffffffffffffffffffffffffffffffffff168273ffffffffffffffffffffffffffffffffffffffff161415611028576040517f08c379a000000000000000000000000000000000000000000000000000000000815260040180806020018281038252602a815260200180614a54602a913960400191505060405180910390fd5b61106f600160008473ffffffffffffffffffffffffffffffffffffffff1673ffffffffffffffffffffffffffffffffffffffff168152602001908152602001600020612b79565b9050919050565b8073ffffffffffffffffffffffffffffffffffffffff1661109683610e97565b73ffffffffffffffffffffffffffffffffffffffff1614156110ed576040517f08c379a00000000000000000000000000000000000000000000000000000000081526004016110e490614516565b60405180910390fd5b601360009054906101000a900473ffffffffffffffffffffffffffffffffffffffff1673ffffffffffffffffffffffffffffffffffffffff1663a230c524826040518263ffffffff1660e01b815260040161114891906143ea565b60206040518083038186803b15801561116057600080fd5b505afa158015611174573d6000803e3d6000fd5b505050506040513d601f19601f820116820180604052508101906111989190613e52565b6111d7576040517f08c379a00000000000000000000000000000000000000000000000000000000081526004016111ce90614576565b60405180910390fd5b6111e282600161297d565b80600c600084815260200190815260200160002060020160006101000a81548173ffffffffffffffffffffffffffffffffffffffff021916908373ffffffffffffffffffffffffffffffffffffffff1602179055507f72503442d65992b1312625ee20f46cf6db579203f0d8bc261d1e50ea382288a28260405161126691906145f6565b60405180910390a15050565b600b60009054906101000a900473ffffffffffffffffffffffffffffffffffffffff1681565b606060078054600181600116156101000203166002900480601f0160208091040260200160405190810160405280929190818152602001828054600181600116156101000203166002900480156113305780601f1061130557610100808354040283529160200191611330565b820191906000526020600020905b81548152906001019060200180831161131357829003601f168201915b5050505050905090565b600e6020528060005260406000206000915054906101000a900460ff1681565b611362612556565b73ffffffffffffffffffffffffffffffffffffffff168273ffffffffffffffffffffffffffffffffffffffff161415611403576040517f08c379a00000000000000000000000000000000000000000000000000000000081526004018080602001828103825260198152602001807f4552433732313a20617070726f766520746f2063616c6c65720000000000000081525060200191505060405180910390fd5b8060056000611410612556565b73ffffffffffffffffffffffffffffffffffffffff1673ffffffffffffffffffffffffffffffffffffffff16815260200190815260200160002060008473ffffffffffffffffffffffffffffffffffffffff1673ffffffffffffffffffffffffffffffffffffffff16815260200190815260200160002060006101000a81548160ff0219169083151502179055508173ffffffffffffffffffffffffffffffffffffffff166114bd612556565b73ffffffffffffffffffffffffffffffffffffffff167f17307eab39ab6107e8899845ad3d59bd9653f200f220920489ca2b5937696c318360405180821515815260200191505060405180910390a35050565b6060601260009054906101000a900473ffffffffffffffffffffffffffffffffffffffff1673ffffffffffffffffffffffffffffffffffffffff163373ffffffffffffffffffffffffffffffffffffffff16146115a2576040517f08c379a0000000000000000000000000000000000000000000000000000000008152600401611599906145b6565b60405180910390fd5b606060118054806020026020016040519081016040528092919081815260200182805480156115f057602002820191906000526020600020905b8154815260200190600101908083116115dc575b505050505090506011600061160591906139d8565b8091505090565b61161d611617612556565b8361262c565b611672576040517f08c379a0000000000000000000000000000000000000000000000000000000008152600401808060200182810382526031815260200180614b9a6031913960400191505060405180910390fd5b61167e84848484612b8e565b50505050565b6000601360009054906101000a900473ffffffffffffffffffffffffffffffffffffffff16905090565b60606116b982612539565b61170e576040517f08c379a000000000000000000000000000000000000000000000000000000000815260040180806020018281038252602f815260200180614b4a602f913960400191505060405180910390fd5b6060600860008481526020019081526020016000208054600181600116156101000203166002900480601f0160208091040260200160405190810160405280929190818152602001828054600181600116156101000203166002900480156117b75780601f1061178c576101008083540402835291602001916117b7565b820191906000526020600020905b81548152906001019060200180831161179a57829003601f168201915b5050505050905060606117c8610ece565b90506000815114156117de57819250505061197a565b6000825111156118af5780826040516020018083805190602001908083835b6020831061182057805182526020820191506020810190506020830392506117fd565b6001836020036101000a03801982511681845116808217855250505050505090500182805190602001908083835b60208310611871578051825260208201915060208101905060208303925061184e565b6001836020036101000a038019825116818451168082178552505050505050905001925050506040516020818303038152906040529250505061197a565b806118b985612c00565b6040516020018083805190602001908083835b602083106118ef57805182526020820191506020810190506020830392506118cc565b6001836020036101000a03801982511681845116808217855250505050505090500182805190602001908083835b60208310611940578051825260208201915060208101905060208303925061191d565b6001836020036101000a03801982511681845116808217855250505050505090500192505050604051602081830303815290604052925050505b919050565b6001600e600083815260200190815260200160002060006101000a81548160ff0219169083151502179055506119b36139f9565b600c60008381526020019081526020016000206040518060a0016040529081600082015481526020016001820160009054906101000a900473ffffffffffffffffffffffffffffffffffffffff1673ffffffffffffffffffffffffffffffffffffffff1673ffffffffffffffffffffffffffffffffffffffff1681526020016002820160009054906101000a900473ffffffffffffffffffffffffffffffffffffffff1673ffffffffffffffffffffffffffffffffffffffff1673ffffffffffffffffffffffffffffffffffffffff168152602001600382015481526020016004820160009054906101000a900460ff166003811115611aaf57fe5b6003811115611aba57fe5b815250509050600380811115611acc57fe5b81608001516003811115611adc57fe5b1415611e0757601360009054906101000a900473ffffffffffffffffffffffffffffffffffffffff1673ffffffffffffffffffffffffffffffffffffffff1663063d11de82606001516040518263ffffffff1660e01b8152600401611b4191906145f6565b600060405180830381600087803b158015611b5b57600080fd5b505af1158015611b6f573d6000803e3d6000fd5b505050506000601360009054906101000a900473ffffffffffffffffffffffffffffffffffffffff1673ffffffffffffffffffffffffffffffffffffffff16639b5655dc6040518163ffffffff1660e01b815260040160206040518083038186803b158015611bdd57600080fd5b505afa158015611bf1573d6000803e3d6000fd5b505050506040513d601f19601f82011682018060405250810190611c159190613ecd565b90506107d0811115611ce6576000600f600084600001518152602001908152602001600020805490501415611c72576010826000015190806001815401808255809150506001900390600052602060002001600090919091909150555b600f60008360000151815260200190815260200160002082606001519080600181540180825580915050600190039060005260206000200160009091909190915055601182606001519080600181540180825580915050600190039060005260206000200160009091909190915055611dc1565b601260009054906101000a900473ffffffffffffffffffffffffffffffffffffffff1673ffffffffffffffffffffffffffffffffffffffff1663dcc2e0006040518163ffffffff1660e01b8152600401600060405180830381600087803b158015611d5057600080fd5b505af1158015611d64573d6000803e3d6000fd5b505050506001601260146101000a81548160ff0219169083151502179055507f9b8b0b7a9cb146d9e672f5b9c7582a88310fc2941f4cda0acb7652d443d49c20838360000151604051611db89291906146d2565b60405180910390a15b7f87b2ee2368fc1e869733732809f91172217ac0358f026a1f7c61844b9ef7e5698360018460600151604051611df99392919061469b565b60405180910390a150611e44565b7f87b2ee2368fc1e869733732809f91172217ac0358f026a1f7c61844b9ef7e56982600080604051611e3b93929190614664565b60405180910390a15b5050565b60118181548110611e5857600080fd5b906000526020600020016000915090505481565b601360009054906101000a900473ffffffffffffffffffffffffffffffffffffffff1673ffffffffffffffffffffffffffffffffffffffff1663a230c524856040518263ffffffff1660e01b8152600401611ec791906143ea565b60206040518083038186803b158015611edf57600080fd5b505afa158015611ef3573d6000803e3d6000fd5b505050506040513d601f19601f82011682018060405250810190611f179190613e52565b611f56576040517f08c379a0000000000000000000000000000000000000000000000000000000008152600401611f4d90614536565b60405180910390fd5b60068310158015611f6957506102d08311155b611fa8576040517f08c379a0000000000000000000000000000000000000000000000000000000008152600401611f9f906144d6565b60405180910390fd5b6000611fb4600a612d47565b9050611fc08582612d55565b611fca8184612f49565b6040518060a001604052808381526020018673ffffffffffffffffffffffffffffffffffffffff168152602001600073ffffffffffffffffffffffffffffffffffffffff1681526020018581526020016000600381111561202757fe5b815250600c60008381526020019081526020016000206000820151816000015560208201518160010160006101000a81548173ffffffffffffffffffffffffffffffffffffffff021916908373ffffffffffffffffffffffffffffffffffffffff16021790555060408201518160020160006101000a81548173ffffffffffffffffffffffffffffffffffffffff021916908373ffffffffffffffffffffffffffffffffffffffff1602179055506060820151816003015560808201518160040160006101000a81548160ff0219169083600381111561210357fe5b0217905550905050600d60008381526020019081526020016000208190806001815401808255809150506001900390600052602060002001600090919091909150556000600e600083815260200190815260200160002060006101000a81548160ff02191690831515021790555061217b600a612fd3565b7f0602e1ee094e5b9bca3008c6dc2b270c10b72e5ad44b52232b6ababb78d6d89e85826040516121ac929190614405565b60405180910390a15050505050565b601260149054906101000a900460ff161561220b576040517f08c379a0000000000000000000000000000000000000000000000000000000008152600401612202906144f6565b60405180910390fd5b8073ffffffffffffffffffffffffffffffffffffffff16600c600084815260200190815260200160002060010160009054906101000a900473ffffffffffffffffffffffffffffffffffffffff1673ffffffffffffffffffffffffffffffffffffffff16146122af576040517f08c379a00000000000000000000000000000000000000000000000000000000081526004016122a6906145d6565b60405180910390fd5b6122ba82600361297d565b7f41f5e423c5ae79dcb8565618891e74a7a6e76232568150b33d79001a62391b1e826040516122e991906145f6565b60405180910390a15050565b600c6020528060005260406000206000915090508060000154908060010160009054906101000a900473ffffffffffffffffffffffffffffffffffffffff16908060020160009054906101000a900473ffffffffffffffffffffffffffffffffffffffff16908060030154908060040160009054906101000a900460ff16905085565b6000600560008473ffffffffffffffffffffffffffffffffffffffff1673ffffffffffffffffffffffffffffffffffffffff16815260200190815260200160002060008373ffffffffffffffffffffffffffffffffffffffff1673ffffffffffffffffffffffffffffffffffffffff16815260200190815260200160002060009054906101000a900460ff16905092915050565b6000601080549050905090565b6060601260009054906101000a900473ffffffffffffffffffffffffffffffffffffffff1673ffffffffffffffffffffffffffffffffffffffff163373ffffffffffffffffffffffffffffffffffffffff16146124ab576040517f08c379a00000000000000000000000000000000000000000000000000000000081526004016124a2906145b6565b60405180910390fd5b6060600f600084815260200190815260200160002080548060200260200160405190810160405280929190818152602001828054801561250a57602002820191906000526020600020905b8154815260200190600101908083116124f6575b50505050509050600f6000848152602001908152602001600020600061253091906139d8565b80915050919050565b600061254f826002612fe990919063ffffffff16565b9050919050565b600033905090565b816004600083815260200190815260200160002060006101000a81548173ffffffffffffffffffffffffffffffffffffffff021916908373ffffffffffffffffffffffffffffffffffffffff160217905550808273ffffffffffffffffffffffffffffffffffffffff166125d183610e97565b73ffffffffffffffffffffffffffffffffffffffff167f8c5be1e5ebec7d5bd14f71427d1e84f3dd0314c0f7b2291e5b200ac8c7c3b92560405160405180910390a45050565b600061262582600001613003565b9050919050565b600061263782612539565b61268c576040517f08c379a000000000000000000000000000000000000000000000000000000000815260040180806020018281038252602c8152602001806149f0602c913960400191505060405180910390fd5b600061269783610e97565b90508073ffffffffffffffffffffffffffffffffffffffff168473ffffffffffffffffffffffffffffffffffffffff16148061270657508373ffffffffffffffffffffffffffffffffffffffff166126ee84610931565b73ffffffffffffffffffffffffffffffffffffffff16145b8061271757506127168185612378565b5b91505092915050565b8273ffffffffffffffffffffffffffffffffffffffff1661274082610e97565b73ffffffffffffffffffffffffffffffffffffffff16146127ac576040517f08c379a0000000000000000000000000000000000000000000000000000000008152600401808060200182810382526029815260200180614b216029913960400191505060405180910390fd5b600073ffffffffffffffffffffffffffffffffffffffff168273ffffffffffffffffffffffffffffffffffffffff161415612832576040517f08c379a00000000000000000000000000000000000000000000000000000000081526004018080602001828103825260248152602001806149a66024913960400191505060405180910390fd5b61283d838383613014565b61284860008261255e565b61289981600160008673ffffffffffffffffffffffffffffffffffffffff1673ffffffffffffffffffffffffffffffffffffffff16815260200190815260200160002061301990919063ffffffff16565b506128eb81600160008573ffffffffffffffffffffffffffffffffffffffff1673ffffffffffffffffffffffffffffffffffffffff16815260200190815260200160002061303390919063ffffffff16565b506129028183600261304d9092919063ffffffff16565b50808273ffffffffffffffffffffffffffffffffffffffff168473ffffffffffffffffffffffffffffffffffffffff167fddf252ad1be2c89b69c2b068fc378daa952ba7f163c4a11628f55a4df523b3ef60405160405180910390a4505050565b60006129728360000183613082565b60001c905092915050565b73__$39e5f0833bea36099f81ee6c8dc80239f4$__62018267600c600085815260200190815260200160002060040160009054906101000a900460ff16836040518363ffffffff1660e01b81526004016129d892919061446b565b60206040518083038186803b1580156129f057600080fd5b505af4158015612a04573d6000803e3d6000fd5b505050506040513d601f19601f82011682018060405250810190612a289190613e52565b612a67576040517f08c379a0000000000000000000000000000000000000000000000000000000008152600401612a5e90614596565b60405180910390fd5b600e600083815260200190815260200160002060009054906101000a900460ff16612ac7576040517f08c379a0000000000000000000000000000000000000000000000000000000008152600401612abe90614556565b60405180910390fd5b80600c600084815260200190815260200160002060040160006101000a81548160ff02191690836003811115612af957fe5b02179055506000600e600084815260200190815260200160002060006101000a81548160ff0219169083151502179055505050565b600080600080612b418660000186613105565b915091508160001c8160001c9350935050509250929050565b6000612b6d846000018460001b8461319e565b60001c90509392505050565b6000612b8782600001613294565b9050919050565b612b99848484612720565b612ba5848484846132a5565b612bfa576040517f08c379a00000000000000000000000000000000000000000000000000000000081526004018080602001828103825260328152602001806149746032913960400191505060405180910390fd5b50505050565b60606000821415612c48576040518060400160405280600181526020017f30000000000000000000000000000000000000000000000000000000000000008152509050612d42565b600082905060005b60008214612c72578080600101915050600a8281612c6a57fe5b049150612c50565b60608167ffffffffffffffff81118015612c8b57600080fd5b506040519080825280601f01601f191660200182016040528015612cbe5781602001600182028036833780820191505090505b50905060006001830390508593505b60008414612d3a57600a8481612cdf57fe5b0660300160f81b82828060019003935081518110612cf957fe5b60200101907effffffffffffffffffffffffffffffffffffffffffffffffffffffffffffff1916908160001a905350600a8481612d3257fe5b049350612ccd565b819450505050505b919050565b600081600001549050919050565b600073ffffffffffffffffffffffffffffffffffffffff168273ffffffffffffffffffffffffffffffffffffffff161415612df8576040517f08c379a00000000000000000000000000000000000000000000000000000000081526004018080602001828103825260208152602001807f4552433732313a206d696e7420746f20746865207a65726f206164647265737381525060200191505060405180910390fd5b612e0181612539565b15612e74576040517f08c379a000000000000000000000000000000000000000000000000000000000815260040180806020018281038252601c8152602001807f4552433732313a20746f6b656e20616c7265616479206d696e7465640000000081525060200191505060405180910390fd5b612e8060008383613014565b612ed181600160008573ffffffffffffffffffffffffffffffffffffffff1673ffffffffffffffffffffffffffffffffffffffff16815260200190815260200160002061303390919063ffffffff16565b50612ee88183600261304d9092919063ffffffff16565b50808273ffffffffffffffffffffffffffffffffffffffff16600073ffffffffffffffffffffffffffffffffffffffff167fddf252ad1be2c89b69c2b068fc378daa952ba7f163c4a11628f55a4df523b3ef60405160405180910390a45050565b612f5282612539565b612fa7576040517f08c379a000000000000000000000000000000000000000000000000000000000815260040180806020018281038252602c815260200180614af5602c913960400191505060405180910390fd5b80600860008481526020019081526020016000209080519060200190612fce929190613a5f565b505050565b6001816000016000828254019250508190555050565b6000612ffb836000018360001b6134be565b905092915050565b600081600001805490509050919050565b505050565b600061302b836000018360001b6134e1565b905092915050565b6000613045836000018360001b6135c9565b905092915050565b6000613079846000018460001b8473ffffffffffffffffffffffffffffffffffffffff1660001b613639565b90509392505050565b6000818360000180549050116130e3576040517f08c379a00000000000000000000000000000000000000000000000000000000081526004018080602001828103825260228152602001806149526022913960400191505060405180910390fd5b8260000182815481106130f257fe5b9060005260206000200154905092915050565b60008082846000018054905011613167576040517f08c379a0000000000000000000000000000000000000000000000000000000008152600401808060200182810382526022815260200180614aa76022913960400191505060405180910390fd5b600084600001848154811061317857fe5b906000526020600020906002020190508060000154816001015492509250509250929050565b60008084600101600085815260200190815260200160002054905060008114158390613265576040517f08c379a00000000000000000000000000000000000000000000000000000000081526004018080602001828103825283818151815260200191508051906020019080838360005b8381101561322a57808201518184015260208101905061320f565b50505050905090810190601f1680156132575780820380516001836020036101000a031916815260200191505b509250505060405180910390fd5b5084600001600182038154811061327857fe5b9060005260206000209060020201600101549150509392505050565b600081600001805490509050919050565b60006132c68473ffffffffffffffffffffffffffffffffffffffff16613715565b6132d357600190506134b6565b606061343d63150b7a0260e01b6132e8612556565b888787604051602401808573ffffffffffffffffffffffffffffffffffffffff1681526020018473ffffffffffffffffffffffffffffffffffffffff16815260200183815260200180602001828103825283818151815260200191508051906020019080838360005b8381101561336c578082015181840152602081019050613351565b50505050905090810190601f1680156133995780820380516001836020036101000a031916815260200191505b5095505050505050604051602081830303815290604052907bffffffffffffffffffffffffffffffffffffffffffffffffffffffff19166020820180517bffffffffffffffffffffffffffffffffffffffffffffffffffffffff8381831617835250505050604051806060016040528060328152602001614974603291398773ffffffffffffffffffffffffffffffffffffffff166137289092919063ffffffff16565b9050600081806020019051602081101561345657600080fd5b8101908080519060200190929190505050905063150b7a0260e01b7bffffffffffffffffffffffffffffffffffffffffffffffffffffffff1916817bffffffffffffffffffffffffffffffffffffffffffffffffffffffff191614925050505b949350505050565b600080836001016000848152602001908152602001600020541415905092915050565b600080836001016000848152602001908152602001600020549050600081146135bd576000600182039050600060018660000180549050039050600086600001828154811061352c57fe5b906000526020600020015490508087600001848154811061354957fe5b906000526020600020018190555060018301876001016000838152602001908152602001600020819055508660000180548061358157fe5b600190038181906000526020600020016000905590558660010160008781526020019081526020016000206000905560019450505050506135c3565b60009150505b92915050565b60006135d58383613740565b61362e578260000182908060018154018082558091505060019003906000526020600020016000909190919091505582600001805490508360010160008481526020019081526020016000208190555060019050613633565b600090505b92915050565b60008084600101600085815260200190815260200160002054905060008114156136e05784600001604051806040016040528086815260200185815250908060018154018082558091505060019003906000526020600020906002020160009091909190915060008201518160000155602082015181600101555050846000018054905085600101600086815260200190815260200160002081905550600191505061370e565b828560000160018303815481106136f357fe5b90600052602060002090600202016001018190555060009150505b9392505050565b600080823b905060008111915050919050565b60606137378484600085613763565b90509392505050565b600080836001016000848152602001908152602001600020541415905092915050565b6060824710156137be576040517f08c379a00000000000000000000000000000000000000000000000000000000081526004018080602001828103825260268152602001806149ca6026913960400191505060405180910390fd5b6137c785613715565b613839576040517f08c379a000000000000000000000000000000000000000000000000000000000815260040180806020018281038252601d8152602001807f416464726573733a2063616c6c20746f206e6f6e2d636f6e747261637400000081525060200191505060405180910390fd5b600060608673ffffffffffffffffffffffffffffffffffffffff1685876040518082805190602001908083835b602083106138895780518252602082019150602081019050602083039250613866565b6001836020036101000a03801982511681845116808217855250505050505090500191505060006040518083038185875af1925050503d80600081146138eb576040519150601f19603f3d011682016040523d82523d6000602084013e6138f0565b606091505b509150915061390082828661390c565b92505050949350505050565b6060831561391c578290506139d1565b60008351111561392f5782518084602001fd5b816040517f08c379a00000000000000000000000000000000000000000000000000000000081526004018080602001828103825283818151815260200191508051906020019080838360005b8381101561399657808201518184015260208101905061397b565b50505050905090810190601f1680156139c35780820380516001836020036101000a031916815260200191505b509250505060405180910390fd5b9392505050565b50805460008255906000526020600020908101906139f69190613aed565b50565b6040518060a0016040528060008152602001600073ffffffffffffffffffffffffffffffffffffffff168152602001600073ffffffffffffffffffffffffffffffffffffffff1681526020016000815260200160006003811115613a5957fe5b81525090565b828054600181600116156101000203166002900490600052602060002090601f016020900481019282613a955760008555613adc565b82601f10613aae57805160ff1916838001178555613adc565b82800160010185558215613adc579182015b82811115613adb578251825591602001919060010190613ac0565b5b509050613ae99190613aed565b5090565b5b80821115613b06576000816000905550600101613aee565b5090565b600081359050613b19816148f5565b92915050565b600081359050613b2e8161490c565b92915050565b600081519050613b438161490c565b92915050565b600081359050613b5881614923565b92915050565b600082601f830112613b6f57600080fd5b8135613b82613b7d8261472c565b6146fb565b91508082526020830160208301858383011115613b9e57600080fd5b613ba983828461488c565b50505092915050565b600082601f830112613bc357600080fd5b8135613bd6613bd18261475c565b6146fb565b91508082526020830160208301858383011115613bf257600080fd5b613bfd83828461488c565b50505092915050565b600081359050613c158161493a565b92915050565b600081519050613c2a8161493a565b92915050565b600060208284031215613c4257600080fd5b6000613c5084828501613b0a565b91505092915050565b60008060408385031215613c6c57600080fd5b6000613c7a85828601613b0a565b9250506020613c8b85828601613b0a565b9150509250929050565b600080600060608486031215613caa57600080fd5b6000613cb886828701613b0a565b9350506020613cc986828701613b0a565b9250506040613cda86828701613c06565b9150509250925092565b60008060008060808587031215613cfa57600080fd5b6000613d0887828801613b0a565b9450506020613d1987828801613b0a565b9350506040613d2a87828801613c06565b925050606085013567ffffffffffffffff811115613d4757600080fd5b613d5387828801613b5e565b91505092959194509250565b60008060408385031215613d7257600080fd5b6000613d8085828601613b0a565b9250506020613d9185828601613b1f565b9150509250929050565b60008060408385031215613dae57600080fd5b6000613dbc85828601613b0a565b9250506020613dcd85828601613c06565b9150509250929050565b60008060008060808587031215613ded57600080fd5b6000613dfb87828801613b0a565b9450506020613e0c87828801613c06565b935050604085013567ffffffffffffffff811115613e2957600080fd5b613e3587828801613bb2565b9250506060613e4687828801613c06565b91505092959194509250565b600060208284031215613e6457600080fd5b6000613e7284828501613b34565b91505092915050565b600060208284031215613e8d57600080fd5b6000613e9b84828501613b49565b91505092915050565b600060208284031215613eb657600080fd5b6000613ec484828501613c06565b91505092915050565b600060208284031215613edf57600080fd5b6000613eed84828501613c1b565b91505092915050565b60008060408385031215613f0957600080fd5b6000613f1785828601613c06565b9250506020613f2885828601613b0a565b9150509250929050565b60008060408385031215613f4557600080fd5b6000613f5385828601613c06565b9250506020613f6485828601613c06565b9150509250929050565b6000613f7a83836143cc565b60208301905092915050565b613f8f816147e1565b82525050565b6000613fa08261479c565b613faa81856147bf565b9350613fb58361478c565b8060005b83811015613fe6578151613fcd8882613f6e565b9750613fd8836147b2565b925050600181019050613fb9565b5085935050505092915050565b613ffc816147f3565b82525050565b61400b81614868565b82525050565b61401a81614868565b82525050565b6140298161487a565b82525050565b600061403a826147a7565b61404481856147d0565b935061405481856020860161489b565b61405d816148d0565b840191505092915050565b60006140756022836147d0565b91507f4f6e6c79207468652074616b65722063616e207375626d69742074686520676960008301527f67210000000000000000000000000000000000000000000000000000000000006020830152604082019050919050565b60006140db6017836147d0565b91507f496e76616c6964206372656469747320616d6f756e742e0000000000000000006000830152602082019050919050565b600061411b601b836147d0565b91507f446973747269627574696f6e20697320696e2070726f677265737300000000006000830152602082019050919050565b600061415b601e836147d0565b91507f5468652063726561746f722063616e27742074616b65207468652067696700006000830152602082019050919050565b600061419b6041836147d0565b91507f5468652063726561746f72206f6620746865206d696c6573746f6e652073686f60008301527f756c642062652061206d656d626572206f662074686520636f6d6d756e69747960208301527f2e000000000000000000000000000000000000000000000000000000000000006040830152606082019050919050565b60006142276025836147d0565b91507f4d696c6573746f6e65206372656174696f6e206e6f74207965742076616c696460008301527f617465642e0000000000000000000000000000000000000000000000000000006020830152604082019050919050565b600061428d6027836147d0565b91507f5468652074616b65722073686f756c64206265206120636f6d6d756e6974792060008301527f6d656d6265722e000000000000000000000000000000000000000000000000006020830152604082019050919050565b60006142f36019836147d0565b91507f537461747573206368616e6765206e6f7420616c6c6f776564000000000000006000830152602082019050919050565b6000614333600e836147d0565b91507f43616c6c6572206e6f74205132540000000000000000000000000000000000006000830152602082019050919050565b60006143736024836147d0565b91507f43616e20626520636f6d706c657465206f6e6c7920627920746865206372656160008301527f746f722e000000000000000000000000000000000000000000000000000000006020830152604082019050919050565b6143d58161485e565b82525050565b6143e48161485e565b82525050565b60006020820190506143ff6000830184613f86565b92915050565b600060408201905061441a6000830185613f86565b61442760208301846143db565b9392505050565b600060208201905081810360008301526144488184613f95565b905092915050565b60006020820190506144656000830184613ff3565b92915050565b60006040820190506144806000830185614011565b61448d6020830184614011565b9392505050565b600060208201905081810360008301526144ae818461402f565b905092915050565b600060208201905081810360008301526144cf81614068565b9050919050565b600060208201905081810360008301526144ef816140ce565b9050919050565b6000602082019050818103600083015261450f8161410e565b9050919050565b6000602082019050818103600083015261452f8161414e565b9050919050565b6000602082019050818103600083015261454f8161418e565b9050919050565b6000602082019050818103600083015261456f8161421a565b9050919050565b6000602082019050818103600083015261458f81614280565b9050919050565b600060208201905081810360008301526145af816142e6565b9050919050565b600060208201905081810360008301526145cf81614326565b9050919050565b600060208201905081810360008301526145ef81614366565b9050919050565b600060208201905061460b60008301846143db565b92915050565b600060a08201905061462660008301886143db565b6146336020830187613f86565b6146406040830186613f86565b61464d60608301856143db565b61465a6080830184614002565b9695505050505050565b600060608201905061467960008301866143db565b6146866020830185613ff3565b6146936040830184614020565b949350505050565b60006060820190506146b060008301866143db565b6146bd6020830185613ff3565b6146ca60408301846143db565b949350505050565b60006040820190506146e760008301856143db565b6146f460208301846143db565b9392505050565b6000604051905081810181811067ffffffffffffffff82111715614722576147216148ce565b5b8060405250919050565b600067ffffffffffffffff821115614747576147466148ce565b5b601f19601f8301169050602081019050919050565b600067ffffffffffffffff821115614777576147766148ce565b5b601f19601f8301169050602081019050919050565b6000819050602082019050919050565b600081519050919050565b600081519050919050565b6000602082019050919050565b600082825260208201905092915050565b600082825260208201905092915050565b60006147ec8261483e565b9050919050565b60008115159050919050565b60007fffffffff0000000000000000000000000000000000000000000000000000000082169050919050565b6000819050614839826148e1565b919050565b600073ffffffffffffffffffffffffffffffffffffffff82169050919050565b6000819050919050565b60006148738261482b565b9050919050565b60006148858261485e565b9050919050565b82818337600083830152505050565b60005b838110156148b957808201518184015260208101905061489e565b838111156148c8576000848401525b50505050565bfe5b6000601f19601f8301169050919050565b600481106148f2576148f16148ce565b5b50565b6148fe816147e1565b811461490957600080fd5b50565b614915816147f3565b811461492057600080fd5b50565b61492c816147ff565b811461493757600080fd5b50565b6149438161485e565b811461494e57600080fd5b5056fe456e756d657261626c655365743a20696e646578206f7574206f6620626f756e64734552433732313a207472616e7366657220746f206e6f6e20455243373231526563656976657220696d706c656d656e7465724552433732313a207472616e7366657220746f20746865207a65726f2061646472657373416464726573733a20696e73756666696369656e742062616c616e636520666f722063616c6c4552433732313a206f70657261746f7220717565727920666f72206e6f6e6578697374656e7420746f6b656e4552433732313a20617070726f76652063616c6c6572206973206e6f74206f776e6572206e6f7220617070726f76656420666f7220616c6c4552433732313a2062616c616e636520717565727920666f7220746865207a65726f20616464726573734552433732313a206f776e657220717565727920666f72206e6f6e6578697374656e7420746f6b656e456e756d657261626c654d61703a20696e646578206f7574206f6620626f756e64734552433732313a20617070726f76656420717565727920666f72206e6f6e6578697374656e7420746f6b656e4552433732314d657461646174613a2055524920736574206f66206e6f6e6578697374656e7420746f6b656e4552433732313a207472616e73666572206f6620746f6b656e2074686174206973206e6f74206f776e4552433732314d657461646174613a2055524920717565727920666f72206e6f6e6578697374656e7420746f6b656e4552433732313a20617070726f76616c20746f2063757272656e74206f776e65724552433732313a207472616e736665722063616c6c6572206973206e6f74206f776e6572206e6f7220617070726f766564a264697066735822122086468766683df9024cdfc67e2b3ca8f711845885121d0707350a40af22a9368a64736f6c63430007040033",
  "linkReferences": {
    "contracts/MilestoneStatuses.sol": {
      "MilestoneStatuses": [
        {
          "length": 20,
          "start": 11706
        }
      ]
    }
  },
  "deployedLinkReferences": {
    "contracts/MilestoneStatuses.sol": {
      "MilestoneStatuses": [
        {
          "length": 20,
          "start": 10623
        }
      ]
    }
  }
}