{
    "_format": "hh-sol-artifact-1",
    "contractName": "Milestones",
    "sourceName": "contracts/Milestones.sol",
    "abi": [
        {
            "inputs": [
                {
                    "internalType": "address",
                    "name": "_communityAddress",
                    "type": "address"
                }
            ],
            "stateMutability": "nonpayable",
            "type": "constructor"
        },
        {
            "anonymous": false,
            "inputs": [
                {
                    "indexed": true,
                    "internalType": "address",
                    "name": "owner",
                    "type": "address"
                },
                {
                    "indexed": true,
                    "internalType": "address",
                    "name": "approved",
                    "type": "address"
                },
                {
                    "indexed": true,
                    "internalType": "uint256",
                    "name": "tokenId",
                    "type": "uint256"
                }
            ],
            "name": "Approval",
            "type": "event"
        },
        {
            "anonymous": false,
            "inputs": [
                {
                    "indexed": true,
                    "internalType": "address",
                    "name": "owner",
                    "type": "address"
                },
                {
                    "indexed": true,
                    "internalType": "address",
                    "name": "operator",
                    "type": "address"
                },
                {
                    "indexed": false,
                    "internalType": "bool",
                    "name": "approved",
                    "type": "bool"
                }
            ],
            "name": "ApprovalForAll",
            "type": "event"
        },
        {
            "anonymous": false,
            "inputs": [
                {
                    "indexed": false,
                    "internalType": "uint256",
                    "name": "_milestoneId",
                    "type": "uint256"
                },
                {
                    "indexed": false,
                    "internalType": "uint256",
                    "name": "_projectId",
                    "type": "uint256"
                }
            ],
            "name": "DistributionTriggered",
            "type": "event"
        },
        {
            "anonymous": false,
            "inputs": [
                {
                    "indexed": false,
                    "internalType": "uint256",
                    "name": "_milestoneId",
                    "type": "uint256"
                }
            ],
            "name": "MilestoneCompleted",
            "type": "event"
        },
        {
            "anonymous": false,
            "inputs": [
                {
                    "indexed": false,
                    "internalType": "address",
                    "name": "_creator",
                    "type": "address"
                },
                {
                    "indexed": false,
                    "internalType": "uint256",
                    "name": "_milestoneId",
                    "type": "uint256"
                }
            ],
            "name": "MilestoneCreated",
            "type": "event"
        },
        {
            "anonymous": false,
            "inputs": [
                {
                    "indexed": false,
                    "internalType": "uint256",
                    "name": "_milestoneId",
                    "type": "uint256"
                }
            ],
            "name": "MilestoneSubmitted",
            "type": "event"
        },
        {
            "anonymous": false,
            "inputs": [
                {
                    "indexed": false,
                    "internalType": "uint256",
                    "name": "_milestoneId",
                    "type": "uint256"
                }
            ],
            "name": "MilestoneTaken",
            "type": "event"
        },
        {
            "anonymous": false,
            "inputs": [
                {
                    "indexed": false,
                    "internalType": "uint256",
                    "name": "_milestoneId",
                    "type": "uint256"
                },
                {
                    "indexed": false,
                    "internalType": "bool",
                    "name": "transferedCredits",
                    "type": "bool"
                },
                {
                    "indexed": false,
                    "internalType": "uint256",
                    "name": "creditsTransfered",
                    "type": "uint256"
                }
            ],
            "name": "MilestoneValidated",
            "type": "event"
        },
        {
            "anonymous": false,
            "inputs": [
                {
                    "indexed": true,
                    "internalType": "address",
                    "name": "from",
                    "type": "address"
                },
                {
                    "indexed": true,
                    "internalType": "address",
                    "name": "to",
                    "type": "address"
                },
                {
                    "indexed": true,
                    "internalType": "uint256",
                    "name": "tokenId",
                    "type": "uint256"
                }
            ],
            "name": "Transfer",
            "type": "event"
        },
        {
            "inputs": [
                {
                    "internalType": "address",
                    "name": "to",
                    "type": "address"
                },
                {
                    "internalType": "uint256",
                    "name": "tokenId",
                    "type": "uint256"
                }
            ],
            "name": "approve",
            "outputs": [],
            "stateMutability": "nonpayable",
            "type": "function"
        },
        {
            "inputs": [
                {
                    "internalType": "address",
                    "name": "owner",
                    "type": "address"
                }
            ],
            "name": "balanceOf",
            "outputs": [
                {
                    "internalType": "uint256",
                    "name": "",
                    "type": "uint256"
                }
            ],
            "stateMutability": "view",
            "type": "function"
        },
        {
            "inputs": [],
            "name": "baseURI",
            "outputs": [
                {
                    "internalType": "string",
                    "name": "",
                    "type": "string"
                }
            ],
            "stateMutability": "view",
            "type": "function"
        },
        {
            "inputs": [],
            "name": "communityAddress",
            "outputs": [
                {
                    "internalType": "address",
                    "name": "",
                    "type": "address"
                }
            ],
            "stateMutability": "view",
            "type": "function"
        },
        {
            "inputs": [
                {
                    "internalType": "uint256",
                    "name": "_milestoneId",
                    "type": "uint256"
                },
                {
                    "internalType": "address",
                    "name": "completor",
                    "type": "address"
                }
            ],
            "name": "completeMilestone",
            "outputs": [],
            "stateMutability": "nonpayable",
            "type": "function"
        },
        {
            "inputs": [
                {
                    "internalType": "uint256",
                    "name": "",
                    "type": "uint256"
                }
            ],
            "name": "contributedProjects",
            "outputs": [
                {
                    "internalType": "uint256",
                    "name": "",
                    "type": "uint256"
                }
            ],
            "stateMutability": "view",
            "type": "function"
        },
        {
            "inputs": [
                {
                    "internalType": "address",
                    "name": "creator",
                    "type": "address"
                },
                {
                    "internalType": "uint256",
                    "name": "_ditoCredits",
                    "type": "uint256"
                },
                {
                    "internalType": "string",
                    "name": "_metadataUrl",
                    "type": "string"
                },
                {
                    "internalType": "uint256",
                    "name": "_projectId",
                    "type": "uint256"
                }
            ],
            "name": "createMilestone",
            "outputs": [],
            "stateMutability": "nonpayable",
            "type": "function"
        },
        {
            "inputs": [],
            "name": "distributionInProgress",
            "outputs": [
                {
                    "internalType": "bool",
                    "name": "",
                    "type": "bool"
                }
            ],
            "stateMutability": "view",
            "type": "function"
        },
        {
            "inputs": [
                {
                    "internalType": "uint256",
                    "name": "tokenId",
                    "type": "uint256"
                }
            ],
            "name": "getApproved",
            "outputs": [
                {
                    "internalType": "address",
                    "name": "",
                    "type": "address"
                }
            ],
            "stateMutability": "view",
            "type": "function"
        },
        {
            "inputs": [],
            "name": "getCommunity",
            "outputs": [
                {
                    "internalType": "address",
                    "name": "",
                    "type": "address"
                }
            ],
            "stateMutability": "view",
            "type": "function"
        },
        {
            "inputs": [
                {
                    "internalType": "address",
                    "name": "owner",
                    "type": "address"
                },
                {
                    "internalType": "address",
                    "name": "operator",
                    "type": "address"
                }
            ],
            "name": "isApprovedForAll",
            "outputs": [
                {
                    "internalType": "bool",
                    "name": "",
                    "type": "bool"
                }
            ],
            "stateMutability": "view",
            "type": "function"
        },
        {
            "inputs": [
                {
                    "internalType": "uint256",
                    "name": "",
                    "type": "uint256"
                }
            ],
            "name": "isValidated",
            "outputs": [
                {
                    "internalType": "bool",
                    "name": "",
                    "type": "bool"
                }
            ],
            "stateMutability": "view",
            "type": "function"
        },
        {
            "inputs": [
                {
                    "internalType": "uint256",
                    "name": "",
                    "type": "uint256"
                }
            ],
            "name": "milestones",
            "outputs": [
                {
                    "internalType": "uint256",
                    "name": "projectId",
                    "type": "uint256"
                },
                {
                    "internalType": "address",
                    "name": "creator",
                    "type": "address"
                },
                {
                    "internalType": "address",
                    "name": "taker",
                    "type": "address"
                },
                {
                    "internalType": "uint256",
                    "name": "ditoCredits",
                    "type": "uint256"
                },
                {
                    "internalType": "enum MilestoneStatuses.MilestoneStatus",
                    "name": "status",
                    "type": "uint8"
                }
            ],
            "stateMutability": "view",
            "type": "function"
        },
        {
            "inputs": [],
            "name": "name",
            "outputs": [
                {
                    "internalType": "string",
                    "name": "",
                    "type": "string"
                }
            ],
            "stateMutability": "view",
            "type": "function"
        },
        {
            "inputs": [
                {
                    "internalType": "uint256",
                    "name": "tokenId",
                    "type": "uint256"
                }
            ],
            "name": "ownerOf",
            "outputs": [
                {
                    "internalType": "address",
                    "name": "",
                    "type": "address"
                }
            ],
            "stateMutability": "view",
            "type": "function"
        },
        {
            "inputs": [],
            "name": "popContributedProjects",
            "outputs": [
                {
                    "internalType": "uint256[]",
                    "name": "",
                    "type": "uint256[]"
                }
            ],
            "stateMutability": "nonpayable",
            "type": "function"
        },
        {
            "inputs": [
                {
                    "internalType": "uint256",
                    "name": "projectId",
                    "type": "uint256"
                }
            ],
            "name": "popContributionsPerProject",
            "outputs": [
                {
                    "internalType": "uint256[]",
                    "name": "",
                    "type": "uint256[]"
                }
            ],
            "stateMutability": "nonpayable",
            "type": "function"
        },
        {
            "inputs": [],
            "name": "popTotalCommunityContributions",
            "outputs": [
                {
                    "internalType": "uint256[]",
                    "name": "",
                    "type": "uint256[]"
                }
            ],
            "stateMutability": "nonpayable",
            "type": "function"
        },
        {
            "inputs": [
                {
                    "internalType": "uint256",
                    "name": "",
                    "type": "uint256"
                },
                {
                    "internalType": "uint256",
                    "name": "",
                    "type": "uint256"
                }
            ],
            "name": "projectMilestones",
            "outputs": [
                {
                    "internalType": "uint256",
                    "name": "",
                    "type": "uint256"
                }
            ],
            "stateMutability": "view",
            "type": "function"
        },
        {
            "inputs": [],
            "name": "projectsNum",
            "outputs": [
                {
                    "internalType": "uint256",
                    "name": "",
                    "type": "uint256"
                }
            ],
            "stateMutability": "view",
            "type": "function"
        },
        {
            "inputs": [],
            "name": "q2t",
            "outputs": [
                {
                    "internalType": "address",
                    "name": "",
                    "type": "address"
                }
            ],
            "stateMutability": "view",
            "type": "function"
        },
        {
            "inputs": [
                {
                    "internalType": "address",
                    "name": "from",
                    "type": "address"
                },
                {
                    "internalType": "address",
                    "name": "to",
                    "type": "address"
                },
                {
                    "internalType": "uint256",
                    "name": "tokenId",
                    "type": "uint256"
                }
            ],
            "name": "safeTransferFrom",
            "outputs": [],
            "stateMutability": "nonpayable",
            "type": "function"
        },
        {
            "inputs": [
                {
                    "internalType": "address",
                    "name": "from",
                    "type": "address"
                },
                {
                    "internalType": "address",
                    "name": "to",
                    "type": "address"
                },
                {
                    "internalType": "uint256",
                    "name": "tokenId",
                    "type": "uint256"
                },
                {
                    "internalType": "bytes",
                    "name": "_data",
                    "type": "bytes"
                }
            ],
            "name": "safeTransferFrom",
            "outputs": [],
            "stateMutability": "nonpayable",
            "type": "function"
        },
        {
            "inputs": [
                {
                    "internalType": "address",
                    "name": "operator",
                    "type": "address"
                },
                {
                    "internalType": "bool",
                    "name": "approved",
                    "type": "bool"
                }
            ],
            "name": "setApprovalForAll",
            "outputs": [],
            "stateMutability": "nonpayable",
            "type": "function"
        },
        {
            "inputs": [
                {
                    "internalType": "address",
                    "name": "_q2t",
                    "type": "address"
                }
            ],
            "name": "setQ2T",
            "outputs": [],
            "stateMutability": "nonpayable",
            "type": "function"
        },
        {
            "inputs": [
                {
                    "internalType": "uint256",
                    "name": "_milestoneId",
                    "type": "uint256"
                },
                {
                    "internalType": "address",
                    "name": "submitter",
                    "type": "address"
                }
            ],
            "name": "submitMilestone",
            "outputs": [],
            "stateMutability": "nonpayable",
            "type": "function"
        },
        {
            "inputs": [
                {
                    "internalType": "bytes4",
                    "name": "interfaceId",
                    "type": "bytes4"
                }
            ],
            "name": "supportsInterface",
            "outputs": [
                {
                    "internalType": "bool",
                    "name": "",
                    "type": "bool"
                }
            ],
            "stateMutability": "view",
            "type": "function"
        },
        {
            "inputs": [],
            "name": "symbol",
            "outputs": [
                {
                    "internalType": "string",
                    "name": "",
                    "type": "string"
                }
            ],
            "stateMutability": "view",
            "type": "function"
        },
        {
            "inputs": [
                {
                    "internalType": "uint256",
                    "name": "_milestoneId",
                    "type": "uint256"
                },
                {
                    "internalType": "address",
                    "name": "taker",
                    "type": "address"
                }
            ],
            "name": "takeMilestone",
            "outputs": [],
            "stateMutability": "nonpayable",
            "type": "function"
        },
        {
            "inputs": [
                {
                    "internalType": "uint256",
                    "name": "index",
                    "type": "uint256"
                }
            ],
            "name": "tokenByIndex",
            "outputs": [
                {
                    "internalType": "uint256",
                    "name": "",
                    "type": "uint256"
                }
            ],
            "stateMutability": "view",
            "type": "function"
        },
        {
            "inputs": [
                {
                    "internalType": "address",
                    "name": "owner",
                    "type": "address"
                },
                {
                    "internalType": "uint256",
                    "name": "index",
                    "type": "uint256"
                }
            ],
            "name": "tokenOfOwnerByIndex",
            "outputs": [
                {
                    "internalType": "uint256",
                    "name": "",
                    "type": "uint256"
                }
            ],
            "stateMutability": "view",
            "type": "function"
        },
        {
            "inputs": [
                {
                    "internalType": "uint256",
                    "name": "tokenId",
                    "type": "uint256"
                }
            ],
            "name": "tokenURI",
            "outputs": [
                {
                    "internalType": "string",
                    "name": "",
                    "type": "string"
                }
            ],
            "stateMutability": "view",
            "type": "function"
        },
        {
            "inputs": [
                {
                    "internalType": "uint256",
                    "name": "",
                    "type": "uint256"
                }
            ],
            "name": "totalContributions",
            "outputs": [
                {
                    "internalType": "uint256",
                    "name": "",
                    "type": "uint256"
                }
            ],
            "stateMutability": "view",
            "type": "function"
        },
        {
            "inputs": [],
            "name": "totalSupply",
            "outputs": [
                {
                    "internalType": "uint256",
                    "name": "",
                    "type": "uint256"
                }
            ],
            "stateMutability": "view",
            "type": "function"
        },
        {
            "inputs": [
                {
                    "internalType": "address",
                    "name": "from",
                    "type": "address"
                },
                {
                    "internalType": "address",
                    "name": "to",
                    "type": "address"
                },
                {
                    "internalType": "uint256",
                    "name": "tokenId",
                    "type": "uint256"
                }
            ],
            "name": "transferFrom",
            "outputs": [],
            "stateMutability": "nonpayable",
            "type": "function"
        },
        {
            "inputs": [
                {
                    "internalType": "uint256",
                    "name": "_milestoneId",
                    "type": "uint256"
                }
            ],
            "name": "validate",
            "outputs": [],
            "stateMutability": "nonpayable",
            "type": "function"
        }
    ],
    "bytecode": "0x60806040523480156200001157600080fd5b5060405162004fe038038062004fe08339818101604052810190620000379190620003b1565b6040518060400160405280600a81526020017f4d696c6573746f6e6573000000000000000000000000000000000000000000008152506040518060400160405280600481526020017f4d4c535400000000000000000000000000000000000000000000000000000000815250620000bb6301ffc9a760e01b620001db60201b60201c565b8160069080519060200190620000d3929190620002e4565b508060079080519060200190620000ec929190620002e4565b50620001056380ac58cd60e01b620001db60201b60201c565b6200011d635b5e139f60e01b620001db60201b60201c565b6200013563780e9d6360e01b620001db60201b60201c565b505080601360006101000a81548173ffffffffffffffffffffffffffffffffffffffff021916908373ffffffffffffffffffffffffffffffffffffffff16021790555033601260006101000a81548173ffffffffffffffffffffffffffffffffffffffff021916908373ffffffffffffffffffffffffffffffffffffffff1602179055506000601260146101000a81548160ff021916908315150217905550506200042b565b63ffffffff60e01b817bffffffffffffffffffffffffffffffffffffffffffffffffffffffff1916141562000278576040517f08c379a000000000000000000000000000000000000000000000000000000000815260040180806020018281038252601c8152602001807f4552433136353a20696e76616c696420696e746572666163652069640000000081525060200191505060405180910390fd5b6001600080837bffffffffffffffffffffffffffffffffffffffffffffffffffffffff19167bffffffffffffffffffffffffffffffffffffffffffffffffffffffff1916815260200190815260200160002060006101000a81548160ff02191690831515021790555050565b828054600181600116156101000203166002900490600052602060002090601f0160209004810192826200031c576000855562000368565b82601f106200033757805160ff191683800117855562000368565b8280016001018555821562000368579182015b82811115620003675782518255916020019190600101906200034a565b5b5090506200037791906200037b565b5090565b5b80821115620003965760008160009055506001016200037c565b5090565b600081519050620003ab8162000411565b92915050565b600060208284031215620003c457600080fd5b6000620003d4848285016200039a565b91505092915050565b6000620003ea82620003f1565b9050919050565b600073ffffffffffffffffffffffffffffffffffffffff82169050919050565b6200041c81620003dd565b81146200042857600080fd5b50565b614ba5806200043b6000396000f3fe608060405234801561001057600080fd5b506004361061021c5760003560e01c806370a0823111610125578063c87b56dd116100ad578063e377672e1161007c578063e377672e14610675578063e89e4ed614610691578063e985e9c5146106c5578063eaad31e1146106f5578063f7df18dd146107135761021c565b8063c87b56dd146105dd578063ce4d01a31461060d578063d4d7012814610629578063e00fb6cb146106595761021c565b80639db4d4a0116100f45780639db4d4a014610539578063a22cb46514610569578063a9c2e34b14610585578063b88d4fde146105a3578063c51db6b2146105bf5761021c565b806370a08231146104b157806372d9184f146104e157806386e476dd146104fd57806395d89b411461051b5761021c565b80632f745c59116101a85780634f6ccce7116101775780634f6ccce7146103e557806350614c56146104155780636352211e146104335780636c0360eb146104635780636cb0adba146104815761021c565b80632f745c5914610361578063343d2cba1461039157806342842e0e146103ad5780634711d200146103c95761021c565b8063081812fc116101ef578063081812fc146102bd578063095ea7b3146102ed57806318160ddd1461030957806323b872dd14610327578063273e0ad3146103435761021c565b806301ffc9a714610221578063027f8b7d14610251578063028d7df31461026f57806306fdde031461029f575b600080fd5b61023b60048036038101906102369190613e20565b610743565b60405161024891906143f5565b60405180910390f35b6102596107aa565b60405161026691906143d3565b60405180910390f35b61028960048036038101906102849190613e49565b610830565b604051610296919061459b565b60405180910390f35b6102a7610854565b6040516102b49190614439565b60405180910390f35b6102d760048036038101906102d29190613e49565b6108f6565b6040516102e4919061438f565b60405180910390f35b61030760048036038101906103029190613d40565b610991565b005b610311610ad5565b60405161031e919061459b565b60405180910390f35b610341600480360381019061033c9190613c3a565b610ae6565b005b61034b610b5c565b604051610358919061438f565b60405180910390f35b61037b60048036038101906103769190613d40565b610b82565b604051610388919061459b565b60405180910390f35b6103ab60048036038101906103a69190613bd5565b610bdd565b005b6103c760048036038101906103c29190613c3a565b610cb1565b005b6103e360048036038101906103de9190613e9b565b610cd1565b005b6103ff60048036038101906103fa9190613e49565b610ddf565b60405161040c919061459b565b60405180910390f35b61041d610e02565b60405161042a91906143f5565b60405180910390f35b61044d60048036038101906104489190613e49565b610e15565b60405161045a919061438f565b60405180910390f35b61046b610e4c565b6040516104789190614439565b60405180910390f35b61049b60048036038101906104969190613ed7565b610eee565b6040516104a8919061459b565b60405180910390f35b6104cb60048036038101906104c69190613bd5565b610f1f565b6040516104d8919061459b565b60405180910390f35b6104fb60048036038101906104f69190613e9b565b610ff4565b005b610505611214565b604051610512919061438f565b60405180910390f35b61052361123a565b6040516105309190614439565b60405180910390f35b610553600480360381019061054e9190613e49565b6112dc565b60405161056091906143f5565b60405180910390f35b610583600480360381019061057e9190613d04565b6112fc565b005b61058d6114b2565b60405161059a91906143d3565b60405180910390f35b6105bd60048036038101906105b89190613c89565b6115ae565b005b6105c7611626565b6040516105d4919061438f565b60405180910390f35b6105f760048036038101906105f29190613e49565b611650565b6040516106049190614439565b60405180910390f35b61062760048036038101906106229190613e49565b611921565b005b610643600480360381019061063e9190613e49565b611dea565b604051610650919061459b565b60405180910390f35b610673600480360381019061066e9190613d7c565b611e0e565b005b61068f600480360381019061068a9190613e9b565b61215d565b005b6106ab60048036038101906106a69190613e49565b6122bb565b6040516106bc9594939291906145b6565b60405180910390f35b6106df60048036038101906106da9190613bfe565b61233e565b6040516106ec91906143f5565b60405180910390f35b6106fd6123d2565b60405161070a919061459b565b60405180910390f35b61072d60048036038101906107289190613e49565b6123df565b60405161073a91906143d3565b60405180910390f35b6000806000837bffffffffffffffffffffffffffffffffffffffffffffffffffffffff19167bffffffffffffffffffffffffffffffffffffffffffffffffffffffff1916815260200190815260200160002060009054906101000a900460ff169050919050565b60608060108054806020026020016040519081016040528092919081815260200182805480156107f957602002820191906000526020600020905b8154815260200190600101908083116107e5575b505050505090506010600061080e919061397d565b6000601260146101000a81548160ff0219169083151502179055508091505090565b6010818154811061084057600080fd5b906000526020600020016000915090505481565b606060068054600181600116156101000203166002900480601f0160208091040260200160405190810160405280929190818152602001828054600181600116156101000203166002900480156108ec5780601f106108c1576101008083540402835291602001916108ec565b820191906000526020600020905b8154815290600101906020018083116108cf57829003601f168201915b5050505050905090565b6000610901826124ff565b610956576040517f08c379a000000000000000000000000000000000000000000000000000000000815260040180806020018281038252602c815260200180614a6e602c913960400191505060405180910390fd5b6004600083815260200190815260200160002060009054906101000a900473ffffffffffffffffffffffffffffffffffffffff169050919050565b600061099c82610e15565b90508073ffffffffffffffffffffffffffffffffffffffff168373ffffffffffffffffffffffffffffffffffffffff161415610a23576040517f08c379a0000000000000000000000000000000000000000000000000000000008152600401808060200182810382526021815260200180614b1e6021913960400191505060405180910390fd5b8073ffffffffffffffffffffffffffffffffffffffff16610a4261251c565b73ffffffffffffffffffffffffffffffffffffffff161480610a715750610a7081610a6b61251c565b61233e565b5b610ac6576040517f08c379a00000000000000000000000000000000000000000000000000000000081526004018080602001828103825260388152602001806149c16038913960400191505060405180910390fd5b610ad08383612524565b505050565b6000610ae160026125dd565b905090565b610af7610af161251c565b826125f2565b610b4c576040517f08c379a0000000000000000000000000000000000000000000000000000000008152600401808060200182810382526031815260200180614b3f6031913960400191505060405180910390fd5b610b578383836126e6565b505050565b601260009054906101000a900473ffffffffffffffffffffffffffffffffffffffff1681565b6000610bd582600160008673ffffffffffffffffffffffffffffffffffffffff1673ffffffffffffffffffffffffffffffffffffffff16815260200190815260200160002061292990919063ffffffff16565b905092915050565b601260009054906101000a900473ffffffffffffffffffffffffffffffffffffffff1673ffffffffffffffffffffffffffffffffffffffff163373ffffffffffffffffffffffffffffffffffffffff1614610c6d576040517f08c379a0000000000000000000000000000000000000000000000000000000008152600401610c649061455b565b60405180910390fd5b80601260006101000a81548173ffffffffffffffffffffffffffffffffffffffff021916908373ffffffffffffffffffffffffffffffffffffffff16021790555050565b610ccc838383604051806020016040528060008152506115ae565b505050565b8073ffffffffffffffffffffffffffffffffffffffff16600c600084815260200190815260200160002060020160009054906101000a900473ffffffffffffffffffffffffffffffffffffffff1673ffffffffffffffffffffffffffffffffffffffff1614610d75576040517f08c379a0000000000000000000000000000000000000000000000000000000008152600401610d6c9061445b565b60405180910390fd5b610da482600c600085815260200190815260200160002060040160009054906101000a900460ff166002612943565b7f6670b87ece4bf5ff8e422301a14d59d43b4f9d17c2f96c6c37ca8a073efda7f582604051610dd3919061459b565b60405180910390a15050565b600080610df6836002612ad390919063ffffffff16565b50905080915050919050565b601260149054906101000a900460ff1681565b6000610e4582604051806060016040528060298152602001614a23602991396002612aff9092919063ffffffff16565b9050919050565b606060098054600181600116156101000203166002900480601f016020809104026020016040519081016040528092919081815260200182805460018160011615610100020316600290048015610ee45780601f10610eb957610100808354040283529160200191610ee4565b820191906000526020600020905b815481529060010190602001808311610ec757829003601f168201915b5050505050905090565b600d6020528160005260406000208181548110610f0a57600080fd5b90600052602060002001600091509150505481565b60008073ffffffffffffffffffffffffffffffffffffffff168273ffffffffffffffffffffffffffffffffffffffff161415610fa6576040517f08c379a000000000000000000000000000000000000000000000000000000000815260040180806020018281038252602a8152602001806149f9602a913960400191505060405180910390fd5b610fed600160008473ffffffffffffffffffffffffffffffffffffffff1673ffffffffffffffffffffffffffffffffffffffff168152602001908152602001600020612b1e565b9050919050565b8073ffffffffffffffffffffffffffffffffffffffff1661101483610e15565b73ffffffffffffffffffffffffffffffffffffffff16141561106b576040517f08c379a0000000000000000000000000000000000000000000000000000000008152600401611062906144bb565b60405180910390fd5b601360009054906101000a900473ffffffffffffffffffffffffffffffffffffffff1673ffffffffffffffffffffffffffffffffffffffff1663a230c524826040518263ffffffff1660e01b81526004016110c6919061438f565b60206040518083038186803b1580156110de57600080fd5b505afa1580156110f2573d6000803e3d6000fd5b505050506040513d601f19601f820116820180604052508101906111169190613df7565b611155576040517f08c379a000000000000000000000000000000000000000000000000000000000815260040161114c9061451b565b60405180910390fd5b61118482600c600085815260200190815260200160002060040160009054906101000a900460ff166001612943565b80600c600084815260200190815260200160002060020160006101000a81548173ffffffffffffffffffffffffffffffffffffffff021916908373ffffffffffffffffffffffffffffffffffffffff1602179055507f72503442d65992b1312625ee20f46cf6db579203f0d8bc261d1e50ea382288a282604051611208919061459b565b60405180910390a15050565b600b60009054906101000a900473ffffffffffffffffffffffffffffffffffffffff1681565b606060078054600181600116156101000203166002900480601f0160208091040260200160405190810160405280929190818152602001828054600181600116156101000203166002900480156112d25780601f106112a7576101008083540402835291602001916112d2565b820191906000526020600020905b8154815290600101906020018083116112b557829003601f168201915b5050505050905090565b600e6020528060005260406000206000915054906101000a900460ff1681565b61130461251c565b73ffffffffffffffffffffffffffffffffffffffff168273ffffffffffffffffffffffffffffffffffffffff1614156113a5576040517f08c379a00000000000000000000000000000000000000000000000000000000081526004018080602001828103825260198152602001807f4552433732313a20617070726f766520746f2063616c6c65720000000000000081525060200191505060405180910390fd5b80600560006113b261251c565b73ffffffffffffffffffffffffffffffffffffffff1673ffffffffffffffffffffffffffffffffffffffff16815260200190815260200160002060008473ffffffffffffffffffffffffffffffffffffffff1673ffffffffffffffffffffffffffffffffffffffff16815260200190815260200160002060006101000a81548160ff0219169083151502179055508173ffffffffffffffffffffffffffffffffffffffff1661145f61251c565b73ffffffffffffffffffffffffffffffffffffffff167f17307eab39ab6107e8899845ad3d59bd9653f200f220920489ca2b5937696c318360405180821515815260200191505060405180910390a35050565b6060601260009054906101000a900473ffffffffffffffffffffffffffffffffffffffff1673ffffffffffffffffffffffffffffffffffffffff163373ffffffffffffffffffffffffffffffffffffffff1614611544576040517f08c379a000000000000000000000000000000000000000000000000000000000815260040161153b9061455b565b60405180910390fd5b6060601180548060200260200160405190810160405280929190818152602001828054801561159257602002820191906000526020600020905b81548152602001906001019080831161157e575b50505050509050601160006115a7919061397d565b8091505090565b6115bf6115b961251c565b836125f2565b611614576040517f08c379a0000000000000000000000000000000000000000000000000000000008152600401808060200182810382526031815260200180614b3f6031913960400191505060405180910390fd5b61162084848484612b33565b50505050565b6000601360009054906101000a900473ffffffffffffffffffffffffffffffffffffffff16905090565b606061165b826124ff565b6116b0576040517f08c379a000000000000000000000000000000000000000000000000000000000815260040180806020018281038252602f815260200180614aef602f913960400191505060405180910390fd5b6060600860008481526020019081526020016000208054600181600116156101000203166002900480601f0160208091040260200160405190810160405280929190818152602001828054600181600116156101000203166002900480156117595780601f1061172e57610100808354040283529160200191611759565b820191906000526020600020905b81548152906001019060200180831161173c57829003601f168201915b50505050509050606061176a610e4c565b905060008151141561178057819250505061191c565b6000825111156118515780826040516020018083805190602001908083835b602083106117c2578051825260208201915060208101905060208303925061179f565b6001836020036101000a03801982511681845116808217855250505050505090500182805190602001908083835b6020831061181357805182526020820191506020810190506020830392506117f0565b6001836020036101000a038019825116818451168082178552505050505050905001925050506040516020818303038152906040529250505061191c565b8061185b85612ba5565b6040516020018083805190602001908083835b60208310611891578051825260208201915060208101905060208303925061186e565b6001836020036101000a03801982511681845116808217855250505050505090500182805190602001908083835b602083106118e257805182526020820191506020810190506020830392506118bf565b6001836020036101000a03801982511681845116808217855250505050505090500192505050604051602081830303815290604052925050505b919050565b6001600e600083815260200190815260200160002060006101000a81548160ff02191690831515021790555061195561399e565b600c60008381526020019081526020016000206040518060a0016040529081600082015481526020016001820160009054906101000a900473ffffffffffffffffffffffffffffffffffffffff1673ffffffffffffffffffffffffffffffffffffffff1673ffffffffffffffffffffffffffffffffffffffff1681526020016002820160009054906101000a900473ffffffffffffffffffffffffffffffffffffffff1673ffffffffffffffffffffffffffffffffffffffff1673ffffffffffffffffffffffffffffffffffffffff168152602001600382015481526020016004820160009054906101000a900460ff166003811115611a5157fe5b6003811115611a5c57fe5b815250509050600380811115611a6e57fe5b81608001516003811115611a7e57fe5b1415611da957601360009054906101000a900473ffffffffffffffffffffffffffffffffffffffff1673ffffffffffffffffffffffffffffffffffffffff1663063d11de82606001516040518263ffffffff1660e01b8152600401611ae3919061459b565b600060405180830381600087803b158015611afd57600080fd5b505af1158015611b11573d6000803e3d6000fd5b505050506000601360009054906101000a900473ffffffffffffffffffffffffffffffffffffffff1673ffffffffffffffffffffffffffffffffffffffff16639b5655dc6040518163ffffffff1660e01b815260040160206040518083038186803b158015611b7f57600080fd5b505afa158015611b93573d6000803e3d6000fd5b505050506040513d601f19601f82011682018060405250810190611bb79190613e72565b90506107d0811115611c88576000600f600084600001518152602001908152602001600020805490501415611c14576010826000015190806001815401808255809150506001900390600052602060002001600090919091909150555b600f60008360000151815260200190815260200160002082606001519080600181540180825580915050600190039060005260206000200160009091909190915055601182606001519080600181540180825580915050600190039060005260206000200160009091909190915055611d63565b601260009054906101000a900473ffffffffffffffffffffffffffffffffffffffff1673ffffffffffffffffffffffffffffffffffffffff1663dcc2e0006040518163ffffffff1660e01b8152600401600060405180830381600087803b158015611cf257600080fd5b505af1158015611d06573d6000803e3d6000fd5b505050506001601260146101000a81548160ff0219169083151502179055507f9b8b0b7a9cb146d9e672f5b9c7582a88310fc2941f4cda0acb7652d443d49c20838360000151604051611d5a929190614677565b60405180910390a15b7f87b2ee2368fc1e869733732809f91172217ac0358f026a1f7c61844b9ef7e5698360018460600151604051611d9b93929190614640565b60405180910390a150611de6565b7f87b2ee2368fc1e869733732809f91172217ac0358f026a1f7c61844b9ef7e56982600080604051611ddd93929190614609565b60405180910390a15b5050565b60118181548110611dfa57600080fd5b906000526020600020016000915090505481565b601360009054906101000a900473ffffffffffffffffffffffffffffffffffffffff1673ffffffffffffffffffffffffffffffffffffffff1663a230c524856040518263ffffffff1660e01b8152600401611e69919061438f565b60206040518083038186803b158015611e8157600080fd5b505afa158015611e95573d6000803e3d6000fd5b505050506040513d601f19601f82011682018060405250810190611eb99190613df7565b611ef8576040517f08c379a0000000000000000000000000000000000000000000000000000000008152600401611eef906144db565b60405180910390fd5b60068310158015611f0b57506102d08311155b611f4a576040517f08c379a0000000000000000000000000000000000000000000000000000000008152600401611f419061447b565b60405180910390fd5b6000611f56600a612cec565b9050611f628582612cfa565b611f6c8184612eee565b6040518060a001604052808381526020018673ffffffffffffffffffffffffffffffffffffffff168152602001600073ffffffffffffffffffffffffffffffffffffffff16815260200185815260200160006003811115611fc957fe5b815250600c60008381526020019081526020016000206000820151816000015560208201518160010160006101000a81548173ffffffffffffffffffffffffffffffffffffffff021916908373ffffffffffffffffffffffffffffffffffffffff16021790555060408201518160020160006101000a81548173ffffffffffffffffffffffffffffffffffffffff021916908373ffffffffffffffffffffffffffffffffffffffff1602179055506060820151816003015560808201518160040160006101000a81548160ff021916908360038111156120a557fe5b0217905550905050600d60008381526020019081526020016000208190806001815401808255809150506001900390600052602060002001600090919091909150556000600e600083815260200190815260200160002060006101000a81548160ff02191690831515021790555061211d600a612f78565b7f0602e1ee094e5b9bca3008c6dc2b270c10b72e5ad44b52232b6ababb78d6d89e858260405161214e9291906143aa565b60405180910390a15050505050565b601260149054906101000a900460ff16156121ad576040517f08c379a00000000000000000000000000000000000000000000000000000000081526004016121a49061449b565b60405180910390fd5b8073ffffffffffffffffffffffffffffffffffffffff16600c600084815260200190815260200160002060010160009054906101000a900473ffffffffffffffffffffffffffffffffffffffff1673ffffffffffffffffffffffffffffffffffffffff1614612251576040517f08c379a00000000000000000000000000000000000000000000000000000000081526004016122489061457b565b60405180910390fd5b61228082600c600085815260200190815260200160002060040160009054906101000a900460ff166003612943565b7f41f5e423c5ae79dcb8565618891e74a7a6e76232568150b33d79001a62391b1e826040516122af919061459b565b60405180910390a15050565b600c6020528060005260406000206000915090508060000154908060010160009054906101000a900473ffffffffffffffffffffffffffffffffffffffff16908060020160009054906101000a900473ffffffffffffffffffffffffffffffffffffffff16908060030154908060040160009054906101000a900460ff16905085565b6000600560008473ffffffffffffffffffffffffffffffffffffffff1673ffffffffffffffffffffffffffffffffffffffff16815260200190815260200160002060008373ffffffffffffffffffffffffffffffffffffffff1673ffffffffffffffffffffffffffffffffffffffff16815260200190815260200160002060009054906101000a900460ff16905092915050565b6000601080549050905090565b6060601260009054906101000a900473ffffffffffffffffffffffffffffffffffffffff1673ffffffffffffffffffffffffffffffffffffffff163373ffffffffffffffffffffffffffffffffffffffff1614612471576040517f08c379a00000000000000000000000000000000000000000000000000000000081526004016124689061455b565b60405180910390fd5b6060600f60008481526020019081526020016000208054806020026020016040519081016040528092919081815260200182805480156124d057602002820191906000526020600020905b8154815260200190600101908083116124bc575b50505050509050600f600084815260200190815260200160002060006124f6919061397d565b80915050919050565b6000612515826002612f8e90919063ffffffff16565b9050919050565b600033905090565b816004600083815260200190815260200160002060006101000a81548173ffffffffffffffffffffffffffffffffffffffff021916908373ffffffffffffffffffffffffffffffffffffffff160217905550808273ffffffffffffffffffffffffffffffffffffffff1661259783610e15565b73ffffffffffffffffffffffffffffffffffffffff167f8c5be1e5ebec7d5bd14f71427d1e84f3dd0314c0f7b2291e5b200ac8c7c3b92560405160405180910390a45050565b60006125eb82600001612fa8565b9050919050565b60006125fd826124ff565b612652576040517f08c379a000000000000000000000000000000000000000000000000000000000815260040180806020018281038252602c815260200180614995602c913960400191505060405180910390fd5b600061265d83610e15565b90508073ffffffffffffffffffffffffffffffffffffffff168473ffffffffffffffffffffffffffffffffffffffff1614806126cc57508373ffffffffffffffffffffffffffffffffffffffff166126b4846108f6565b73ffffffffffffffffffffffffffffffffffffffff16145b806126dd57506126dc818561233e565b5b91505092915050565b8273ffffffffffffffffffffffffffffffffffffffff1661270682610e15565b73ffffffffffffffffffffffffffffffffffffffff1614612772576040517f08c379a0000000000000000000000000000000000000000000000000000000008152600401808060200182810382526029815260200180614ac66029913960400191505060405180910390fd5b600073ffffffffffffffffffffffffffffffffffffffff168273ffffffffffffffffffffffffffffffffffffffff1614156127f8576040517f08c379a000000000000000000000000000000000000000000000000000000000815260040180806020018281038252602481526020018061494b6024913960400191505060405180910390fd5b612803838383612fb9565b61280e600082612524565b61285f81600160008673ffffffffffffffffffffffffffffffffffffffff1673ffffffffffffffffffffffffffffffffffffffff168152602001908152602001600020612fbe90919063ffffffff16565b506128b181600160008573ffffffffffffffffffffffffffffffffffffffff1673ffffffffffffffffffffffffffffffffffffffff168152602001908152602001600020612fd890919063ffffffff16565b506128c881836002612ff29092919063ffffffff16565b50808273ffffffffffffffffffffffffffffffffffffffff168473ffffffffffffffffffffffffffffffffffffffff167fddf252ad1be2c89b69c2b068fc378daa952ba7f163c4a11628f55a4df523b3ef60405160405180910390a4505050565b60006129388360000183613027565b60001c905092915050565b73__$39e5f0833bea36099f81ee6c8dc80239f4$__6201826783836040518363ffffffff1660e01b815260040161297b929190614410565b60206040518083038186803b15801561299357600080fd5b505af41580156129a7573d6000803e3d6000fd5b505050506040513d601f19601f820116820180604052508101906129cb9190613df7565b612a0a576040517f08c379a0000000000000000000000000000000000000000000000000000000008152600401612a019061453b565b60405180910390fd5b600e600084815260200190815260200160002060009054906101000a900460ff16612a6a576040517f08c379a0000000000000000000000000000000000000000000000000000000008152600401612a61906144fb565b60405180910390fd5b6003600c600085815260200190815260200160002060040160006101000a81548160ff02191690836003811115612a9d57fe5b02179055506000600e600085815260200190815260200160002060006101000a81548160ff021916908315150217905550505050565b600080600080612ae686600001866130aa565b915091508160001c8160001c9350935050509250929050565b6000612b12846000018460001b84613143565b60001c90509392505050565b6000612b2c82600001613239565b9050919050565b612b3e8484846126e6565b612b4a8484848461324a565b612b9f576040517f08c379a00000000000000000000000000000000000000000000000000000000081526004018080602001828103825260328152602001806149196032913960400191505060405180910390fd5b50505050565b60606000821415612bed576040518060400160405280600181526020017f30000000000000000000000000000000000000000000000000000000000000008152509050612ce7565b600082905060005b60008214612c17578080600101915050600a8281612c0f57fe5b049150612bf5565b60608167ffffffffffffffff81118015612c3057600080fd5b506040519080825280601f01601f191660200182016040528015612c635781602001600182028036833780820191505090505b50905060006001830390508593505b60008414612cdf57600a8481612c8457fe5b0660300160f81b82828060019003935081518110612c9e57fe5b60200101907effffffffffffffffffffffffffffffffffffffffffffffffffffffffffffff1916908160001a905350600a8481612cd757fe5b049350612c72565b819450505050505b919050565b600081600001549050919050565b600073ffffffffffffffffffffffffffffffffffffffff168273ffffffffffffffffffffffffffffffffffffffff161415612d9d576040517f08c379a00000000000000000000000000000000000000000000000000000000081526004018080602001828103825260208152602001807f4552433732313a206d696e7420746f20746865207a65726f206164647265737381525060200191505060405180910390fd5b612da6816124ff565b15612e19576040517f08c379a000000000000000000000000000000000000000000000000000000000815260040180806020018281038252601c8152602001807f4552433732313a20746f6b656e20616c7265616479206d696e7465640000000081525060200191505060405180910390fd5b612e2560008383612fb9565b612e7681600160008573ffffffffffffffffffffffffffffffffffffffff1673ffffffffffffffffffffffffffffffffffffffff168152602001908152602001600020612fd890919063ffffffff16565b50612e8d81836002612ff29092919063ffffffff16565b50808273ffffffffffffffffffffffffffffffffffffffff16600073ffffffffffffffffffffffffffffffffffffffff167fddf252ad1be2c89b69c2b068fc378daa952ba7f163c4a11628f55a4df523b3ef60405160405180910390a45050565b612ef7826124ff565b612f4c576040517f08c379a000000000000000000000000000000000000000000000000000000000815260040180806020018281038252602c815260200180614a9a602c913960400191505060405180910390fd5b80600860008481526020019081526020016000209080519060200190612f73929190613a04565b505050565b6001816000016000828254019250508190555050565b6000612fa0836000018360001b613463565b905092915050565b600081600001805490509050919050565b505050565b6000612fd0836000018360001b613486565b905092915050565b6000612fea836000018360001b61356e565b905092915050565b600061301e846000018460001b8473ffffffffffffffffffffffffffffffffffffffff1660001b6135de565b90509392505050565b600081836000018054905011613088576040517f08c379a00000000000000000000000000000000000000000000000000000000081526004018080602001828103825260228152602001806148f76022913960400191505060405180910390fd5b82600001828154811061309757fe5b9060005260206000200154905092915050565b6000808284600001805490501161310c576040517f08c379a0000000000000000000000000000000000000000000000000000000008152600401808060200182810382526022815260200180614a4c6022913960400191505060405180910390fd5b600084600001848154811061311d57fe5b906000526020600020906002020190508060000154816001015492509250509250929050565b6000808460010160008581526020019081526020016000205490506000811415839061320a576040517f08c379a00000000000000000000000000000000000000000000000000000000081526004018080602001828103825283818151815260200191508051906020019080838360005b838110156131cf5780820151818401526020810190506131b4565b50505050905090810190601f1680156131fc5780820380516001836020036101000a031916815260200191505b509250505060405180910390fd5b5084600001600182038154811061321d57fe5b9060005260206000209060020201600101549150509392505050565b600081600001805490509050919050565b600061326b8473ffffffffffffffffffffffffffffffffffffffff166136ba565b613278576001905061345b565b60606133e263150b7a0260e01b61328d61251c565b888787604051602401808573ffffffffffffffffffffffffffffffffffffffff1681526020018473ffffffffffffffffffffffffffffffffffffffff16815260200183815260200180602001828103825283818151815260200191508051906020019080838360005b838110156133115780820151818401526020810190506132f6565b50505050905090810190601f16801561333e5780820380516001836020036101000a031916815260200191505b5095505050505050604051602081830303815290604052907bffffffffffffffffffffffffffffffffffffffffffffffffffffffff19166020820180517bffffffffffffffffffffffffffffffffffffffffffffffffffffffff8381831617835250505050604051806060016040528060328152602001614919603291398773ffffffffffffffffffffffffffffffffffffffff166136cd9092919063ffffffff16565b905060008180602001905160208110156133fb57600080fd5b8101908080519060200190929190505050905063150b7a0260e01b7bffffffffffffffffffffffffffffffffffffffffffffffffffffffff1916817bffffffffffffffffffffffffffffffffffffffffffffffffffffffff191614925050505b949350505050565b600080836001016000848152602001908152602001600020541415905092915050565b6000808360010160008481526020019081526020016000205490506000811461356257600060018203905060006001866000018054905003905060008660000182815481106134d157fe5b90600052602060002001549050808760000184815481106134ee57fe5b906000526020600020018190555060018301876001016000838152602001908152602001600020819055508660000180548061352657fe5b60019003818190600052602060002001600090559055866001016000878152602001908152602001600020600090556001945050505050613568565b60009150505b92915050565b600061357a83836136e5565b6135d35782600001829080600181540180825580915050600190039060005260206000200160009091909190915055826000018054905083600101600084815260200190815260200160002081905550600190506135d8565b600090505b92915050565b6000808460010160008581526020019081526020016000205490506000811415613685578460000160405180604001604052808681526020018581525090806001815401808255809150506001900390600052602060002090600202016000909190919091506000820151816000015560208201518160010155505084600001805490508560010160008681526020019081526020016000208190555060019150506136b3565b8285600001600183038154811061369857fe5b90600052602060002090600202016001018190555060009150505b9392505050565b600080823b905060008111915050919050565b60606136dc8484600085613708565b90509392505050565b600080836001016000848152602001908152602001600020541415905092915050565b606082471015613763576040517f08c379a000000000000000000000000000000000000000000000000000000000815260040180806020018281038252602681526020018061496f6026913960400191505060405180910390fd5b61376c856136ba565b6137de576040517f08c379a000000000000000000000000000000000000000000000000000000000815260040180806020018281038252601d8152602001807f416464726573733a2063616c6c20746f206e6f6e2d636f6e747261637400000081525060200191505060405180910390fd5b600060608673ffffffffffffffffffffffffffffffffffffffff1685876040518082805190602001908083835b6020831061382e578051825260208201915060208101905060208303925061380b565b6001836020036101000a03801982511681845116808217855250505050505090500191505060006040518083038185875af1925050503d8060008114613890576040519150601f19603f3d011682016040523d82523d6000602084013e613895565b606091505b50915091506138a58282866138b1565b92505050949350505050565b606083156138c157829050613976565b6000835111156138d45782518084602001fd5b816040517f08c379a00000000000000000000000000000000000000000000000000000000081526004018080602001828103825283818151815260200191508051906020019080838360005b8381101561393b578082015181840152602081019050613920565b50505050905090810190601f1680156139685780820380516001836020036101000a031916815260200191505b509250505060405180910390fd5b9392505050565b508054600082559060005260206000209081019061399b9190613a92565b50565b6040518060a0016040528060008152602001600073ffffffffffffffffffffffffffffffffffffffff168152602001600073ffffffffffffffffffffffffffffffffffffffff16815260200160008152602001600060038111156139fe57fe5b81525090565b828054600181600116156101000203166002900490600052602060002090601f016020900481019282613a3a5760008555613a81565b82601f10613a5357805160ff1916838001178555613a81565b82800160010185558215613a81579182015b82811115613a80578251825591602001919060010190613a65565b5b509050613a8e9190613a92565b5090565b5b80821115613aab576000816000905550600101613a93565b5090565b600081359050613abe8161489a565b92915050565b600081359050613ad3816148b1565b92915050565b600081519050613ae8816148b1565b92915050565b600081359050613afd816148c8565b92915050565b600082601f830112613b1457600080fd5b8135613b27613b22826146d1565b6146a0565b91508082526020830160208301858383011115613b4357600080fd5b613b4e838284614831565b50505092915050565b600082601f830112613b6857600080fd5b8135613b7b613b7682614701565b6146a0565b91508082526020830160208301858383011115613b9757600080fd5b613ba2838284614831565b50505092915050565b600081359050613bba816148df565b92915050565b600081519050613bcf816148df565b92915050565b600060208284031215613be757600080fd5b6000613bf584828501613aaf565b91505092915050565b60008060408385031215613c1157600080fd5b6000613c1f85828601613aaf565b9250506020613c3085828601613aaf565b9150509250929050565b600080600060608486031215613c4f57600080fd5b6000613c5d86828701613aaf565b9350506020613c6e86828701613aaf565b9250506040613c7f86828701613bab565b9150509250925092565b60008060008060808587031215613c9f57600080fd5b6000613cad87828801613aaf565b9450506020613cbe87828801613aaf565b9350506040613ccf87828801613bab565b925050606085013567ffffffffffffffff811115613cec57600080fd5b613cf887828801613b03565b91505092959194509250565b60008060408385031215613d1757600080fd5b6000613d2585828601613aaf565b9250506020613d3685828601613ac4565b9150509250929050565b60008060408385031215613d5357600080fd5b6000613d6185828601613aaf565b9250506020613d7285828601613bab565b9150509250929050565b60008060008060808587031215613d9257600080fd5b6000613da087828801613aaf565b9450506020613db187828801613bab565b935050604085013567ffffffffffffffff811115613dce57600080fd5b613dda87828801613b57565b9250506060613deb87828801613bab565b91505092959194509250565b600060208284031215613e0957600080fd5b6000613e1784828501613ad9565b91505092915050565b600060208284031215613e3257600080fd5b6000613e4084828501613aee565b91505092915050565b600060208284031215613e5b57600080fd5b6000613e6984828501613bab565b91505092915050565b600060208284031215613e8457600080fd5b6000613e9284828501613bc0565b91505092915050565b60008060408385031215613eae57600080fd5b6000613ebc85828601613bab565b9250506020613ecd85828601613aaf565b9150509250929050565b60008060408385031215613eea57600080fd5b6000613ef885828601613bab565b9250506020613f0985828601613bab565b9150509250929050565b6000613f1f8383614371565b60208301905092915050565b613f3481614786565b82525050565b6000613f4582614741565b613f4f8185614764565b9350613f5a83614731565b8060005b83811015613f8b578151613f728882613f13565b9750613f7d83614757565b925050600181019050613f5e565b5085935050505092915050565b613fa181614798565b82525050565b613fb08161480d565b82525050565b613fbf8161480d565b82525050565b613fce8161481f565b82525050565b6000613fdf8261474c565b613fe98185614775565b9350613ff9818560208601614840565b61400281614875565b840191505092915050565b600061401a602283614775565b91507f4f6e6c79207468652074616b65722063616e207375626d69742074686520676960008301527f67210000000000000000000000000000000000000000000000000000000000006020830152604082019050919050565b6000614080601783614775565b91507f496e76616c6964206372656469747320616d6f756e742e0000000000000000006000830152602082019050919050565b60006140c0601b83614775565b91507f446973747269627574696f6e20697320696e2070726f677265737300000000006000830152602082019050919050565b6000614100601e83614775565b91507f5468652063726561746f722063616e27742074616b65207468652067696700006000830152602082019050919050565b6000614140604183614775565b91507f5468652063726561746f72206f6620746865206d696c6573746f6e652073686f60008301527f756c642062652061206d656d626572206f662074686520636f6d6d756e69747960208301527f2e000000000000000000000000000000000000000000000000000000000000006040830152606082019050919050565b60006141cc602583614775565b91507f4d696c6573746f6e65206372656174696f6e206e6f74207965742076616c696460008301527f617465642e0000000000000000000000000000000000000000000000000000006020830152604082019050919050565b6000614232602783614775565b91507f5468652074616b65722073686f756c64206265206120636f6d6d756e6974792060008301527f6d656d6265722e000000000000000000000000000000000000000000000000006020830152604082019050919050565b6000614298601983614775565b91507f537461747573206368616e6765206e6f7420616c6c6f776564000000000000006000830152602082019050919050565b60006142d8600e83614775565b91507f43616c6c6572206e6f74205132540000000000000000000000000000000000006000830152602082019050919050565b6000614318602483614775565b91507f43616e20626520636f6d706c657465206f6e6c7920627920746865206372656160008301527f746f722e000000000000000000000000000000000000000000000000000000006020830152604082019050919050565b61437a81614803565b82525050565b61438981614803565b82525050565b60006020820190506143a46000830184613f2b565b92915050565b60006040820190506143bf6000830185613f2b565b6143cc6020830184614380565b9392505050565b600060208201905081810360008301526143ed8184613f3a565b905092915050565b600060208201905061440a6000830184613f98565b92915050565b60006040820190506144256000830185613fb6565b6144326020830184613fb6565b9392505050565b600060208201905081810360008301526144538184613fd4565b905092915050565b600060208201905081810360008301526144748161400d565b9050919050565b6000602082019050818103600083015261449481614073565b9050919050565b600060208201905081810360008301526144b4816140b3565b9050919050565b600060208201905081810360008301526144d4816140f3565b9050919050565b600060208201905081810360008301526144f481614133565b9050919050565b60006020820190508181036000830152614514816141bf565b9050919050565b6000602082019050818103600083015261453481614225565b9050919050565b600060208201905081810360008301526145548161428b565b9050919050565b60006020820190508181036000830152614574816142cb565b9050919050565b600060208201905081810360008301526145948161430b565b9050919050565b60006020820190506145b06000830184614380565b92915050565b600060a0820190506145cb6000830188614380565b6145d86020830187613f2b565b6145e56040830186613f2b565b6145f26060830185614380565b6145ff6080830184613fa7565b9695505050505050565b600060608201905061461e6000830186614380565b61462b6020830185613f98565b6146386040830184613fc5565b949350505050565b60006060820190506146556000830186614380565b6146626020830185613f98565b61466f6040830184614380565b949350505050565b600060408201905061468c6000830185614380565b6146996020830184614380565b9392505050565b6000604051905081810181811067ffffffffffffffff821117156146c7576146c6614873565b5b8060405250919050565b600067ffffffffffffffff8211156146ec576146eb614873565b5b601f19601f8301169050602081019050919050565b600067ffffffffffffffff82111561471c5761471b614873565b5b601f19601f8301169050602081019050919050565b6000819050602082019050919050565b600081519050919050565b600081519050919050565b6000602082019050919050565b600082825260208201905092915050565b600082825260208201905092915050565b6000614791826147e3565b9050919050565b60008115159050919050565b60007fffffffff0000000000000000000000000000000000000000000000000000000082169050919050565b60008190506147de82614886565b919050565b600073ffffffffffffffffffffffffffffffffffffffff82169050919050565b6000819050919050565b6000614818826147d0565b9050919050565b600061482a82614803565b9050919050565b82818337600083830152505050565b60005b8381101561485e578082015181840152602081019050614843565b8381111561486d576000848401525b50505050565bfe5b6000601f19601f8301169050919050565b6004811061489757614896614873565b5b50565b6148a381614786565b81146148ae57600080fd5b50565b6148ba81614798565b81146148c557600080fd5b50565b6148d1816147a4565b81146148dc57600080fd5b50565b6148e881614803565b81146148f357600080fd5b5056fe456e756d657261626c655365743a20696e646578206f7574206f6620626f756e64734552433732313a207472616e7366657220746f206e6f6e20455243373231526563656976657220696d706c656d656e7465724552433732313a207472616e7366657220746f20746865207a65726f2061646472657373416464726573733a20696e73756666696369656e742062616c616e636520666f722063616c6c4552433732313a206f70657261746f7220717565727920666f72206e6f6e6578697374656e7420746f6b656e4552433732313a20617070726f76652063616c6c6572206973206e6f74206f776e6572206e6f7220617070726f76656420666f7220616c6c4552433732313a2062616c616e636520717565727920666f7220746865207a65726f20616464726573734552433732313a206f776e657220717565727920666f72206e6f6e6578697374656e7420746f6b656e456e756d657261626c654d61703a20696e646578206f7574206f6620626f756e64734552433732313a20617070726f76656420717565727920666f72206e6f6e6578697374656e7420746f6b656e4552433732314d657461646174613a2055524920736574206f66206e6f6e6578697374656e7420746f6b656e4552433732313a207472616e73666572206f6620746f6b656e2074686174206973206e6f74206f776e4552433732314d657461646174613a2055524920717565727920666f72206e6f6e6578697374656e7420746f6b656e4552433732313a20617070726f76616c20746f2063757272656e74206f776e65724552433732313a207472616e736665722063616c6c6572206973206e6f74206f776e6572206e6f7220617070726f766564a2646970667358221220ef17db8cbb18d7b76f636e49595dffdf1b1b86d82520f961ae5a08778d3a7e0c64736f6c63430007040033",
    "linkReferences": {
        "contracts/MilestoneStatuses.sol": {
            "MilestoneStatuses": [
                {
                    "length": 20,
                    "start": 11648
                }
            ]
        }
    },
    "deployedLinkReferences": {
        "contracts/MilestoneStatuses.sol": {
            "MilestoneStatuses": [
                {
                    "length": 20,
                    "start": 10565
                }
            ]
        }
    }
}