{
  "_format": "hh-sol-artifact-1",
  "contractName": "Projects",
  "sourceName": "contracts/Projects.sol",
  "abi": [
    {
      "inputs": [
        {
          "internalType": "address",
          "name": "_skillWalletAddress",
          "type": "address"
        }
      ],
      "stateMutability": "nonpayable",
      "type": "constructor"
    },
    {
      "anonymous": false,
      "inputs": [
        {
          "indexed": true,
          "internalType": "address",
          "name": "owner",
          "type": "address"
        },
        {
          "indexed": true,
          "internalType": "address",
          "name": "approved",
          "type": "address"
        },
        {
          "indexed": true,
          "internalType": "uint256",
          "name": "tokenId",
          "type": "uint256"
        }
      ],
      "name": "Approval",
      "type": "event"
    },
    {
      "anonymous": false,
      "inputs": [
        {
          "indexed": true,
          "internalType": "address",
          "name": "owner",
          "type": "address"
        },
        {
          "indexed": true,
          "internalType": "address",
          "name": "operator",
          "type": "address"
        },
        {
          "indexed": false,
          "internalType": "bool",
          "name": "approved",
          "type": "bool"
        }
      ],
      "name": "ApprovalForAll",
      "type": "event"
    },
    {
      "anonymous": false,
      "inputs": [
        {
          "indexed": false,
          "internalType": "uint256",
          "name": "projectId",
          "type": "uint256"
        },
        {
          "indexed": false,
          "internalType": "uint256",
          "name": "template",
          "type": "uint256"
        },
        {
          "indexed": false,
          "internalType": "address",
          "name": "communityAddress",
          "type": "address"
        }
      ],
      "name": "ProjectCreated",
      "type": "event"
    },
    {
      "anonymous": false,
      "inputs": [
        {
          "indexed": true,
          "internalType": "address",
          "name": "from",
          "type": "address"
        },
        {
          "indexed": true,
          "internalType": "address",
          "name": "to",
          "type": "address"
        },
        {
          "indexed": true,
          "internalType": "uint256",
          "name": "tokenId",
          "type": "uint256"
        }
      ],
      "name": "Transfer",
      "type": "event"
    },
    {
      "inputs": [
        {
          "internalType": "address",
          "name": "to",
          "type": "address"
        },
        {
          "internalType": "uint256",
          "name": "tokenId",
          "type": "uint256"
        }
      ],
      "name": "approve",
      "outputs": [],
      "stateMutability": "nonpayable",
      "type": "function"
    },
    {
      "inputs": [
        {
          "internalType": "address",
          "name": "owner",
          "type": "address"
        }
      ],
      "name": "balanceOf",
      "outputs": [
        {
          "internalType": "uint256",
          "name": "",
          "type": "uint256"
        }
      ],
      "stateMutability": "view",
      "type": "function"
    },
    {
      "inputs": [],
      "name": "baseURI",
      "outputs": [
        {
          "internalType": "string",
          "name": "",
          "type": "string"
        }
      ],
      "stateMutability": "view",
      "type": "function"
    },
    {
      "inputs": [
        {
          "internalType": "string",
          "name": "_props",
          "type": "string"
        },
        {
          "internalType": "address",
          "name": "_communityAddress",
          "type": "address"
        },
        {
          "internalType": "address",
          "name": "creator",
          "type": "address"
        }
      ],
      "name": "createProject",
      "outputs": [],
      "stateMutability": "nonpayable",
      "type": "function"
    },
    {
      "inputs": [
        {
          "internalType": "uint256",
          "name": "tokenId",
          "type": "uint256"
        }
      ],
      "name": "getApproved",
      "outputs": [
        {
          "internalType": "address",
          "name": "",
          "type": "address"
        }
      ],
      "stateMutability": "view",
      "type": "function"
    },
    {
      "inputs": [
        {
          "internalType": "address",
          "name": "communityAddress",
          "type": "address"
        }
      ],
      "name": "getCommunityProjects",
      "outputs": [
        {
          "internalType": "uint256[]",
          "name": "projectIds",
          "type": "uint256[]"
        }
      ],
      "stateMutability": "view",
      "type": "function"
    },
    {
      "inputs": [
        {
          "internalType": "uint256",
          "name": "projectId",
          "type": "uint256"
        }
      ],
      "name": "getProjectTreasuryAddress",
      "outputs": [
        {
          "internalType": "address",
          "name": "",
          "type": "address"
        }
      ],
      "stateMutability": "view",
      "type": "function"
    },
    {
      "inputs": [
        {
          "internalType": "address",
          "name": "owner",
          "type": "address"
        },
        {
          "internalType": "address",
          "name": "operator",
          "type": "address"
        }
      ],
      "name": "isApprovedForAll",
      "outputs": [
        {
          "internalType": "bool",
          "name": "",
          "type": "bool"
        }
      ],
      "stateMutability": "view",
      "type": "function"
    },
    {
      "inputs": [],
      "name": "name",
      "outputs": [
        {
          "internalType": "string",
          "name": "",
          "type": "string"
        }
      ],
      "stateMutability": "view",
      "type": "function"
    },
    {
      "inputs": [
        {
          "internalType": "uint256",
          "name": "tokenId",
          "type": "uint256"
        }
      ],
      "name": "ownerOf",
      "outputs": [
        {
          "internalType": "address",
          "name": "",
          "type": "address"
        }
      ],
      "stateMutability": "view",
      "type": "function"
    },
    {
      "inputs": [
        {
          "internalType": "uint256",
          "name": "",
          "type": "uint256"
        }
      ],
      "name": "projectToTreasury",
      "outputs": [
        {
          "internalType": "address",
          "name": "",
          "type": "address"
        }
      ],
      "stateMutability": "view",
      "type": "function"
    },
    {
      "inputs": [
        {
          "internalType": "address",
          "name": "from",
          "type": "address"
        },
        {
          "internalType": "address",
          "name": "to",
          "type": "address"
        },
        {
          "internalType": "uint256",
          "name": "tokenId",
          "type": "uint256"
        }
      ],
      "name": "safeTransferFrom",
      "outputs": [],
      "stateMutability": "nonpayable",
      "type": "function"
    },
    {
      "inputs": [
        {
          "internalType": "address",
          "name": "from",
          "type": "address"
        },
        {
          "internalType": "address",
          "name": "to",
          "type": "address"
        },
        {
          "internalType": "uint256",
          "name": "tokenId",
          "type": "uint256"
        },
        {
          "internalType": "bytes",
          "name": "_data",
          "type": "bytes"
        }
      ],
      "name": "safeTransferFrom",
      "outputs": [],
      "stateMutability": "nonpayable",
      "type": "function"
    },
    {
      "inputs": [
        {
          "internalType": "address",
          "name": "operator",
          "type": "address"
        },
        {
          "internalType": "bool",
          "name": "approved",
          "type": "bool"
        }
      ],
      "name": "setApprovalForAll",
      "outputs": [],
      "stateMutability": "nonpayable",
      "type": "function"
    },
    {
      "inputs": [
        {
          "internalType": "bytes4",
          "name": "interfaceId",
          "type": "bytes4"
        }
      ],
      "name": "supportsInterface",
      "outputs": [
        {
          "internalType": "bool",
          "name": "",
          "type": "bool"
        }
      ],
      "stateMutability": "view",
      "type": "function"
    },
    {
      "inputs": [],
      "name": "symbol",
      "outputs": [
        {
          "internalType": "string",
          "name": "",
          "type": "string"
        }
      ],
      "stateMutability": "view",
      "type": "function"
    },
    {
      "inputs": [
        {
          "internalType": "uint256",
          "name": "index",
          "type": "uint256"
        }
      ],
      "name": "tokenByIndex",
      "outputs": [
        {
          "internalType": "uint256",
          "name": "",
          "type": "uint256"
        }
      ],
      "stateMutability": "view",
      "type": "function"
    },
    {
      "inputs": [
        {
          "internalType": "address",
          "name": "owner",
          "type": "address"
        },
        {
          "internalType": "uint256",
          "name": "index",
          "type": "uint256"
        }
      ],
      "name": "tokenOfOwnerByIndex",
      "outputs": [
        {
          "internalType": "uint256",
          "name": "",
          "type": "uint256"
        }
      ],
      "stateMutability": "view",
      "type": "function"
    },
    {
      "inputs": [
        {
          "internalType": "uint256",
          "name": "tokenId",
          "type": "uint256"
        }
      ],
      "name": "tokenURI",
      "outputs": [
        {
          "internalType": "string",
          "name": "",
          "type": "string"
        }
      ],
      "stateMutability": "view",
      "type": "function"
    },
    {
      "inputs": [],
      "name": "totalSupply",
      "outputs": [
        {
          "internalType": "uint256",
          "name": "",
          "type": "uint256"
        }
      ],
      "stateMutability": "view",
      "type": "function"
    },
    {
      "inputs": [
        {
          "internalType": "address",
          "name": "from",
          "type": "address"
        },
        {
          "internalType": "address",
          "name": "to",
          "type": "address"
        },
        {
          "internalType": "uint256",
          "name": "tokenId",
          "type": "uint256"
        }
      ],
      "name": "transferFrom",
      "outputs": [],
      "stateMutability": "nonpayable",
      "type": "function"
    }
  ],
  "bytecode": "0x60806040523480156200001157600080fd5b50604051620026b3380380620026b3833981016040819052620000349162000242565b604080518082018252600b81526a111a551bd41c9bda9958dd60aa1b602080830191909152825180840190935260078352662224aa27a8292560c91b9083015290620000876301ffc9a760e01b62000111565b81516200009c90600690602085019062000196565b508051620000b290600790602084019062000196565b50620000c56380ac58cd60e01b62000111565b620000d7635b5e139f60e01b62000111565b620000e963780e9d6360e01b62000111565b5050600f80546001600160a01b0319166001600160a01b039290921691909117905562000272565b6001600160e01b0319808216141562000171576040805162461bcd60e51b815260206004820152601c60248201527f4552433136353a20696e76616c696420696e7465726661636520696400000000604482015290519081900360640190fd5b6001600160e01b0319166000908152602081905260409020805460ff19166001179055565b828054600181600116156101000203166002900490600052602060002090601f016020900481019282620001ce576000855562000219565b82601f10620001e957805160ff191683800117855562000219565b8280016001018555821562000219579182015b8281111562000219578251825591602001919060010190620001fc565b50620002279291506200022b565b5090565b5b808211156200022757600081556001016200022c565b60006020828403121562000254578081fd5b81516001600160a01b03811681146200026b578182fd5b9392505050565b61243180620002826000396000f3fe608060405234801561001057600080fd5b50600436106101375760003560e01c80636352211e116100b857806395d89b411161007c57806395d89b4114610284578063a22cb4651461028c578063b522f69a1461029f578063b88d4fde146102b2578063c87b56dd146102c5578063e985e9c5146102d857610137565b80636352211e146102235780636c0360eb146102365780636f92225e1461023e57806370a082311461025e57806388ff2dcc1461027157610137565b806323b872dd116100ff57806323b872dd146101c45780632f745c59146101d75780633dbc4a12146101ea57806342842e0e146101fd5780634f6ccce71461021057610137565b806301ffc9a71461013c57806306fdde0314610165578063081812fc1461017a578063095ea7b31461019a57806318160ddd146101af575b600080fd5b61014f61014a366004611eb0565b6102eb565b60405161015c9190611fbc565b60405180910390f35b61016d61030e565b60405161015c9190611fc7565b61018d610188366004611f34565b6103a4565b60405161015c9190611f64565b6101ad6101a8366004611e6b565b610406565b005b6101b76104dc565b60405161015c9190612113565b6101ad6101d2366004611d94565b6104ed565b6101b76101e5366004611e6b565b610544565b61018d6101f8366004611f34565b61056f565b6101ad61020b366004611d94565b61058a565b6101b761021e366004611f34565b6105a5565b61018d610231366004611f34565b6105bb565b61016d6105e3565b61025161024c366004611d48565b610644565b60405161015c9190611f78565b6101b761026c366004611d48565b6106b0565b6101ad61027f366004611ed8565b610718565b61016d610b5a565b6101ad61029a366004611e35565b610bbb565b61018d6102ad366004611f34565b610cc0565b6101ad6102c0366004611dcf565b610cdb565b61016d6102d3366004611f34565b610d39565b61014f6102e6366004611d62565b610fbc565b6001600160e01b0319811660009081526020819052604090205460ff165b919050565b60068054604080516020601f600260001961010060018816150201909516949094049384018190048102820181019092528281526060939092909183018282801561039a5780601f1061036f5761010080835404028352916020019161039a565b820191906000526020600020905b81548152906001019060200180831161037d57829003601f168201915b5050505050905090565b60006103af82610fea565b6103ea5760405162461bcd60e51b815260040180806020018281038252602c8152602001806122fa602c913960400191505060405180910390fd5b506000908152600460205260409020546001600160a01b031690565b6000610411826105bb565b9050806001600160a01b0316836001600160a01b031614156104645760405162461bcd60e51b81526004018080602001828103825260218152602001806123aa6021913960400191505060405180910390fd5b806001600160a01b0316610476610ff7565b6001600160a01b031614806104925750610492816102e6610ff7565b6104cd5760405162461bcd60e51b815260040180806020018281038252603881526020018061224d6038913960400191505060405180910390fd5b6104d78383610ffb565b505050565b60006104e86002611069565b905090565b6104fe6104f8610ff7565b82611074565b6105395760405162461bcd60e51b81526004018080602001828103825260318152602001806123cb6031913960400191505060405180910390fd5b6104d7838383611118565b6001600160a01b03821660009081526001602052604081206105669083611264565b90505b92915050565b600e602052600090815260409020546001600160a01b031681565b6104d783838360405180602001604052806000815250610cdb565b6000806105b3600284611270565b509392505050565b6000610569826040518060600160405280602981526020016122af602991396002919061128c565b60098054604080516020601f600260001961010060018816150201909516949094049384018190048102820181019092528281526060939092909183018282801561039a5780601f1061036f5761010080835404028352916020019161039a565b6001600160a01b0381166000908152600b60209081526040918290208054835181840281018401909452808452606093928301828280156106a457602002820191906000526020600020905b815481526020019060010190808311610690575b50505050509050919050565b60006001600160a01b0382166106f75760405162461bcd60e51b815260040180806020018281038252602a815260200180612285602a913960400191505060405180910390fd5b6001600160a01b038216600090815260016020526040902061056990611069565b600f546040516339ce0e5d60e11b815283916000916001600160a01b039091169063739c1cba9061074d908690600401611f64565b60206040518083038186803b15801561076557600080fd5b505afa158015610779573d6000803e3d6000fd5b505050506040513d601f19601f8201168201806040525081019061079d9190611e94565b9050806107c55760405162461bcd60e51b81526004016107bc9061201a565b60405180910390fd5b600f546040516342ca962960e01b81526000916001600160a01b0316906342ca9629906107f6908790600401611f64565b60206040518083038186803b15801561080e57600080fd5b505afa158015610822573d6000803e3d6000fd5b505050506040513d601f19601f820116820180604052508101906108469190611f4c565b600f54604051638f4b3f5960e01b81529192506000916001600160a01b0390911690638f4b3f599061087c908590600401612113565b60206040518083038186803b15801561089457600080fd5b505afa1580156108a8573d6000803e3d6000fd5b505050506040513d601f19601f820116820180604052508101906108cc9190611e94565b9050806108eb5760405162461bcd60e51b81526004016107bc906120c2565b60405163288c314960e21b81526000906001600160a01b0386169063a230c5249061091a908990600401611f64565b60206040518083038186803b15801561093257600080fd5b505afa158015610946573d6000803e3d6000fd5b505050506040513d601f19601f8201168201806040525081019061096a9190611e94565b9050806109895760405162461bcd60e51b81526004016107bc9061206e565b6000856001600160a01b031663321c48f26040518163ffffffff1660e01b815260040160206040518083038186803b1580156109c457600080fd5b505afa1580156109d8573d6000803e3d6000fd5b505050506040513d601f19601f820116820180604052508101906109fc9190611f4c565b90506000610a0a600a6112a3565b9050610a16600a6112a7565b610a2088826112b0565b610a2a818b6113de565b60405163f79489d160e01b81526001600160a01b0388169063f79489d190610a56908490600401612113565b600060405180830381600087803b158015610a7057600080fd5b505af1158015610a84573d6000803e3d6000fd5b50505050604051610a9490611c0a565b604051809103906000f080158015610ab0573d6000803e3d6000fd5b506000828152600e6020908152604080832080546001600160a01b0319166001600160a01b03958616179055928c168252600b815282822080546001818101835591845282842001859055858352600c8252838320805491820181558352912001829055517f2e16fe6185221195ff919455425d57cc20788b7457ce4ab0a9b39ffbbe4e25b290610b4690839085908d9061211c565b60405180910390a150505050505050505050565b60078054604080516020601f600260001961010060018816150201909516949094049384018190048102820181019092528281526060939092909183018282801561039a5780601f1061036f5761010080835404028352916020019161039a565b610bc3610ff7565b6001600160a01b0316826001600160a01b03161415610c29576040805162461bcd60e51b815260206004820152601960248201527f4552433732313a20617070726f766520746f2063616c6c657200000000000000604482015290519081900360640190fd5b8060056000610c36610ff7565b6001600160a01b03908116825260208083019390935260409182016000908120918716808252919093529120805460ff191692151592909217909155610c7a610ff7565b6001600160a01b03167f17307eab39ab6107e8899845ad3d59bd9653f200f220920489ca2b5937696c318360405180821515815260200191505060405180910390a35050565b6000908152600e60205260409020546001600160a01b031690565b610cec610ce6610ff7565b83611074565b610d275760405162461bcd60e51b81526004018080602001828103825260318152602001806123cb6031913960400191505060405180910390fd5b610d3384848484611441565b50505050565b6060610d4482610fea565b610d7f5760405162461bcd60e51b815260040180806020018281038252602f81526020018061237b602f913960400191505060405180910390fd5b60008281526008602090815260409182902080548351601f6002600019610100600186161502019093169290920491820184900484028101840190945280845260609392830182828015610e145780601f10610de957610100808354040283529160200191610e14565b820191906000526020600020905b815481529060010190602001808311610df757829003601f168201915b505050505090506060610e256105e3565b9050805160001415610e3957509050610309565b815115610efa5780826040516020018083805190602001908083835b60208310610e745780518252601f199092019160209182019101610e55565b51815160209384036101000a600019018019909216911617905285519190930192850191508083835b60208310610ebc5780518252601f199092019160209182019101610e9d565b6001836020036101000a0380198251168184511680821785525050505050509050019250505060405160208183030381529060405292505050610309565b80610f0485611493565b6040516020018083805190602001908083835b60208310610f365780518252601f199092019160209182019101610f17565b51815160209384036101000a600019018019909216911617905285519190930192850191508083835b60208310610f7e5780518252601f199092019160209182019101610f5f565b6001836020036101000a0380198251168184511680821785525050505050509050019250505060405160208183030381529060405292505050919050565b6001600160a01b03918216600090815260056020908152604080832093909416825291909152205460ff1690565b600061056960028361156e565b3390565b600081815260046020526040902080546001600160a01b0319166001600160a01b0384169081179091558190611030826105bb565b6001600160a01b03167f8c5be1e5ebec7d5bd14f71427d1e84f3dd0314c0f7b2291e5b200ac8c7c3b92560405160405180910390a45050565b6000610569826112a3565b600061107f82610fea565b6110ba5760405162461bcd60e51b815260040180806020018281038252602c815260200180612221602c913960400191505060405180910390fd5b60006110c5836105bb565b9050806001600160a01b0316846001600160a01b031614806111005750836001600160a01b03166110f5846103a4565b6001600160a01b0316145b8061111057506111108185610fbc565b949350505050565b826001600160a01b031661112b826105bb565b6001600160a01b0316146111705760405162461bcd60e51b81526004018080602001828103825260298152602001806123526029913960400191505060405180910390fd5b6001600160a01b0382166111b55760405162461bcd60e51b81526004018080602001828103825260248152602001806121fd6024913960400191505060405180910390fd5b6111c08383836104d7565b6111cb600082610ffb565b6001600160a01b03831660009081526001602052604090206111ed908261157a565b506001600160a01b03821660009081526001602052604090206112109082611586565b5061121d60028284611592565b5080826001600160a01b0316846001600160a01b03167fddf252ad1be2c89b69c2b068fc378daa952ba7f163c4a11628f55a4df523b3ef60405160405180910390a4505050565b600061056683836115a8565b600080808061127f868661160c565b9097909650945050505050565b6000611299848484611687565b90505b9392505050565b5490565b80546001019055565b6001600160a01b03821661130b576040805162461bcd60e51b815260206004820181905260248201527f4552433732313a206d696e7420746f20746865207a65726f2061646472657373604482015290519081900360640190fd5b61131481610fea565b15611366576040805162461bcd60e51b815260206004820152601c60248201527f4552433732313a20746f6b656e20616c7265616479206d696e74656400000000604482015290519081900360640190fd5b611372600083836104d7565b6001600160a01b03821660009081526001602052604090206113949082611586565b506113a160028284611592565b5060405181906001600160a01b038416906000907fddf252ad1be2c89b69c2b068fc378daa952ba7f163c4a11628f55a4df523b3ef908290a45050565b6113e782610fea565b6114225760405162461bcd60e51b815260040180806020018281038252602c815260200180612326602c913960400191505060405180910390fd5b600082815260086020908152604090912082516104d792840190611c16565b61144c848484611118565b61145884848484611751565b610d335760405162461bcd60e51b81526004018080602001828103825260328152602001806121cb6032913960400191505060405180910390fd5b6060816114b857506040805180820190915260018152600360fc1b6020820152610309565b8160005b81156114d057600101600a820491506114bc565b60608167ffffffffffffffff811180156114e957600080fd5b506040519080825280601f01601f191660200182016040528015611514576020820181803683370190505b50859350905060001982015b831561156557600a840660300160f81b8282806001900393508151811061154357fe5b60200101906001600160f81b031916908160001a905350600a84049350611520565b50949350505050565b600061056683836118b9565b600061056683836118d1565b60006105668383611997565b600061129984846001600160a01b0385166119e1565b815460009082106115ea5760405162461bcd60e51b81526004018080602001828103825260228152602001806121a96022913960400191505060405180910390fd5b8260000182815481106115f957fe5b9060005260206000200154905092915050565b8154600090819083106116505760405162461bcd60e51b81526004018080602001828103825260228152602001806122d86022913960400191505060405180910390fd5b600084600001848154811061166157fe5b906000526020600020906002020190508060000154816001015492509250509250929050565b600082815260018401602052604081205482816117225760405162461bcd60e51b81526004018080602001828103825283818151815260200191508051906020019080838360005b838110156116e75781810151838201526020016116cf565b50505050905090810190601f1680156117145780820380516001836020036101000a031916815260200191505b509250505060405180910390fd5b5084600001600182038154811061173557fe5b9060005260206000209060020201600101549150509392505050565b6000611765846001600160a01b0316611a78565b61177157506001611110565b606061187f630a85bd0160e11b611786610ff7565b88878760405160240180856001600160a01b03168152602001846001600160a01b0316815260200183815260200180602001828103825283818151815260200191508051906020019080838360005b838110156117ed5781810151838201526020016117d5565b50505050905090810190601f16801561181a5780820380516001836020036101000a031916815260200191505b5095505050505050604051602081830303815290604052906001600160e01b0319166020820180516001600160e01b0383818316178352505050506040518060600160405280603281526020016121cb603291396001600160a01b0388169190611a7e565b9050600081806020019051602081101561189857600080fd5b50516001600160e01b031916630a85bd0160e11b1492505050949350505050565b60009081526001919091016020526040902054151590565b6000818152600183016020526040812054801561198d578354600019808301919081019060009087908390811061190457fe5b906000526020600020015490508087600001848154811061192157fe5b60009182526020808320909101929092558281526001898101909252604090209084019055865487908061195157fe5b60019003818190600052602060002001600090559055866001016000878152602001908152602001600020600090556001945050505050610569565b6000915050610569565b60006119a383836118b9565b6119d957508154600181810184556000848152602080822090930184905584548482528286019093526040902091909155610569565b506000610569565b600082815260018401602052604081205480611a4657505060408051808201825283815260208082018481528654600181810189556000898152848120955160029093029095019182559151908201558654868452818801909252929091205561129c565b82856000016001830381548110611a5957fe5b906000526020600020906002020160010181905550600091505061129c565b3b151590565b6060611299848460008585611a9285611a78565b611ae3576040805162461bcd60e51b815260206004820152601d60248201527f416464726573733a2063616c6c20746f206e6f6e2d636f6e7472616374000000604482015290519081900360640190fd5b60006060866001600160a01b031685876040518082805190602001908083835b60208310611b225780518252601f199092019160209182019101611b03565b6001836020036101000a03801982511681845116808217855250505050505090500191505060006040518083038185875af1925050503d8060008114611b84576040519150601f19603f3d011682016040523d82523d6000602084013e611b89565b606091505b5091509150611b99828286611ba4565b979650505050505050565b60608315611bb357508161129c565b825115611bc35782518084602001fd5b60405162461bcd60e51b81526020600482018181528451602484015284518593919283926044019190850190808383600083156116e75781810151838201526020016116cf565b605c8061214d83390190565b828054600181600116156101000203166002900490600052602060002090601f016020900481019282611c4c5760008555611c92565b82601f10611c6557805160ff1916838001178555611c92565b82800160010185558215611c92579182015b82811115611c92578251825591602001919060010190611c77565b50611c9e929150611ca2565b5090565b5b80821115611c9e5760008155600101611ca3565b80356001600160a01b038116811461030957600080fd5b600082601f830112611cde578081fd5b813567ffffffffffffffff80821115611cf357fe5b604051601f8301601f191681016020018281118282101715611d1157fe5b604052828152925082848301602001861015611d2c57600080fd5b8260208601602083013760006020848301015250505092915050565b600060208284031215611d59578081fd5b61056682611cb7565b60008060408385031215611d74578081fd5b611d7d83611cb7565b9150611d8b60208401611cb7565b90509250929050565b600080600060608486031215611da8578081fd5b611db184611cb7565b9250611dbf60208501611cb7565b9150604084013590509250925092565b60008060008060808587031215611de4578081fd5b611ded85611cb7565b9350611dfb60208601611cb7565b925060408501359150606085013567ffffffffffffffff811115611e1d578182fd5b611e2987828801611cce565b91505092959194509250565b60008060408385031215611e47578182fd5b611e5083611cb7565b91506020830135611e608161213b565b809150509250929050565b60008060408385031215611e7d578182fd5b611e8683611cb7565b946020939093013593505050565b600060208284031215611ea5578081fd5b815161129c8161213b565b600060208284031215611ec1578081fd5b81356001600160e01b03198116811461129c578182fd5b600080600060608486031215611eec578283fd5b833567ffffffffffffffff811115611f02578384fd5b611f0e86828701611cce565b935050611f1d60208501611cb7565b9150611f2b60408501611cb7565b90509250925092565b600060208284031215611f45578081fd5b5035919050565b600060208284031215611f5d578081fd5b5051919050565b6001600160a01b0391909116815260200190565b6020808252825182820181905260009190848201906040850190845b81811015611fb057835183529284019291840191600101611f94565b50909695505050505050565b901515815260200190565b6000602080835283518082850152825b81811015611ff357858101830151858201604001528201611fd7565b818111156120045783604083870101525b50601f01601f1916929092016040019392505050565b60208082526034908201527f4f6e6c792061207265676973746572656420736b696c6c2077616c6c6574206360408201527330b71031b932b0ba32903090383937b532b1ba1760611b606082015260800190565b60208082526034908201527f4f6e6c792061206d656d626572206f662074686520636f6d6d756e697479206360408201527330b71031b932b0ba32903090383937b532b1ba1760611b606082015260800190565b60208082526031908201527f4f6e6c7920616e2061637469766520736b696c6c2077616c6c65742063616e2060408201527031b932b0ba32903090383937b532b1ba1760791b606082015260800190565b90815260200190565b92835260208301919091526001600160a01b0316604082015260600190565b801515811461214957600080fd5b5056fe6080604052348015600f57600080fd5b50603f80601d6000396000f3fe6080604052600080fdfea26469706673582212206bc8911414b06f20c986fec895102a9811c17fcf37f1d968ba58a2259f65ad1b64736f6c63430007040033456e756d657261626c655365743a20696e646578206f7574206f6620626f756e64734552433732313a207472616e7366657220746f206e6f6e20455243373231526563656976657220696d706c656d656e7465724552433732313a207472616e7366657220746f20746865207a65726f20616464726573734552433732313a206f70657261746f7220717565727920666f72206e6f6e6578697374656e7420746f6b656e4552433732313a20617070726f76652063616c6c6572206973206e6f74206f776e6572206e6f7220617070726f76656420666f7220616c6c4552433732313a2062616c616e636520717565727920666f7220746865207a65726f20616464726573734552433732313a206f776e657220717565727920666f72206e6f6e6578697374656e7420746f6b656e456e756d657261626c654d61703a20696e646578206f7574206f6620626f756e64734552433732313a20617070726f76656420717565727920666f72206e6f6e6578697374656e7420746f6b656e4552433732314d657461646174613a2055524920736574206f66206e6f6e6578697374656e7420746f6b656e4552433732313a207472616e73666572206f6620746f6b656e2074686174206973206e6f74206f776e4552433732314d657461646174613a2055524920717565727920666f72206e6f6e6578697374656e7420746f6b656e4552433732313a20617070726f76616c20746f2063757272656e74206f776e65724552433732313a207472616e736665722063616c6c6572206973206e6f74206f776e6572206e6f7220617070726f766564a26469706673582212209febef7e48aa101b5d5c8818c4fe3a6f5ae0f2c6300490fee1864ead0b627baa64736f6c63430007040033",
  "linkReferences": {},
  "deployedLinkReferences": {}
}