{
  "_format": "hh-sol-artifact-1",
  "contractName": "SkillWallet",
  "sourceName": "contracts/main/SkillWallet.sol",
  "abi": [
    {
      "inputs": [],
      "stateMutability": "nonpayable",
      "type": "constructor"
    },
    {
      "anonymous": false,
      "inputs": [
        {
          "indexed": true,
          "internalType": "address",
          "name": "owner",
          "type": "address"
        },
        {
          "indexed": true,
          "internalType": "address",
          "name": "approved",
          "type": "address"
        },
        {
          "indexed": true,
          "internalType": "uint256",
          "name": "tokenId",
          "type": "uint256"
        }
      ],
      "name": "Approval",
      "type": "event"
    },
    {
      "anonymous": false,
      "inputs": [
        {
          "indexed": true,
          "internalType": "address",
          "name": "owner",
          "type": "address"
        },
        {
          "indexed": true,
          "internalType": "address",
          "name": "operator",
          "type": "address"
        },
        {
          "indexed": false,
          "internalType": "bool",
          "name": "approved",
          "type": "bool"
        }
      ],
      "name": "ApprovalForAll",
      "type": "event"
    },
    {
      "anonymous": false,
      "inputs": [
        {
          "indexed": true,
          "internalType": "address",
          "name": "from",
          "type": "address"
        },
        {
          "indexed": true,
          "internalType": "address",
          "name": "to",
          "type": "address"
        },
        {
          "indexed": true,
          "internalType": "uint256",
          "name": "tokenId",
          "type": "uint256"
        }
      ],
      "name": "Transfer",
      "type": "event"
    },
    {
      "inputs": [
        {
          "internalType": "address",
          "name": "to",
          "type": "address"
        },
        {
          "internalType": "uint256",
          "name": "tokenId",
          "type": "uint256"
        }
      ],
      "name": "approve",
      "outputs": [],
      "stateMutability": "nonpayable",
      "type": "function"
    },
    {
      "inputs": [
        {
          "internalType": "address",
          "name": "owner",
          "type": "address"
        }
      ],
      "name": "balanceOf",
      "outputs": [
        {
          "internalType": "uint256",
          "name": "",
          "type": "uint256"
        }
      ],
      "stateMutability": "view",
      "type": "function"
    },
    {
      "inputs": [
        {
          "internalType": "uint256",
          "name": "skillWalletId",
          "type": "uint256"
        }
      ],
      "name": "changeCommunity",
      "outputs": [],
      "stateMutability": "nonpayable",
      "type": "function"
    },
    {
      "inputs": [
        {
          "internalType": "address",
          "name": "owner",
          "type": "address"
        },
        {
          "components": [
            {
              "components": [
                {
                  "internalType": "uint64",
                  "name": "displayStringId",
                  "type": "uint64"
                },
                {
                  "internalType": "uint8",
                  "name": "posValue",
                  "type": "uint8"
                },
                {
                  "internalType": "uint8",
                  "name": "level",
                  "type": "uint8"
                }
              ],
              "internalType": "struct Types.Skill",
              "name": "skill1",
              "type": "tuple"
            },
            {
              "components": [
                {
                  "internalType": "uint64",
                  "name": "displayStringId",
                  "type": "uint64"
                },
                {
                  "internalType": "uint8",
                  "name": "posValue",
                  "type": "uint8"
                },
                {
                  "internalType": "uint8",
                  "name": "level",
                  "type": "uint8"
                }
              ],
              "internalType": "struct Types.Skill",
              "name": "skill2",
              "type": "tuple"
            },
            {
              "components": [
                {
                  "internalType": "uint64",
                  "name": "displayStringId",
                  "type": "uint64"
                },
                {
                  "internalType": "uint8",
                  "name": "posValue",
                  "type": "uint8"
                },
                {
                  "internalType": "uint8",
                  "name": "level",
                  "type": "uint8"
                }
              ],
              "internalType": "struct Types.Skill",
              "name": "skill3",
              "type": "tuple"
            }
          ],
          "internalType": "struct Types.SkillSet",
          "name": "skillSet",
          "type": "tuple"
        },
        {
          "internalType": "string",
          "name": "url",
          "type": "string"
        }
      ],
      "name": "create",
      "outputs": [],
      "stateMutability": "nonpayable",
      "type": "function"
    },
    {
      "inputs": [
        {
          "internalType": "uint256",
          "name": "skillWalletId",
          "type": "uint256"
        }
      ],
      "name": "getActiveCommunity",
      "outputs": [
        {
          "internalType": "address",
          "name": "community",
          "type": "address"
        }
      ],
      "stateMutability": "view",
      "type": "function"
    },
    {
      "inputs": [
        {
          "internalType": "uint256",
          "name": "tokenId",
          "type": "uint256"
        }
      ],
      "name": "getApproved",
      "outputs": [
        {
          "internalType": "address",
          "name": "",
          "type": "address"
        }
      ],
      "stateMutability": "view",
      "type": "function"
    },
    {
      "inputs": [
        {
          "internalType": "uint256",
          "name": "skillWalletId",
          "type": "uint256"
        }
      ],
      "name": "getCommunityHistory",
      "outputs": [
        {
          "internalType": "address[]",
          "name": "communities",
          "type": "address[]"
        }
      ],
      "stateMutability": "view",
      "type": "function"
    },
    {
      "inputs": [
        {
          "internalType": "address",
          "name": "owner",
          "type": "address"
        }
      ],
      "name": "getSkillWalletIdByOwner",
      "outputs": [
        {
          "internalType": "uint256",
          "name": "",
          "type": "uint256"
        }
      ],
      "stateMutability": "view",
      "type": "function"
    },
    {
      "inputs": [],
      "name": "getTotalSkillWalletsRegistered",
      "outputs": [
        {
          "internalType": "uint256",
          "name": "",
          "type": "uint256"
        }
      ],
      "stateMutability": "view",
      "type": "function"
    },
    {
      "inputs": [
        {
          "internalType": "address",
          "name": "owner",
          "type": "address"
        },
        {
          "internalType": "address",
          "name": "operator",
          "type": "address"
        }
      ],
      "name": "isApprovedForAll",
      "outputs": [
        {
          "internalType": "bool",
          "name": "",
          "type": "bool"
        }
      ],
      "stateMutability": "view",
      "type": "function"
    },
    {
      "inputs": [
        {
          "internalType": "address",
          "name": "owner",
          "type": "address"
        }
      ],
      "name": "isSkillWalletRegistered",
      "outputs": [
        {
          "internalType": "bool",
          "name": "status",
          "type": "bool"
        }
      ],
      "stateMutability": "view",
      "type": "function"
    },
    {
      "inputs": [],
      "name": "name",
      "outputs": [
        {
          "internalType": "string",
          "name": "",
          "type": "string"
        }
      ],
      "stateMutability": "view",
      "type": "function"
    },
    {
      "inputs": [
        {
          "internalType": "uint256",
          "name": "tokenId",
          "type": "uint256"
        }
      ],
      "name": "ownerOf",
      "outputs": [
        {
          "internalType": "address",
          "name": "",
          "type": "address"
        }
      ],
      "stateMutability": "view",
      "type": "function"
    },
    {
      "inputs": [
        {
          "internalType": "address",
          "name": "from",
          "type": "address"
        },
        {
          "internalType": "address",
          "name": "to",
          "type": "address"
        },
        {
          "internalType": "uint256",
          "name": "tokenId",
          "type": "uint256"
        }
      ],
      "name": "safeTransferFrom",
      "outputs": [],
      "stateMutability": "nonpayable",
      "type": "function"
    },
    {
      "inputs": [
        {
          "internalType": "address",
          "name": "from",
          "type": "address"
        },
        {
          "internalType": "address",
          "name": "to",
          "type": "address"
        },
        {
          "internalType": "uint256",
          "name": "tokenId",
          "type": "uint256"
        },
        {
          "internalType": "bytes",
          "name": "_data",
          "type": "bytes"
        }
      ],
      "name": "safeTransferFrom",
      "outputs": [],
      "stateMutability": "nonpayable",
      "type": "function"
    },
    {
      "inputs": [
        {
          "internalType": "address",
          "name": "operator",
          "type": "address"
        },
        {
          "internalType": "bool",
          "name": "approved",
          "type": "bool"
        }
      ],
      "name": "setApprovalForAll",
      "outputs": [],
      "stateMutability": "nonpayable",
      "type": "function"
    },
    {
      "inputs": [
        {
          "internalType": "bytes4",
          "name": "interfaceId",
          "type": "bytes4"
        }
      ],
      "name": "supportsInterface",
      "outputs": [
        {
          "internalType": "bool",
          "name": "",
          "type": "bool"
        }
      ],
      "stateMutability": "view",
      "type": "function"
    },
    {
      "inputs": [],
      "name": "symbol",
      "outputs": [
        {
          "internalType": "string",
          "name": "",
          "type": "string"
        }
      ],
      "stateMutability": "view",
      "type": "function"
    },
    {
      "inputs": [
        {
          "internalType": "uint256",
          "name": "tokenId",
          "type": "uint256"
        }
      ],
      "name": "tokenURI",
      "outputs": [
        {
          "internalType": "string",
          "name": "",
          "type": "string"
        }
      ],
      "stateMutability": "view",
      "type": "function"
    },
    {
      "inputs": [
        {
          "internalType": "address",
          "name": "from",
          "type": "address"
        },
        {
          "internalType": "address",
          "name": "to",
          "type": "address"
        },
        {
          "internalType": "uint256",
          "name": "tokenId",
          "type": "uint256"
        }
      ],
      "name": "transferFrom",
      "outputs": [],
      "stateMutability": "nonpayable",
      "type": "function"
    },
    {
      "inputs": [
        {
          "internalType": "uint256",
          "name": "skillWalletId",
          "type": "uint256"
        },
        {
          "components": [
            {
              "components": [
                {
                  "internalType": "uint64",
                  "name": "displayStringId",
                  "type": "uint64"
                },
                {
                  "internalType": "uint8",
                  "name": "posValue",
                  "type": "uint8"
                },
                {
                  "internalType": "uint8",
                  "name": "level",
                  "type": "uint8"
                }
              ],
              "internalType": "struct Types.Skill",
              "name": "skill1",
              "type": "tuple"
            },
            {
              "components": [
                {
                  "internalType": "uint64",
                  "name": "displayStringId",
                  "type": "uint64"
                },
                {
                  "internalType": "uint8",
                  "name": "posValue",
                  "type": "uint8"
                },
                {
                  "internalType": "uint8",
                  "name": "level",
                  "type": "uint8"
                }
              ],
              "internalType": "struct Types.Skill",
              "name": "skill2",
              "type": "tuple"
            },
            {
              "components": [
                {
                  "internalType": "uint64",
                  "name": "displayStringId",
                  "type": "uint64"
                },
                {
                  "internalType": "uint8",
                  "name": "posValue",
                  "type": "uint8"
                },
                {
                  "internalType": "uint8",
                  "name": "level",
                  "type": "uint8"
                }
              ],
              "internalType": "struct Types.Skill",
              "name": "skill3",
              "type": "tuple"
            }
          ],
          "internalType": "struct Types.SkillSet",
          "name": "newSkillSet",
          "type": "tuple"
        }
      ],
      "name": "updateSkillSet",
      "outputs": [],
      "stateMutability": "nonpayable",
      "type": "function"
    }
  ],
  "bytecode": "0x60806040523480156200001157600080fd5b50604080518082018252600b81526a14dada5b1b15d85b1b195d60aa1b602080830191825283518085019094526002845261535760f01b9084015281519192916200005f916000916200007e565b508051620000759060019060208401906200007e565b50505062000161565b8280546200008c9062000124565b90600052602060002090601f016020900481019282620000b05760008555620000fb565b82601f10620000cb57805160ff1916838001178555620000fb565b82800160010185558215620000fb579182015b82811115620000fb578251825591602001919060010190620000de565b50620001099291506200010d565b5090565b5b808211156200010957600081556001016200010e565b6002810460018216806200013957607f821691505b602082108114156200015b57634e487b7160e01b600052602260045260246000fd5b50919050565b611dc380620001716000396000f3fe608060405234801561001057600080fd5b50600436106101375760003560e01c806365cbb7aa116100b8578063b3d64e7f1161007c578063b3d64e7f1461028f578063b50e77ff146102a2578063b88d4fde146102b5578063c71ae302146102c8578063c87b56dd146102d0578063e985e9c5146102e357610137565b806365cbb7aa1461023b57806370a082311461024e578063739c1cba1461026157806395d89b4114610274578063a22cb4651461027c57610137565b8063407ca1c7116100ff578063407ca1c7146101c257806342842e0e146101e257806342ca9629146101f5578063496af656146102155780636352211e1461022857610137565b806301ffc9a71461013c57806306fdde0314610165578063081812fc1461017a578063095ea7b31461019a57806323b872dd146101af575b600080fd5b61014f61014a366004611500565b6102f6565b60405161015c919061166d565b60405180910390f35b61016d61033e565b60405161015c9190611678565b61018d610188366004611538565b6103d0565b60405161015c91906115cf565b6101ad6101a83660046114d7565b61041c565b005b6101ad6101bd366004611377565b6104b4565b6101d56101d0366004611538565b6104ec565b60405161015c9190611620565b6101ad6101f0366004611377565b6105ab565b61020861020336600461132b565b6105c6565b60405161015c9190611c50565b6101ad610223366004611465565b61060c565b61018d610236366004611538565b61079e565b61018d610249366004611538565b6107d3565b61020861025c36600461132b565b61084d565b61014f61026f36600461132b565b610891565b61016d6108cb565b6101ad61028a36600461142b565b6108da565b6101ad61029d366004611550565b6109a8565b6101ad6102b0366004611538565b610aa4565b6101ad6102c33660046113b2565b610b16565b610208610b4f565b61016d6102de366004611538565b610b60565b61014f6102f1366004611345565b610be3565b60006001600160e01b031982166380ac58cd60e01b148061032757506001600160e01b03198216635b5e139f60e01b145b80610336575061033682610c11565b90505b919050565b60606000805461034d90611cc8565b80601f016020809104026020016040519081016040528092919081815260200182805461037990611cc8565b80156103c65780601f1061039b576101008083540402835291602001916103c6565b820191906000526020600020905b8154815290600101906020018083116103a957829003601f168201915b5050505050905090565b60006103db82610c2a565b6104005760405162461bcd60e51b81526004016103f790611a2e565b60405180910390fd5b506000908152600460205260409020546001600160a01b031690565b60006104278261079e565b9050806001600160a01b0316836001600160a01b0316141561045b5760405162461bcd60e51b81526004016103f790611ac9565b806001600160a01b031661046d610c47565b6001600160a01b031614806104895750610489816102f1610c47565b6104a55760405162461bcd60e51b81526004016103f7906118c1565b6104af8383610c4b565b505050565b6104c56104bf610c47565b82610cb9565b6104e15760405162461bcd60e51b81526004016103f790611b0a565b6104af838383610d3e565b60606104f8600b610d56565b82106105165760405162461bcd60e51b81526004016103f7906119b1565b6000828152600760205260409020546105415760405162461bcd60e51b81526004016103f790611bf3565b6000828152600760209081526040918290208054835181840281018401909452808452909183018282801561059f57602002820191906000526020600020905b81546001600160a01b03168152600190910190602001808311610581575b50505050509050919050565b6104af83838360405180602001604052806000815250610b16565b60006105d18261084d565b6001146105f05760405162461bcd60e51b81526004016103f7906117f0565b506001600160a01b031660009081526009602052604090205490565b6106158361084d565b156106325760405162461bcd60e51b81526004016103f79061168b565b600061063e600b610d56565b905061064a8482610d5a565b600081815260066020908152604080832080546001600160a01b03199081163390811790925560078452828520805460018181018355918752858720018054909216909217905584845260088352818420875180518254828701519286015160ff908116600160481b90810260ff60481b19958316600160401b90810260ff60401b1967ffffffffffffffff97881667ffffffffffffffff199788161781169190911788169290921788558e8b015180519989018054828e0151928d01518716860292871684029b89169088161784169a909a178816179098558d890151805160029098018054828d0151928c0151861690940291909416909802969094169216919091179091169290921716919091179055600a825290912083516107729285019061111e565b506001600160a01b0384166000908152600960205260409020819055610798600b610d68565b50505050565b6000818152600260205260408120546001600160a01b0316806103365760405162461bcd60e51b81526004016103f790611968565b60006107df600b610d56565b82106107fd5760405162461bcd60e51b81526004016103f7906119b1565b6000828152600660205260409020546001600160a01b03166108315760405162461bcd60e51b81526004016103f790611780565b506000908152600660205260409020546001600160a01b031690565b60006001600160a01b0382166108755760405162461bcd60e51b81526004016103f79061191e565b506001600160a01b031660009081526003602052604090205490565b60006001600160a01b0382166108b95760405162461bcd60e51b81526004016103f790611ba5565b6108c28261084d565b60011492915050565b60606001805461034d90611cc8565b6108e2610c47565b6001600160a01b0316826001600160a01b031614156109135760405162461bcd60e51b81526004016103f79061183e565b8060056000610920610c47565b6001600160a01b03908116825260208083019390935260409182016000908120918716808252919093529120805460ff191692151592909217909155610964610c47565b6001600160a01b03167f17307eab39ab6107e8899845ad3d59bd9653f200f220920489ca2b5937696c318360405161099c919061166d565b60405180910390a35050565b6109b2600b610d56565b82106109d05760405162461bcd60e51b81526004016103f7906119b1565b600091825260086020908152604092839020825180518254828501519287015160ff908116600160481b90810260ff60481b19958316600160401b90810260ff60401b1967ffffffffffffffff97881667ffffffffffffffff19978816178116919091178816929092178855888a0151805160018a018054838d0151938f0151881687029388168502928a16908916178516919091178916919091179055988a01518051600290980180549982015191909b0151841690920291909216909702949092169416939093179092161716179055565b610aae600b610d56565b8110610acc5760405162461bcd60e51b81526004016103f7906119b1565b60009081526006602090815260408083208054336001600160a01b031991821681179092556007845291842080546001810182559085529290932090910180549091169091179055565b610b27610b21610c47565b83610cb9565b610b435760405162461bcd60e51b81526004016103f790611b0a565b61079884848484610d71565b6000610b5b600b610d56565b905090565b6060610b6b82610c2a565b610b875760405162461bcd60e51b81526004016103f790611a7a565b6000610b91610da4565b90506000815111610bb15760405180602001604052806000815250610bdc565b80610bbb84610db6565b604051602001610bcc9291906115a0565b6040516020818303038152906040525b9392505050565b6001600160a01b03918216600090815260056020908152604080832093909416825291909152205460ff1690565b6001600160e01b031981166301ffc9a760e01b14919050565b6000908152600260205260409020546001600160a01b0316151590565b3390565b600081815260046020526040902080546001600160a01b0319166001600160a01b0384169081179091558190610c808261079e565b6001600160a01b03167f8c5be1e5ebec7d5bd14f71427d1e84f3dd0314c0f7b2291e5b200ac8c7c3b92560405160405180910390a45050565b6000610cc482610c2a565b610ce05760405162461bcd60e51b81526004016103f790611875565b6000610ceb8361079e565b9050806001600160a01b0316846001600160a01b03161480610d265750836001600160a01b0316610d1b846103d0565b6001600160a01b0316145b80610d365750610d368185610be3565b949350505050565b60405162461bcd60e51b81526004016103f790611b5b565b5490565b610d648282610ed1565b5050565b80546001019055565b610d7c848484610d3e565b610d8884848484610eeb565b6107985760405162461bcd60e51b81526004016103f7906116f7565b60408051602081019091526000815290565b606081610ddb57506040805180820190915260018152600360fc1b6020820152610339565b8160005b8115610e055780610def81611d03565b9150610dfe9050600a83611c71565b9150610ddf565b60008167ffffffffffffffff811115610e2e57634e487b7160e01b600052604160045260246000fd5b6040519080825280601f01601f191660200182016040528015610e58576020820181803683370190505b5090505b8415610d3657610e6d600183611c85565b9150610e7a600a86611d1e565b610e85906030611c59565b60f81b818381518110610ea857634e487b7160e01b600052603260045260246000fd5b60200101906001600160f81b031916908160001a905350610eca600a86611c71565b9450610e5c565b610d64828260405180602001604052806000815250611006565b6000610eff846001600160a01b0316611039565b15610ffb57836001600160a01b031663150b7a02610f1b610c47565b8786866040518563ffffffff1660e01b8152600401610f3d94939291906115e3565b602060405180830381600087803b158015610f5757600080fd5b505af1925050508015610f87575060408051601f3d908101601f19168201909252610f849181019061151c565b60015b610fe1573d808015610fb5576040519150601f19603f3d011682016040523d82523d6000602084013e610fba565b606091505b508051610fd95760405162461bcd60e51b81526004016103f7906116f7565b805181602001fd5b6001600160e01b031916630a85bd0160e11b149050610d36565b506001949350505050565b611010838361103f565b61101d6000848484610eeb565b6104af5760405162461bcd60e51b81526004016103f7906116f7565b3b151590565b6001600160a01b0382166110655760405162461bcd60e51b81526004016103f7906119f9565b61106e81610c2a565b1561108b5760405162461bcd60e51b81526004016103f790611749565b611097600083836104af565b6001600160a01b03821660009081526003602052604081208054600192906110c0908490611c59565b909155505060008181526002602052604080822080546001600160a01b0319166001600160a01b03861690811790915590518392907fddf252ad1be2c89b69c2b068fc378daa952ba7f163c4a11628f55a4df523b3ef908290a45050565b82805461112a90611cc8565b90600052602060002090601f01602090048101928261114c5760008555611192565b82601f1061116557805160ff1916838001178555611192565b82800160010185558215611192579182015b82811115611192578251825591602001919060010190611177565b5061119e9291506111a2565b5090565b5b8082111561119e57600081556001016111a3565b600067ffffffffffffffff808411156111d2576111d2611d5e565b604051601f8501601f1916810160200182811182821017156111f6576111f6611d5e565b60405284815291508183850186101561120e57600080fd5b8484602083013760006020868301015250509392505050565b80356001600160a01b038116811461033957600080fd5b60006101208284031215611250578081fd5b6040516060810181811067ffffffffffffffff8211171561127357611273611d5e565b60405290508061128384846112b0565b815261129284606085016112b0565b60208201526112a48460c085016112b0565b60408201525092915050565b6000606082840312156112c1578081fd5b6040516060810167ffffffffffffffff82821081831117156112e5576112e5611d5e565b816040528293508435915080821682146112fe57600080fd5b50815261130d6020840161131a565b60208201526112a4604084015b803560ff8116811461033957600080fd5b60006020828403121561133c578081fd5b610bdc82611227565b60008060408385031215611357578081fd5b61136083611227565b915061136e60208401611227565b90509250929050565b60008060006060848603121561138b578081fd5b61139484611227565b92506113a260208501611227565b9150604084013590509250925092565b600080600080608085870312156113c7578081fd5b6113d085611227565b93506113de60208601611227565b925060408501359150606085013567ffffffffffffffff811115611400578182fd5b8501601f81018713611410578182fd5b61141f878235602084016111b7565b91505092959194509250565b6000806040838503121561143d578182fd5b61144683611227565b91506020830135801515811461145a578182fd5b809150509250929050565b6000806000610160848603121561147a578283fd5b61148384611227565b9250611492856020860161123e565b915061014084013567ffffffffffffffff8111156114ae578182fd5b8401601f810186136114be578182fd5b6114cd868235602084016111b7565b9150509250925092565b600080604083850312156114e9578182fd5b6114f283611227565b946020939093013593505050565b600060208284031215611511578081fd5b8135610bdc81611d74565b60006020828403121561152d578081fd5b8151610bdc81611d74565b600060208284031215611549578081fd5b5035919050565b6000806101408385031215611563578182fd5b8235915061136e846020850161123e565b6000815180845261158c816020860160208601611c9c565b601f01601f19169290920160200192915050565b600083516115b2818460208801611c9c565b8351908301906115c6818360208801611c9c565b01949350505050565b6001600160a01b0391909116815260200190565b6001600160a01b038581168252841660208201526040810183905260806060820181905260009061161690830184611574565b9695505050505050565b6020808252825182820181905260009190848201906040850190845b818110156116615783516001600160a01b03168352928401929184019160010161163c565b50909695505050505050565b901515815260200190565b600060208252610bdc6020830184611574565b60208082526046908201527f536b696c6c57616c6c65743a20546865726520697320536b696c6c57616c6c6560408201527f7420616c7265616479207265676973746572656420666f722074686973206164606082015265323932b9b99760d11b608082015260a00190565b60208082526032908201527f4552433732313a207472616e7366657220746f206e6f6e20455243373231526560408201527131b2b4bb32b91034b6b83632b6b2b73a32b960711b606082015260800190565b6020808252601c908201527f4552433732313a20746f6b656e20616c7265616479206d696e74656400000000604082015260600190565b6020808252604a908201527f536b696c6c57616c6c65743a2054686520536b696c6c57616c6c65742069732060408201527f6e6f7420696e20616e7920636f6d6d756e6974792c20696e76616c696420536b60608201526934b6362bb0b63632ba1760b11b608082015260a00190565b6020808252602e908201527f536b696c6c57616c6c65743a2054686520536b696c6c57616c6c6574206f776e60408201526d32b91034b99034b73b30b634b21760911b606082015260800190565b60208082526019908201527f4552433732313a20617070726f766520746f2063616c6c657200000000000000604082015260600190565b6020808252602c908201527f4552433732313a206f70657261746f7220717565727920666f72206e6f6e657860408201526b34b9ba32b73a103a37b5b2b760a11b606082015260800190565b60208082526038908201527f4552433732313a20617070726f76652063616c6c6572206973206e6f74206f7760408201527f6e6572206e6f7220617070726f76656420666f7220616c6c0000000000000000606082015260800190565b6020808252602a908201527f4552433732313a2062616c616e636520717565727920666f7220746865207a65604082015269726f206164647265737360b01b606082015260800190565b60208082526029908201527f4552433732313a206f776e657220717565727920666f72206e6f6e657869737460408201526832b73a103a37b5b2b760b91b606082015260800190565b60208082526028908201527f536b696c6c57616c6c65743a20736b696c6c57616c6c65744964206f7574206f60408201526733103930b733b29760c11b606082015260800190565b6020808252818101527f4552433732313a206d696e7420746f20746865207a65726f2061646472657373604082015260600190565b6020808252602c908201527f4552433732313a20617070726f76656420717565727920666f72206e6f6e657860408201526b34b9ba32b73a103a37b5b2b760a11b606082015260800190565b6020808252602f908201527f4552433732314d657461646174613a2055524920717565727920666f72206e6f60408201526e3732bc34b9ba32b73a103a37b5b2b760891b606082015260800190565b60208082526021908201527f4552433732313a20617070726f76616c20746f2063757272656e74206f776e656040820152603960f91b606082015260800190565b60208082526031908201527f4552433732313a207472616e736665722063616c6c6572206973206e6f74206f6040820152701ddb995c881b9bdc88185c1c1c9bdd9959607a1b606082015260800190565b6020808252602a908201527f536b696c6c57616c6c65743a20536b696c6c57616c6c6574207472616e7366656040820152691c88191a5cd8589b195960b21b606082015260800190565b6020808252602e908201527f536b696c6c57616c6c65743a20496e76616c696420536b696c6c57616c6c657460408201526d206f776e6572206164647265737360901b606082015260800190565b6020808252603a908201527f536b696c6c57616c6c65743a2054686520536b696c6c57616c6c65742069732060408201527f6e6f742070617274206f6620616e7920636f6d6d756e6974792e000000000000606082015260800190565b90815260200190565b60008219821115611c6c57611c6c611d32565b500190565b600082611c8057611c80611d48565b500490565b600082821015611c9757611c97611d32565b500390565b60005b83811015611cb7578181015183820152602001611c9f565b838111156107985750506000910152565b600281046001821680611cdc57607f821691505b60208210811415611cfd57634e487b7160e01b600052602260045260246000fd5b50919050565b6000600019821415611d1757611d17611d32565b5060010190565b600082611d2d57611d2d611d48565b500690565b634e487b7160e01b600052601160045260246000fd5b634e487b7160e01b600052601260045260246000fd5b634e487b7160e01b600052604160045260246000fd5b6001600160e01b031981168114611d8a57600080fd5b5056fea2646970667358221220bf91b66b4ac1e797abcf6bf1d516b188af3ddb1a501980020976c9398ac95b0f64736f6c63430008000033",
  "linkReferences": {},
  "deployedLinkReferences": {}
}