{
  "_format": "hh-sol-artifact-1",
  "contractName": "SkillWallet",
  "sourceName": "contracts/main/SkillWallet.sol",
  "abi": [
    {
      "inputs": [
        {
          "internalType": "address",
          "name": "_link",
          "type": "address"
        },
        {
          "internalType": "address",
          "name": "_vrfCoordinator",
          "type": "address"
        },
        {
          "internalType": "bytes32",
          "name": "_keyHash",
          "type": "bytes32"
        }
      ],
      "stateMutability": "nonpayable",
      "type": "constructor"
    },
    {
      "anonymous": false,
      "inputs": [
        {
          "indexed": true,
          "internalType": "address",
          "name": "owner",
          "type": "address"
        },
        {
          "indexed": true,
          "internalType": "address",
          "name": "approved",
          "type": "address"
        },
        {
          "indexed": true,
          "internalType": "uint256",
          "name": "tokenId",
          "type": "uint256"
        }
      ],
      "name": "Approval",
      "type": "event"
    },
    {
      "anonymous": false,
      "inputs": [
        {
          "indexed": true,
          "internalType": "address",
          "name": "owner",
          "type": "address"
        },
        {
          "indexed": true,
          "internalType": "address",
          "name": "operator",
          "type": "address"
        },
        {
          "indexed": false,
          "internalType": "bool",
          "name": "approved",
          "type": "bool"
        }
      ],
      "name": "ApprovalForAll",
      "type": "event"
    },
    {
      "anonymous": false,
      "inputs": [
        {
          "indexed": true,
          "internalType": "address",
          "name": "previousOwner",
          "type": "address"
        },
        {
          "indexed": true,
          "internalType": "address",
          "name": "newOwner",
          "type": "address"
        }
      ],
      "name": "OwnershipTransferred",
      "type": "event"
    },
    {
      "anonymous": false,
      "inputs": [
        {
          "indexed": true,
          "internalType": "uint256",
          "name": "skillWalletId",
          "type": "uint256"
        },
        {
          "components": [
            {
              "components": [
                {
                  "internalType": "uint256",
                  "name": "displayStringId",
                  "type": "uint256"
                },
                {
                  "internalType": "uint256",
                  "name": "level",
                  "type": "uint256"
                }
              ],
              "internalType": "struct Types.Skill",
              "name": "skill1",
              "type": "tuple"
            },
            {
              "components": [
                {
                  "internalType": "uint256",
                  "name": "displayStringId",
                  "type": "uint256"
                },
                {
                  "internalType": "uint256",
                  "name": "level",
                  "type": "uint256"
                }
              ],
              "internalType": "struct Types.Skill",
              "name": "skill2",
              "type": "tuple"
            },
            {
              "components": [
                {
                  "internalType": "uint256",
                  "name": "displayStringId",
                  "type": "uint256"
                },
                {
                  "internalType": "uint256",
                  "name": "level",
                  "type": "uint256"
                }
              ],
              "internalType": "struct Types.Skill",
              "name": "skill3",
              "type": "tuple"
            }
          ],
          "indexed": false,
          "internalType": "struct Types.SkillSet",
          "name": "newSkillSet",
          "type": "tuple"
        }
      ],
      "name": "SkillSetUpdated",
      "type": "event"
    },
    {
      "anonymous": false,
      "inputs": [
        {
          "indexed": true,
          "internalType": "uint256",
          "name": "skillWalletId",
          "type": "uint256"
        }
      ],
      "name": "SkillWalletActivated",
      "type": "event"
    },
    {
      "anonymous": false,
      "inputs": [
        {
          "indexed": true,
          "internalType": "uint256",
          "name": "skillWalletId",
          "type": "uint256"
        },
        {
          "indexed": false,
          "internalType": "address",
          "name": "newCommunity",
          "type": "address"
        }
      ],
      "name": "SkillWalletCommunityChanged",
      "type": "event"
    },
    {
      "anonymous": false,
      "inputs": [
        {
          "indexed": true,
          "internalType": "address",
          "name": "skillWalletOwner",
          "type": "address"
        },
        {
          "indexed": true,
          "internalType": "address",
          "name": "community",
          "type": "address"
        },
        {
          "indexed": true,
          "internalType": "uint256",
          "name": "skillWalletId",
          "type": "uint256"
        },
        {
          "components": [
            {
              "components": [
                {
                  "internalType": "uint256",
                  "name": "displayStringId",
                  "type": "uint256"
                },
                {
                  "internalType": "uint256",
                  "name": "level",
                  "type": "uint256"
                }
              ],
              "internalType": "struct Types.Skill",
              "name": "skill1",
              "type": "tuple"
            },
            {
              "components": [
                {
                  "internalType": "uint256",
                  "name": "displayStringId",
                  "type": "uint256"
                },
                {
                  "internalType": "uint256",
                  "name": "level",
                  "type": "uint256"
                }
              ],
              "internalType": "struct Types.Skill",
              "name": "skill2",
              "type": "tuple"
            },
            {
              "components": [
                {
                  "internalType": "uint256",
                  "name": "displayStringId",
                  "type": "uint256"
                },
                {
                  "internalType": "uint256",
                  "name": "level",
                  "type": "uint256"
                }
              ],
              "internalType": "struct Types.Skill",
              "name": "skill3",
              "type": "tuple"
            }
          ],
          "indexed": false,
          "internalType": "struct Types.SkillSet",
          "name": "skillSet",
          "type": "tuple"
        },
        {
          "indexed": false,
          "internalType": "uint256",
          "name": "randomNumber",
          "type": "uint256"
        }
      ],
      "name": "SkillWalletCreated",
      "type": "event"
    },
    {
      "anonymous": false,
      "inputs": [
        {
          "indexed": true,
          "internalType": "address",
          "name": "from",
          "type": "address"
        },
        {
          "indexed": true,
          "internalType": "address",
          "name": "to",
          "type": "address"
        },
        {
          "indexed": true,
          "internalType": "uint256",
          "name": "tokenId",
          "type": "uint256"
        }
      ],
      "name": "Transfer",
      "type": "event"
    },
    {
      "inputs": [
        {
          "internalType": "uint256",
          "name": "skillWalletId",
          "type": "uint256"
        },
        {
          "internalType": "uint256",
          "name": "randomNumber",
          "type": "uint256"
        }
      ],
      "name": "activateSkillWallet",
      "outputs": [],
      "stateMutability": "nonpayable",
      "type": "function"
    },
    {
      "inputs": [
        {
          "internalType": "address",
          "name": "to",
          "type": "address"
        },
        {
          "internalType": "uint256",
          "name": "tokenId",
          "type": "uint256"
        }
      ],
      "name": "approve",
      "outputs": [],
      "stateMutability": "nonpayable",
      "type": "function"
    },
    {
      "inputs": [
        {
          "internalType": "address",
          "name": "owner",
          "type": "address"
        }
      ],
      "name": "balanceOf",
      "outputs": [
        {
          "internalType": "uint256",
          "name": "",
          "type": "uint256"
        }
      ],
      "stateMutability": "view",
      "type": "function"
    },
    {
      "inputs": [],
      "name": "baseURI",
      "outputs": [
        {
          "internalType": "string",
          "name": "",
          "type": "string"
        }
      ],
      "stateMutability": "view",
      "type": "function"
    },
    {
      "inputs": [],
      "name": "cancelRequest",
      "outputs": [],
      "stateMutability": "nonpayable",
      "type": "function"
    },
    {
      "inputs": [
        {
          "internalType": "uint256",
          "name": "skillWalletId",
          "type": "uint256"
        }
      ],
      "name": "changeCommunity",
      "outputs": [],
      "stateMutability": "nonpayable",
      "type": "function"
    },
    {
      "inputs": [
        {
          "internalType": "address",
          "name": "skillWalletOwner",
          "type": "address"
        },
        {
          "components": [
            {
              "components": [
                {
                  "internalType": "uint256",
                  "name": "displayStringId",
                  "type": "uint256"
                },
                {
                  "internalType": "uint256",
                  "name": "level",
                  "type": "uint256"
                }
              ],
              "internalType": "struct Types.Skill",
              "name": "skill1",
              "type": "tuple"
            },
            {
              "components": [
                {
                  "internalType": "uint256",
                  "name": "displayStringId",
                  "type": "uint256"
                },
                {
                  "internalType": "uint256",
                  "name": "level",
                  "type": "uint256"
                }
              ],
              "internalType": "struct Types.Skill",
              "name": "skill2",
              "type": "tuple"
            },
            {
              "components": [
                {
                  "internalType": "uint256",
                  "name": "displayStringId",
                  "type": "uint256"
                },
                {
                  "internalType": "uint256",
                  "name": "level",
                  "type": "uint256"
                }
              ],
              "internalType": "struct Types.Skill",
              "name": "skill3",
              "type": "tuple"
            }
          ],
          "internalType": "struct Types.SkillSet",
          "name": "skillSet",
          "type": "tuple"
        },
        {
          "internalType": "string",
          "name": "url",
          "type": "string"
        }
      ],
      "name": "create",
      "outputs": [],
      "stateMutability": "nonpayable",
      "type": "function"
    },
    {
      "inputs": [
        {
          "internalType": "uint256",
          "name": "skillWalletId",
          "type": "uint256"
        }
      ],
      "name": "getActiveCommunity",
      "outputs": [
        {
          "internalType": "address",
          "name": "community",
          "type": "address"
        }
      ],
      "stateMutability": "view",
      "type": "function"
    },
    {
      "inputs": [
        {
          "internalType": "uint256",
          "name": "tokenId",
          "type": "uint256"
        }
      ],
      "name": "getApproved",
      "outputs": [
        {
          "internalType": "address",
          "name": "",
          "type": "address"
        }
      ],
      "stateMutability": "view",
      "type": "function"
    },
    {
      "inputs": [
        {
          "internalType": "uint256",
          "name": "skillWalletId",
          "type": "uint256"
        }
      ],
      "name": "getCommunityHistory",
      "outputs": [
        {
          "internalType": "address[]",
          "name": "communities",
          "type": "address[]"
        }
      ],
      "stateMutability": "view",
      "type": "function"
    },
    {
      "inputs": [
        {
          "internalType": "uint256",
          "name": "skillWalletId",
          "type": "uint256"
        }
      ],
      "name": "getRandomNumber",
      "outputs": [
        {
          "internalType": "uint256",
          "name": "randomNumber",
          "type": "uint256"
        }
      ],
      "stateMutability": "view",
      "type": "function"
    },
    {
      "inputs": [
        {
          "internalType": "uint256",
          "name": "skillWalletId",
          "type": "uint256"
        }
      ],
      "name": "getSkillSet",
      "outputs": [
        {
          "components": [
            {
              "components": [
                {
                  "internalType": "uint256",
                  "name": "displayStringId",
                  "type": "uint256"
                },
                {
                  "internalType": "uint256",
                  "name": "level",
                  "type": "uint256"
                }
              ],
              "internalType": "struct Types.Skill",
              "name": "skill1",
              "type": "tuple"
            },
            {
              "components": [
                {
                  "internalType": "uint256",
                  "name": "displayStringId",
                  "type": "uint256"
                },
                {
                  "internalType": "uint256",
                  "name": "level",
                  "type": "uint256"
                }
              ],
              "internalType": "struct Types.Skill",
              "name": "skill2",
              "type": "tuple"
            },
            {
              "components": [
                {
                  "internalType": "uint256",
                  "name": "displayStringId",
                  "type": "uint256"
                },
                {
                  "internalType": "uint256",
                  "name": "level",
                  "type": "uint256"
                }
              ],
              "internalType": "struct Types.Skill",
              "name": "skill3",
              "type": "tuple"
            }
          ],
          "internalType": "struct Types.SkillSet",
          "name": "skillSet",
          "type": "tuple"
        }
      ],
      "stateMutability": "view",
      "type": "function"
    },
    {
      "inputs": [
        {
          "internalType": "address",
          "name": "skillWalletOwner",
          "type": "address"
        }
      ],
      "name": "getSkillWalletIdByOwner",
      "outputs": [
        {
          "internalType": "uint256",
          "name": "",
          "type": "uint256"
        }
      ],
      "stateMutability": "view",
      "type": "function"
    },
    {
      "inputs": [],
      "name": "getTotalSkillWalletsRegistered",
      "outputs": [
        {
          "internalType": "uint256",
          "name": "",
          "type": "uint256"
        }
      ],
      "stateMutability": "view",
      "type": "function"
    },
    {
      "inputs": [
        {
          "internalType": "address",
          "name": "owner",
          "type": "address"
        },
        {
          "internalType": "address",
          "name": "operator",
          "type": "address"
        }
      ],
      "name": "isApprovedForAll",
      "outputs": [
        {
          "internalType": "bool",
          "name": "",
          "type": "bool"
        }
      ],
      "stateMutability": "view",
      "type": "function"
    },
    {
      "inputs": [
        {
          "internalType": "uint256",
          "name": "skillWalletId",
          "type": "uint256"
        }
      ],
      "name": "isSkillWalletActivated",
      "outputs": [
        {
          "internalType": "bool",
          "name": "status",
          "type": "bool"
        }
      ],
      "stateMutability": "view",
      "type": "function"
    },
    {
      "inputs": [
        {
          "internalType": "address",
          "name": "skillWalletOwner",
          "type": "address"
        }
      ],
      "name": "isSkillWalletRegistered",
      "outputs": [
        {
          "internalType": "bool",
          "name": "status",
          "type": "bool"
        }
      ],
      "stateMutability": "view",
      "type": "function"
    },
    {
      "inputs": [],
      "name": "name",
      "outputs": [
        {
          "internalType": "string",
          "name": "",
          "type": "string"
        }
      ],
      "stateMutability": "view",
      "type": "function"
    },
    {
      "inputs": [],
      "name": "owner",
      "outputs": [
        {
          "internalType": "address",
          "name": "",
          "type": "address"
        }
      ],
      "stateMutability": "view",
      "type": "function"
    },
    {
      "inputs": [
        {
          "internalType": "uint256",
          "name": "tokenId",
          "type": "uint256"
        }
      ],
      "name": "ownerOf",
      "outputs": [
        {
          "internalType": "address",
          "name": "",
          "type": "address"
        }
      ],
      "stateMutability": "view",
      "type": "function"
    },
    {
      "inputs": [
        {
          "internalType": "bytes32",
          "name": "requestId",
          "type": "bytes32"
        },
        {
          "internalType": "uint256",
          "name": "randomness",
          "type": "uint256"
        }
      ],
      "name": "rawFulfillRandomness",
      "outputs": [],
      "stateMutability": "nonpayable",
      "type": "function"
    },
    {
      "inputs": [],
      "name": "renounceOwnership",
      "outputs": [],
      "stateMutability": "nonpayable",
      "type": "function"
    },
    {
      "inputs": [
        {
          "internalType": "address",
          "name": "from",
          "type": "address"
        },
        {
          "internalType": "address",
          "name": "to",
          "type": "address"
        },
        {
          "internalType": "uint256",
          "name": "tokenId",
          "type": "uint256"
        }
      ],
      "name": "safeTransferFrom",
      "outputs": [],
      "stateMutability": "nonpayable",
      "type": "function"
    },
    {
      "inputs": [
        {
          "internalType": "address",
          "name": "from",
          "type": "address"
        },
        {
          "internalType": "address",
          "name": "to",
          "type": "address"
        },
        {
          "internalType": "uint256",
          "name": "tokenId",
          "type": "uint256"
        },
        {
          "internalType": "bytes",
          "name": "_data",
          "type": "bytes"
        }
      ],
      "name": "safeTransferFrom",
      "outputs": [],
      "stateMutability": "nonpayable",
      "type": "function"
    },
    {
      "inputs": [
        {
          "internalType": "address",
          "name": "operator",
          "type": "address"
        },
        {
          "internalType": "bool",
          "name": "approved",
          "type": "bool"
        }
      ],
      "name": "setApprovalForAll",
      "outputs": [],
      "stateMutability": "nonpayable",
      "type": "function"
    },
    {
      "inputs": [
        {
          "internalType": "bytes4",
          "name": "interfaceId",
          "type": "bytes4"
        }
      ],
      "name": "supportsInterface",
      "outputs": [
        {
          "internalType": "bool",
          "name": "",
          "type": "bool"
        }
      ],
      "stateMutability": "view",
      "type": "function"
    },
    {
      "inputs": [],
      "name": "symbol",
      "outputs": [
        {
          "internalType": "string",
          "name": "",
          "type": "string"
        }
      ],
      "stateMutability": "view",
      "type": "function"
    },
    {
      "inputs": [
        {
          "internalType": "uint256",
          "name": "index",
          "type": "uint256"
        }
      ],
      "name": "tokenByIndex",
      "outputs": [
        {
          "internalType": "uint256",
          "name": "",
          "type": "uint256"
        }
      ],
      "stateMutability": "view",
      "type": "function"
    },
    {
      "inputs": [
        {
          "internalType": "address",
          "name": "owner",
          "type": "address"
        },
        {
          "internalType": "uint256",
          "name": "index",
          "type": "uint256"
        }
      ],
      "name": "tokenOfOwnerByIndex",
      "outputs": [
        {
          "internalType": "uint256",
          "name": "",
          "type": "uint256"
        }
      ],
      "stateMutability": "view",
      "type": "function"
    },
    {
      "inputs": [
        {
          "internalType": "uint256",
          "name": "tokenId",
          "type": "uint256"
        }
      ],
      "name": "tokenURI",
      "outputs": [
        {
          "internalType": "string",
          "name": "",
          "type": "string"
        }
      ],
      "stateMutability": "view",
      "type": "function"
    },
    {
      "inputs": [],
      "name": "totalSupply",
      "outputs": [
        {
          "internalType": "uint256",
          "name": "",
          "type": "uint256"
        }
      ],
      "stateMutability": "view",
      "type": "function"
    },
    {
      "inputs": [
        {
          "internalType": "address",
          "name": "from",
          "type": "address"
        },
        {
          "internalType": "address",
          "name": "to",
          "type": "address"
        },
        {
          "internalType": "uint256",
          "name": "tokenId",
          "type": "uint256"
        }
      ],
      "name": "transferFrom",
      "outputs": [],
      "stateMutability": "nonpayable",
      "type": "function"
    },
    {
      "inputs": [
        {
          "internalType": "address",
          "name": "newOwner",
          "type": "address"
        }
      ],
      "name": "transferOwnership",
      "outputs": [],
      "stateMutability": "nonpayable",
      "type": "function"
    },
    {
      "inputs": [
        {
          "internalType": "uint256",
          "name": "skillWalletId",
          "type": "uint256"
        },
        {
          "components": [
            {
              "components": [
                {
                  "internalType": "uint256",
                  "name": "displayStringId",
                  "type": "uint256"
                },
                {
                  "internalType": "uint256",
                  "name": "level",
                  "type": "uint256"
                }
              ],
              "internalType": "struct Types.Skill",
              "name": "skill1",
              "type": "tuple"
            },
            {
              "components": [
                {
                  "internalType": "uint256",
                  "name": "displayStringId",
                  "type": "uint256"
                },
                {
                  "internalType": "uint256",
                  "name": "level",
                  "type": "uint256"
                }
              ],
              "internalType": "struct Types.Skill",
              "name": "skill2",
              "type": "tuple"
            },
            {
              "components": [
                {
                  "internalType": "uint256",
                  "name": "displayStringId",
                  "type": "uint256"
                },
                {
                  "internalType": "uint256",
                  "name": "level",
                  "type": "uint256"
                }
              ],
              "internalType": "struct Types.Skill",
              "name": "skill3",
              "type": "tuple"
            }
          ],
          "internalType": "struct Types.SkillSet",
          "name": "newSkillSet",
          "type": "tuple"
        }
      ],
      "name": "updateSkillSet",
      "outputs": [],
      "stateMutability": "nonpayable",
      "type": "function"
    },
    {
      "inputs": [],
      "name": "withdrawLink",
      "outputs": [],
      "stateMutability": "nonpayable",
      "type": "function"
    }
  ],
  "bytecode": "0x60806040523480156200001157600080fd5b50604080518082018252600b81526a14dada5b1b15d85b1b195d60aa1b602080830191825283518085019094526002845261535760f01b9084015281519192916200005f91600091620000e2565b50805162000075906001906020840190620000e2565b50505060006200008a620000de60201b60201c565b600680546001600160a01b0319166001600160a01b038316908117909155604051919250906000907f8be0079c531659141344cd1fd0a4f28419497f9722a3daafe3b4186f6b6457e0908290a350620001c5565b3390565b828054620000f09062000188565b90600052602060002090601f0160209004810192826200011457600085556200015f565b82601f106200012f57805160ff19168380011785556200015f565b828001600101855582156200015f579182015b828111156200015f57825182559160200191906001019062000142565b506200016d92915062000171565b5090565b5b808211156200016d576000815560010162000172565b6002810460018216806200019d57607f821691505b60208210811415620001bf57634e487b7160e01b600052602260045260246000fd5b50919050565b61241880620001d56000396000f3fe608060405234801561001057600080fd5b50600436106101a95760003560e01c8063715018a6116100f9578063b50e77ff11610097578063c87b56dd11610071578063c87b56dd14610378578063e985e9c51461038b578063f2fde38b1461039e578063f3a4e1c0146103b1576101a9565b8063b50e77ff1461034a578063b88d4fde1461035d578063c71ae30214610370576101a9565b80638f4b3f59116100d35780638f4b3f5914610309578063937b53b61461031c57806395d89b411461032f578063a22cb46514610337576101a9565b8063715018a6146102e6578063739c1cba146102ee5780638da5cb5b14610301576101a9565b8063407ca1c711610166578063617fc19d11610140578063617fc19d1461029a5780636352211e146102ad57806365cbb7aa146102c057806370a08231146102d3576101a9565b8063407ca1c71461024757806342842e0e1461026757806342ca96291461027a576101a9565b806301ffc9a7146101ae57806306fdde03146101d7578063081812fc146101ec578063095ea7b31461020c5780630a73b69d1461022157806323b872dd14610234575b600080fd5b6101c16101bc366004611a36565b6103d1565b6040516101ce9190611bbe565b60405180910390f35b6101df610419565b6040516101ce9190611bc9565b6101ff6101fa366004611a6e565b6104ab565b6040516101ce9190611b20565b61021f61021a366004611a0d565b6104f7565b005b61021f61022f36600461199c565b61058f565b61021f6102423660046118ae565b610735565b61025a610255366004611a6e565b61076d565b6040516101ce9190611b71565b61021f6102753660046118ae565b61082c565b61028d610288366004611862565b610847565b6040516101ce91906122a5565b61021f6102a8366004611a6e565b61088d565b6101ff6102bb366004611a6e565b61099a565b6101ff6102ce366004611a6e565b6109cf565b61028d6102e1366004611862565b610a49565b61021f610a8d565b6101c16102fc366004611862565b610b16565b6101ff610b50565b6101c1610317366004611a6e565b610b5f565b61021f61032a366004611a86565b610bd3565b6101df610cd1565b61021f610345366004611962565b610ce0565b61021f610358366004611a6e565b610dae565b61021f61036b3660046118e9565b610e59565b61028d610e98565b6101df610386366004611a6e565b610ea9565b6101c161039936600461187c565b610f2c565b61021f6103ac366004611862565b610f5a565b6103c46103bf366004611a6e565b61101b565b6040516101ce9190612266565b60006001600160e01b031982166380ac58cd60e01b148061040257506001600160e01b03198216635b5e139f60e01b145b80610411575061041182611109565b90505b919050565b6060600080546104289061231d565b80601f01602080910402602001604051908101604052809291908181526020018280546104549061231d565b80156104a15780601f10610476576101008083540402835291602001916104a1565b820191906000526020600020905b81548152906001019060200180831161048457829003601f168201915b5050505050905090565b60006104b682611122565b6104db5760405162461bcd60e51b81526004016104d290611fc5565b60405180910390fd5b506000908152600460205260409020546001600160a01b031690565b60006105028261099a565b9050806001600160a01b0316836001600160a01b031614156105365760405162461bcd60e51b81526004016104d290612095565b806001600160a01b031661054861113f565b6001600160a01b0316148061056457506105648161039961113f565b6105805760405162461bcd60e51b81526004016104d290611e58565b61058a8383611143565b505050565b61059883610a49565b156105b55760405162461bcd60e51b81526004016104d290611bdc565b60006105c1600d6111b1565b90506105cd84826111b5565b60008181526007602090815260408083208054336001600160a01b03199182168117909255600884528285208054600181810183559187528587200180549092169092179055848452600983528184208751805182549186015167ffffffffffffffff1992831667ffffffffffffffff9283161760ff60401b19908116600160401b60ff93841681029190911786558c89015180519787018054918b01519187169886169890981783169084168202179096558b870151805160029096018054918a01519190951695909316949094179093169216909202179055600c825290912083516106bd92850190611616565b506001600160a01b0384166000908152600a602052604090208190556106e3600d6111c3565b80336001600160a01b0316856001600160a01b03167f66d78e575b2517d4e354b4b0512628805cdb33e81571b3deff51b5c796577486866040516107279190612266565b60405180910390a450505050565b61074661074061113f565b826111cc565b6107625760405162461bcd60e51b81526004016104d29061216e565b61058a838383611251565b6060610779600d6111b1565b82106107975760405162461bcd60e51b81526004016104d290611f48565b6000828152600860205260409020546107c25760405162461bcd60e51b81526004016104d290612209565b6000828152600860209081526040918290208054835181840281018401909452808452909183018282801561082057602002820191906000526020600020905b81546001600160a01b03168152600190910190602001808311610802575b50505050509050919050565b61058a83838360405180602001604052806000815250610e59565b600061085282610a49565b6001146108715760405162461bcd60e51b81526004016104d290611d87565b506001600160a01b03166000908152600a602052604090205490565b61089561113f565b6001600160a01b03166108a6610b50565b6001600160a01b0316146108cc5760405162461bcd60e51b81526004016104d290612011565b6108d6600d6111b1565b81106108f45760405162461bcd60e51b81526004016104d290611f48565b6000818152600760205260409020546001600160a01b03166109285760405162461bcd60e51b81526004016104d290611d17565b6000818152600b602052604090205460ff16156109575760405162461bcd60e51b81526004016104d290612123565b6000818152600b6020526040808220805460ff191660011790555182917f3b9fa7eba99fc1e57dd4fc92ee03c32e0766a7c33c9f6222a3e3d72788fe4ff691a250565b6000818152600260205260408120546001600160a01b0316806104115760405162461bcd60e51b81526004016104d290611eff565b60006109db600d6111b1565b82106109f95760405162461bcd60e51b81526004016104d290611f48565b6000828152600760205260409020546001600160a01b0316610a2d5760405162461bcd60e51b81526004016104d290611d17565b506000908152600760205260409020546001600160a01b031690565b60006001600160a01b038216610a715760405162461bcd60e51b81526004016104d290611eb5565b506001600160a01b031660009081526003602052604090205490565b610a9561113f565b6001600160a01b0316610aa6610b50565b6001600160a01b031614610acc5760405162461bcd60e51b81526004016104d290612011565b6006546040516000916001600160a01b0316907f8be0079c531659141344cd1fd0a4f28419497f9722a3daafe3b4186f6b6457e0908390a3600680546001600160a01b0319169055565b60006001600160a01b038216610b3e5760405162461bcd60e51b81526004016104d2906120d6565b610b4782610a49565b60011492915050565b6006546001600160a01b031690565b6000610b6b600d6111b1565b8210610b895760405162461bcd60e51b81526004016104d290611f48565b6000828152600760205260409020546001600160a01b0316610bbd5760405162461bcd60e51b81526004016104d290611d17565b506000908152600b602052604090205460ff1690565b610bdd600d6111b1565b8210610bfb5760405162461bcd60e51b81526004016104d290611f48565b6000828152600960209081526040918290208351805182549184015160ff908116600160401b90810260ff60401b1967ffffffffffffffff94851667ffffffffffffffff19968716178116919091178655868901518051600188018054928a01518616850291871692881692909217831617905587890151805160029097018054919098015190931690910294909216921691909117161790555182907f6abce99645fd09e69c8d2e751e864666123a5a52cb47f74f31a224f9a253ce0c90610cc5908490612266565b60405180910390a25050565b6060600180546104289061231d565b610ce861113f565b6001600160a01b0316826001600160a01b03161415610d195760405162461bcd60e51b81526004016104d290611dd5565b8060056000610d2661113f565b6001600160a01b03908116825260208083019390935260409182016000908120918716808252919093529120805460ff191692151592909217909155610d6a61113f565b6001600160a01b03167f17307eab39ab6107e8899845ad3d59bd9653f200f220920489ca2b5937696c3183604051610da29190611bbe565b60405180910390a35050565b610db8600d6111b1565b8110610dd65760405162461bcd60e51b81526004016104d290611f48565b60008181526007602090815260408083208054336001600160a01b031991821681179092556008845282852080546001810182559086529390942090920180549093168217909255905182917f40e6ddae3d2fcfa2a7f756d08e3eaff271dc6f378630bac80f5ff5b3da18975c91610e4e9190611b20565b60405180910390a250565b610e6a610e6461113f565b836111cc565b610e865760405162461bcd60e51b81526004016104d29061216e565b610e9284848484611269565b50505050565b6000610ea4600d6111b1565b905090565b6060610eb482611122565b610ed05760405162461bcd60e51b81526004016104d290612046565b6000610eda61129c565b90506000815111610efa5760405180602001604052806000815250610f25565b80610f04846112ae565b604051602001610f15929190611af1565b6040516020818303038152906040525b9392505050565b6001600160a01b03918216600090815260056020908152604080832093909416825291909152205460ff1690565b610f6261113f565b6001600160a01b0316610f73610b50565b6001600160a01b031614610f995760405162461bcd60e51b81526004016104d290612011565b6001600160a01b038116610fbf5760405162461bcd60e51b81526004016104d290611c9a565b6006546040516001600160a01b038084169216907f8be0079c531659141344cd1fd0a4f28419497f9722a3daafe3b4186f6b6457e090600090a3600680546001600160a01b0319166001600160a01b0392909216919091179055565b61102361169a565b61102d600d6111b1565b821061104b5760405162461bcd60e51b81526004016104d290611f48565b6000828152600760205260409020546001600160a01b031661107f5760405162461bcd60e51b81526004016104d290611d17565b50600090815260096020908152604091829020825160a081018452815467ffffffffffffffff8082166060840190815260ff600160401b938490048116608086015290845286518088018852600186015480841682528490048216818801528487015286518088018852600290950154918216855291900416928201929092529181019190915290565b6001600160e01b031981166301ffc9a760e01b14919050565b6000908152600260205260409020546001600160a01b0316151590565b3390565b600081815260046020526040902080546001600160a01b0319166001600160a01b03841690811790915581906111788261099a565b6001600160a01b03167f8c5be1e5ebec7d5bd14f71427d1e84f3dd0314c0f7b2291e5b200ac8c7c3b92560405160405180910390a45050565b5490565b6111bf82826113c9565b5050565b80546001019055565b60006111d782611122565b6111f35760405162461bcd60e51b81526004016104d290611e0c565b60006111fe8361099a565b9050806001600160a01b0316846001600160a01b031614806112395750836001600160a01b031661122e846104ab565b6001600160a01b0316145b8061124957506112498185610f2c565b949350505050565b60405162461bcd60e51b81526004016104d2906121bf565b611274848484611251565b611280848484846113e3565b610e925760405162461bcd60e51b81526004016104d290611c48565b60408051602081019091526000815290565b6060816112d357506040805180820190915260018152600360fc1b6020820152610414565b8160005b81156112fd57806112e781612358565b91506112f69050600a836122c6565b91506112d7565b60008167ffffffffffffffff81111561132657634e487b7160e01b600052604160045260246000fd5b6040519080825280601f01601f191660200182016040528015611350576020820181803683370190505b5090505b8415611249576113656001836122da565b9150611372600a86612373565b61137d9060306122ae565b60f81b8183815181106113a057634e487b7160e01b600052603260045260246000fd5b60200101906001600160f81b031916908160001a9053506113c2600a866122c6565b9450611354565b6111bf8282604051806020016040528060008152506114fe565b60006113f7846001600160a01b0316611531565b156114f357836001600160a01b031663150b7a0261141361113f565b8786866040518563ffffffff1660e01b81526004016114359493929190611b34565b602060405180830381600087803b15801561144f57600080fd5b505af192505050801561147f575060408051601f3d908101601f1916820190925261147c91810190611a52565b60015b6114d9573d8080156114ad576040519150601f19603f3d011682016040523d82523d6000602084013e6114b2565b606091505b5080516114d15760405162461bcd60e51b81526004016104d290611c48565b805181602001fd5b6001600160e01b031916630a85bd0160e11b149050611249565b506001949350505050565b6115088383611537565b61151560008484846113e3565b61058a5760405162461bcd60e51b81526004016104d290611c48565b3b151590565b6001600160a01b03821661155d5760405162461bcd60e51b81526004016104d290611f90565b61156681611122565b156115835760405162461bcd60e51b81526004016104d290611ce0565b61158f6000838361058a565b6001600160a01b03821660009081526003602052604081208054600192906115b89084906122ae565b909155505060008181526002602052604080822080546001600160a01b0319166001600160a01b03861690811790915590518392907fddf252ad1be2c89b69c2b068fc378daa952ba7f163c4a11628f55a4df523b3ef908290a45050565b8280546116229061231d565b90600052602060002090601f016020900481019282611644576000855561168a565b82601f1061165d57805160ff191683800117855561168a565b8280016001018555821561168a579182015b8281111561168a57825182559160200191906001019061166f565b506116969291506116cc565b5090565b60405180606001604052806116ad6116e1565b81526020016116ba6116e1565b81526020016116c76116e1565b905290565b5b8082111561169657600081556001016116cd565b604080518082019091526000808252602082015290565b600067ffffffffffffffff80841115611713576117136123b3565b604051601f8501601f191681016020018281118282101715611737576117376123b3565b60405284815291508183850186101561174f57600080fd5b8484602083013760006020868301015250509392505050565b80356001600160a01b038116811461041457600080fd5b600060c08284031215611790578081fd5b6040516060810181811067ffffffffffffffff821117156117b3576117b36123b3565b6040529050806117c384846117f0565b81526117d284604085016117f0565b60208201526117e484608085016117f0565b60408201525092915050565b600060408284031215611801578081fd5b6040516040810167ffffffffffffffff8282108183111715611825576118256123b3565b8160405282935084359150808216821461183e57600080fd5b508152602083013560ff8116811461185557600080fd5b6020919091015292915050565b600060208284031215611873578081fd5b610f2582611768565b6000806040838503121561188e578081fd5b61189783611768565b91506118a560208401611768565b90509250929050565b6000806000606084860312156118c2578081fd5b6118cb84611768565b92506118d960208501611768565b9150604084013590509250925092565b600080600080608085870312156118fe578081fd5b61190785611768565b935061191560208601611768565b925060408501359150606085013567ffffffffffffffff811115611937578182fd5b8501601f81018713611947578182fd5b611956878235602084016116f8565b91505092959194509250565b60008060408385031215611974578182fd5b61197d83611768565b915060208301358015158114611991578182fd5b809150509250929050565b600080600061010084860312156119b1578283fd5b6119ba84611768565b92506119c9856020860161177f565b915060e084013567ffffffffffffffff8111156119e4578182fd5b8401601f810186136119f4578182fd5b611a03868235602084016116f8565b9150509250925092565b60008060408385031215611a1f578182fd5b611a2883611768565b946020939093013593505050565b600060208284031215611a47578081fd5b8135610f25816123c9565b600060208284031215611a63578081fd5b8151610f25816123c9565b600060208284031215611a7f578081fd5b5035919050565b60008060e08385031215611a98578182fd5b823591506118a5846020850161177f565b60008151808452611ac18160208601602086016122f1565b601f01601f19169290920160200192915050565b805167ffffffffffffffff16825260209081015160ff16910152565b60008351611b038184602088016122f1565b835190830190611b178183602088016122f1565b01949350505050565b6001600160a01b0391909116815260200190565b6001600160a01b0385811682528416602082015260408101839052608060608201819052600090611b6790830184611aa9565b9695505050505050565b6020808252825182820181905260009190848201906040850190845b81811015611bb25783516001600160a01b031683529284019291840191600101611b8d565b50909695505050505050565b901515815260200190565b600060208252610f256020830184611aa9565b60208082526046908201527f536b696c6c57616c6c65743a20546865726520697320536b696c6c57616c6c6560408201527f7420616c7265616479207265676973746572656420666f722074686973206164606082015265323932b9b99760d11b608082015260a00190565b60208082526032908201527f4552433732313a207472616e7366657220746f206e6f6e20455243373231526560408201527131b2b4bb32b91034b6b83632b6b2b73a32b960711b606082015260800190565b60208082526026908201527f4f776e61626c653a206e6577206f776e657220697320746865207a65726f206160408201526564647265737360d01b606082015260800190565b6020808252601c908201527f4552433732313a20746f6b656e20616c7265616479206d696e74656400000000604082015260600190565b6020808252604a908201527f536b696c6c57616c6c65743a2054686520536b696c6c57616c6c65742069732060408201527f6e6f7420696e20616e7920636f6d6d756e6974792c20696e76616c696420536b60608201526934b6362bb0b63632ba1760b11b608082015260a00190565b6020808252602e908201527f536b696c6c57616c6c65743a2054686520536b696c6c57616c6c6574206f776e60408201526d32b91034b99034b73b30b634b21760911b606082015260800190565b60208082526019908201527f4552433732313a20617070726f766520746f2063616c6c657200000000000000604082015260600190565b6020808252602c908201527f4552433732313a206f70657261746f7220717565727920666f72206e6f6e657860408201526b34b9ba32b73a103a37b5b2b760a11b606082015260800190565b60208082526038908201527f4552433732313a20617070726f76652063616c6c6572206973206e6f74206f7760408201527f6e6572206e6f7220617070726f76656420666f7220616c6c0000000000000000606082015260800190565b6020808252602a908201527f4552433732313a2062616c616e636520717565727920666f7220746865207a65604082015269726f206164647265737360b01b606082015260800190565b60208082526029908201527f4552433732313a206f776e657220717565727920666f72206e6f6e657869737460408201526832b73a103a37b5b2b760b91b606082015260800190565b60208082526028908201527f536b696c6c57616c6c65743a20736b696c6c57616c6c65744964206f7574206f60408201526733103930b733b29760c11b606082015260800190565b6020808252818101527f4552433732313a206d696e7420746f20746865207a65726f2061646472657373604082015260600190565b6020808252602c908201527f4552433732313a20617070726f76656420717565727920666f72206e6f6e657860408201526b34b9ba32b73a103a37b5b2b760a11b606082015260800190565b6020808252818101527f4f776e61626c653a2063616c6c6572206973206e6f7420746865206f776e6572604082015260600190565b6020808252602f908201527f4552433732314d657461646174613a2055524920717565727920666f72206e6f60408201526e3732bc34b9ba32b73a103a37b5b2b760891b606082015260800190565b60208082526021908201527f4552433732313a20617070726f76616c20746f2063757272656e74206f776e656040820152603960f91b606082015260800190565b6020808252602d908201527f536b696c6c57616c6c65743a20496e76616c696420736b696c6c57616c6c657460408201526c4f776e6572206164647265737360981b606082015260800190565b6020808252602b908201527f536b696c6c57616c6c65743a20536b696c6c2077616c6c657420616c7265616460408201526a1e481858dd1a5d985d195960aa1b606082015260800190565b60208082526031908201527f4552433732313a207472616e736665722063616c6c6572206973206e6f74206f6040820152701ddb995c881b9bdc88185c1c1c9bdd9959607a1b606082015260800190565b6020808252602a908201527f536b696c6c57616c6c65743a20536b696c6c57616c6c6574207472616e7366656040820152691c88191a5cd8589b195960b21b606082015260800190565b6020808252603a908201527f536b696c6c57616c6c65743a2054686520536b696c6c57616c6c65742069732060408201527f6e6f742070617274206f6620616e7920636f6d6d756e6974792e000000000000606082015260800190565b600060c082019050612279828451611ad5565b602083015161228b6040840182611ad5565b50604083015161229e6080840182611ad5565b5092915050565b90815260200190565b600082198211156122c1576122c1612387565b500190565b6000826122d5576122d561239d565b500490565b6000828210156122ec576122ec612387565b500390565b60005b8381101561230c5781810151838201526020016122f4565b83811115610e925750506000910152565b60028104600182168061233157607f821691505b6020821081141561235257634e487b7160e01b600052602260045260246000fd5b50919050565b600060001982141561236c5761236c612387565b5060010190565b6000826123825761238261239d565b500690565b634e487b7160e01b600052601160045260246000fd5b634e487b7160e01b600052601260045260246000fd5b634e487b7160e01b600052604160045260246000fd5b6001600160e01b0319811681146123df57600080fd5b5056fea2646970667358221220efbe1f9d437153bfa178de620ae4717b134b01eab2dd198a41533f3d5e14999264736f6c63430008000033",
  "linkReferences": {},
  "deployedLinkReferences": {}
}